:100000007CC6000097C6000095C600000C94232F04
:1000100091C600008FC600008DC600008BC6000090
:1000200089C6000087C600000C94CD180C9489186E
:100030000C94DA247FC600007DC600007BC6000059
:1000400079C6000077C6000075C6000073C60000C0
:1000500071C600000C94B5196DC600006BC6000097
:1000600069C6000067C6000065C6000063C60000E0
:1000700061C600005FC600005DC600005BC60000F0
:1000800059C6000057C6000055C6000053C6000000
:1000900051C600004FC600004DC600004BC6000010
:1000A00049C6000047C6000045C60000050109809A
:1000B000A101850319012AB700150126B700950192
:1000C00075108100C0050C0901A101850419012AE0
:1000D000A002150126A002950175108100C00660DE
:1000E000FF0961A1010962150026FF00952075082E
:1000F00081020963150026FF00952075089102C052
:1001000005010906A101050719E029E715002501E8
:10011000950875018102950175088101050719008F
:1001200029FF150026FF00950675088100050819AE
:1001300001290515002501950575019102950175A7
:10014000039101C000DA0281FFD9F1DB20A4A62EC1
:10015000AF00A0C0D30000A1C8D30000AED580A8D6
:100160001F408D1420002077706D0A002020004170
:10017000646A75737400526169736520004C6F770F
:1001800065722000515745525459006C617965726F
:10019000200043415053204C4F434B3A204F46469A
:1001A0000043415053204C4F434B3A204F4E002DBB
:1001B0002D004F4E002D2D2020004F4E20200043BB
:1001C0004D443A20002D2D004F4E00414C543A2012
:1001D000002D2D2020004F4E2020004354524C3A39
:1001E00020005346543A2000FD377A585A00000444
:1001F000E6D6B4460200210116000000742FE5A3E4
:10020000E005C7015C5D003D8889C65436C3174FC1
:10021000E4E20F535D9075DB08C965CE09CBAEF201
:10022000FFD16E9644531750A9573CF31C36AD7658
:100230008D7A7A850BC9433E38EE515A3E9C7DCE6D
:10024000B4C813B9F1CF8867CEB8A9BF34EAE3497F
:100250009914A741D5576A229C4F0765976DEDE623
:100260005205C276003360F788AF8348607DF4FDA5
:1002700032CB5CB4A3130FA779664A7A762F3B3052
:10028000DDCAA3AAFD617C0E3B1587C37683075D9B
:100290003BDD124776E5A83D1F79BCA9EAD20028CC
:1002A0001FB159F012878D588EB0E9D5FFF4E903DC
:1002B000A04E8AAB492B16A40CD6DB26072A605425
:1002C0002BABFF81864810D3DE5CC6B9BB689DF8B6
:1002D000152AF17BB847E73BB48E1DC999D80C802D
:1002E0000D5362FBA3A7CA47DAC48DA5D400E4E08E
:1002F000B68391325BFE7CB952F711374FBEFCB327
:10030000E328B73538102A1B49CA110AF865AD63CE
:10031000E9DB025F78A396C6F1162682AA735DAB6D
:1003200026F1710555F4D70A2670CB8BE97F103181
:10033000D1D48C8FFE74B9BAE044C24CBC510C2DA0
:1003400033D5C383EC4DC6E7B18A91DCFD2D84C75C
:100350009284B72A1FE6A8020BE48425F3DCA34CA1
:10036000FFF38400D549FD2D4E472EFA0001F80217
:10037000C80B0000C135F8FFB1C467FB02000000E4
:100380000004595A00AF00AE29001E001F002000D3
:10039000210022002B0014001A000800150017008D
:1003A000E00004001600070009000A00E1001D003B
:1003B0001B0006001900050000002152E300E200C6
:1003C0002C002F00350027002600250024002300E4
:1003D0002D00130012000C0018001C003400330024
:1003E0000F000E000D000B00E5003800370036004E
:1003F0001000110000002252E7002A0028003000FF
:1004000001000100010001000100010001001E02C5
:100410001F0220022102220201001E001F002000F4
:100420002100220001000100010001000100010083
:1004300000000100010001000100010001000100B5
:10044000010001000100010001002702260225022F
:100450002402230201002700260025002400230097
:10046000010030022F022E0235003102000001008F
:100470000100010001000100010001000100010074
:10048000010001003A003B003C003D003E003F00FF
:100490000100010001000100010001000100010054
:1004A0000100010001000100000001000100010045
:1004B0000100010001000100010001000100010034
:1004C00045004400430042004100400000004F004E
:1004D00052005100500000000100310030002F0098
:1004E0002E002E02000001000100010001000100A9
:1004F00000000000000000000000000000000000FC
:1005000000000000000000000000000000000000EB
:1005100000000000000000000000000000000000DB
:1005200000000100010001000100000000000000C7
:1005300000000000000000000000000000000000BB
:1005400000000000000000000000000000000000AB
:10055000000000000000000000000000000001009A
:100560000100010001000000000000000000000088
:10057000000000000000000000000000000000007B
:10058000000000000000000000000000000000006B
:100590000000000000000000000001000100010058
:1005A000010000000000000000000000000000004A
:1005B000000000000000000000000000000000003B
:1005C000000000000000000000000000000000002B
:1005D0000000000000000100010001000100000017
:1005E000000000000000000000000000000000000B
:1005F00000000000000000000000000000000000FB
:1006000000000000000000000000000000000000EA
:1006100000000100010001000100000000000000D6
:1006200000000000000000000000000000000000CA
:1006300000000000000000000000000000000000BA
:1006400000000000000000000000000000000100A9
:10065000010001000100000009025B00030100A08D
:10066000FA09040000010301010009211101000140
:100670002244000705810308000109040100020368
:100680000000000921110100012222000705820358
:1006900020000107050303200001090402000103F3
:1006A0000000000921110100012232000705840326
:1006B0002000011201000200000008D8042DEB0008
:1006C00001010203011C037600690061006C003A1D
:1006D00000660036003400630032006200330063BD
:1006E0000000000E034C0069006C007900350038F2
:1006F00000000010036C0069006C00690075006D5B
:100700000073000000040309040000000000000062
:1007100000000000000000000000000000000000D9
:10072000000000000000000000000000007E0F003C
:10073000D4FFFFFFC70000007800000000000000A9
:10074000002A2B280000000000000000000000002C
:100750000000000029000000002C1E34202122246B
:10076000342627252E362D3738271E1F20212223F9
:100770002425263333362E37381F0405060708098B
:100780000A0B0C0D0E0F1011121314151617181951
:100790001A1B1C1D2F3130232D35040506070809AF
:1007A0000A0B0C0D0E0F1011121314151617181931
:1007B0001A1B1C1D2F3130354C0000000000003E7C
:1007C0005B4F5B3E003E6B4F6B3E001C3E7C3E1C15
:1007D00000183C7E3C18001C577D571C001C5E7F97
:1007E0005E1C0000183C180000FFE7C3E7FF000094
:1007F0001824180000FFE7DBE7FF0030483A060E38
:1008000000262979292600407F05050700407F053D
:10081000253F005A3CE73C5A007F3E1C1C0800085C
:100820001C1C3E7F0014227F2214005F5F005F5F6C
:100830000006097F017F00006689956A006060609C
:1008400060600094A2FFA2940008047E04080010D7
:10085000207E20100008082A1C0800081C2A08080E
:10086000001E10101010000C1E0C1E0C0030383E24
:10087000383000060E3E0E060000000000000000AA
:10088000005F000000000700070000147F147F14C1
:1008900000242A7F2A120023130864620036495676
:1008A000205000000807030000001C224100000047
:1008B00041221C00002A1C7F1C2A0008083E080850
:1008C0000000807030000008080808080000006080
:1008D0006000002010080402003E5149453E00001F
:1008E000427F4000007249494946002141494D3349
:1008F000001814127F10002745454539003C4A492D
:10090000493100412111090700364949493600465D
:100910004949291E00000014000000004034000076
:100920000000081422410014141414140000412281
:100930001408000201590906003E415D594E007C31
:100940001211127C007F49494936003E4141412243
:10095000007F4141413E007F49494941007F0909EB
:100960000901003E41415173007F0808087F0000E3
:10097000417F4100002040413F01007F0814224197
:10098000007F40404040007F021C027F007F04083F
:10099000107F003E4141413E007F09090906003EAB
:1009A0004151215E007F09192946002649494932F3
:1009B0000003017F0103003F4040403F001F2040F3
:1009C000201F003F4038403F0063140814630003B9
:1009D00004780403006159494D4300007F414141BF
:1009E00000020408102000004141417F0004020180
:1009F000020400404040404000000307080000207F
:100A000054547840007F28444438003844444428F3
:100A100000384444287F0038545454180000087E9D
:100A20000902001824241C78007F080404780000C0
:100A3000447D4000002040403D00007F10284400DD
:100A40000000417F4000007C04780478007C0804AA
:100A50000478003844444438007C182424180018D2
:100A60002424187C007C08040408004854545424AE
:100A70000004043F4424003C4040207C001C2040F3
:100A8000201C003C4030403C004428102844004CCE
:100A90009090907C004464544C440000083641001F
:100AA000000000770000000041360800000201024B
:100AB0000402003C2623263C000000000000808049
:100AC0008080000000000080E070180C1830E0808A
:100AD000000010F8901030783010B8FC381000008A
:100AE00000000000F8FCF80000000000000000001A
:100AF000000000001C9C1C00000000F8FCF8000036
:100B0000000000001CFCF8C000000000000080E0B5
:100B1000F87C1C000000F0FCFCFC1C1C1C1C1C1CB9
:100B20001C1C000000000000C0F0F8381C1C1C1C3D
:100B30001C1C3CF8F0E000E0F0F0F0E0ECEEF7F325
:100B40007020007C7C7C7E007E7E7E7F7F7F00002C
:100B500080C0E07E5B4F5BFEC00000C000DCD7DEE3
:100B6000DEDED7DC00C00000000000000000000056
:100B700000000000000000000000000000000FBCAA
:100B8000E0818181838382870C183060C000001F60
:100B9000FE90B9FFBB91983C1811133F1100000063
:100BA00000000000FFFFFF00000000000000000048
:100BB00000000000FFFFFF00000000FFFFFF00003B
:100BC000000000000000030F7FF8E080F0FC3F0F02
:100BD0000100000000003F3F3F1C1C1C1C1C3C7817
:100BE000F8F0E08000000000C3E7FF7E3C38787832
:100BF0007070F8FFDF87000F1F3F7F7F7F7F7F3F91
:100C00001E0C001F1F1F3F003F3F3F7F7F7F0030B4
:100C10007B7F7830202030787F3B0003000F7F0FF0
:100C20000F0F7F0F00030000000000000000000015
:100C3000000000000000000000183C24666341C171
:100C40008180808080808081C14162386C4CC68107
:100C500081808080808081C14362361C1800000042
:100C600000000000FFFFFFC0C0C0C0C0C0C0C0C0C7
:100C7000800000007FFF7F000000007FFFFFC0803A
:100C8000000000E0E0C0C0C0E0F97F1F07000000E6
:100C900000000000000070F0E0E0C0C0C0C0E0F064
:100CA000F87F3F0F0000000F3F7FF9E0E0C0C0C0B9
:100CB000C0C0E0F97F3F1F000000000000000000FE
:100CC0000000000000000000000000000000000024
:100CD0000000000000000000000000000000000014
:100CE0000000000000000000000000000000000004
:100CF0000000000000000000000011241FBECFEF24
:100D0000DAE0DEBFCDBF11E0A0E0B1E0E2EBF7E654
:100D100002C005900D92AE3AB107D9F725E0AEEAD0
:100D2000B1E001C01D92A138B207E1F70E940B2586
:100D30000C94AC3365C9982FE091750340913C0346
:100D400057E0E41302C080E008952E2F30E05E9F4C
:100D5000F0011124E35CFC4F8181681306C080819F
:100D6000981303C085818111EFCFF9013196E770A7
:100D7000E8CFFC01AC014B5F5F4F8FEF91E3219116
:100D8000822728E030E087FF09C0880F892721509B
:100D90003109C9F7E417F50791F70895880FF7CFE0
:100DA000E0913A03F0913B03309739F00284F385E8
:100DB000E02D309711F060E209950895E8EDF0E03C
:100DC00080818E7F80831092E2001092DA00109270
:100DD000E100A0EEB0E08C9181608C9380818F77F0
:100DE000808319BCA7EDB0E08C918E7F8C938081BD
:100DF0008F7E80831092240308952091E400309127
:100E0000E50095E6A9012091EC00822F817020FF7A
:100E100006C08091E80080FF06C080E00895209120
:100E2000E80022FD1AC080913003882389F08530C4
:100E300089F08091EB0085FD0FC02091E400309196
:100E4000E50042175307F9F29150E1F684E0089566
:100E500082E0089583E0089581E00895809132034F
:100E600087FF13C08091E80082FF06C08091E800F0
:100E70008B778093E80004C0809130038111F2CF1A
:100E80000895809130038823D9F38091E80080FF92
:100E9000F8CF8091E8008E77ECCF982F9093E900FF
:100EA000242F762F50E0891731F07091EC002091BB
:100EB000ED005091F00021FD07C09F5F973071F762
:100EC0008093E90081E008953091EB003E7F3093FC
:100ED000EB003091ED003D7F3093ED003091EB0061
:100EE00031603093EB007093EC002093ED00509351
:100EF000F0002091EE0027FDE0CF80E00895B0E003
:100F0000A0E0E5E8F7E00C945230C8EDD0E088812D
:100F10008F7E8883E7EDF0E080818160808384E0CC
:100F200082BF81E08093240388818E7F888302EED4
:100F300010E0F80110821092DA0081EEC82ED12C58
:100F4000F601108288818F77888388818068888302
:100F500088818F7D888319BC1092300310923103F1
:100F600010922F0310922E0390EEE92EF12CF70130
:100F700080818B7F808388818160888342E060E00C
:100F800080E08BDFF60180818E7F8083F801808195
:100F900081608083808188608083F70180818E7F7B
:100FA0008083888180618883CDB7DEB7E8E00C94C8
:100FB0006E30FC01CB0120913803309139032617A4
:100FC000370790F0009729F42091E8002E772093BE
:100FD000E80040E0009751F4411108C08091E8001A
:100FE00082FF31C080E00895C901F3CF2091300322
:100FF0002223A9F12530A9F12091E80023FD2DC07D
:101000002091E80022FDEACF2091E80020FFE2CF06
:101010003091F3002091F200009719F0283031054B
:1010200058F041E02830310509F040E02091E80017
:101030002E772093E800CECF41914093F1000197A5
:101040002F5F3F4FE9CF80913003882341F08530F7
:1010500041F08091E80083FFC1CF81E0089582E0F4
:10106000089583E008950895089587E797E790939A
:1010700001088093000888E19AE00FB6F894A895DB
:10108000809360000FBE90936000FFCFA4E0B0E0BB
:10109000ECE4F8E00C9458308FB7F89420912003DA
:1010A00030912103409122035091230329833A83F5
:1010B0004B835C838FBF69817A818B819C8124966D
:1010C000E2E00C94743080913E010895E2EBF1E08F
:1010D0009191891303C0DF0111971C9291E0E83BC5
:1010E000F907B1F708959C01FC0132968FEF90E06B
:1010F0004191461751F08F3F19F4411101C0892FDA
:101100009F5F9630A9F78F3F09F40895280F311D8E
:1011100087FD3A95F90162830895A3E0B0E0E3E921
:10112000F8E00C9458309C0180911D0390911E03AF
:1011300082179307B1F030931E0320931D03E091B3
:101140003A03F0913B03309761F00084F185E02D84
:10115000309739F084E089833B832A83CE0101965E
:1011600009952396E2E00C947430A3E0B0E0EBEB39
:10117000F8E00C9458309C0180911B0390911C0363
:1011800082179307B1F030931C0320931B03E09167
:101190003A03F0913B03309761F00084F185E02D34
:1011A000309739F083E089833B832A83CE0101960F
:1011B00009952396E2E00C94743080911803811114
:1011C00003C080911A030895E0913A03F0913B0324
:1011D000309739F00190F081E02D309711F00995AA
:1011E000089580E00895FA01309709F0099508956F
:1011F000CF92DF92EF92FF92CF93DF9300D000D097
:1012000000D0CDB7DEB78E839D83C0900A03D09007
:101210000B03E0900C03F0900D0338DFDC01CB01F1
:101220008C199D09AE09BF09843F9140A105B10504
:1012300038F5C0920603D0920703E0920803F092BB
:10124000090384EF91E0A0E0B0E080930203909363
:101250000303A0930403B09305038E8180931103CD
:101260009D819093120326960FB6F894DEBF0FBEB1
:10127000CDBFDF91CF91FF90EF90DF90CF90089599
:1012800005DF609306037093070380930803909330
:10129000090382E390E0A0E0B0E0D7CFFC018481B5
:1012A000862351F482818823B9F06823908593FFC7
:1012B00005C081E061110FC080E00895282F2F70D4
:1012C00082958F70282B962F9F7062956F70692B77
:1012D00081E02613F1CF089581E0FDCFE1E8F2E04F
:1012E00090E080E062E274E246E454E226EA33E20F
:1012F00076836583508747833287218796878587E2
:1013000001963F968430910599F7089581152CE751
:10131000920741F42091000330910103232B11F433
:1013200090E080E0089580E00895F894E82FE29539
:10133000EF70F0E041A18F7021E030E0B90102C010
:10134000660F771F8A95E2F7CB01962F909594232D
:1013500091A392A1892B82A378940895A4E0B0E090
:10136000E4EBF9E00C94583080911803882369F07D
:101370008DDE69837A838B839C8369817A818B81FB
:101380009C812496E2E00C94743080DE69837A8339
:101390008B839C838091100290911102A091120284
:1013A000B091130229813A814B815C81280F391F4A
:1013B0004A1F5B1F29833A834B835C83DECF909166
:1013C000210292FF10C041E0282F2471243009F03F
:1013D00040E031E0282F2871283009F030E0431731
:1013E00011F02CE0822793FF10C041E0282F2471D8
:1013F000243109F040E031E0282F2871283109F02C
:1014000030E0431711F02CE082273091220230FFA8
:1014100010C051E0282F2171213009F050E041E047
:10142000282F2871283009F040E0541711F029E0E6
:10143000822731FF10C041E0282F2171213109F0AE
:1014400040E031E0282F2871283109F030E04317BF
:1014500011F029E0822794FD877E0895803E910552
:10146000C1F1C8F48133910509F47DC048F4893293
:10147000910509F46DC08A32910509F47BC0089585
:1014800089339105D1F082389105B9F08533910502
:1014900009F459C00895843E9105C1F138F4823EA3
:1014A000910521F1833E910531F10895863E910524
:1014B000C1F1873E9105E1F1089520912102237049
:1014C00009F065C02091220223FF14C089E290E058
:1014D00008952091210220FD43C03091220230FF67
:1014E00009C024FF4EC090E080E0089520912102C1
:1014F00022FDF7CF08952091210222FD45C03091B1
:10150000220230FD44C024FFF5CFEDCF209122020E
:1015100021FFF0CF8091210284FDE5CF87EE90E09E
:1015200008952091210223FFE5CF24FDDCCFF6CFE3
:101530002091210223FD2EC03091220231FFE3CF02
:1015400084EE90E008952091210225FFD3CFBECFF5
:101550002091210225FD21C02091220223FFCACF24
:1015600089E390E0C7CF2091210226FFC3CF8AE212
:1015700090E008952091210226FFBCCF81E390E006
:10158000089583EE90E0089582EE90E0089580EE55
:1015900090E0089586EE90E0089585E390E0089548
:1015A0001F93CF93DF935ADFEC01C11580E5D80775
:1015B00008F052C0C11580E4D80708F0BFC0C03E93
:1015C000D10530F5CD3CD10508F0A7C0C83AD1050A
:1015D00078F4C53AD10508F09DC0C130D10531F18C
:1015E000CE010497813A910508F1D0E0C0E01EC019
:1015F000CE01885A91094B97C0F7C85AD0E0CC0F5A
:10160000DD1FCC5ADE4F0990D881C02DD4640EC0A6
:10161000C11580E2D80778F4CF3FD10511F008F06A
:101620007EC0CE01805E91090897F8F6CE01DF9169
:10163000CF911F9108958D2F8F71C1DE182FCE018C
:1016400099270CDFC12FD0E0DC2FCC27CC27DF710E
:10165000C82BD92BD062EACFC03682E5D80748F52F
:10166000C03482E5D80708F086C0C03282E5D807CA
:10167000C8F4C11582E5D80708F069C08C2F8F71B6
:101680009EDE65E0D695C7956A95E1F7CF70D0E00C
:10169000DC2FCC27282F30E084FD8CC0C22BD32B2D
:1016A000D069C4CFCF71D0E0DC2FCC27C16FD06A16
:1016B000BDCFC03C82E5D80700F5C03A82E5D80727
:1016C00008F06EC0CE0180569245809708F08DCF0D
:1016D0002C2F26952695277080E2289F90011124B3
:1016E0008C2F8370C1E0D0E002C0CC0FDD1F8A9543
:1016F000E2F7C22BD32BDA6899CFCE01805C9245FA
:10170000809708F072CFDC2FCC27CC27DF71C06F19
:10171000D06A8CCFA497D06489CFD06587CF8D2F26
:101720004EDE182FCE01992799DEC12FD0E0DC2F95
:10173000CC27CC27DF71C82BD92B78CFCE019927A6
:101740008DDECC27DF70C82BD92BD06A6FCF2C2F22
:101750002695269580E2289F900111248C2F837076
:10176000C1E0D0E002C0CC0FDD1F8A95E2F7C22BAA
:10177000D32BDD685BCF2C2F26952695277080E232
:10178000289F900111248C2F8370C1E0D0E002C00B
:10179000CC0FDD1F8A95E2F7C22BD32BDC6846CF36
:1017A0008C2F8F710CDEC82FD0E0DC2FCC27CC27FC
:1017B000DF713CCF84E0220F331F8A95E1F7332796
:1017C0006DCF8091750390913C03981301C00895EB
:1017D0008F5F8770FACF292F9A3078F5863068F5B9
:1017E00090E036E0239F800D911D1124682F6770D3
:1017F00023E0969587952A95E1F7FC01EE0FFF1FF0
:10180000E80FF91FE654FE4F50E040E080E02191E0
:1018100030E0062E02C0369527950A94E2F7217033
:101820003327042E01C0220F0A94EAF7822B4F5F60
:101830005F4F4330510559F7089580E00895292FEF
:101840009A3090F5863080F590E036E0239F800D49
:10185000911D1124282F277041E001C0440F2A95C3
:10186000EAF723E0969587952A95E1F7FC01EE0FBC
:10187000FF1FE80FF91FE654FE4F90E080E070E094
:101880005191DF0111979B01082E02C036952795D3
:101890000A94E2F7217021952527242325272C93EC
:1018A00001968330910561F70895982F96709630D0
:1018B00021F4886080933B020895877FFBCF90914D
:1018C0003B0221E030E0F90101C0EE0F8A95EAF712
:1018D000D90102C0AA0FBB1F6A95E2F7EA2B01C02B
:1018E000220F4A95EAF7892F8E23E81303C0292B8C
:1018F000822FDBCF20952923FBCF21E030E001C0F0
:10190000220F8A95EAF7209580913B028223CDCF62
:1019100021E030E001C0220F8A95EAF780913B0276
:10192000822BC3CF809320020895982F82958F70C9
:1019300011F0982F84E0292F2695269511F08E5FBF
:10194000922F969509F08F5F08959C019A958115C5
:101950009F4150F5D901AA27B170F901EE27F27025
:10196000B90166277470A9014427587034FF0EC06E
:1019700080E1AB2B09F480E0EF2B09F08062672B4C
:1019800009F08064452B89F08068089581E0AB2BD5
:1019900009F480E0EF2B09F08260672B09F0846086
:1019A000452B19F08860089580E00895E9E7F3E099
:1019B00080E092E0DF019C011D9221503040E1F770
:1019C000F0938005E0937F058FEF9FEF909378036E
:1019D000809377030895CF93DF93682F81E06A3077
:1019E00019F06D3029F480E082D0DF91CF91089515
:1019F00080917F059091800526E0FC01A9E7B5E084
:101A000001900D922A95E1F7603E08F458C026E057
:101A1000FC0111922A95E9F7C0917F05D0918005CC
:101A200046E050E0BE0189E795E00E94A1309E01AA
:101A300029573340892B41F1C90145E09695879597
:101A40004A95E1F741E050E0BA0102C0660F771F06
:101A50008A95E2F7CB016091770370917803862B2A
:101A6000972BB9016B5F7F4FE5E076956795EA9517
:101A7000E1F702C0440F551F6A95E2F7842B952BBE
:101A800090937803809377032A5F3F4F40917603CA
:101A9000642F70E0C9010E943430481B463010F4B6
:101AA000240F311D211572E0370710F030E020E0DF
:101AB00027583C4F3093800520937F0596CFF6E062
:101AC0006F9FB00111246754784F46E050E00E94A8
:101AD0009830A2CFCF93DF93EC01FE018491811166
:101AE00003C0DF91CF91089576DF2196F6CFCF9393
:101AF000382FE0917F05F0918005E957F340209160
:101B00007603622F70E0CF010E943430281B822FB1
:101B1000332359F066E00E947F30C82FC15010F483
:101B2000CF91089580E257DFF9CF9F01280F311D33
:101B30002115324018F080E0F0E0E0E08E0F9F2F9A
:101B4000911D87589C4F9093800580937F05E8CF27
:101B50008091250390911503892B90910E03909508
:101B6000892390910F03892B8093B00148E050E0C6
:101B700069ED71E080EB91E00E94A130892BB9F012
:101B800088E0E0EBF1E0A9EDB1E001900D928A95DB
:101B9000E1F7E0913A03F0913B03309741F0028086
:101BA000F381E02D309719F080EB91E009950895CD
:101BB000E2EBF1E086E0DF011D928A95E9F790E023
:101BC00080E0D3DA90E080E0A8DA10921503C0CF6D
:101BD000AAE2B0E0EEEEFDE00C94573082E393E031
:101BE000FC0101962091F100208323E08A339207C3
:101BF000B9F780913303893009F459C0C8F48230B1
:101C000009F4B4C0833009F484C0813091F180912B
:101C1000E80083FF37C180913203909133039A30FB
:101C200008F030C1E92FF0E0E255FC4C0C948B3009
:101C30008A3009F48BC08B3051F7809132038132A6
:101C400031F78091360390913703892B01F780910A
:101C5000E800877F8093E80001D981E09091340308
:101C6000911101C080E080933F0110922503A0DF15
:101C7000CECF80913203813A51F68091E800877F80
:101C80008093E8008091360390913703892B59F4B3
:101C900068E086E293E070E08CD98091E8008B7771
:101CA0008093E800B4CF60E090E080E0F4CF8091D2
:101CB0003203813209F0ABCF809136039091370324
:101CC0008D7F892B09F0A3CF8091E800877F8093D7
:101CD000E8008091E80082FF17C09091F3008091A6
:101CE000F200029731F48091F100813011F08630DA
:101CF00021F48091F10080933E018091E8008B7780
:101D00008093E800ABD883CF809130038111E1CF7D
:101D10007ECF80913203813A09F079CF80913603EA
:101D200090913703892B09F072CF8091E800877F6B
:101D30008093E8008091E80080FFFCCF80913F0114
:101D40008093F1008091E8008E77DACF80913203A2
:101D5000813209F05CCF8091E800877F8093E800B2
:101D60007DD88091350380933D0151CF809132031E
:101D7000813A09F04CCF8091E800877F8093E8009A
:101D80008091E80080FFFCCF80913D01D9CF803861
:101D900099F0823809F076C0809136038F708730D1
:101DA00008F070C08093E9008091EB0085FB8827E4
:101DB00080F91092E90006C080912E0390912F03C4
:101DC000911182609091E800977F9093E800809352
:101DD000F1001092F1008091E8008E77C3C1882352
:101DE00009F4B0C1823009F04DC0809134038111F3
:101DF000B4C1809136038F702FEF280F263008F082
:101E000041C08093E9002091EB0020FFA6C19330F0
:101E100031F48091EB0080628093EB009EC1909141
:101E2000EB0090619093EB0021E030E001C0220FC5
:101E30008A95EAF72093EA001092EA008091EB007D
:101E40008860EACF81111EC0109134031F77809102
:101E5000E3008078812B8093E3008091E800877F06
:101E60008093E8000E942E078091E80080FFFCCF5D
:101E70008091E30080688093E30082E0111183E0A9
:101E8000809330038091E80083FF0AC08091E800CE
:101E9000877F8093E8008091EB0080628093EB0065
:101EA000AA96E3E00C9473308058823058F7409142
:101EB0003403509135034C3D83E0580799F583E096
:101EC0008A838AE289834FB7F894DE01139620E073
:101ED0003EE051E2E32FF0E050935700E49120FF01
:101EE00003C0E295EF703F5FEF708E2F90E0EA3015
:101EF000B8F0C7968D939D932F5F243159F74FBF4C
:101F00008091E800877F8093E8006AE270E0CE016C
:101F100001964FD88091E8008B778093E800B2CF8C
:101F2000C096E8CF8091360390913703252F332751
:101F30002330310509F44AC078F52130310509F420
:101F400086C08BE590E0E8E5F6E02230310509F047
:101F500099CF2091E800277F2093E8002091380353
:101F6000309139038217930708F49C0140E0211552
:101F7000310509F071C041116FC08091E80082FD08
:101F8000C9CF80913003882329F2853019F28091DE
:101F9000E80083FFF2CFBECF2132310509F448C0FB
:101FA0002232310509F06ECF8330910508F06ACFF7
:101FB000FC01EE0FFF1FEE55FE4F0190F081E02D6A
:101FC00081569E4FDC018C9190E026C0CA01992772
:101FD000423031F18330910568F40097B1F00197F8
:101FE00009F050CFE3EFF6E0E4918E2F90E0E3EFBD
:101FF000F6E012C0039709F045CFE5ECF6E0E49176
:102000008E2F90E0E5ECF6E007C0E5E0F7E0E49124
:102010008E2F90E0E5E0F7E0009709F433CF99CFF9
:10202000E3EEF6E0E4918E2F90E0E3EEF6E0F4CFFD
:102030008330910508F026CF880F991FFC01E855E1
:10204000FE4F0190F081E02D89E090E082CF82E1A7
:1020500090E0E3EBF6E07DCF80913003882309F434
:1020600059CF853009F456CF8091E80083FD52CFD7
:102070008091E80082FD81CF8091E80080FF77CFDA
:102080009091F3008091F2002115310519F088300C
:10209000910550F041E0089709F040E08091E80098
:1020A0008E778093E80063CF44914093F10031969E
:1020B000215031090196E8CF803809F0E3CE8091B4
:1020C000E800877F8093E800809131038093F100DE
:1020D00082CE8111D7CE10913403123008F0D2CEC7
:1020E0008091E800877F8093E800109331030E947D
:1020F0002E07112311F084E005C08091E30087FDD5
:10210000FACF81E08093300342E061EC81E00E94ED
:102110004D0742E261EC84E00E944D0742E261EC2F
:1021200082E00E944D0742E260EC83E00E944D078E
:1021300080913003843021F081E080934001A2CE71
:1021400082E0FBCF80913403813009F09BCE81E0A7
:10215000933009F080E080932F031092E900809182
:10216000E800877F8093E8000E942E078BCECF93F4
:10217000DF93EC0149855A856D857E8534D88B8146
:10218000982F909580911503892380931503E0DCA7
:1021900085E0FE0111928A95E9F7DF91CF910895CC
:1021A000CF93DF93EC018C8181FD0FC082608C8323
:1021B000809115039B81892B80931503C9DC4F8186
:1021C00058856D857E85CE010ED81092170310922A
:1021D00016038C8180FD02C0CE01C9DFDF91CF9153
:1021E0000895882339F08095909115038923809371
:1021F0001503AECC0895882331F090911503892BF7
:1022000080931503A5CC0895882339F0809590918B
:1022100025038923809325039BCC0895882331F0DF
:1022200090912503892B8093250392CC08958823D0
:1022300059F19CEF980F913A18F40E94660888CCE7
:1022400090E2980F983088F4877021E030E0A9017F
:1022500002C0440F551F8A95E2F7CA0180959091FC
:102260002503892380932503EACF9BE5980F9330BC
:1022700020F490E080E00C94B508885A8B3120F46B
:1022800090E080E00C948D080895FF920F931F93C7
:10229000CF93DF93F82E00911303109114030115CF
:1022A000110509F448C01092120310921103109204
:1022B0000E0310920F03D8011696CD91DC91CE013A
:1022C0009A9581159F4108F4D07ED1E0C11101C0DB
:1022D000D0E0D8011996ED91FC911A97309731F022
:1022E0001B966D917C9180E00995D823DD2339F010
:1022F0008CEF8C0F813A28F58C2F0E946608FF2006
:1023000099F0E0911303F0911403808584FD0CC0D3
:1023100080911003882341F0808191819C0121509C
:1023200031092F333E4788F013DC109214031092CA
:10233000130310921003C801CDB7DEB7E5E00C948B
:10234000713006DC8C2F73DFDACF0E94F808ECCFF7
:10235000CF93C82F882399F08CEF8C0F813A88F4A3
:10236000E2EBF1E08191C817B1F121E0E83BF2071F
:10237000C9F76C2F80EB91E00E947308E9DBCF91E5
:10238000089580E28C0F883068F4C77021E030E057
:1023900001C0220FCA95EAF780912503822B809312
:1023A0002503ECCF8BE58C0F833038F42C2F24528F
:1023B000330BC9010E94B508E2CFC85ACB31F8F6F9
:1023C000EC2FF0E0EE0FFF1FEC5AFE4F8081918161
:1023D0000E948D08D4CF8C2F0E946608B9DBC9CF2C
:1023E000CF93DF93EC01B1DA9E01205E31092830F2
:1023F000310510F0209731F411DF8C2FA9DFDF9128
:10240000CF910895F8DEF9CF0F931F93CF93DF9309
:10241000EC01FC0101900020E9F78F010150110946
:10242000C017D10728F0DF91CF911F910F91089528
:102430008991D1DAF5CF0F931F93CF93DF938B015F
:10244000EA0190913003943061F58093E9008FEFB9
:102450009091E800815095FD06C095ED9A95F1F7B1
:1024600000008111F5CF8091E80085FF1AC00E941D
:10247000FD06811111C08091E80085FD06C08091A4
:10248000E8008E778093E800F2CFF80181918F0108
:102490008093F100219779F78091E8008E778093FF
:1024A000E800DF91CF911F910F910895BC0143E0A7
:1024B00050E084E0C0CFCF93DF93D82FC92F48E0FE
:1024C00050E0682F792F81E0B6DF88E0ED2FFC2FF8
:1024D000A6E2B3E001900D928A95E1F7DF91CF91EA
:1024E0000895792F603229F440E250E0682F82E0AD
:1024F000A2CF0895B0E0A0E0E0E8F2E10C94503003
:10250000F82EE92ED62EC72E8A0180910F02AA241A
:10251000A394B12C8A3018F48AE0A82EB12CC1E023
:10252000D0E06D2D7C2D8F2D9E2DF8010995811108
:1025300004C02196AC16BD062CF4CDB7DEB7EAE098
:102540000C946C30CC9F9001CD9F300D300D112438
:1025500090E080E045E34A95F1F70000019682178C
:102560009307C1F7DECF1F93CF93DF93182FEB01B3
:10257000EFDE209731F4812F5ADEDF91CF911F914A
:1025800008958FE99FE00197F1F700C000002197BF
:10259000F0CFB0E0A0E0EFECF2E10C945030FC01A1
:1025A0008AE0B82EDF012D918D012223D1F1213057
:1025B00009F051C08181813061F482818F010D5F0A
:1025C0001F4F70E060E0893311F460E570E0CBDF0D
:1025D00007C0823039F48F010D5F1F4F8281B8DE52
:1025E000F801E0CF833031F48F010D5F1F4F8281FE
:1025F0001EDEF6CF8F010E5F1F4F843081F4828183
:102600008F010D5F1F4F30E020E0682F6053770B84
:10261000AB016A30710550F02115310599F4811133
:10262000DFCFCDB7DEB7EAE00C946C30B29EC001CC
:10263000B39E900D11249A01280F391FF801819142
:102640008F01E3CFAFE9BFE01197F1F700C00000C1
:1026500021503109E1CFE22FF0E0E75CF84FA49080
:10266000822F86958695869590E0FC01E75DF84F70
:10267000E4902770F12C022E02C0F594E7940A949E
:10268000E2F7B1E0EB22FF24FC01E75EF84FC490D3
:10269000D12C022E02C0D594C7940A94E2F7E1E04F
:1026A000CE22DD24FC01E75FF84FC491D0E002C0E8
:1026B000D595C7952A95E2F7C170DD27E114F1049D
:1026C00011F081EE45DEC114D10411F086EE40DE3A
:1026D00070E060E08A2D47DFC114D10411F086EE6E
:1026E000A6DDE114F10411F081EEA1DDCD2B09F49A
:1026F00077CF70E060E08CE26ACF1092250358DA61
:102700002FEF84E39CE0215080409040E1F700C02F
:10271000000088E19AE00FB6F894A89580936000D5
:102720000FBE90936000FFCF1F93CF93DF93962F40
:10273000122F632F8630D8F49A30C8F44630B8F49C
:10274000C42FD0E0CC0FDD1F2CE0929FC00DD11D17
:10275000112498E7899FC00DD11D1124CE018996BF
:102760000E947733612FCE018A960E947733DF91E2
:10277000CF911F91089585E290E00E945B338F34E2
:1027800089F486E290E00E945B338E3C59F487E244
:1027900090E00E945B3391E0843C09F090E0892F47
:1027A0008170089580E0FCCF462F572FBC01CA01ED
:1027B000875B9C4F403451056105710510F40C9402
:1027C0005B3380E008950F931F93CF93DF938630A0
:1027D00030F56A3020F5463010F5C42FD0E0CC0F2C
:1027E000DD1F2CE0629FC00DD11D112438E7839FAF
:1027F000C00DD11D1124CE0189960E945B33082F94
:1028000010E0102F0027CE018A960E945B339801BA
:10281000282BC901DF91CF911F910F91089590E06E
:1028200080E0F8CF462F672F20916F023091700221
:10283000232B81F4703F39F4403F61F480917102A1
:102840009091720208957A3028F4463018F4863058
:1028500008F4B9CF80E090E00895B0E0A0E0E3E3B1
:10286000F4E10C9453307C0100913B0280912002F2
:10287000082BC5E0D0E010E0DC2EC8010C2E02C011
:10288000959587950A94E2F780FD09C02197A0F7F6
:10289000D12C8D2DCDB7DEB7E7E00C946F30B701AA
:1028A0008C2FC0DF0E94D00A019781F3F2CFCF9323
:1028B000DF93D82FC92FD1DF6D2F7C2FB3DF0E947C
:1028C000D00ADF91CF910895FC018481882399F08B
:1028D00080819181ECDF282F92959F70963091F046
:1028E00060F4925F9F70923030F481E0203F81F07D
:1028F00030F4283E30F080E004C09A5FF3CF243FEC
:10290000D1F7089581E0283E20F0213FA1F7F9CFCB
:1029100008950895A6E0B0E0E0E9F4E10C945730A2
:102920009C0186E0F901DE01119601900D928A95D5
:10293000E1F7F901258189819A81222389F06623B3
:1029400079F08BDF182F682F89819A810E941F0CE4
:1029500069817A81812F66DF2696E3E00C947330DB
:102960000E94EB0B182FF4CF4F925F926F927F92E1
:10297000AF92BF92CF92DF92EF92FF920F931F938D
:10298000CF93DF93CDB7DEB760970FB6F894DEBF75
:102990000FBECDBF1A821982FE0133968EE0DF0191
:1029A0001D928A95E9F704E010E099E4A92E93E0DE
:1029B000B92E20E4422E512C612C712C6201B1E120
:1029C0004B165104610471042CF080E1C82ED12C07
:1029D000E12CF12CA601B501CE0101960E946833CD
:1029E000AC0CBD1C0D2C000CEE08FF084C185D084B
:1029F0006E087F080150110909F760960FB6F89428
:102A0000DEBF0FBECDBFDF91CF911F910F91FF9021
:102A1000EF90DF90CF90BF90AF907F906F905F90DE
:102A20004F900895AAE0B0E0E8E1F5E10C944D3054
:102A3000A0900003B090010381E090E09093010327
:102A400080930003912C812CE12C6401F12C14C0A3
:102A5000F80125913491472D6F2D8E2D65DE0E5F87
:102A60001F4F739486E07812F3CFE6E0CE0ED11CB0
:102A7000F394FAE0FF1639F08601000F111F085792
:102A80001C4F712CE5CFE3948CE3880E911CE6E09B
:102A9000EE12DBCF1A8219821C821B821E821D82DB
:102AA00018861F8288EC90E09A8789874AE050E078
:102AB00069EF72E08E010F5F1F4FC8010E949533CE
:102AC0004AE050E063E073E0C8010E9495334AE0B9
:102AD00050E06DE073E0C8010E9495334AE050E099
:102AE00067E173E0C8010E94953389E0F801119213
:102AF0008A95E9F78FEF9FEF9E838D8387E08A8722
:102B00004AE050E061E273E0C8010E9495334AE078
:102B100050E06BE273E0C8010E9495334AE050E058
:102B200065E373E0C8010E9495334AE050E06FE32B
:102B300073E0C8010E949533B0920103A092000394
:102B40002A96EDE00C9469306FEF85E290E00E94E8
:102B500077336FEF86E290E00E9477336FEF87E282
:102B600090E00E94773360E088E290E00E94773343
:102B700059DFFADE6FE485E290E00E9477336EEC75
:102B800086E290E00E94773364EC87E290E00C9458
:102B90007733282FCB01243068F43AE0239FB0012B
:102BA000112467507D4F4AE050E00E944B3390E083
:102BB00080E008958FEF9FEF0895AAE0B0E0E3EE84
:102BC000F5E10C9458309C0197558F3F910509F021
:102BD00068F4BE016F5F7F4F822FDBDF892B31F4FA
:102BE00089859A852A96E2E00C94743088EC90E00E
:102BF000F9CFAAE0B0E0EFEFF5E10C9450300EEB26
:102C000012E081E2E82E83E0F82E96E0B92E2DEB5B
:102C1000C22E22E0D22EAA24A3944AE050E0B701AB
:102C2000CE0101960E944B33F8013996DF018B2DBE
:102C30001D928A95E9F789819A81D80111969C9312
:102C40008E938F8112968C9312978D8113968C930D
:102C50001397888514968C931497898515968C9371
:102C600015978B819C8117969C938E931697189637
:102C70001C9218978A8587FF3CC01E961C921E9254
:102C80001D9780FF03C0D8011896AC9281FF04C045
:102C9000F80190859260908782FF07C0D80118964E
:102CA0009C911897946018969C9383FF04C0F80138
:102CB00090859860908784FF07C0D80118969C91F2
:102CC0001897906118969C9385FF04C0F801808541
:102CD00080628087FAE0EF0EF11C015F1F4F89E4EC
:102CE000E81683E0F80609F098CF2A96EAE00C94FB
:102CF0006C30F801D686C586C4CFAB0124E630E03F
:102D0000BC0188E70E94F92D9C0181E0232B09F08A
:102D100080E008958091FE029091FF02911103C01E
:102D200091E089270895882361F062E070E086E8E9
:102D300093E0E3DF811103C08091FE0208951092B9
:102D4000FE028091FE02ECCFA5E0B0E0EAEAF6E1F7
:102D50000C9458308091FE028D838091FF0288236D
:102D6000E9F00E944608DC01CB01805A9541AF4F43
:102D7000BF4F8093FA029093FB02A093FC02B093A2
:102D8000FD028D81811107C062E070E084E893E06C
:102D9000B4DF811108C08091FE028D838D8125965C
:102DA000E2E00C94743081E08093FE02F4CFB0E056
:102DB000A0E0EDEDF6E10C945230FA0169017801E2
:102DC000C82F880FDD0B3097B1F0DE0193E0AA0F1A
:102DD000BB1F9A95E1F7AF5FBE4F11968D919C9105
:102DE000129783519E4F4C9150E0E417F50708F479
:102DF000AF010E94AE30CE010E94C42F182F88234D
:102E0000D1F0E114F104B9F083E0CC0FDD1F8A9515
:102E1000E1F7FE01EF5FFE4F438150E0E416F50657
:102E200008F4A701CF5FDE4F6C817D8163517E4F37
:102E3000C6010E94AE30812FCDB7DEB7E8E00C941A
:102E40006E30A6E0B0E0E7E2F7E10C945230C090BB
:102E50000B02D0900C02E0900D02F0900E020E9446
:102E60004608DC01CB018C199D09AE09BF0921E0A0
:102E700084369105A105B10508F420E030912503C1
:102E8000398384369105A105B10520F48091F801BC
:102E9000831321E0809115038A83211105C090914D
:102EA000F90111E09817C1F010E000E030E020E0F7
:102EB00042E050E0BE016F5F7F4F84E078DF182F63
:102EC000882351F00E94460860930B0270930C0215
:102ED00080930D0290930E02812F2696E8E00C94C9
:102EE0006E30A5E0B0E0E7E7F7E10C9452300E94C5
:102EF000DD08182F89830091F701C0900702D09058
:102F00000802E0900902F0900A020E944608DC01E3
:102F1000CB018C199D09AE09BF0984369105A10525
:102F2000B10510F41017E9F010E000E030E020E007
:102F300041E050E0BE016F5F7F4F83E038DF182F24
:102F4000882351F00E94460860930702709308029C
:102F50008093090290930A02812F2596E8E00C9451
:102F60006E3011E0F9CFA8E0B0E0E9EBF7E10C94A6
:102F70005230C0900302D0900402E0900502F0901D
:102F800006020E944608DC01CB018C199D09AE099E
:102F9000BF0911E084369105A105B10518F10E9421
:102FA000AE09DC01CB010296A11DB11D89839A8374
:102FB000AB83BC8310E000E030E020E044E050E070
:102FC000BE016F5F7F4F82E0F2DE182F882351F041
:102FD0000E944608609303027093040280930502E6
:102FE00090930602812F2896E8E00C946E308F9221
:102FF0009F92AF92BF92EF92FF920F931F93CF9346
:10300000DF93CDB7DEB72A970FB6F894DEBF0FBEB9
:10301000CDBF7B0101E010E09E012A5F3F4F50E0F1
:1030200040E070E060E080E0C2DE182F882309F401
:103030004BC08090FF0190900002A0900102B090E0
:1030400002020E9446086F83788789879A87DC018D
:10305000CB0188199909AA09BB0984369105A105F4
:10306000B10538F48EEE91E00E94B9069E81891771
:1030700059F105E010E09E012F5F3F4F50E040E026
:1030800070E060E081E093DE082F8EEE91E00E9418
:10309000B90611E09E81981310E0102301F10E94FF
:1030A00046086093FF0170930002809301029093A1
:1030B000020285E0FE013196AAEFB1E001900D9287
:1030C0008A95E1F711E00BC085E0EEEEF1E0DE015C
:1030D000119601900D928A95E1F71111EACF85E0E2
:1030E000EAEFF1E0D70101900D928A95E1F7812F87
:1030F0002A960FB6F894DEBF0FBECDBFDF91CF91F9
:103100001F910F91FF90EF90BF90AF909F908F9085
:1031100008951F920F920FB60F9211242F933F9391
:103120004F935F936F937F938F939F93AF93BF93CF
:10313000CF93DF93EF93FF93D091E900DF708091FD
:10314000EC00C82FC17080FDC0E81092E9008091AA
:10315000F000877F8093F00078940E94E80D109231
:10316000E9008091F00088608093F000CD2BCF7053
:10317000C093E900FF91EF91DF91CF91BF91AF91A3
:103180009F918F917F916F915F914F913F912F917F
:103190000F900FBE0F901F9018951F920F920FB6B1
:1031A0000F9211242F933F934F935F936F937F93CD
:1031B0008F939F93AF93BF93EF93FF938091E10021
:1031C00082FF09C08091E20082FF05C08091E1008A
:1031D0008B7F8093E1008091DA0080FF24C0809192
:1031E000D80080FF20C08091DA008E7F8093DA00C3
:1031F0008091D90080FFA9C080E189BD82E189BDAD
:1032000009B400FEFDCF81E0809330038091240358
:10321000811109C00E94DE060E947F078091E200B2
:1032200084608093E2008091E10080FF1AC0809169
:10323000E20080FF16C08091E2008E7F8093E20062
:103240008091E20080618093E2008091D8008062EA
:103250008093D80019BC85E08093300383E080938D
:1032600040018091E10084FF2FC08091E20084FF43
:103270002BC080E189BD82E189BD09B400FEFDCF8C
:103280008091D8008F7D8093D8008091E1008F7E5F
:103290008093E1008091E2008F7E8093E200809134
:1032A000E20081608093E20080913103882309F479
:1032B00052C084E08093300380913003843009F45D
:1032C00052C081E0809340018091E10083FF2CC0D7
:1032D0008091E20083FF28C08091E100877F809386
:1032E000E10082E080933003109231038091E1008D
:1032F0008E7F8093E1008091E2008E7F8093E200D8
:103300008091E20080618093E20042E060E080E032
:103310000E944D078091F00088608093F00081E06A
:103320008093400180933F01FF91EF91BF91AF9156
:103330009F918F917F916F915F914F913F912F91CD
:103340000F900FBE0F901F90189519BC109230036C
:103350001092240368CF8091E30087FD02C081E0D2
:10336000A9CF83E0A7CF82E0ADCF78941F921FB69C
:103370001F9211248F939F93AF93BF93809120034B
:1033800090912103A0912203B09123030196A11DE6
:10339000B11D8093200390932103A0932203B09347
:1033A0002303BF91AF919F918F911F901FBE1F90DC
:1033B00018952FB7F8948091200390912103A09144
:1033C0002203B09123032FBF0895A3E1B0E0EBEEF9
:1033D000F9E10C944E301A821982FE01339688E08E
:1033E000DF011D928A95E9F78CE8E82E81E0F82E3E
:1033F00010E000E0CC24C394D12C27E9A22E21E0D8
:10340000B22EF70181917F018F3F09F445C0F894F6
:10341000E82FE295EF70F0E021A18F70A60102C0C5
:10342000440F551F8A95E2F7CA01922F982B91A35A
:1034300092A18095892382A3789400C0E1E9F1E00C
:1034400031E0912C21912F3F09F4ACC0A22FA2951D
:10345000AF70B0E090968C9190E02F7002C095957F
:1034600087952A95E2F780FD9DC0832F982A330F18
:10347000AE16BF0639F7F701319780818F3F11F003
:103480000E94950950EA5A95F1F7E1E0F0E0EC0F5F
:10349000FD1FE00FF11F90820F5F1F4F05301105D8
:1034A00009F0AFCF4AE050E0BE016F5F7F4F84E18B
:1034B00092E00E94A1309C01892B49F08AE0FE0134
:1034C0003196A4E1B2E001900D928A95E1F7009166
:1034D0001F0210E00B591D4F232B09F465C081E03A
:1034E0008093E50166DF9093E4018093E301F12C82
:1034F000E0901803EE2009F4B1C01C861B86FE0183
:103500003D9683E0DF011D928A95E9F780910F02D5
:103510008A3008F06EC047EF57E1BE01655F7F4F0C
:10352000C8010E947A12882309F488C043EB57E14E
:10353000BE01655F7F4FC8010E947A12882309F49B
:103540007DC041E757E1BE01655F7F4FC8010E9422
:103550007A12882309F472C041E257E1BE01655F27
:103560007F4FC8010E947A12882309F467C0109225
:103570000F0280911E0290E045E050E0BE01655FC1
:103580007F4F8B599D4F0E94A13021E02093EC0189
:10359000892B09F046C0E12C8E2D8F296396ECE033
:1035A0000C946A3080E062CFF090E501FF2009F4CE
:1035B0009ECFC090E301D090E401FBDE8C199D0901
:1035C000059708F494CF45E050E064E172E0C8014B
:1035D0000E94A130892B59F085E0E4E1F2E0D801A6
:1035E00001900D928A95E1F71092E50181CFF12CBF
:1035F000FBCFC090E601D090E701DBDE8C199D097E
:10360000843F914008F087CF8091EC01882319F224
:10361000FE013B9685E0DF011D928A95E9F7109245
:10362000EC01A0911E02B0E0AB59BD4F85E0FE0158
:103630003B9601900D928A95E1F7AECF80910F02F3
:103640008F3F31F08F5F80930F028A3008F491CF63
:10365000B0DE9093E7018093E601D6CF85E0F801D4
:10366000AEEEB1E001900D928A95E1F78EEE91E019
:103670000E94B9068093ED018090F3019090F401CF
:10368000A090F501B090F6018091E8019091E901D8
:10369000A091EA01B091EB0188169906AA06BB0633
:1036A000B1F08092E8019092E901A092EA01B09213
:1036B000EB010E944608861A970AA80AB90A809266
:1036C000100290921102A0921202B0921302809105
:1036D000F70180931A038091F9019091F80190937A
:1036E00025038093150358CFACE0B0E0EAE7FBE197
:1036F0000C9448307C01DC0114968C91882309F4E9
:103700008EC161E0C70106D98C01F701858188234C
:1037100039F18091160390911703009709F108176A
:103720001907F1F09C0133278C7F9927F0E0E0E046
:10373000892B41F48FE0829FF001839FF00D1124CB
:10374000EF57FD4F84818460848311830083CF0110
:103750000E94D0101092150361E0C701DBD88C01E4
:10376000D70115968C91882309F4F1C0C8019757A9
:103770008038910508F01CC1003108F050C16FE39A
:1037800070E080E090E010D8811149C1C12CD12CAB
:103790007601011148C004E09E012F5F3F4F59019F
:1037A00099249A94D501E02F1D92EA95E9F7260114
:1037B0003701FFEF4F1A5F0A6F0A7F0AC701B60190
:1037C0000E94D4138983882309F429C1813039F5F3
:1037D000A70196012E5F3F4F4F4F5F4F2D833E83D2
:1037E0004F835887C301B2010E94D413182F8A83D4
:1037F000882309F414C18FEF810F8330A0F52601CF
:10380000370133E0430E511C611C711C6D817E81B8
:103810008F8198850E94D4138B838823E1F0C501A2
:103820000E94C91218C0B0E4CB16D104E104F1041F
:1038300009F4F5C0C701B6010E94D413811101C07B
:103840000150EFEFCE1ADE0AEE0AFE0AA2CF49843B
:103850005A846B847C8473016201A4CF4D805E80A6
:103860006F807884F8CF8BEF810F8330A0F5D7017C
:10387000C6010396A11DB11D89879A87AB87BC87B6
:103880006D817E818F8198850E94D4138B838823DC
:10389000F1F22601370194E0490E511C611C711CA4
:1038A00069857A858B859C850E94D4138C838823B7
:1038B00091F28B819C818130AFEF9A0710F0982FA5
:1038C0008827163021F0173021F0B1D7C4CF8BD71D
:1038D000C2CF05D7C0CF143009F0C0CF6D817E8133
:1038E0008F8198850E94D413182F26013701B4E0E8
:1038F0004B0E511C611C711CA70196012D5F3F4F9F
:103900004F4F5F4F2D833E834F835887CA01B901C4
:103910000E94D413112309F482C0882309F47FC0C4
:103920008150990B989E9001999E300D1124412F42
:103930004150550BCA01820F931F019708F48BCF9A
:10394000AFE9BFE01197F1F700C00000F6CF6801C2
:10395000E7E5DE1AFFEFCF16D10409F048F567E777
:1039600072E08C2D16D9892B19F58FE08C9DF00112
:103970008D9DF00D1124EF57FD4F8281813099F517
:103980008091770290917802892B91F08091790251
:1039900090917A02892B61F080917B0290917C0258
:1039A00020917D0230917E02822B932B892B19F17D
:1039B000D70115963C903320B1F10E35BCE71B07BB
:1039C00059F10F35ECE71E0741F00D35FCE71F07F5
:1039D00051F5809100018823F9F01092000180E0F8
:1039E0000E9445111CC0823019F780917B02909192
:1039F0007C02892BE9F22FE02C9DC0012D9D900DBA
:103A00001124FC01EB57FD4F20812E7F20838F571F
:103A10009D4F0E94D010CCCF81E0809300012C9666
:103A2000E2E10C94643080910001882309F4E3C240
:103A3000380120EE621A71082090250338E06316E1
:103A4000710408F087C098012770332781E090E067
:103A500001C0880F2A95EAF7332009F478C0282A94
:103A6000D7018D919C910E94EB0B21E030E0290160
:103A700002C0440C551C8A95E2F7E0911303F091C3
:103A80001403FE83ED832091B8013091B9013A8788
:103A900029879EEBC92E92E0D92EB12CA12CB4E03F
:103AA000AB16B10409F41EC3211005C0D60112964D
:103AB0008C9181118BC0F601838190E08421952146
:103AC000892B09F483C08085982F977009F487E0CB
:103AD000F8E06F16710408F057C0332009F450C0A5
:103AE00086958170882309F471C0D6018D909C90D1
:103AF0000815190519F4332009F468C0ED81FE8119
:103B0000CE16DF0609F462C0D6011D96ED91FC9138
:103B1000309721F08081882309F458C0622DC601B6
:103B20000E944E09882309F451C00815190509F0AF
:103B3000FFC20115110509F400C3311000C3E98566
:103B4000FA858E169F0609F041C0312CF8C2809587
:103B5000282286CF332009F4AEC21093B901009316
:103B6000B8010E94460860930A0370930B03809388
:103B70000C0390930D03109212031092110370CF57
:103B800082FB882780F9AECF332001F18170AACF64
:103B90000E941711F9C20497813A910558F46C2DCF
:103BA00080EB91E00E947308332009F424C20E9444
:103BB000A80D35CF0E94A80D8FE39CE90197F1F77E
:103BC00000C000008C2D0E94A811EECF9FEFA91A13
:103BD000B90AAFE0CA0ED11C62CFDC012D913C9135
:103BE0000217130709F001C2311001C2109210032D
:103BF00080E00E944511FFC1902F812F3AC2FA0147
:103C00004385548565857685C6010E94F308D601F3
:103C100014968C9181FF31C2C6010E94B710809129
:103C20001603909117030817190709F026C210927E
:103C300017031092160321C2882349F081E00E94E5
:103C4000880C43E062E081E00E945F0CE8CE81E0F6
:103C50000E947D0CF6CF82E0FBCF882319F1013062
:103C60003CE71307E9F003304CE7140799F001151E
:103C70005CE71507B9F4109225030E94D80D8FEF69
:103C800094E3ACE081509040A040E1F700C0000018
:103C90000E9435086FEF7FEF90E080E00E94913343
:103CA0000E947D13F701C080D1808823D9F1C6011D
:103CB0000E942D14182F682FC6010E941F0CB601F8
:103CC000812F0E9412140E94D00A182FC82ED701EB
:103CD00015962C91159716963C9132953F70D92EDA
:103CE000D2948FE0D822B8E0DB1609F4B4C0BD1539
:103CF00078F1E3E0ED15D8F0092F0F70907FF1E037
:103D0000FD15C8F5802F903211F08295807FA1E0DB
:103D1000CA1270C0222309F467C0363060F40E94D2
:103D20000E1109C0C6010E94EB0B182FC8CF34E05A
:103D3000D31609F476C04D2D4850550B443051052B
:103D400010F40E94DD0860E0C7010E948A1467CE6B
:103D500049E0D41609F4F0C086E08D0D8F708230F2
:103D600050F7812F52EF1513F7C0892F8F7122233F
:103D700009F428C1EEC0992311F00295007F812F2C
:103D80002223C9F0002369F090E2910F983010F0DF
:103D900011110BC080912503082B009325030E946D
:103DA000A80D812F0E94A811C6CF80911503082B62
:103DB00000931503F4CF0E941711002309F4BBCF21
:103DC0000095105E183010F0C11008C080912503D6
:103DD0000823009325030E94A80DADCF8091150301
:103DE000082300931503F7CF353008F0A4CF0E94C5
:103DF0000411A1CF222321F0332309F490CFD1CF96
:103E00003323A9F3193349F4BFEFE7EEF3E0B150E0
:103E1000E040F040E1F700C00000812F0E94171140
:103E20008ACF892F86958695837061F0813009F05D
:103E300082CF812F9370211102C080E090E00E9418
:103E40008D0879CF812F9370211102C080E090E01E
:103E50000E94B50870CF892F8370A1F521116BCF17
:103E6000812F829586958770880F880F412F4F701C
:103E7000082E01C0440F0A94EAF7212F207114FF85
:103E800007C02FE030E001C0220F8A95EAF72095A5
:103E9000969596959370923081F0822F842B933073
:103EA00031F080912002913029F0242B82230E944E
:103EB000920C41CF842B822BFACF242B80912002AD
:103EC0008227F5CF8695222311F0892F81708823D0
:103ED00009F431CF812F829586958770880F880FDE
:103EE000412F4F70082E01C0440F0A94EAF7212F8A
:103EF000207114FF07C02FE030E001C0220F8A9527
:103F0000EAF72095969596959370923081F0822FDE
:103F1000842B933031F080913B02913029F0242B97
:103F200082230E94550C07CF842B822BFACF242B9F
:103F300080913B028227F5CF092F0F70222329F0B1
:103F4000802F0E94880C812FEACE812F0E940411BD
:103F5000802F0E947D0CEFCE42EF411768F050EFAA
:103F60001517B9F0A1EF1A1749F1222371F1311198
:103F700018CF892F8F7126C0B3EF1B13F6CF80E0C7
:103F8000222379F29F7181E001C0880F9A95EAF7A8
:103F9000C8CF222379F0353008F0CDCE292F2F71EC
:103FA00081E090E001C0880F2A95EAF790913B02EA
:103FB0008927B7CF363008F0BECEF0CF892F8F716A
:103FC000222339F20E94880CB6CE332359F089336C
:103FD00009F023CFEFEFF7EE23E0E150F04020406F
:103FE000E1F719CF892F8F71B4CF332021F0FC0175
:103FF000808585FFFDCDC80197558F3F910511F054
:1040000008F084C0C8018C7F9927892B09F007CD5F
:104010002FE0029FF0011124AF014F575D4F6A015D
:10402000D70115968C91EB57FD4F908180FB90F94D
:104030009083882309F4E3CDBCD990932F02809319
:104040002E02F60182818F5F828380911503909109
:104050002503892B83834581568165857685C60135
:104060000E94F308D60114968C9181FFC5CD90E093
:1040700080E09093160380931703F70185819801E0
:10408000205E32452032310508F0E7CD81110ACE9D
:104090000F7181E090E09C0102C0220F331F0A954E
:1040A000E2F78901622F83E090E00E947733802F4E
:1040B0000E94920CB4CC8091B8019091B90108177C
:1040C000190781F41092B9011092B80110920A03F5
:1040D00010920B0310920C0310920D031092120316
:1040E000109211038091130390911403009709F427
:1040F00082CFE8E06E16710408F06FCD622D0E9449
:104100004E09811103C081E00E944511D701159627
:104110008C910737BCE71B0709F48ECD0837ECE715
:104120001E0709F0AACF882309F495CD82E087CD38
:104130008114910409F003CD312C912C812C80E065
:104140000E944511D0921403C092130381E0809322
:1041500010038FE08A9DF0018B9DF00D1124E25435
:10416000FD4F858180930E0331100EC081149104A0
:1041700059F0808191819C0124503109213A310507
:1041800008F006CD0E9466088FE08A9DF0018B9DA5
:10419000F00D1124E254FD4FC680D780C6019A95D8
:1041A00081159F4110F420EED22299249394C601E8
:1041B00001978F339E4708F0912C8FE08A9DD001A4
:1041C0008B9DB00D1124A254BD4F1996ED91FC9119
:1041D0001A97309731F01B966D917C9181E009958B
:1041E00098229920B1F08FE08A9DF0018B9DF00D0F
:1041F0001124E254FD4F868197810E94A50C809383
:104200000F03C60148E06416710408F0C4CC0E9494
:10421000F8080E94A80DC8CCB0E0A0E0E2E1F1E20D
:104220000C9453308091D801807F09F050C0809168
:10423000D701882309F44BC0E091750387E0D82E9D
:1042400080913C038E1709F442C00E2F10E0ED9DC3
:10425000F0011124E35CFC4F84818823E9F1D09EB6
:10426000E001D19ED00D1124FE01E35CFC4F918151
:104270008091D301981330C090818091D20198131E
:104280002BC08581811128C0E280F3808091D40108
:104290009091D501E81AF90A60E082ED91E00E9460
:1042A0008A140E94DD15E816F906B0F48091D80151
:1042B0008F7080618093D801CD5BDC4F88818F70D7
:1042C0008061888382ED91E00FDA0E94E10BCDB727
:1042D000DEB7E7E00C946F30F8013196E770B0CFAD
:1042E000ADE0B0E0E6E7F1E20C944B308C0186E003
:1042F000F801DE01189601900D928A95E1F7F80118
:10430000F480E58082ED882E81E0982E8091D601A0
:10431000811128C0F11003C0FF24F3941BC0EE20CC
:10432000F1F0C8010E946414F82E8823C1F087E0E0
:10433000F801A2EDB1E001900D928A95E1F780912C
:10434000D601813031F48091D2019091D3010E9445
:10435000571462DF8F2D2D96EFE00C946730C80163
:10436000C3D9DACFC280D380B090D7018091D40175
:104370009091D5013601681A790ABB2009F4D4C09E
:104380005080A18060E082ED91E00E948A140E943A
:10439000DD156816790608F0A0C0FF2009F4BCCF2F
:1043A0008091D801382F307F2091D301F80191817D
:1043B000311156C0FE2C291313C02091D2019081D7
:1043C00029130EC0E11045C08F7080618093D80121
:1043D00082ED91E089D98091D801F8018683BACF26
:1043E000E11037C06A2D852D0E949B066A2D852D10
:1043F0000E949B06E82E8111ADCF5886A98688853C
:1044000099850E945714292F22952F70903458F4C3
:104410009F70223080F0992391F0F8019681907F6F
:1044200071F4FE2C97CF2A5F2F70223060F0C80104
:104430005BD9EB2CF6CF992311F0882391F3805EA2
:10444000883078F3F4CF803F60F3815F833048F3A6
:10445000EECF8091D80181608093D801F12C7ACF82
:10446000291314C02091D201908129130FC0E110AB
:104470000DC08683C80138D987E0F801A2EDB1E00C
:1044800001900D928A95E1F7FB2C64CFC8010E9440
:104490006414882309F463CFEE2009F460CF80917F
:1044A000D801803280F02091D2013091D3013A833B
:1044B0002983DC82CB829091D6019D831E828F83DB
:1044C000CE01019611D987E0F801A2EDB1E001908B
:1044D0000D928A95E1F7A0DE1FCF8091D801982F29
:1044E000907F49F482ED91E0FFD887E0F4011192CA
:1044F0008A95E9F7B3CFFF2009F40ECF2091D301BD
:10450000F80191812913C2CF2091D2019081291302
:10451000BDCFE110BBCF8683C801E6D887E0F401A8
:1045200011928A95E9F7B0CF60E082ED91E00E94A8
:104530008A140E94DD1568167906B8F6FF2009F482
:10454000EBCEFE2CEE2009F40ACF9091D301F801B6
:10455000818198132BC09091D2018081981326C03D
:104560008091D4019091D501C81AD90AF8ECCF16E0
:10457000D10498F48091D80180FD0FC0982F907FCE
:1045800061F0F8018683903F31F0982F907F905F23
:104590008F70892B8683C801A7D887E0F801A2ED28
:1045A000B1E001900D928A95E1F7D4CEC8010E9446
:1045B0006414811188CF8091D80181608093D801E3
:1045C000C80192D8C7CEABE1B0E0E9EEF2E20C94BC
:1045D00057304E8B5F8B688F798F8A8F9B8F9111AD
:1045E000109215031D8A86E0FE017696DE011F9665
:1045F00001900D928A95E1F78B89882351F061E053
:10460000CE010F960E948A1461E0CE010F960E949F
:104610008A1487E0FE013F96DE01189601900D9204
:104620008A95E1F7CE0108965BDE81110CC087E028
:10463000FE013896DE01119601900D928A95E1F700
:104640004C8541110BC017E08091750390913C039C
:10465000891334C06B96E3E00C94733020913C03D3
:1046600030E0C9010196877099275091750358175A
:104670001906A1F04D8397E0929FD001939FB00D52
:104680001124A35CBC4FFE01319601900D929A95C6
:10469000E1F780933C030E94E10BD5CF10922503F4
:1046A0000E94D80D10923C031092750387E0E2ED52
:1046B000F1E0DF011D928A95E9F7C5CF819FC00126
:1046C0001124835C9C4F0CDE882321F280917503BA
:1046D00090E001968770992780937503B5CFA6E087
:1046E000B0E0E5E7F3E20C9456308C01909372024F
:1046F00080937102011580E21807C0F4802F0E9498
:104700001711C8010E94A50C9801205E31092830BC
:10471000310518F00115110531F40E940411269697
:10472000E4E00C9472300E94F110F9CF80EF89839D
:104730008A830E94D9198160682F9C838B83498169
:104740005A817C8181E090E03EDFE9CF0F931F9397
:10475000CF93DF938C01EB0167E772E08C2F0E940F
:10476000C915892B71F4DD27CD58DD4F8881F801FB
:10477000128218828330E9F048F4813059F0823097
:1047800081F0DF91CF911F910F9108958430B1F0A6
:104790008530B9F78091770290917802009789F37C
:1047A00006C08091790290917A02009799F397DF81
:1047B000E8CF80917B0290917C02F7CF80917D02BF
:1047C00090917E02009799F72091770230917802BC
:1047D0008091790290917A0221153105F9F20097C2
:1047E00031F7C901E4CFA6E0B0E0E9EFF3E20C94C1
:1047F00058309093720280937102811520E29207E3
:1048000030F40E94F0112696E2E00C94743080EFB0
:1048100089838A830E94D9198160682F9C838B8346
:1048200049815A817C8181E091E0CDDEECCFCF934C
:10483000DF93D82FC92FD7DF8D2F9C2F50DFDF912B
:10484000CF9108950F931F93CF93DF938C01862F01
:1048500067E772E00E94C915892B99F4C09177022D
:10486000D0917802209769F0F8018281833039F481
:10487000CE01DDDFCE01DBDFCE01D9DF02C0843027
:10488000D8F7DF91CF911F910F9108950F931F9348
:10489000CF93DF938C01EB0167E772E08C2F0E94CE
:1048A000C915892B09F059C0FE01FF27D8011296BE
:1048B0008C911297ED58FD4F8130B9F414969C916C
:1048C00092FF02C080830AC090FFFCCF82E0808309
:1048D0008091790290917A020097B9F480917702E1
:1048E000909178020097C9F110C08230A1F514961A
:1048F0008C9182FD26C080FD0AC083E08083809178
:104900007B0290917C020097F1F06DDF26C084E07D
:10491000808380917D0290917E020097B1F7809113
:104920007702909178020097E9F081DF8091790217
:1049300090917A02009749F78091770290917802DE
:10494000E4CF85E080838091770290917802009790
:1049500021F06DDFF1CF86E08083DF91CF911F9151
:104960000F9108958091790290917A02BBCFA6E0D1
:10497000B0E0EDEBF4E20C9456300E94D9198C01B2
:104980008091E1019091E2018017910779F01982FD
:104990001A820E94D919682F49815A81792F80E0A3
:1049A00090E011DE1093E2010093E1012696E4E02D
:1049B0000C9472301F921FB61F9211248F939F93F5
:1049C000AF93BF9380911F03811113C08091200387
:1049D00090912103A0912203B09123034196A11D40
:1049E000B11D8093200390932103A0932203B093E1
:1049F0002303BF91AF919F918F911F901FBE1F9076
:104A00001895CF93DF93EC010E94D9198C1B9D0B55
:104A1000DF91CF910895CDB7DEB7AF970FB6F89479
:104A2000DEBF0FBECDBF85B7806885BF85B7806804
:104A300085BF84B7877F84BF0FB6F894A89580910F
:104A40006000886180936000109260000FBE80E873
:104A500090E00FB6F89480936100909361000FBED0
:104A600081E08093400183E999E09093AF018093C6
:104A7000AE010E946E090E94F9150E94DE060E9496
:104A80007F078091E20084608093E20078948091B7
:104A900030038823A1F01091E9001F709091EC0081
:104AA000892F817090FD80E8182B1092E900809189
:104AB000E80083FD0E94E80D1F701093E90082E07A
:104AC00084BD93E095BD9AEF97BD80936E001092E0
:104AD00010021092110210921202109213020E9400
:104AE000BB13811102C00E94A4158091D80080617F
:104AF0008093D8002AE12A95F1F700C08091D9006F
:104B0000182F117080FD04C00E94DE061092300341
:104B100010931803109319031093290111110E9487
:104B2000E02E809129018091290195E0811190E08A
:104B300090931F0285E0891B80931E020CE811E010
:104B400031E9E32E31E0F32ED8018D918D018F3FB5
:104B500011F00E949509E016F106B1F701E911E0A4
:104B600027E9E22E21E0F22EF80181918F018F3F9B
:104B700011F00E949509E016F106B1F78AE0E5E62A
:104B8000F2E0DF01282F1D922A95E9F7E4E1F2E037
:104B9000DF011D928A95E9F790E080E00E9463337F
:104BA000833E9E4F21F40E94BB13811129C063EE06
:104BB0007EEF90E080E00E94913360E082E090E040
:104BC0000E94773381E08093200261E083E090E0EF
:104BD0000E94773360E074E184E090E00E949133BA
:104BE0000E94A41540E050E0BA018FE090E00E94DE
:104BF000893340E050E0BA0183E190E00E948933BC
:104C000082E090E00E945B338093230284E090E096
:104C10000E94633390932202809321020E94E5193F
:104C2000EFEFF6E721E0E150F0402040E1F700C06F
:104C300000000E94E5198091650280FF08C06FEFB7
:104C40007FEF90E080E00E9491330E94350883E07E
:104C500090E00E945B330E94920C809118038111B6
:104C6000ABC082E080935C0280E88093760348D7F3
:104C70006BE070E08BE591E00E947D16882389F15E
:104C800080915C0265E070E081FD98C086E591E06E
:104C90000E947D16882329F16DE070E084E491E0A4
:104CA0000E947D168823E9F00E9446086BA77CA726
:104CB0008DA79EA7DC01CB01805A9541AF4FBF4F16
:104CC0008093FA029093FB02A093FC02B093FD0242
:104CD0000E94D60C81E08093FF028093FE02109226
:104CE0005D0280911803811102C00E94E32E8AE2C6
:104CF00091E090933B0380933A0385E692E03AE09B
:104D0000380F3FA78091300310E400E192E1F92EC3
:104D1000853009F489C00E94E51904E212E085E6B5
:104D2000682E82E0782E2EE232E0D301F8019191D4
:104D30008D912E173F0709F483C09817C1F3809017
:104D40001803B5E6EB2EB2E0FB2ED12CD701CD90A7
:104D50007D01F80191908F019C1429F19C24B12CC4
:104D6000AA24A3948A2D8921B1F08820A1F0B982C8
:104D7000DA820E94D9199C838B83F1E0FD8391E054
:104D80008A2D8C2109F490E09E8349815A816B81A0
:104D90007C818D8118DCB394AA0C26E0B212E2CF9C
:104DA000F8013197C082D3943AE0D312CFCF0E945A
:104DB000AE09FF24F39448C080E054CF81E591E030
:104DC00067CF80913003843029F10E948A161092B7
:104DD0001F0348E150E00FB6F894A8954093600097
:104DE0000FBE1093600083B7817F846083BF83B759
:104DF000816083BF7894889583B78E7F83BF0FB619
:104E0000F894A8958091600088618093600010926A
:104E100060000FBE0E94E519E5E6F2E08191811184
:104E2000F7C55FA55E13FACF80913003853009F492
:104E3000C8CF109225030E94D80D0E94DD086BCFC9
:104E400098137DCF94DDF12C80911803882309F409
:104E50006EC0009111031091120301151105C1F1EB
:104E60008090060390900703A0900803B090090378
:104E70000E9446086BA77CA78DA79EA7DC01CB01EB
:104E800088199909AA09BB094091020350910303AB
:104E9000609104037091050384179507A607B7076F
:104EA000B8F0C8010E94F011109212031092110381
:104EB0001092060310920703109208031092090340
:104EC0001092020310920303109204031092050340
:104ED000C0901603D0901703C114D10441F1A090E3
:104EE0002E02B0902F020E94D9198C010A191B09B9
:104EF000C6010E94DD1580179107C8F48091160342
:104F0000909117039C0133278C7F9927892B09F0F7
:104F1000C5C04FE0429FC001439F900D11248F57A1
:104F20009D4FDC0114962C9122FF0E94D01080919D
:104F3000FF02882309F464C000915E0210915F02B1
:104F40000E94D919801B910BC29780F10E94D91938
:104F500090935F0280935E0289E793E090938005CF
:104F600080937F0580911803882309F4BCC08BE8E7
:104F700091E00E946A0D80913B020E94950C823064
:104F800009F4ABC008F08DC08111A4C084E891E0A1
:104F90000E946A0D8CE691E00E946A0D80E392E027
:104FA0000E94041286E691E00E946A0D80917703C8
:104FB00090917803892B09F0E5C08091FE02882347
:104FC000F9F00E9446086BA77CA78DA79EA7809149
:104FD000FA029091FB02A091FC02B091FD022BA578
:104FE0003CA54DA55EA5281B390B4A0B5B0BDA01CE
:104FF000C9018F3F9F4FAF4FBF4710F40E948A16E1
:10500000F1100E94A4160E94DD0890916002891799
:1050100021F0809360020E94460880913003843022
:1050200009F070CE83E08093E9008091E80082FF70
:1050300069CE8091E80090E085FF0CC00E94FD06DB
:1050400040E2E42EF12C8E010F5F1F4F882309F4FC
:105050007DC191E08091E8008B778093E8009923EF
:1050600009F450CE00916F0210917002E981011590
:10507000110509F479C1EE3F09F09AC18A818330A4
:1050800020F08550833008F093C1EA81EE3008F0BB
:105090008FC1F0E0E854FC4C0C948B3090E080E041
:1050A00040CF8330E9F01F928F9381E491E09F938A
:1050B0008F9384E392E09F938F930E94BE3084E3AA
:1050C00092E00E9404120F900F900F900F900F909B
:1050D0000F9060CF8DE791E05BCF86E791E058CFEE
:1050E0008FE691E055CF109125030E94DD08082F2F
:1050F0000E94D60C82EE91E00E946A0D812F82728E
:10510000C1F581ED91E00E946A0D8BED91E00E9466
:105110006A0D812F817181F585EC91E00E946A0D05
:1051200081E00E94770D8BEC91E00E946A0D812F47
:10513000847429F585EB91E00E946A0D8FEB91E074
:105140000E946A0D18788FEA91E011F082EB91E0ED
:105150000E946A0D81E00E94770D82E991E001FFD3
:1051600002C081EA91E00E946A0D81E00E94770D01
:105170001DCF86ED91E0C7CF88EC91E0CFCF8AEBD1
:1051800091E0DACF8091FF02882309F416CF809155
:105190005D02811112CF0E94A416209177033091F5
:1051A00078032115310509F408CF80E041E050E093
:1051B000082F10E04A01082E02C0880C991C0A949E
:1051C000E2F7B90168217921672B11F48F5FF0CFE5
:1051D00090915C0290FF97C0880F880F880F809392
:1051E000380110923B01895F8093390183E08093FD
:1051F0003C0124E630E047E050E066E371E088E7F8
:10520000B5D4892B09F0D9CEA801F5E0440F551F7C
:10521000FA95E1F780915C0280FF87C0ECE3F2E051
:1052200080E2DF011D928A95E9F7EBE9F1E0FCA746
:10523000EBA767E971E0E7E0DE2ECC24C394EBA591
:10524000FCA5A191FCA7EBA7FB018191BF01840FF5
:10525000952F911D9C0127583C4F2901EA2FF0E022
:10526000E45CFD4F90E080E0AD2CA81AEC2C082EF9
:1052700001C0EE0C0A94EAF7120100E0D1011D9181
:105280001D011E212A2D201B2770B22E022E000C7C
:10529000330BB12F01C0BB0FBA94EAF7BB2E319587
:1052A000219531092770332701C016952A95EAF711
:1052B000B12A1081B12AB0820F5F0830F9F6019649
:1052C00031968830910581F6EBA5FCA5EF59F140A8
:1052D00009F0B5CF04E610E020E230E04CE352E004
:1052E00060E488E7CBD4892B09F067CE8094909452
:1052F0008091770390917803882299229092780385
:10530000809277035ACE8295880F807680933801F9
:105310009801369527953695279520933B01815E18
:105320008093390120933C0164CF47585C4F04E6D9
:1053300010E020E230E0D4CF8091F100D8018D93CD
:105340008D01B1E0EB1AF10809F483CE8091E800F9
:1053500085FDF2CF8091E8008B778093E8000E9472
:10536000FD06882399F375CEE43148F4EE2351F01D
:10537000E150E33138F4F0E0EA53FC4CCCC6EE3FA8
:1053800009F483CE8FEF898313C01A8289E08B835F
:105390000FC08A81823009F458C3833071F08130A4
:1053A00089F70E944608BDD66B837C838D839E83DC
:1053B000CE0101960E94D006A5CC80910003909169
:1053C0000103892BA9F3FE013396D3018D913D0191
:1053D0008193BFE66B16B2E07B06B9F7E9CF8A810D
:1053E000823081F62B813C814D815E812BA73CA7C9
:1053F0004DA75EA7CA01B90194D688E290E00E9449
:105400007733D6CF4C816B818A810E94E313982732
:10541000892798279E838D83CBCF2D813E8132278C
:10542000232732274C816B818A810E949413C0CF3D
:105430000E941215BDCF80E18A83BACF1A8280E420
:10544000A6CF8C818D3108F0B3CF8A809B809824C1
:1054500089249824C82ED12CF12CE12C2401712C04
:10546000612C37EB831A3CEF930AAE014F5F5F4F1D
:105470005A0110E000E0C401800F911FA80170E004
:1054800060E04C155D056E057F0508F091CF440D79
:10549000551D661D771D403451056105710558F491
:1054A0000E945B33D50114968C930F5F1F4FFFEF63
:1054B000AF1ABF0AE0CFF5011482F7CF8091000345
:1054C00090910103892B09F473CF8C818D3108F001
:1054D0006FCF8A809B80982489249824C82ED12C51
:1054E000F12CE12C2401712C612C27EB821A2CEF7A
:1054F000920AAE014F5F5F4F5A0110E000E0C40115
:10550000800F911FA80170E060E04C155D056E05ED
:105510007F0508F04DCF440D551D661D771D4034A5
:1055200051056105710528F4D50114966C910E940E
:1055300077330F5F1F4FBFEFAB1ABB0AE0CF0E945C
:10554000B41436CF86E078CF8C818D3108F030CF1F
:10555000882E912CB12CA12CCA80DB80DC24CD2498
:10556000DC24F12CE12C8E010F5F1F4F412C512CBC
:105570003201C6018996481459046A047B0408F074
:1055800017CFE0EDCE16E2E0DE06E104F10490F480
:105590000E945B33D80114968C93FFEF4F1A5F0A79
:1055A0006F0A7F0A0F5F1F4F2FEFC21AD20AE20A5B
:1055B000F20ADFCFF8011482F0CF2C81A22EB12C99
:1055C0002D3108F0F5CE8A819B819827892798276D
:1055D000803D32E0930708F0EBCEC22ED12CF12CA7
:1055E000E12C2C01712C612C40ED52E060E070E068
:1055F00044195509660977094C155D056E057F0547
:1056000008F4D6CE1C0149E2240E311C209100037F
:1056100030910103232B21F1CE0101965C0110E0B2
:1056200000E0C101800F911FA80170E060E04C15FF
:105630005D056E057F0508F0BBCE440D551D661D4A
:10564000771D403D52406105710520F4F5016481EC
:105650000E9477330F5F1F4FFFEFAF1ABF0AE1CFF2
:105660008C010170112780FF0CC088960E945B336B
:105670009D8189279827892781159C4711F48FEFF1
:105680008D83D701C601840D951DA61DB71D45014B
:1056900080FF1AC0B1E08B1A9108E5E0F0E0EC0F52
:1056A000FD1FE80DF91DFCA7EBA7C1018A0D9B1D8D
:1056B0000E945B33ABA5BCA59C9181159C4721F44E
:1056C0008FEFEBA5FCA58083E1E0F0E0EC0FFD1F80
:1056D000E00FF11F2FEF0815190508F09DCF9481F9
:1056E000858181159C4711F4248325830E5F1F4F0C
:1056F0003296F1CF8091000390910103892B09F438
:1057000057CECE0101960E94D0062FEF31EE44E035
:10571000215030404040E1F700C0000096CA88E0C8
:10572000EBE4F1E0DE01919601900D928A95E1F7AC
:10573000FE013D9684E1DF011D928A95E9F786E03E
:1057400089831A821B821C8288E07496DE0115967A
:1057500001900D928A95E1F72BCE8CE98983B1E017
:10576000BA831B821C8224CE8C81682F70E0762F36
:1057700066278B81860F972F911D092E000CAA0B8F
:10578000BB0B35E0880F991FAA1FBB1F3A95D1F7B5
:10579000AC01BD01405E5F4F6F4F7F4F803EEFEF2A
:1057A0009E07AE07BE0708F003CE8C39F1E09F07D5
:1057B000A105B10508F0FCCD4D3921E05207610586
:1057C000710520F04CE951E060E070E0481B590B96
:1057D000BC0168517E4FCE010196AAD4E9CD4AE1C1
:1057E00050E06FEF70E0CE010796C1D480910003C6
:1057F00089830A8384E08B838C8399E09D838E83E5
:10580000D7CD81E090E09093700280936F0282E3A5
:1058100090E090936402809363020E94D919909360
:10582000620280936102C4CD012B71F1E0906902A4
:10583000F0906E0200916102109162020E94D919EB
:10584000801B910B8536910540F1E4FE26C0F4FEE5
:1058500024C00E94D91990936202809361028091C2
:1058600063029091640201979093640280936302B3
:10587000892B51F41092700210926F0281E090E037
:1058800090930103809300038091000389838091AA
:105890006F028A83809163027ACD82E390E09093D5
:1058A000640280936302F0CF109201031092000310
:1058B0007FCD40E250E06FEF70E0CE01019657D40B
:1058C00077CD8B81823009F451C080F4811137C0CB
:1058D000FE0135968BE1DF011D928A95E9F784E0A0
:1058E00089831A828B831C8218A262CD853009F4C9
:1058F00072C0863009F05CCD1C818AE0FE013596CD
:10590000DE01919601900D928A95E1F78BA19CA101
:105910000E9486099CA38BA38FEF143060F4FAE0F9
:105920001F9FB00111246F5D7C4F4AE050E0CE0113
:105930008196FBD680E089830E94F91539CD8C8150
:105940009AE0F92E8E010F5D1F4FF8012F2D119255
:105950002A95E9F7B8010E94C9158983F801DE018B
:10596000129601900D92FA94E1F722CD1C818AE003
:10597000FE013596DE01919601900D928A95E1F730
:1059800089A19AA10E9486099AA389A38BA19CA1AF
:105990000E9486099CA38BA38DA19EA10E948609CB
:1059A0009EA38DA38FA198A50E94860998A78FA377
:1059B0008FEF143060F43AE0139FB0011124675068
:1059C0007D4F4AE050E0CE018196AFD680E08983DA
:1059D0000E946E09EDCC6C812AE0CE018196DC013B
:1059E000E22F1D92EA95E9F7643080F4629FB001DE
:1059F00011246F5D7C4F4AE050E04DD680E08983F2
:105A00008AE0FE01B196DE011296A2CE8FEFF7CFAB
:105A100080912F03882309F407CA09BDF9BC09B492
:105A200000FEFDCF8091D8008F7D8093D8008091BB
:105A3000E00082608093E0008091E00081FDFCCF77
:105A4000109225030E94D80DEFC988E290E033D66A
:105A50001B821C821D82D3CEFF920F931F93CF9384
:105A6000DF93182FEB011092BC0084EA8093BC00F6
:105A70000E94D919082FF92E8091BC0087FF28C0F9
:105A80008091B900887F883029F08091B900887FA3
:105A9000803199F51093BB0084E88093BC000E948C
:105AA000D919182F092F8091BC0087FF1EC02091A3
:105AB000B900287F90E080E0283199F081E090E003
:105AC000203411F490E080E091958195910909C00E
:105AD000802F9F2D0E940125C817D90768F68EEFE9
