:1000000071C600008CC600008AC600000C94F22D58
:1000100086C6000084C6000082C6000080C60000BC
:100020007EC600007CC600000C9401180C94BD171D
:100030000C94E32374C6000072C6000070C6000072
:100040006EC600006CC600006AC6000068C60000EC
:1000500066C600000C94E91862C6000060C6000085
:100060005EC600005CC600005AC6000058C600000C
:1000700056C6000054C6000052C6000050C600001C
:100080004EC600004CC600004AC6000048C600002C
:1000900046C6000044C6000042C6000040C600003C
:1000A0003EC600003CC600003AC6000005010980BB
:1000B000A101850319012AB700150126B700950192
:1000C00075108100C0050C0901A101850419012AE0
:1000D000A002150126A002950175108100C00660DE
:1000E000FF0961A1010962150026FF00952075082E
:1000F00081020963150026FF00952075089102C052
:1001000005010906A101050719E029E715002501E8
:10011000950875018102950175088101050719008F
:1001200029FF150026FF00950675088100050819AE
:1001300001290515002501950575019102950175A7
:10014000039101C000DA0281FFD9F1DB20A4A62EC1
:10015000AF00A0C0D30000A1C8D30000AED580A8D6
:100160001F408D1420002077706D0A002020004170
:10017000646A75737400526169736520004C6F770F
:1001800065722000515745525459006C617965726F
:100190002000808182838485868788898A8B8C8DE4
:1001A0008E8F9091929394A0A1A2A3A4A5A6A7A894
:1001B000A9AAABACADAEAFB0B1B2B3B4C0C1C2C30B
:1001C000C4C5C6C7C8C9CACBCCCDCECFD0D1D2D377
:1001D000D400FD377A585A000004E6D6B44602002F
:1001E000210116000000742FE5A3E005C7015C5D46
:1001F000003D8889C65436C3174FE4E20F535D9023
:1002000075DB08C965CE09CBAEF2FFD16E964453BB
:100210001750A9573CF31C36AD768D7A7A850BC9F9
:10022000433E38EE515A3E9C7DCEB4C813B9F1CF4F
:100230008867CEB8A9BF34EAE3499914A741D557D6
:100240006A229C4F0765976DEDE65205C276003332
:1002500060F788AF8348607DF4FD32CB5CB4A313B4
:100260000FA779664A7A762F3B30DDCAA3AAFD61D3
:100270007C0E3B1587C37683075D3BDD124776E531
:10028000A83D1F79BCA9EAD200281FB159F01287F6
:100290008D588EB0E9D5FFF4E903A04E8AAB492B07
:1002A00016A40CD6DB26072A60542BABFF818648A8
:1002B00010D3DE5CC6B9BB689DF8152AF17BB84740
:1002C000E73BB48E1DC999D80C800D5362FBA3A7E0
:1002D000CA47DAC48DA5D400E4E0B68391325BFE50
:1002E0007CB952F711374FBEFCB3E328B73538104D
:1002F0002A1B49CA110AF865AD63E9DB025F78A3DE
:1003000096C6F1162682AA735DAB26F1710555F4E7
:10031000D70A2670CB8BE97F1031D1D48C8FFE7435
:10032000B9BAE044C24CBC510C2D33D5C383EC4D5B
:10033000C6E7B18A91DCFD2D84C79284B72A1FE6F7
:10034000A8020BE48425F3DCA34CFFF38400D54919
:10035000FD2D4E472EFA0001F802C80B0000C135F2
:10036000F8FFB1C467FB020000000004595A00AF57
:1003700000AE29001E001F002000210022002B00DB
:1003800014001A00080015001700E0000400160011
:10039000070009000A00E1001D001B00060019000B
:1003A000050000002152E300E2002C002F00350080
:1003B000270026002500240023002D001300120032
:1003C0000C0018001C00340033000F000E000D005C
:1003D0000B00E50038003700360010001100000067
:1003E0002252E7002A00280030000100010001002D
:1003F00001000100010001001E021F022002210273
:10040000220201001E001F00200021002200010026
:1004100001000100010001000100000001000100D5
:1004200001000100010001000100010001000100C4
:1004300001000100270226022502240223020100F6
:1004400027002600250024002300010030022F028F
:100450002E02350031020000010001000100010000
:1004600001000100010001000100010001003A004B
:100470003B003C003D003E003F0001000100010048
:100480000100010001000100010001000100010064
:100490000100000001000100010001000100010055
:1004A000010001000100010001004500440043007B
:1004B00042004100400000004F0052005100500037
:1004C00000000100310030002F002E002E0200003D
:1004D0000100010001000100010000000000000017
:1004E000000000000000000000000000000000000C
:1004F00000000000000000000000000000000000FC
:1005000000000000000000000000000001000100E9
:1005100001000100000000000000000000000000D9
:1005200000000000000000000000000000000000CB
:1005300000000000000000000000000000000000BB
:1005400000000000000000000100010001000100A7
:10055000000000000000000000000000000000009B
:10056000000000000000000000000000000000008B
:10057000000000000000000000000000000000007B
:100580000000000001000100010001000000000067
:10059000000000000000000000000000000000005B
:1005A000000000000000000000000000000000004B
:1005B000000000000000000000000000000000003B
:1005C0000100010001000100000000000000000027
:1005D000000000000000000000000000000000001B
:1005E000000000000000000000000000000000000B
:1005F00000000000000000000000000001000100F9
:1006000001000100000000000000000000000000E8
:1006100000000000000000000000000000000000DA
:1006200000000000000000000000000000000000CA
:1006300000000000000000000100010001000100B6
:10064000000009025B00030100A0FA090400000198
:100650000301010009211101000122440007058165
:100660000308000109040100020300000009211130
:100670000100012222000705820320000107050373
:1006800003200001090402000103000000092111F8
:10069000010001223200070584032000011201003D
:1006A0000200000008D8042DEB0001010203011C28
:1006B000037600690061006C003A00660036003481
:1006C000006300320062003300630000000E034C40
:1006D0000069006C00790035003800000010036CE0
:1006E0000069006C00690075006D00730000000473
:1006F00003090400000000000000000000000000EA
:1007000000000000000000000000000000000000E9
:10071000000000000000007E0F00D4FFFFFFC700B4
:1007200000007800000000000000002A2B280000D4
:100730000000000000000000000000000000290090
:100740000000002C1E3420212224342627252E369A
:100750002D3738271E1F2021222324252633333608
:100760002E37381F0405060708090A0B0C0D0E0F5B
:10077000101112131415161718191A1B1C1D2F31DE
:1007800030232D350405060708090A0B0C0D0E0F42
:10079000101112131415161718191A1B1C1D2F31BE
:1007A00030354C0000000000003E5B4F5B3E003ED9
:1007B0006B4F6B3E001C3E7C3E1C00183C7E3C1880
:1007C000001C577D571C001C5E7F5E1C0000183CFF
:1007D000180000FFE7C3E7FF00001824180000FF1F
:1007E000E7DBE7FF0030483A060E00262979292684
:1007F00000407F05050700407F05253F005A3CE784
:100800003C5A007F3E1C1C0800081C1C3E7F001444
:10081000227F2214005F5F005F5F0006097F017F77
:1008200000006689956A0060606060600094A2FFC5
:10083000A2940008047E04080010207E2010000806
:10084000082A1C0800081C2A0808001E1010101096
:10085000000C1E0C1E0C0030383E383000060E3ED8
:100860000E060000000000000000005F0000000015
:100870000700070000147F147F1400242A7F2A1227
:100880000023130864620036495620500000080710
:10089000030000001C224100000041221C00002A2D
:1008A0001C7F1C2A0008083E0808000080703000E9
:1008B0000008080808080000006060000020100818
:1008C0000402003E5149453E0000427F4000007254
:1008D00049494946002141494D33001814127F10FF
:1008E000002745454539003C4A494931004121111D
:1008F000090700364949493600464949291E000082
:1009000000140000000040340000000008142241E0
:100910000014141414140000412214080002015998
:100920000906003E415D594E007C1211127C007F89
:1009300049494936003E41414122007F4141413E03
:10094000007F49494941007F09090901003E4141B1
:100950005173007F0808087F0000417F410000209C
:1009600040413F01007F08142241007F4040404049
:10097000007F021C027F007F0408107F003E41417F
:10098000413E007F09090906003E4151215E007F7A
:10099000091929460026494949320003017F01030C
:1009A000003F4040403F001F2040201F003F403894
:1009B000403F0063140814630003047804030061DB
:1009C00059494D4300007F41414100020408102075
:1009D00000004141417F0004020102040040404008
:1009E0004040000003070800002054547840007F76
:1009F0002844443800384444442800384444287F7C
:100A00000038545454180000087E090200182424A9
:100A10001C78007F080404780000447D400000201A
:100A200040403D00007F102844000000417F40000E
:100A3000007C04780478007C08040478003844447E
:100A40004438007C1824241800182424187C007CC6
:100A5000080404080048545454240004043F442467
:100A6000003C4040207C001C2040201C003C4030CA
:100A7000403C004428102844004C9090907C004456
:100A800064544C4400000836410000000077000028
:100A9000000041360800000201020402003C262347
:100AA000263C0000000000008080808000000000E4
:100AB0000080E070180C1830E080000010F89010F2
:100AC00030783010B8FC3810000000000000F8FC4E
:100AD000F8000000000000000000000000001C9C66
:100AE0001C00000000F8FCF80000000000001CFCE6
:100AF000F8C000000000000080E0F87C1C0000004E
:100B0000F0FCFCFC1C1C1C1C1C1C1C1C0000000021
:100B10000000C0F0F8381C1C1C1C1C1C3CF8F0E049
:100B200000E0F0F0F0E0ECEEF7F37020007C7C7C6D
:100B30007E007E7E7E7F7F7F000080C0E07E5B4FF8
:100B40005BFEC00000C000DCD7DEDEDED7DC00C00C
:100B50000000000000000000000000000000000095
:100B600000000000000000000FBCE0818181838351
:100B700082870C183060C000001FFE90B9FFBB9147
:100B8000983C1811133F1100000000000000FFFF07
:100B9000FF00000000000000000000000000FFFF58
:100BA000FF00000000FFFFFF000000000000000049
:100BB000030F7FF8E080F0FC3F0F01000000000011
:100BC0003F3F3F1C1C1C1C1C3C78F8F0E0800000E0
:100BD0000000C3E7FF7E3C3878787070F8FFDF874D
:100BE000000F1F3F7F7F7F7F7F3F1E0C001F1F1F57
:100BF0003F003F3F3F7F7F7F00307B7F783020206A
:100C000030787F3B0003000F7F0F0F0F7F0F000333
:100C100000000000000000000000000000000000D4
:100C2000000000183C24666341C181808080808080
:100C30008081C14162386C4CC68181808080808017
:100C400081C14362361C1800000000000000FFFF55
:100C5000FFC0C0C0C0C0C0C0C0C0800000007FFFD7
:100C60007F000000007FFFFFC080000000E0E0C0C8
:100C7000C0C0E0F97F1F0700000000000000000076
:100C800070F0E0E0C0C0C0C0E0F0F87F3F0F0000AF
:100C9000000F3F7FF9E0E0C0C0C0C0C0E0F97F3F77
:100CA0001F00000000000000000000000000000025
:100CB0000000000000000000000000000000000034
:100CC0000000000000000000000000000000000024
:100CD0000000000000000000000000000000000014
:100CE0000000000011241FBECFEFDAE0DEBFCDBF51
:100CF00011E0A0E0B1E0E0E5F5E602C005900D925C
:100D0000AE39B107D9F725E0AEE9B1E001C01D92D7
:100D1000A536B207E1F70E9414240C947B3270C907
:100D2000982FE09159034091200357E0E41302C04B
:100D300080E008952E2F30E05E9FF0011124EF5DDA
:100D4000FC4F8181681306C08081981303C08581A0
:100D50008111EFCFF9013196E770E8CFFC01AC01CA
:100D60004B5F5F4F8FEF91E32191822728E030E0C6
:100D700087FF09C0880F892721503109C9F7E41777
:100D8000F50791F70895880FF7CFE0911E03F091D2
:100D90001F03309739F00284F385E02D309711F06E
:100DA00060E209950895E8EDF0E080818E7F808310
:100DB0001092E2001092DA001092E100A0EEB0E092
:100DC0008C9181608C9380818F77808319BCA7ED93
:100DD000B0E08C918E7F8C9380818F7E8083109287
:100DE000080308952091E4003091E50095E6A901FB
:100DF0002091EC00822F817020FF06C08091E800D6
:100E000080FF06C080E008952091E80022FD1AC00E
:100E100080911403882389F0853089F08091EB005C
:100E200085FD0FC02091E4003091E5004217530783
:100E3000F9F29150E1F684E0089582E0089583E0AC
:100E4000089581E008958091160387FF13C0809173
:100E5000E80082FF06C08091E8008B778093E8006D
:100E600004C0809114038111F2CF0895809114037E
:100E70008823D9F38091E80080FFF8CF8091E800C3
:100E80008E77ECCF982F9093E900242F762F50E0A7
:100E9000891731F07091EC002091ED005091F00035
:100EA00021FD07C09F5F973071F78093E90081E0D3
:100EB00008953091EB003E7F3093EB003091ED00D0
:100EC0003D7F3093ED003091EB0031603093EB00CB
:100ED0007093EC002093ED005093F0002091EE0011
:100EE00027FDE0CF80E00895B0E0A0E0EAE7F7E07A
:100EF0000C94212FC8EDD0E088818F7E8883E7EDA8
:100F0000F0E080818160808384E082BF81E0809313
:100F1000080388818E7F888302EE10E0F80110823A
:100F20001092DA0081EEC82ED12CF6011082888151
:100F30008F77888388818068888388818F7D888384
:100F400019BC1092140310921503109213031092FF
:100F5000120390EEE92EF12CF70180818B7F8083C4
:100F600088818160888342E060E080E08BDFF60169
:100F700080818E7F8083F801808181608083808181
:100F800088608083F70180818E7F80838881806183
:100F90008883CDB7DEB7E8E00C943D2FFC01CB0190
:100FA00020911C0330911D032617370790F00097FE
:100FB00029F42091E8002E772093E80040E0009784
:100FC00051F4411108C08091E80082FF31C080E0F7
:100FD0000895C901F3CF209114032223A9F12530EC
:100FE000A9F12091E80023FD2DC02091E80022FD09
:100FF000EACF2091E80020FFE2CF3091F30020916A
:10100000F200009719F02830310558F041E02830FF
:10101000310509F040E02091E8002E772093E800A8
:10102000CECF41914093F10001972F5F3F4FE9CF21
:1010300080911403882341F0853041F08091E800CD
:1010400083FFC1CF81E0089582E0089583E0089591
:101050000895089587E797E7909301088093000823
:1010600088E19AE00FB6F894A895809360000FBECF
:1010700090936000FFCFA4E0B0E0E1E4F8E00C94CE
:10108000272F8FB7F89420910403309105034091E6
:1010900006035091070329833A834B835C838FBFF8
:1010A00069817A818B819C812496E2E00C94432FA4
:1010B00080912E010895E2EAF1E09191891303C035
:1010C000DF0111971C9291E0E83AF907B1F7089512
:1010D0009C01FC0132968FEF90E04191461751F050
:1010E0008F3F19F4411101C0892F9F5F9630A9F7F6
:1010F0008F3F09F40895280F311D87FD3A95F901B6
:1011000062830895A3E0B0E0E8E8F8E00C94272FAC
:101110009C01809101039091020382179307B1F023
:101120003093020320930103E0911E03F0911F030B
:10113000309761F00084F185E02D309739F084E03C
:1011400089833B832A83CE01019609952396E2E0A9
:101150000C94432FA3E0B0E0E0EBF8E00C94272FD1
:101160009C018091FF029091000382179307B1F0D8
:10117000309300032093FF02E0911E03F0911F03C0
:10118000309761F00084F185E02D309739F083E0ED
:1011900089833B832A83CE01019609952396E2E059
:1011A0000C94432F8091FD02882369F0E0911E0387
:1011B000F0911F03309739F00190F081E02D3097C6
:1011C00011F00995089580E00895FA01309709F02B
:1011D00009950895CF92DF92EF92FF92CF93DF931C
:1011E00000D000D000D0CDB7DEB78E839D83C090F5
:1011F000EF02D090F002E090F102F090F2023BDFBB
:10120000DC01CB018C199D09AE09BF09843F9140D7
:10121000A105B10538F5C092EB02D092EC02E09244
:10122000ED02F092EE0284EF91E0A0E0B0E0809356
:10123000E7029093E802A093E902B093EA028E815C
:101240008093F6029D819093F70226960FB6F8944C
:10125000DEBF0FBECDBFDF91CF91FF90EF90DF904B
:10126000CF90089508DF6093EB027093EC028093B7
:10127000ED029093EE0282E390E0A0E0B0E0D7CFE1
:10128000FC018481862351F482818823B9F068238C
:10129000908593FF05C081E061110FC080E0089543
:1012A000282F2F7082958F70282B962F9F70629514
:1012B0006F70692B81E02613F1CF089581E0FDCF97
:1012C000E6E6F2E090E080E06BE273E24FE453E2A6
:1012D0002FEA32E2768365835087478332872187FE
:1012E0009687858701963F968430910599F70895F2
:1012F00081152CE7920741F42091E5023091E60236
:10130000232B11F490E080E0089580E00895F89494
:10131000E82FE295EF70F0E041A18F7021E030E01E
:10132000B90102C0660F771F8A95E2F7CB01962FAD
:101330009095942391A392A1892B82A378940895E8
:10134000A4E0B0E0E6EAF9E00C94272F8091FD02DA
:10135000882369F090DE69837A838B839C8369811B
:101360007A818B819C812496E2E00C94432F83DE6A
:1013700069837A838B839C838091F5019091F60138
:10138000A091F701B091F80129813A814B815C81EC
:10139000280F391F4A1F5B1F29833A834B835C83C5
:1013A000DECF9091060292FF10C041E0282F2471F9
:1013B000243009F040E031E0282F2871283009F06E
:1013C00030E0431711F02CE0822793FF10C041E07A
:1013D000282F2471243109F040E031E0282F2871B2
:1013E000283109F030E0431711F02CE082273091CA
:1013F000070230FF10C051E0282F2171213009F081
:1014000050E041E0282F2871283009F040E05417BF
:1014100011F029E0822731FF10C041E0282F21710F
:10142000213109F040E031E0282F2871283109F0FE
:1014300030E0431711F029E0822794FD877E08955C
:10144000803E9105C1F1C8F48133910509F47DC056
:1014500048F48932910509F46DC08A32910509F486
:101460007BC0089589339105D1F082389105B9F098
:101470008533910509F459C00895843E9105C1F161
:1014800038F4823E910521F1833E910531F10895B2
:10149000863E9105C1F1873E9105E1F108952091C5
:1014A0000602237009F065C02091070223FF14C0D3
:1014B00089E290E008952091060220FD43C030911A
:1014C000070230FF09C024FF4EC090E080E008957D
:1014D0002091060222FDF7CF08952091060222FDF9
:1014E00045C03091070230FD44C024FFF5CFEDCF59
:1014F0002091070221FFF0CF8091060284FDE5CF05
:1015000087EE90E008952091060223FFE5CF24FDA9
:10151000DCCFF6CF2091060223FD2EC030910702CA
:1015200031FFE3CF84EE90E008952091060225FF7D
:10153000D3CFBECF2091060225FD21C02091070206
:1015400023FFCACF89E390E0C7CF2091060226FF90
:10155000C3CF8AE290E008952091060226FFBCCF17
:1015600081E390E0089583EE90E0089582EE90E0AC
:10157000089580EE90E0089586EE90E0089585E36A
:1015800090E008951F93CF93DF935ADFEC01C115CC
:1015900080E5D80708F052C0C11580E4D80708F0EC
:1015A000BFC0C03ED10530F5CD3CD10508F0A7C085
:1015B000C83AD10578F4C53AD10508F09DC0C130CC
:1015C000D10531F1CE010497813A910508F1D0E0BF
:1015D000C0E01EC0CE01885A91094B97C0F7C85A87
:1015E000D0E0CC0FDD1FCC5BDE4F0990D881C02D41
:1015F000D4640EC0C11580E2D80778F4CF3FD1057E
:1016000011F008F07EC0CE01805E91090897F8F6CF
:10161000CE01DF91CF911F9108958D2F8F71C1DE83
:10162000182FCE0199270CDFC12FD0E0DC2FCC275B
:10163000CC27DF71C82BD92BD062EACFC03682E528
:10164000D80748F5C03482E5D80708F086C0C03214
:1016500082E5D807C8F4C11582E5D80708F069C04B
:101660008C2F8F719EDE65E0D695C7956A95E1F760
:10167000CF70D0E0DC2FCC27282F30E084FD8CC049
:10168000C22BD32BD069C4CFCF71D0E0DC2FCC27B5
:10169000C16FD06ABDCFC03C82E5D80700F5C03A23
:1016A00082E5D80708F06EC0CE018056924580973B
:1016B00008F08DCF2C2F26952695277080E2289F45
:1016C000900111248C2F8370C1E0D0E002C0CC0FB8
:1016D000DD1F8A95E2F7C22BD32BDA6899CFCE01B2
:1016E000805C9245809708F072CFDC2FCC27CC2706
:1016F000DF71C06FD06A8CCFA497D06489CFD065DA
:1017000087CF8D2F4EDE182FCE01992799DEC12F5E
:10171000D0E0DC2FCC27CC27DF71C82BD92B78CF9A
:10172000CE0199278DDECC27DF70C82BD92BD06A4C
:101730006FCF2C2F2695269580E2289F90011124AB
:101740008C2F8370C1E0D0E002C0CC0FDD1F8A95E2
:10175000E2F7C22BD32BDD685BCF2C2F2695269585
:10176000277080E2289F900111248C2F8370C1E0A4
:10177000D0E002C0CC0FDD1F8A95E2F7C22BD32B3D
:10178000DC6846CF8C2F8F710CDEC82FD0E0DC2FA9
:10179000CC27CC27DF713CCF84E0220F331F8A9502
:1017A000E1F733276DCF809159039091200398136F
:1017B00001C008958F5F8770FACF292F9A3078F58E
:1017C000863068F590E036E0239F800D911D11244E
:1017D000682F677023E0969587952A95E1F7FC01BD
:1017E000EE0FFF1FE80FF91FE655FE4F50E040E0F7
:1017F00080E0219130E0062E02C0369527950A94AC
:10180000E2F721703327042E01C0220F0A94EAF771
:10181000822B4F5F5F4F4330510559F7089580E0A9
:101820000895292F9A3090F5863080F590E036E0C3
:10183000239F800D911D1124282F277041E001C0A6
:10184000440F2A95EAF723E0969587952A95E1F7C4
:10185000FC01EE0FFF1FE80FF91FE655FE4F90E069
:1018600080E070E05191DF0111979B01082E02C0CA
:10187000369527950A94E2F7217021952527242390
:1018800025272C9301968330910561F70895982FB1
:101890009670963021F48860809320020895877FA7
:1018A000FBCF9091200221E030E0F90101C0EE0F62
:1018B0008A95EAF7D90102C0AA0FBB1F6A95E2F721
:1018C000EA2B01C0220F4A95EAF7892F8E23E813ED
:1018D00003C0292B822FDBCF20952923FBCF21E0CA
:1018E00030E001C0220F8A95EAF72095809120020E
:1018F0008223CDCF21E030E001C0220F8A95EAF7A4
:1019000080912002822BC3CF809305020895982FE7
:1019100082958F7011F0982F84E0292F26952695B7
:1019200011F08E5F922F969509F08F5F08959C01BC
:101930009A9581159F4150F5D901AA27B170F901F7
:10194000EE27F270B90166277470A9014427587018
:1019500034FF0EC080E1AB2B09F480E0EF2B09F0DF
:101960008062672B09F08064452B89F080680895B8
:1019700081E0AB2B09F480E0EF2B09F08260672B4C
:1019800009F08460452B19F08860089580E008957F
:10199000CF93DF93682F80916305909164056A303F
:1019A000B1F420915A038D559340622F70E00E944C
:1019B000032F281B822F66E00E944E2FC82FC15094
:1019C00018F4DF91CF91089580E2E2DFF8CF6D3017
:1019D000F9F49C012D55334040915A03642F70E077
:1019E000C9010E94032F481B842FA901480F511DD4
:1019F0004115524018F080E030E020E0820F932F34
:101A0000911D835A9C4F9093640580936305D9CFB1
:101A100026E0FC01ADE5B5E001900D922A95E1F7D5
:101A2000603E08F458C026E0FC0111922A95E9F7BF
:101A3000C0916305D091640546E050E0BE018DE59C
:101A400095E00E94702F9E012D553340892B41F166
:101A5000C90145E0969587954A95E1F741E050E048
:101A6000BA0102C0660F771F8A95E2F7CB01609139
:101A70005B0370915C03862B972BB9016B5F7F4FE3
:101A8000E5E076956795EA95E1F702C0440F551FAA
:101A90006A95E2F7842B952B90935C0380935B030C
:101AA0002A5F3F4F40915A03642F70E0C9010E94A2
:101AB000032F481B463010F4240F311D211572E00E
:101AC000370710F030E020E0235A3C4F3093640594
:101AD0002093630576CFF6E06F9FB00111246D551A
:101AE000784F46E050E00E94672FA2CFCF93DF935C
:101AF000EC01FE018491811103C0DF91CF91089523
:101B000047DF2196F6CF809109039091FA02892B45
:101B10009091F302909589239091F402892B809300
:101B2000A00148E050E069EC71E080EA91E00E9499
:101B3000702F892BB9F088E0E0EAF1E0A9ECB1E080
:101B400001900D928A95E1F7E0911E03F0911F0339
:101B5000309741F00280F381E02D309719F080EA50
:101B600091E009950895E2EAF1E086E0DF011D9237
:101B70008A95E9F790E080E0EDDA90E080E0C2DA63
:101B80001092FA02C0CFAAE2B0E0E9ECFDE00C94BA
:101B9000262F86E193E0FC0101962091F10020833D
:101BA00023E08E319207B9F780911703893009F449
:101BB00059C0C8F4823009F4B4C0833009F484C039
:101BC000813091F18091E80083FF36C18091160346
:101BD000909117039A3008F02FC1E92FF0E0E358F5
:101BE000FD4C0C945A2F8A3009F48BC08B3051F77E
:101BF00080911603813231F780911A0390911B0373
:101C0000892B01F78091E800877F8093E8001BD93A
:101C100081E090911803911101C080E080932F0121
:101C200010920903A0DFCECF80911603813A51F6BE
:101C30008091E800877F8093E80080911A0390915B
:101C40001B03892B59F468E08AE093E070E0A6D981
:101C50008091E8008B778093E800B4CF60E090E05B
:101C600080E0F4CF80911603813209F0ABCF8091F0
:101C70001A0390911B038D7F892B09F0A3CF8091CC
:101C8000E800877F8093E8008091E80082FF17C01A
:101C90009091F3008091F200029731F48091F1006D
:101CA000813011F0863021F48091F10080932E0173
:101CB0008091E8008B778093E800C5D883CF80912E
:101CC00014038111E1CF7ECF80911603813A09F090
:101CD00079CF80911A0390911B03892B09F072CF61
:101CE0008091E800877F8093E8008091E80080FF82
:101CF000FCCF80912F018093F1008091E8008E77D6
:101D0000DACF80911603813209F05CCF8091E80030
:101D1000877F8093E80097D88091190380932D01E5
:101D200051CF80911603813A09F04CCF8091E800A1
:101D3000877F8093E8008091E80080FFFCCF80914E
:101D40002D01D9CF803899F0823809F075C0809183
:101D50001A038F70873008F06FC08093E90080917C
:101D6000EB0085FB882780F91092E90006C080917E
:101D7000120390911303911182609091E800977F74
:101D80009093E8008093F1001092F1008091E800B8
:101D90008E77C2C1882309F4AFC1823009F04CC0EC
:101DA000809118038111B3C180911A038F702FEFB6
:101DB000280F263008F040C08093E9002091EB0006
:101DC00020FFA5C1933031F48091EB0080628093B5
:101DD000EB009DC19091EB0090619093EB0021E0AE
:101DE00030E001C0220F8A95EAF72093EA001092B2
:101DF000EA008091EB008860EACF81111DC010914C
:101E000018031F778091E3008078812B8093E30093
:101E10008091E800877F8093E80015D88091E800E2
:101E200080FFFCCF8091E30080688093E30082E034
:101E3000111183E0809314038091E80083FF0AC0AE
:101E40008091E800877F8093E8008091EB008062BA
:101E50008093EB00AA96E3E00C94422F80588230E6
:101E600058F740911803509119034C3D83E05807EF
:101E700099F583E08A838AE289834FB7F894DE017B
:101E8000139620E03EE051E2E32FF0E0509357003C
:101E9000E49120FF03C0E295EF703F5FEF708E2F5B
:101EA00090E0EA30B8F0C7968D939D932F5F243170
:101EB00059F74FBF8091E800877F8093E8006AE27E
:101EC00070E0CE0101966AD88091E8008B7780930C
:101ED000E800B2CFC096E8CF80911A0390911B031F
:101EE000252F33272330310509F44AC078F52130F6
:101EF000310509F486C08BE590E0E2E4F6E022309B
:101F0000310509F099CF2091E800277F2093E80060
:101F100020911C0330911D038217930708F49C0144
:101F200040E02115310509F071C041116FC0809169
:101F3000E80082FDC9CF80911403882329F28530FF
:101F400019F28091E80083FFF2CFBECF2132310534
:101F500009F448C02232310509F06ECF8330910573
:101F600008F06ACFFC01EE0FFF1FEE56FE4F019006
:101F7000F081E02D81579E4FDC018C9190E026C0CE
:101F8000CA019927423031F18330910568F40097F6
:101F9000B1F0019709F050CFEDEDF6E0E4918E2F0E
:101FA00090E0EDEDF6E012C0039709F045CFEFEABF
:101FB000F6E0E4918E2F90E0EFEAF6E007C0EFEE56
:101FC000F6E0E4918E2F90E0EFEEF6E0009709F452
:101FD00033CF99CFEDECF6E0E4918E2F90E0EDEC6D
:101FE000F6E0F4CF8330910508F026CF880F991FD3
:101FF000FC01E856FE4F0190F081E02D89E090E071
:1020000082CF82E190E0EDE9F6E07DCF809114038C
:10201000882309F459CF853009F456CF8091E80020
:1020200083FD52CF8091E80082FD81CF8091E8004E
:1020300080FF77CF9091F3008091F2002115310558
:1020400019F08830910550F041E0089709F040E020
:102050008091E8008E778093E80063CF44914093AD
:10206000F1003196215031090196E8CF803809F00E
:10207000E3CE8091E800877F8093E800809115038C
:102080008093F10083CE8111D7CE109118031230C6
:1020900008F0D2CE8091E800877F8093E80010930B
:1020A00015030E942307112311F084E005C08091DD
:1020B000E30087FDFACF81E08093140342E061ECF6
:1020C00081E00E94420742E261EC84E00E94420704
:1020D00042E261EC82E00E94420742E260EC83E06F
:1020E0000E94420780911403843021F081E08093A4
:1020F0003001A2CE82E0FBCF80911803813009F03D
:102100009BCE81E0933009F080E08093130310921E
:10211000E9008091E800877F8093E8000E94230710
:102120008BCECF93DF93EC0149855A856D857E85F3
:102130004CD88B81982F90958091FA0289238093B7
:10214000FA02E1DC85E0FE0111928A95E9F7DF9160
:10215000CF910895CF93DF93EC018C8181FD0FC067
:1021600082608C838091FA029B81892B8093FA0292
:10217000CADC4F8158856D857E85CE0126D81092A8
:10218000FC021092FB028C8180FD02C0CE01C9DFEF
:10219000DF91CF910895882339F080959091FA02CC
:1021A00089238093FA02AFCC0895882331F090916F
:1021B000FA02892B8093FA02A6CC0895882339F07D
:1021C0008095909109038923809309039CCC0895FD
:1021D000882331F090910903892B8093090393CCD4
:1021E0000895882359F19CEF980F913A18F40E94B2
:1021F0005B0889CC90E2980F983088F4877021E0D2
:1022000030E0A90102C0440F551F8A95E2F7CA01C8
:10221000809590910903892380930903EACF9BE578
:10222000980F933020F490E080E00C94AA08885A2C
:102230008B3120F490E080E00C9482080895FF92A6
:102240000F931F93CF93DF93F82E0091F802109114
:10225000F9020115110509F448C01092F702109215
:10226000F6021092F3021092F402D8011696CD9164
:10227000DC91CE019A9581159F4108F4D07ED1E082
:10228000C11101C0D0E0D8011996ED91FC911A97C7
:10229000309731F01B966D917C9180E00995D823A1
:1022A000DD2339F08CEF8C0F813A28F58C2F0E94BA
:1022B0005B08FF2099F0E091F802F091F902808527
:1022C00084FD0CC08091F502882341F080819181CA
:1022D0009C01215031092F333E4788F014DC1092C5
:1022E000F9021092F8021092F502C801CDB7DEB7DC
:1022F000E5E00C94402F07DC8C2F73DFDACF0E94CF
:10230000EA08ECCFCF93C82F882399F08CEF8C0F7D
:10231000813A88F4E2EAF1E08191C817B1F121E055
:10232000E83AF207C9F76C2F80EA91E00E9468084A
:10233000EADBCF91089580E28C0F883068F4C77093
:1023400021E030E001C0220FCA95EAF7809109032D
:10235000822B80930903ECCF8BE58C0F833038F40C
:102360002C2F2452330BC9010E94AA08E2CFC85A6D
:10237000CB31F8F6EC2FF0E0EE0FFF1FEC5BFE4FD9
:10238000808191810E948208D4CF8C2F0E945B08AB
:10239000BADBC9CFCF93DF93EC01C9DA9E01205E8F
:1023A00031092830310510F0209731F411DF8C2FDE
:1023B000A9DFDF91CF910895F8DEF9CF0F931F9336
:1023C000CF93DF93EC01FC0101900020E9F78F012E
:1023D00001501109C017D10728F0DF91CF911F914B
:1023E0000F9108958991D4DAF5CF0F931F93CF936E
:1023F000DF938B01EA0190911403943061F580938F
:10240000E9008FEF9091E800815095FD06C095EDB1
:102410009A95F1F700008111F5CF8091E80085FFD2
:102420001AC00E94F206811111C08091E80085FD5A
:1024300006C08091E8008E778093E800F2CFF80123
:1024400081918F018093F100219779F78091E800C5
:102450008E778093E800DF91CF911F910F910895BF
:10246000BC0143E050E084E0C0CFCF93DF93D82F8E
:10247000C92F48E050E0682F792F81E0B6DF88E06F
:10248000ED2FFC2FAAE0B3E001900D928A95E1F7C1
:10249000DF91CF910895792F603229F440E250E026
:1024A000682F82E0A2CF0895B0E0A0E0EAE5F2E173
:1024B0000C941F2FF82EE92ED62EC72E8A0180915C
:1024C000F401AA24A394B12C8A3018F48AE0A82E2F
:1024D000B12CC1E0D0E06D2D7C2D8F2D9E2DF8010B
:1024E0000995811104C02196AC16BD062CF4CDB718
:1024F000DEB7EAE00C943B2FCC9F9001CD9F300DCE
:10250000300D112490E080E045E34A95F1F700009A
:10251000019682179307C1F7DECF1F93CF93DF9306
:10252000182FEB01EFDE209731F4812F5ADEDF9177
:10253000CF911F9108958FE99FE00197F1F700C0B7
:1025400000002197F0CFB0E0A0E0E9EAF2E10C94BE
:102550001F2FFC018AE0B82EDF012D918D0122236F
:10256000D1F1213009F051C08181813061F4828143
:102570008F010D5F1F4F70E060E0893311F460E55B
:1025800070E0CBDF07C0823039F48F010D5F1F4F41
:102590008281B8DEF801E0CF833031F48F010D5F26
:1025A0001F4F82811EDEF6CF8F010E5F1F4F8430DA
:1025B00081F482818F010D5F1F4F30E020E0682F92
:1025C0006053770BAB016A30710550F0211531056E
:1025D00099F48111DFCFCDB7DEB7EAE00C943B2F41
:1025E000B29EC001B39E900D11249A01280F391F8D
:1025F000F80181918F01E3CFAFE9BFE01197F1F7C7
:1026000000C0000021503109E1CFE22FF0E0ED5D84
:10261000F84FA490822F86958695869590E0FC01D0
:10262000ED5EF84FE4902770F12C022E02C0F59475
:10263000E7940A94E2F7B1E0EB22FF24FC01ED5F9E
:10264000F84FC490D12C022E02C0D594C7940A949E
:10265000E2F7E1E0CE22DD24FC01ED50F94FC49118
:10266000D0E002C0D595C7952A95E2F7C170DD2765
:10267000E114F10411F081EE45DEC114D10411F032
:1026800086EE40DE70E060E08A2D47DFC114D104A1
:1026900011F086EEA6DDE114F10411F081EEA1DD6A
:1026A000CD2B09F477CF70E060E08CE26ACF109216
:1026B000090359DA2FEF84E39CE0215080409040D9
:1026C000E1F700C0000088E19AE00FB6F894A89501
:1026D000809360000FBE90936000FFCF1F93CF9355
:1026E000DF93962F122F632F8630D8F49A30C8F4D8
:1026F0004630B8F4C42FD0E0CC0FDD1F2CE0929F01
:10270000C00DD11D112498E7899FC00DD11D112442
:10271000CE0189960E944632612FCE018A960E9490
:102720004632DF91CF911F91089585E290E00E949B
:102730002A328F3889F486E290E00E942A32863E5F
:1027400059F487E290E00E942A3291E0823E09F03B
:1027500090E0892F8170089580E0FCCF462F572F9D
:10276000BC01CA01875B9C4F40345105610571056E
:1027700010F40C942A3280E008950F931F93CF93A6
:10278000DF93863030F56A3020F5463010F5C42FDF
:10279000D0E0CC0FDD1F2CE0629FC00DD11D1124B5
:1027A00038E7839FC00DD11D1124CE0189960E9468
:1027B0002A32082F10E0102F0027CE018A960E949F
:1027C0002A329801282BC901DF91CF911F910F91D7
:1027D000089590E080E0F8CF462F672F20915402B3
:1027E00030915502232B81F4703F39F4403F61F45E
:1027F000809156029091570208957A3028F446301D
:1028000018F4863008F4B9CF80E090E00895B0E085
:10281000A0E0EDE0F4E10C94222F7C010091200275
:1028200080910502082BC5E0D0E010E0DC2EC80145
:102830000C2E02C0959587950A94E2F780FD09C099
:102840002197A0F7D12C8D2DCDB7DEB7E7E00C9402
:102850003E2FB7018C2FC0DF0E94C20A019781F37F
:10286000F2CFCF93DF93D82FC92FD1DF6D2F7C2FDD
:10287000B3DF0E94C20ADF91CF910895FC018481E9
:10288000882399F080819181ECDF282F92959F70A9
:10289000963091F060F4925F9F70923030F481E056
:1028A000203F81F030F4283E30F080E004C09A5F91
:1028B000F3CF243FD1F7089581E0283E20F0213F57
:1028C000A1F7F9CF08950895A6E0B0E0EAE6F4E1B3
:1028D0000C94262F9C0186E0F901DE0111960190EF
:1028E0000D928A95E1F7F901258189819A81222348
:1028F00089F0662379F08BDF182F682F89819A8100
:102900000E94110C69817A81812F66DF2696E3E0AF
:102910000C94422F0E94DD0B182FF4CF4F925F9240
:102920006F927F92AF92BF92CF92DF92EF92FF921F
:102930000F931F93CF93DF93CDB7DEB760970FB69A
:10294000F894DEBF0FBECDBF1A821982FE01339606
:102950008EE0DF011D928A95E9F704E010E099E42A
:10296000A92E93E0B92E20E4422E512C612C712C1B
:102970006201B1E14B165104610471042CF080E155
:10298000C82ED12CE12CF12CA601B501CE01019667
:102990000E943732AC0CBD1C0D2C000CEE08FF0859
:1029A0004C185D086E087F080150110909F7609600
:1029B0000FB6F894DEBF0FBECDBFDF91CF911F9150
:1029C0000F91FF90EF90DF90CF90BF90AF907F90EE
:1029D0006F905F904F900895AAE0B0E0E2EFF4E1CD
:1029E0000C941C2FA090E502B090E60281E090E0EC
:1029F0009093E6028093E502912C812CE12C6401F6
:102A0000F12C14C0F80125913491472D6F2D8E2D96
:102A100065DE0E5F1F4F739486E07812F3CFE6E019
:102A2000CE0ED11CF394FAE0FF1639F08601000FA8
:102A3000111F0E581C4F712CE5CFE3948CE3880EC8
:102A4000911CE6E0EE12DBCF1A8219821C821B82F7
:102A50001E821D8218861F8288EC90E09A878987E3
:102A60004AE050E069EF72E08E010F5F1F4FC8012E
:102A70000E9464324AE050E063E073E0C8010E94C3
:102A800064324AE050E06DE073E0C8010E946432B5
:102A90004AE050E067E173E0C8010E94643289E0D7
:102AA000F80111928A95E9F78FEF9FEF9E838D834E
:102AB00087E08A874AE050E061E273E0C8010E9443
:102AC00064324AE050E06BE273E0C8010E94643275
:102AD0004AE050E065E373E0C8010E9464324AE0D6
:102AE00050E06FE373E0C8010E946432B092E602E6
:102AF000A092E5022A96EDE00C94382F6FEF85E264
:102B000090E00E9446326FEF86E290E00E944632EB
:102B10006FEF87E290E00E94463260E088E290E04A
:102B20000E94463259DFFADE6FE885E290E00E94AB
:102B3000463266EE86E290E00E94463262EE87E21E
:102B400090E00C944632282FCB01243068F43AE010
:102B5000239FB001112467507D4F4AE050E00E944E
:102B60001A3290E080E008958FEF9FEF0895AAE079
:102B7000B0E0EDEBF5E10C94272F9C0197558F3FCA
:102B8000910509F068F4BE016F5F7F4F822FDBDF94
:102B9000892B31F489859A852A96E2E00C94432F9B
:102BA00088EC90E0F9CFAAE0B0E0E9EDF5E10C9413
:102BB0001F2F03EA12E081E2E82E83E0F82E96E070
:102BC000B92E22EAC22E22E0D22EAA24A3944AE0F1
:102BD00050E0B701CE0101960E941A32F8013996F1
:102BE000DF018B2D1D928A95E9F789819A81D801A1
:102BF00011969C938E938F8112968C9312978D8150
:102C000013968C931397888514968C9314978985C3
:102C100015968C9315978B819C8117969C938E9318
:102C2000169718961C9218978A8587FF3CC01E96A7
:102C30001C921E921D9780FF03C0D8011896AC927B
:102C400081FF04C0F80190859260908782FF07C0E1
:102C5000D80118969C911897946018969C9383FFBE
:102C600004C0F80190859860908784FF07C0D80160
:102C700018969C911897906118969C9385FF04C0B4
:102C8000F801808580628087FAE0EF0EF11C015F19
:102C90001F4F89E4E81683E0F80609F098CF2A96DA
:102CA000EAE00C943B2FF801D686C586C4CFAB0171
:102CB00024E630E0BC0188E70E94C82C9C0181E03A
:102CC000232B09F080E008958091E3029091E402C3
:102CD000911103C091E089270895882361F062E093
:102CE00070E080E793E0E3DF811103C08091E302AD
:102CF00008951092E3028091E302ECCFA5E0B0E0EA
:102D0000E4E8F6E10C94272F8091E3028D83809113
:102D1000E4028823E9F00E943B08DC01CB01805AE1
:102D20009541AF4FBF4F8093DF029093E002A09395
:102D3000E102B093E2028D81811107C062E070E090
:102D40008EE693E0B4DF811108C08091E3028D83A9
:102D50008D812596E2E00C94432F81E08093E3027D
:102D6000F4CFCF92DF92EF92FF921F93CF93DF9336
:102D7000CDB7DEB728970FB6F894DEBF0FBECDBF34
:102D8000C090F001D090F101E090F201F090F301D9
:102D90000E943B08DC01CB018C199D09AE09BF09DB
:102DA00011E084369105A105B10578F10E94A009D2
:102DB000DC01CB010296A11DB11D89839A83AB83EF
:102DC000BC8380911201909113018A519E4F2091F2
:102DD0001101422F50E0253010F044E050E0BE01D8
:102DE0006F5F7F4F0E947D2F82E090E00E94932EC4
:102DF000182F882351F00E943B086093F0017093D4
:102E0000F1018093F2019093F301812F28960FB680
:102E1000F894DEBF0FBECDBFDF91CF911F91FF9021
:102E2000EF90DF90CF9008958F929F92AF92BF92D4
:102E3000FF920F931F93CF93DF93CDB7DEB72A97FF
:102E40000FB6F894DEBF0FBECDBFF62E072F90E071
:102E500080E00E94932E182F882309F482C080916D
:102E60000401482F50E0882311F041E050E06091C8
:102E70000501709106016A517E4FCE0106960E94AF
:102E80007D2F8090E2019090E301A090E401B0904A
:102E9000E5010E943B086F83788789879A87DC0168
:102EA000CB0188199909AA09BB0984369105A105A6
:102EB000B10540F487EE91E00E94AE069E8189172D
:102EC00009F44FC081E090E00E94932E81111BC055
:102ED00010E085E0EDEDF1E0AF2DB02F01900D9207
:102EE0008A95E1F7812F2A960FB6F894DEBF0FBEC0
:102EF000CDBFDF91CF911F910F91FF90BF90AF9009
:102F00009F908F90089580910C01482F50E086305B
:102F100010F045E050E060910D0170910E016A5192
:102F20007E4FCE0101960E947D2F87EE91E00E9498
:102F3000AE069E818913CCCF0E943B086093E201CC
:102F40007093E3018093E4019093E50185E0FE0135
:102F50003196ADEDB1E001900D928A95E1F711E067
:102F6000B8CF85E0E7EEF1E0DE01119601900D9219
:102F70008A95E1F71111EACFACCF1F920F920FB6ED
:102F80000F9211242F933F934F935F936F937F93EF
:102F90008F939F93AF93BF93CF93DF93EF93FF9361
:102FA000D091E900DF708091EC00C82FC17080FDE6
:102FB000C0E81092E9008091F000877F8093F000D4
:102FC00078940E94C30D1092E9008091F00088600F
:102FD0008093F000CD2BCF70C093E900FF91EF916B
:102FE000DF91CF91BF91AF919F918F917F916F9121
:102FF0005F914F913F912F910F900FBE0F901F90B7
:1030000018951F920F920FB60F9211242F933F9392
:103010004F935F936F937F938F939F93AF93BF93E0
:10302000EF93FF938091E10082FF09C08091E2005D
:1030300082FF05C08091E1008B7F8093E100809149
:10304000DA0080FF24C08091D80080FF20C08091EA
:10305000DA008E7F8093DA008091D90080FFA9C0CA
:1030600080E189BD82E189BD09B400FEFDCF81E028
:103070008093140380910803811109C00E94D30634
:103080000E9474078091E20084608093E200809146
:10309000E10080FF1AC08091E20080FF16C080919D
:1030A000E2008E7F8093E2008091E2008061809355
:1030B000E2008091D80080628093D80019BC85E03E
:1030C0008093140383E0809330018091E10084FFBA
:1030D0002FC08091E20084FF2BC080E189BD82E196
:1030E00089BD09B400FEFDCF8091D8008F7D80930B
:1030F000D8008091E1008F7E8093E1008091E20012
:103100008F7E8093E2008091E20081608093E200F4
:1031100080911503882309F452C084E0809314033E
:1031200080911403843009F452C081E0809330010F
:103130008091E10083FF2CC08091E20083FF28C0D2
:103140008091E100877F8093E10082E08093140307
:10315000109215038091E1008E7F8093E1008091B1
:10316000E2008E7F8093E2008091E2008061809394
:10317000E20042E060E080E00E9442078091F000BF
:1031800088608093F00081E08093300180932F016C
:10319000FF91EF91BF91AF919F918F917F916F912F
:1031A0005F914F913F912F910F900FBE0F901F9005
:1031B000189519BC109214031092080368CF8091DF
:1031C000E30087FD02C081E0A9CF83E0A7CF82E0C2
:1031D000ADCF78941F921FB61F9211248F939F93A7
:1031E000AF93BF938091040390910503A0910603D0
:1031F000B09107030196A11DB11D80930403909324
:103200000503A0930603B0930703BF91AF919F916D
:103210008F911F901FBE1F9018952FB7F894809123
:10322000040390910503A0910603B09107032FBFFB
:103230000895A3E1B0E0EFE1F9E10C941D2F1A82AB
:103240001982FE01339688E0DF011D928A95E9F725
:103250008CE7E82E81E0F82E10E000E0CC24C39447
:10326000D12C27E8A22E21E0B22EF70181917F0117
:103270008F3F09F445C0F894E82FE295EF70F0E035
:1032800021A18F70A60102C0440F551F8A95E2F755
:10329000CA01922F982B91A392A18095892382A392
:1032A000789400C0E1E8F1E031E0912C21912F3FCA
:1032B00009F494C0A22FA295AF70B0E090968C91C3
:1032C00090E02F7002C0959587952A95E2F780FDD2
:1032D00085C0832F982A330FAE16BF0639F7F70142
:1032E000319780818F3F11F00E94870950EA5A95EB
:1032F000F1F7E1E0F0E0EC0FFD1FE00FF11F90822D
:103300000F5F1F4F0530110509F0AFCF4AE050E0C5
:10331000BE016F5F7F4F89EF91E00E94702F9C018B
:10332000892B49F08AE0FE013196A9EFB1E00190C6
:103330000D928A95E1F70091040210E0065B1D4FA3
:10334000232B09F44DC081E08093D50166DF909373
:10335000D4018093D301F12CE090FD02EE2009F41A
:1033600099C01C861B86FE013D9683E0DF011D92FD
:103370008A95E9F78091F4018A3008F056C044E15B
:1033800057E1BE01655F7F4FC8018ED8882309F4DD
:1033900071C041EB56E1BE01655F7F4FC80184D823
:1033A000882309F467C01092F4018091030290E031
:1033B00045E050E0BE01655F7F4F865B9D4F0E94F8
:1033C000702F21E02093DC01892B09F046C0E12C0D
:1033D0008E2D8F296396ECE00C94392F80E07ACF04
:1033E000F090D501FF2009F4B6CFC090D301D09062
:1033F000D40113DF8C199D09059708F4ACCF45E083
:1034000050E069EF71E0C8010E94702F892B59F0DC
:1034100085E0E9EFF1E0D80101900D928A95E1F79E
:103420001092D50199CFF12CFBCFC090D601D0904E
:10343000D701F3DE8C199D09843F914008F09FCF9E
:103440008091DC01882319F2FE013B9685E0DF01C3
:103450001D928A95E9F71092DC01A0910302B0E079
:10346000A65BBD4F85E0FE013B9601900D928A95CB
:10347000E1F7AECF8091F4018F3F31F08F5F809301
:10348000F4018A3008F491CFC8DE9093D70180937D
:10349000D601D6CF85E0F801A7EEB1E001900D92FC
:1034A0008A95E1F787EE91E00E94AE068093E601EF
:1034B0008090EC019090ED01A090EE01B090EF01B2
:1034C0008091D8019091D901A091DA01B091DB01EE
:1034D00088169906AA06BB0609F47ACF8092D8010D
:1034E0009092D901A092DA01B092DB010E943B08D0
:1034F000861A970AA80AB90A8092F5019092F601F5
:10350000A092F701B092F80163CFACE0B0E0EBE835
:10351000FAE10C94172F7C01DC0114968C9188231E
:1035200009F486C161E0C701CFD98C01F70185811B
:10353000882339F18091FB029091FC02009709F1F8
:1035400008171907F1F09C0133278C7F9927F0E0C9
:10355000E0E0892B41F48FE0829FF001839FF00D22
:103560001124EA59FD4F8481846084831183008390
:10357000CF010E94AA101092FA0261E0C701A4D9FB
:103580008C01D70115968C91882309F4E9C0C801F4
:1035900097578038910508F014C1003108F048C1F0
:1035A0006FE370E080E090E0D9D8811141C1C12C77
:1035B000D12C7601011145C004E09E012F5F3F4FE1
:1035C000590199249A94D501E02F1D92EA95E9F7C3
:1035D00026013701FFEF4F1A5F0A6F0A7F0AC70102
:1035E000B601BCD88983882309F422C1813029F52A
:1035F000A70196012E5F3F4F4F4F5F4F2D833E83B4
:103600004F835887C301B201A9D8182F8A83882312
:1036100009F40EC18FEF810F833090F52601370139
:1036200033E0430E511C611C711C6D817E818F81C2
:10363000988594D88B838823D9F0C5010E94A31262
:1036400017C0B0E4CB16D104E104F10409F4F0C0D2
:10365000C701B60183D8811101C00150EFEFCE1A26
:10366000DE0AEE0AFE0AA6CF49845A846B847C8463
:1036700073016201A8CF4D805E806F807884F8CF9F
:103680008BEF810F833090F5D701C6010396A11D02
:10369000B11D89879A87AB87BC876D817E818F81B9
:1036A00098855CD88B838823F9F22601370194E052
:1036B000490E511C611C711C69857A858B859C851E
:1036C0004DD88C838823A1F28B819C818130AFEF10
:1036D0009A0710F0982F8827163021F0173021F024
:1036E000AFD7C6CF89D7C4CF03D7C2CF143009F024
:1036F000C2CF6D817E818F81988530D8182F2601A9
:103700003701B4E04B0E511C611C711CA7019601DE
:103710002D5F3F4F4F4F5F4F2D833E834F83588721
:10372000CA01B9011BD8112309F482C0882309F406
:103730007FC08150990B989E9001999E300D112465
:10374000412F4150550BCA01820F931F019708F476
:103750008FCFAFE9BFE01197F1F700C00000F6CFBF
:103760006801E7E5DE1AFFEFCF16D10409F048F54E
:103770006CE572E08C2DE7D9892B19F58FE08C9DD3
:10378000F0018D9DF00D1124EA59FD4F82818130A9
:1037900099F580915C0290915D02892B91F0809166
:1037A0005E0290915F02892B61F08091600290919E
:1037B00061022091620230916302822B932B892B4C
:1037C00019F1D70115963C903320B1F10E35BCE7C5
:1037D0001B0759F10F35ECE71E0741F00D35FCE7EB
:1037E0001F0751F5809100018823F9F01092000124
:1037F00080E00E941F111CC0823019F78091600286
:1038000090916102892BE9F22FE02C9DC0012D9D42
:10381000900D1124FC01E659FD4F20812E7F20835D
:103820008A599D4F0E94AA10CCCF81E0809300015D
:103830002C96E2E10C94332F80910001882309F447
:10384000E3C2380120EE621A71082090090338E0C3
:103850006316710408F087C098012770332781E050
:1038600090E001C0880F2A95EAF7332009F478C068
:10387000282AD7018D919C910E94DD0B21E030E038
:10388000290102C0440C551C8A95E2F7E091F80228
:10389000F091F902FE83ED832091A8013091A901F6
:1038A0003A87298793EAC92E92E0D92EB12CA12C10
:1038B000B4E0AB16B10409F41EC3211005C0D60153
:1038C00012968C9181118BC0F601838190E0842146
:1038D0009521892B09F483C08085982F977009F46E
:1038E00087E0F8E06F16710408F057C0332009F440
:1038F00050C086958170882309F471C0D6018D90DF
:103900009C900815190519F4332009F468C0ED815D
:10391000FE81CE16DF0609F462C0D6011D96ED9138
:10392000FC91309721F08081882309F458C0622DE2
:10393000C6010E944009882309F451C008151905E1
:1039400009F0FFC20115110509F400C3311000C3CD
:10395000E985FA858E169F0609F041C0312CF8C220
:103960008095282286CF332009F4AEC21093A90196
:103970000093A8010E943B086093EF027093F0024D
:103980008093F1029093F2021092F7021092F602E5
:1039900070CF82FB882780F9AECF332001F1817090
:1039A000AACF0E94F110F9C20497813A910558F408
:1039B0006C2D80EA91E00E946808332009F424C24B
:1039C0000E94830D35CF0E94830D8FE39CE9019700
:1039D000F1F700C000008C2D0E948211EECF9FEF06
:1039E000A91AB90AAFE0CA0ED11C62CFDC012D9131
:1039F0003C910217130709F001C2311001C2109265
:103A0000F50280E00E941F11FFC1902F812F3AC262
:103A1000FA014385548565857685C6010E94E508CF
:103A2000D60114968C9181FF31C2C6010E9491107B
:103A30008091FB029091FC020817190709F026C239
:103A40001092FC021092FB0221C2882349F081E00F
:103A50000E947A0C43E062E081E00E94510CE8CEC3
:103A600081E00E946F0CF6CF82E0FBCF882319F132
:103A700001303CE71307E9F003304CE7140799F0F5
:103A800001155CE71507B9F4109209030E94B30D04
:103A90008FEF94E3ACE081509040A040E1F700C08C
:103AA00000000E942A086FEF7FEF90E080E00E9404
:103AB00060320E945713F701C080D1808823D9F16A
:103AC000C6010E940714182F682FC6010E94110C0E
:103AD000B601812F0E94EC130E94C20A182FC82E33
:103AE000D70115962C91159716963C9132953F70FB
:103AF000D92ED2948FE0D822B8E0DB1609F4B4C0F6
:103B0000BD1578F1E3E0ED15D8F0092F0F70907F27
:103B1000F1E0FD15C8F5802F903211F08295807F7D
:103B2000A1E0CA1270C0222309F467C0363060F4E5
:103B30000E94E81009C0C6010E94DD0B182FC8CFF3
:103B400034E0D31609F476C04D2D4850550B44305F
:103B5000510510F40E94D20860E0C7010E9464146D
:103B600067CE49E0D41609F4F0C086E08D0D8F7061
:103B7000823050F7812F52EF1513F7C0892F8F71C4
:103B8000222309F428C1EEC0992311F00295007F89
:103B9000812F2223C9F0002369F090E2910F983021
:103BA00010F011110BC080910903082B0093090339
:103BB0000E94830D812F0E948211C6CF8091FA024C
:103BC000082B0093FA02F4CF0E94F110002309F4AD
:103BD000BBCF0095105E183010F0C11008C0809166
:103BE00009030823009309030E94830DADCF809140
:103BF000FA0208230093FA02F7CF353008F0A4CF79
:103C00000E94DE10A1CF222321F0332309F490CFAC
:103C1000D1CF3323A9F3193349F4BFEFE7EEF3E033
:103C2000B150E040F040E1F700C00000812F0E9459
:103C3000F1108ACF892F86958695837061F0813047
:103C400009F082CF812F9370211102C080E090E0B3
:103C50000E94820879CF812F9370211102C080E0E9
:103C600090E00E94AA0870CF892F8370A1F52111DE
:103C70006BCF812F829586958770880F880F412F93
:103C80004F70082E01C0440F0A94EAF7212F2071CB
:103C900014FF07C02FE030E001C0220F8A95EAF739
:103CA0002095969596959370923081F0822F842B73
:103CB000933031F080910502913029F0242B82233A
:103CC0000E94840C41CF842B822BFACF242B80912D
:103CD00005028227F5CF8695222311F0892F817066
:103CE000882309F431CF812F829586958770880FBC
:103CF000880F412F4F70082E01C0440F0A94EAF735
:103D0000212F207114FF07C02FE030E001C0220FE7
:103D10008A95EAF72095969596959370923081F062
:103D2000822F842B933031F080912002913029F042
:103D3000242B82230E94470C07CF842B822BFACF9F
:103D4000242B809120028227F5CF092F0F70222388
:103D500029F0802F0E947A0C812FEACE812F0E94B9
:103D6000DE10802F0E946F0CEFCE42EF411768F0FB
:103D700050EF1517B9F0A1EF1A1749F1222371F18D
:103D8000311118CF892F8F7126C0B3EF1B13F6CFD7
:103D900080E0222379F29F7181E001C0880F9A951B
:103DA000EAF7C8CF222379F0353008F0CDCE292F9D
:103DB0002F7181E090E001C0880F2A95EAF7909179
:103DC00020028927B7CF363008F0BECEF0CF892F3A
:103DD0008F71222339F20E947A0CB6CE332359F028
:103DE000893309F023CFEFEFF7EE23E0E150F04005
:103DF0002040E1F719CF892F8F71B4CF332021F004
:103E0000FC01808585FFFDCDC80197558F3F910549
:103E100011F008F084C0C8018C7F9927892B09F024
:103E200007CD2FE0029FF0011124AF014A595D4FE9
:103E30006A01D70115968C91E659FD4F908180FB60
:103E400090F99083882309F4E3CDE7D99093140285
:103E500080931302F60182818F5F82838091FA0240
:103E600090910903892B83834581568165857685E9
:103E7000C6010E94E508D60114968C9181FFC5CD3C
:103E800090E080E09093FB028093FC02F701858133
:103E90009801205E32452032310508F0E7CD8111CE
:103EA0000ACE0F7181E090E09C0102C0220F331F07
:103EB0000A95E2F78901622F83E090E00E94463282
:103EC000802F0E94840CB4CC8091A8019091A9010C
:103ED0000817190781F41092A9011092A8011092F5
:103EE000EF021092F0021092F1021092F202109280
:103EF000F7021092F6028091F8029091F902009771
:103F000009F482CFE8E06E16710408F06FCD622DDF
:103F10000E944009811103C081E00E941F11D70156
:103F200015968C910737BCE71B0709F48ECD08372F
:103F3000ECE71E0709F0AACF882309F495CD82E0AB
:103F400087CD8114910409F003CD312C912C812C63
:103F500080E00E941F11D092F902C092F80281E025
:103F60008093F5028FE08A9DF0018B9DF00D112466
:103F7000ED55FD4F85818093F30231100EC0811401
:103F8000910459F0808191819C0124503109213A9A
:103F9000310508F006CD0E945B088FE08A9DF00194
:103FA0008B9DF00D1124ED55FD4FC680D780C601C5
:103FB0009A9581159F4110F420EED2229924939472
:103FC000C60101978F339E4708F0912C8FE08A9DA0
:103FD000D0018B9DB00D1124AD55BD4F1996ED91BB
:103FE000FC911A97309731F01B966D917C9181E08E
:103FF000099598229920B1F08FE08A9DF0018B9D60
:10400000F00D1124ED55FD4F868197810E94970C8C
:104010008093F402C60148E06416710408F0C4CC31
:104020000E94EA080E94830DC8CCB0E0A0E0EBE15A
:10403000F0E20C94222F8091C801807F09F050C0DB
:104040008091C701882309F44BC0E091590387E0B0
:10405000D82E809120038E1709F442C00E2F10E055
:10406000ED9DF0011124EF5DFC4F84818823E9F17F
:10407000D09EE001D19ED00D1124FE01EF5DFC4FDA
:1040800091818091C301981330C090818091C201C9
:1040900098132BC08581811128C0E280F380809124
:1040A000C4019091C501E81AF90A60E082EC91E040
:1040B0000E9464140E94B715E816F906B0F48091C6
:1040C000C8018F7080618093C801C95DDC4F888111
:1040D0008F708061888382EC91E017DA0E94D30BA5
:1040E000CDB7DEB7E7E00C943E2FF8013196E770CC
:1040F000B0CFADE0B0E0EFE7F0E20C941A2F8C0106
:1041000086E0F801DE01189601900D928A95E1F79C
:10411000F801F480E58082EC882E81E0982E809171
:10412000C601811128C0F11003C0FF24F3941BC005
:10413000EE20F1F0C8010E943E14F82E8823C1F051
:1041400087E0F801A2ECB1E001900D928A95E1F7C9
:104150008091C601813031F48091C2019091C301F8
:104160000E94311462DF8F2D2D96EFE00C94362FD4
:10417000C801CBD9DACFC280D380B090C70180917B
:10418000C4019091C5013601681A790ABB2009F46F
:10419000D4C05080A18060E082EC91E00E94641461
:1041A0000E94B7156816790608F0A0C0FF2009F430
:1041B000BCCF8091C801382F307F2091C301F80116
:1041C0009181311156C0FE2C291313C02091C201D8
:1041D000908129130EC0E11045C08F7080618093DB
:1041E000C80182EC91E091D98091C801F8018683E1
:1041F000BACFE11037C06A2D852D0E9490066A2D36
:10420000852D0E949006E82E8111ADCF5886A98693
:10421000888599850E943114292F22952F7090341A
:1042200058F49F70223080F0992391F0F801968124
:10423000907F71F4FE2C97CF2A5F2F70223060F0B0
:10424000C80163D9EB2CF6CF992311F0882391F3A1
:10425000805E883078F3F4CF803F60F3815F8330F5
:1042600048F3EECF8091C80181608093C801F12CA2
:104270007ACF291314C02091C201908129130FC055
:10428000E1100DC08683C80140D987E0F801A2EC97
:10429000B1E001900D928A95E1F7FB2C64CFC80143
:1042A0000E943E14882309F463CFEE2009F460CF06
:1042B0008091C801803280F02091C2013091C30109
:1042C0003A832983DC82CB829091C6019D831E8232
:1042D0008F83CE01019619D987E0F801A2ECB1E0F5
:1042E00001900D928A95E1F7A0DE1FCF8091C80161
:1042F000982F907F49F482EC91E007D987E0F40190
:1043000011928A95E9F7B3CFFF2009F40ECF2091DF
:10431000C301F80191812913C2CF2091C20190817C
:104320002913BDCFE110BBCF8683C801EED887E04B
:10433000F40111928A95E9F7B0CF60E082EC91E048
:104340000E9464140E94B71568167906B8F6FF201B
:1043500009F4EBCEFE2CEE2009F40ACF9091C301B4
:10436000F801818198132BC09091C201808198132C
:1043700026C08091C4019091C501C81AD90AF8ECF1
:10438000CF16D10498F48091C80180FD0FC0982FFA
:10439000907F61F0F8018683903F31F0982F907FF5
:1043A000905F8F70892B8683C801AFD887E0F801B2
:1043B000A2ECB1E001900D928A95E1F7D4CEC8014C
:1043C0000E943E14811188CF8091C8018160809342
:1043D000C801C8019AD8C7CEABE1B0E0E2EFF1E284
:1043E0000C94262F4E8B5F8B688F798F8A8F9B8FD3
:1043F00091111092FA021D8A86E0FE017696DE0186
:104400001F9601900D928A95E1F78B89882351F0D0
:1044100061E0CE010F960E94641461E0CE010F9618
:104420000E94641487E0FE013F96DE011896019019
:104430000D928A95E1F7CE0108965BDE81110CC0E2
:1044400087E0FE013896DE01119601900D928A9563
:10445000E1F74C8541110BC017E080915903909111
:104460002003891334C06B96E3E00C94422F209113
:10447000200330E0C90101968770992750915903B4
:1044800058171906A1F04D8397E0929FD001939F92
:10449000B00D1124AF5DBC4FFE01319601900D921D
:1044A0009A95E1F7809320030E94D30BD5CF109209
:1044B00009030E94B30D109220031092590387E064
:1044C000E2ECF1E0DF011D928A95E9F7C5CF819F0B
:1044D000C00111248F5D9C4F0CDE882321F2809156
:1044E000590390E001968770992780935903B5CFBF
:1044F000A6E0B0E0EEE7F2E20C94252F8C01909359
:10450000570280935602011580E21807C0F4802FED
:104510000E94F110C8010E94970C9801205E310999
:104520002830310518F00115110531F40E94DE1014
:104530002696E4E00C94412F0E94CB10F9CF80EF37
:1045400089838A830E940D198160682F9C838B83E5
:1045500049815A817C8181E090E03EDFE9CF0F9371
:104560001F93CF93DF938C01EB016CE572E08C2FEE
:104570000E94A315892B71F4DD27C85ADD4F88816D
:10458000F801128218828330E9F048F4813059F042
:10459000823081F0DF91CF911F910F910895843087
:1045A000B1F08530B9F780915C0290915D0200977F
:1045B00089F306C080915E0290915F02009799F3A3
:1045C00097DFE8CF8091600290916102F7CF8091F0
:1045D000620290916302009799F720915C023091FA
:1045E0005D0280915E0290915F0221153105F9F222
:1045F000009731F7C901E4CFA6E0B0E0E2E0F3E2D2
:104600000C94272F9093570280935602811520E235
:10461000920730F40E94CA112696E2E00C94432FD0
:1046200080EF89838A830E940D198160682F9C83A3
:104630008B8349815A817C8181E091E0CDDEECCF92
:10464000CF93DF93D82FC92FD7DF8D2F9C2F50DF2B
:10465000DF91CF9108950F931F93CF93DF938C0138
:10466000862F6CE572E00E94A315892B99F4C09106
:104670005C02D0915D02209769F0F801828183305D
:1046800039F4CE01DDDFCE01DBDFCE01D9DF02C0A0
:104690008430D8F7DF91CF911F910F9108950F9338
:1046A0001F93CF93DF938C01EB016CE572E08C2FAD
:1046B0000E94A315892B09F059C0FE01FF27D801DC
:1046C00012968C911297E85AFD4F8130B9F41496E6
:1046D0009C9192FF02C080830AC090FFFCCF82E0D1
:1046E000808380915E0290915F020097B9F480917F
:1046F0005C0290915D020097C9F110C08230A1F573
:1047000014968C9182FD26C080FD0AC083E08083D0
:1047100080916002909161020097F1F06DDF26C0F8
:1047200084E0808380916202909163020097B1F7E8
:1047300080915C0290915D020097E9F081DF8091A9
:104740005E0290915F02009749F780915C02909120
:104750005D02E4CF85E0808380915C0290915D02F0
:10476000009721F06DDFF1CF86E08083DF91CF915C
:104770001F910F91089580915E0290915F02BBCFCF
:10478000A6E0B0E0E6ECF3E20C94252F0E940D19B0
:104790008C018091D1019091D2018017910779F01D
:1047A00019821A820E940D19682F49815A81792F26
:1047B00080E090E011DE1093D2010093D1012696A3
:1047C000E4E00C94412F1F921FB61F9211248F9387
:1047D0009F93AF93BF9380910303811113C0809186
:1047E000040390910503A0910603B091070341963D
:1047F000A11DB11D8093040390930503A0930603AC
:10480000B0930703BF91AF919F918F911F901FBEEF
:104810001F901895CF93DF93EC010E940D198C1B0C
:104820009D0BDF91CF910895CDB7DEB7AF970FB64F
:10483000F894DEBF0FBECDBF85B7806885BF85B752
:10484000806885BF84B7877F84BF0FB6F894A8952A
:1048500080916000886180936000109260000FBEBC
:1048600080E890E00FB6F894809361009093610027
:104870000FBE81E08093300185E899E090939F011D
:1048800080939E010E9460090E94D3150E94D30666
:104890000E9474078091E20084608093E200789423
:1048A000809114038823A1F01091E9001F7090916A
:1048B000EC00892F817090FD80E8182B1092E900A0
:1048C0008091E80083FD0E94C30D1F701093E900E2
:1048D00082E084BD93E095BD9AEF97BD80936E0012
:1048E0001092F5011092F6011092F7011092F80162
:1048F0000E949513811102C00E947E158091D800FC
:1049000080618093D8002AE12A95F1F700C0809158
:10491000D900182F117080FD04C00E94D306109298
:1049200014031093FD021093FE021093190111114C
:104930000E94AF2D809119018091190195E081119C
:1049400090E09093040285E0891B809303020CE7BA
:1049500011E031E8E32E31E0F32ED8018D918D0185
:104960008F3F11F00E948709E016F106B1F701E8C8
:1049700011E027E8E22E21E0F22EF80181918F016B
:104980008F3F11F00E948709E016F106B1F78AE027
:10499000EAE4F2E0DF01282F1D922A95E9F7E9EF1A
:1049A000F1E0DF011D928A95E9F790E080E00E9436
:1049B0003232833E9E4F21F40E949513811129C00B
:1049C00063EE7EEF90E080E00E94603260E082E083
:1049D00090E00E94463281E08093050261E083E02E
:1049E00090E00E94463260E074E184E090E00E9432
:1049F00060320E947E1540E050E0BA018FE090E006
:104A00000E94583240E050E0BA0183E190E00E94F9
:104A1000583282E090E00E942A328093080284E0BB
:104A200090E00E94323290930702809306020E9427
:104A30001919EFEFF6E721E0E150F0402040E1F7EF
:104A400000C000000E94191980914A0280FF08C02E
:104A50006FEF7FEF90E080E00E9460320E942A08B2
:104A600083E090E00E942A320E94840C8091FD0233
:104A70008111BEC082E08093410280E880935A0396
:104A80000ED76BE070E08BE591E00E94571688230B
:104A900009F443C08091410265E070E081FDAAC045
:104AA00086E591E00E9457168823B9F16DE070E029
:104AB00084E491E00E945716882379F10E943B0814
:104AC0006BA77CA78DA79EA7DC01CB01805A9541DF
:104AD000AF4FBF4F8093DF029093E002A093E102BB
:104AE000B093E202EDE5F3E080E092E0DF019C01AB
:104AF0001D9221503040E1F7F0936405E093630587
:104B00008FEF9FEF90935C0380935B0381E0809332
:104B1000E4028093E302109242028091FD0281112F
:104B200002C00E94B22D8AE191E090931F0380930E
:104B30001E038AE492E03AE0380F3FA78091140305
:104B400010E400E192E1F92E853009F489C00E9459
:104B5000191909E012E08AE4682E82E0782E23E138
:104B600032E0D301F80191918D912E173F0709F49E
:104B700083C09817C1F38090FD02BAE4EB2EB2E037
:104B8000FB2ED12CD701CD907D01F80191908F01A2
:104B90009C1429F19C24B12CAA24A394892D8A2148
:104BA000B1F08820A1F0B982DA820E940D199C83AD
:104BB0008B83F1E0FD8391E08C2D8A2109F490E054
:104BC0009E8349815A816B817C818D8105DCB39400
:104BD000AA0C26E0B212E2CFF8013197C082D3943A
:104BE0003AE0D312CFCF0E94A009FF24F39448C02B
:104BF00080E041CF81E591E055CF8091140384306E
:104C000029F10E9464161092030348E150E00FB6A8
:104C1000F894A895409360000FBE1093600083B78E
:104C2000817F846083BF83B7816083BF78948895D8
:104C300083B78E7F83BF0FB6F894A89580916000EC
:104C4000886180936000109260000FBE0E94191965
:104C5000EAE4F2E081918111AAC55FA55E13FACF63
:104C600080911403853009F4C8CF109209030E9483
:104C7000B30D0E94D2086BCF98137DCF81DDF12C4C
:104C80008091FD02882309F46EC00091F602109114
:104C9000F70201151105C1F18090EB029090EC0232
:104CA000A090ED02B090EE020E943B086BA77CA79B
:104CB0008DA79EA7DC01CB0188199909AA09BB0918
:104CC0004091E7025091E8026091E9027091EA0296
:104CD00084179507A607B707B8F0C8010E94CA1144
:104CE0001092F7021092F6021092EB021092EC0270
:104CF0001092ED021092EE021092E7021092E8027A
:104D00001092E9021092EA02C090FB02D090FC02DD
:104D1000C114D10441F1A0901302B09014020E947A
:104D20000D198C010A191B09C6010E94B7158017BD
:104D30009107C8F48091FB029091FC029C013327FB
:104D40008C7F9927892B09F0C4C04FE0429FC00196
:104D5000439F900D11248A599D4FDC0114962C918C
:104D600022FF0E94AA108091E402882309F464C003
:104D700000914302109144020E940D19801B910B77
:104D8000C29780F10E940D199093440280934302D0
:104D90008DE593E090936405809363058091FD0217
:104DA000882309F4BBC08BE891E00E94760D8091C6
:104DB00020020E94870C823009F4AAC008F08CC03F
:104DC0008111A3C084E891E00E94760D8CE691E009
:104DD0000E94760D85E192E00E94DE1186E691E068
:104DE0000E94760D80915B0390915C03892B09F002
:104DF00098C08091E3028823F9F00E943B086BA7DA
:104E00007CA78DA79EA78091DF029091E002A091E0
:104E1000E102B091E2022BA53CA54DA55EA5281BA1
:104E2000390B4A0B5B0BDA01C9018F3F9F4FAF4F24
:104E3000BF4710F40E946416F1100E947E160E9473
:104E4000D20890914502891721F0809345020E9473
:104E50003B0880911403843009F070CE83E0809386
:104E6000E9008091E80082FF69CE8091E80090E03F
:104E700085FF0CC00E94F20640E2E42EF12C8E0168
:104E80000F5F1F4F882309F430C191E08091E80043
:104E90008B778093E800992309F450CE0091540257
:104EA00010915502E9810115110509F42CC1EE3F5D
:104EB00009F04DC18A81833020F08550833008F09D
:104EC00046C1EA81EE3008F042C1F0E0E957FD4CFE
:104ED000F1C790E080E041CF8330E9F01F928F93DB
:104EE00081E391E09F938F9389E192E09F938F9369
:104EF0000E948D2F89E192E00E94DE110F900F90A9
:104F00000F900F900F900F9061CF8DE791E05CCFE5
:104F100086E791E059CF8FE691E056CF82E991E0A4
:104F20005FCF8091E402882309F463CF809142022D
:104F300081115FCF0E947E1620915B0330915C034C
:104F40002115310509F455CF80E041E050E0082FEC
:104F500010E04A01082E02C0880C991C0A94E2F75E
:104F6000B90168217921672B11F48F5FF0CF9091FF
:104F7000410290FF97C0880F880F880F8093280107
:104F800010922B01895F8093290183E080932C018B
:104F900024E630E047E050E066E271E088E7B5D40F
:104FA000892B09F026CFA801F5E0440F551FFA958B
:104FB000E1F78091410280FF87C0E1E2F2E080E208
:104FC000DF011D928A95E9F7EBE8F1E0FCA7EBA77A
:104FD00067E871E0E7E0DE2ECC24C394EBA5FCA5E6
:104FE000A191FCA7EBA7FB018191BF01840F952F35
:104FF000911D9C01235A3C4F2901EA2FF0E0EF5DFF
:10500000FD4F90E080E0AD2CA81AEC2C082E01C0DA
:10501000EE0C0A94EAF7120100E0D1011D911D0186
:105020001E212A2D201B2770B22E022E000C330BBE
:10503000B12F01C0BB0FBA94EAF7BB2E3195219571
:1050400031092770332701C016952A95EAF7B12A4E
:105050001081B12AB0820F5F0830F9F601963196BF
:105060008830910581F6EBA5FCA5EF58F14009F0D9
:10507000B5CF04E610E020E230E041E252E060E427
:1050800088E7CBD4892B09F0B4CE8094909480919A
:105090005B0390915C038822992290925C0380923A
:1050A0005B03A7CE8295880F8076809328019801B4
:1050B000369527953695279520932B01815E809311
:1050C000290120932C0164CF435A5C4F04E610E081
:1050D00020E230E0D4CF8091F100D8018D938D0192
:1050E000B1E0EB1AF10809F4D0CE8091E80085FD1B
:1050F000F2CF8091E8008B778093E8000E94F2065F
:10510000882399F3C2CEE43148F4EE2351F0E15004
:10511000E33138F4F0E0EB56FD4CCCC6EE3F09F439
:10512000D0CE8FEF898313C01A8289E08B830FC0A2
:105130008A81823009F458C3833071F0813089F755
:105140000E943B08BDD66B837C838D839E83CE01FA
:1051500001960E94C506F2CC8091E5029091E6028C
:10516000892BA9F3FE013396D3018D913D018193E3
:10517000B4E56B16B2E07B06B9F7E9CF8A818230DD
:1051800081F62B813C814D815E812BA73CA74DA7E9
:105190005EA7CA01B90194D688E290E00E94463227
:1051A000D6CF4C816B818A810E94BD1398278927B5
:1051B00098279E838D83CBCF2D813E813227232755
:1051C00032274C816B818A810E946E13C0CF0E946E
:1051D000EC14BDCF80E18A83BACF1A8280E4A6CFD7
:1051E0008C818D3108F0B3CF8A809B8098248924EC
:1051F0009824C82ED12CF12CE12C2401712C612C87
:1052000037EB831A3CEF930AAE014F5F5F4F5A01B1
:1052100010E000E0C401800F911FA80170E060E081
:105220004C155D056E057F0508F091CF440D551DA9
:10523000661D771D403451056105710558F40E94C3
:105240002A32D50114968C930F5F1F4FFFEFAF1AD0
:10525000BF0AE0CFF5011482F7CF8091E50290916B
:10526000E602892B09F473CF8C818D3108F06FCF62
:105270008A809B80982489249824C82ED12CF12CD4
:10528000E12C2401712C612C27EB821A2CEF920A5D
:10529000AE014F5F5F4F5A0110E000E0C401800F84
:1052A000911FA80170E060E04C155D056E057F055B
:1052B00008F04DCF440D551D661D771D4034510536
:1052C0006105710528F4D50114966C910E9446324F
:1052D0000F5F1F4FBFEFAB1ABB0AE0CF0E948E14C7
:1052E00036CF86E078CF8C818D3108F030CF882E94
:1052F000912CB12CA12CCA80DB80DC24CD24DC24B1
:10530000F12CE12C8E010F5F1F4F412C512C3201EB
:10531000C6018996481459046A047B0408F017CF23
:10532000E0EDCE16E2E0DE06E104F10490F40E9426
:105330002A32D80114968C93FFEF4F1A5F0A6F0A36
:105340007F0A0F5F1F4F2FEFC21AD20AE20AF20A3A
:10535000DFCFF8011482F0CF2C81A22EB12C2D3199
:1053600008F0F5CE8A819B81982789279827803D70
:1053700032E0930708F0EBCEC22ED12CF12CE12CB9
:105380002C01712C612C40ED52E060E070E044197A
:105390005509660977094C155D056E057F0508F40A
:1053A000D6CE1C0149E2240E311C2091E502309139
:1053B000E602232B21F1CE0101965C0110E000E012
:1053C000C101800F911FA80170E060E04C155D05E0
:1053D0006E057F0508F0BBCE440D551D661D771D7B
:1053E000403D52406105710520F4F50164810E9441
:1053F00046320F5F1F4FFFEFAF1ABF0AE1CF8C019C
:105400000170112780FF0CC088960E942A329D816E
:1054100089279827892781159C4711F48FEF8D8361
:10542000D701C601840D951DA61DB71D450180FF3E
:105430001AC0B1E08B1A9108E5E0F0E0EC0FFD1F17
:10544000E80DF91DFCA7EBA7C1018A0D9B1D0E9469
:105450002A32ABA5BCA59C9181159C4721F48FEF06
:10546000EBA5FCA58083E1E0F0E0EC0FFD1FE00F71
:10547000F11F2FEF0815190508F09DCF9481858144
:1054800081159C4711F4248325830E5F1F4F3296AC
:10549000F1CF8091E5029091E602892B09F457CE75
:1054A000CE0101960E94C5062FEF31EE44E0215057
:1054B00030404040E1F700C00000D0CA88E0EBE394
:1054C000F1E0DE01919601900D928A95E1F7FE01DF
:1054D0003D9684E1DF011D928A95E9F786E0898394
:1054E0001A821B821C8288E07496DE011596019058
:1054F0000D928A95E1F72BCE8CE98983B1E0BA83CE
:105500001B821C8224CE8C81682F70E0762F662748
:105510008B81860F972F911D092E000CAA0BBB0BB8
:1055200035E0880F991FAA1FBB1F3A95D1F7AC0130
:10553000BD01405E5F4F6F4F7F4F803EEFEF9E0794
:10554000AE07BE0708F003CE8C39F1E09F07A10536
:10555000B10508F0FCCD4D3921E052076105710518
:1055600020F04CE951E060E070E0481B590BBC01B1
:105570006E527E4FCE010196AAD4E9CD4AE150E0A9
:105580006FEF70E0CE010796C1D48091E502898368
:105590000A8384E08B838C8399E09D838E83D7CDAF
:1055A00081E090E0909355028093540282E390E072
:1055B00090934902809348020E940D1990934702EC
:1055C00080934602C4CD012B71F1E0904E02F09021
:1055D000530200914602109147020E940D19801B50
:1055E000910B8536910540F1E4FE26C0F4FE24C0FF
:1055F0000E940D19909347028093460280914802C1
:105600009091490201979093490280934802892B17
:1056100051F4109255021092540281E090E0909360
:10562000E6028093E5028091E5028983809154022D
:105630008A83809148027ACD82E390E09093490278
:1056400080934802F0CF1092E6021092E5027FCDDF
:1056500040E250E06FEF70E0CE01019657D477CD75
:105660008B81823009F451C080F4811137C0FE0172
:1056700035968BE1DF011D928A95E9F784E08983F5
:105680001A828B831C8218A262CD853009F472C005
:10569000863009F05CCD1C818AE0FE013596DE0182
:1056A000919601900D928A95E1F78BA19CA10E94A1
:1056B00078099CA38BA38FEF143060F4FAE01F9F4E
:1056C000B00111246F5D7C4F4AE050E0CE0181961D
:1056D000FBD680E089830E94D31539CD8C819AE076
:1056E000F92E8E010F5D1F4FF8012F2D11922A9573
:1056F000E9F7B8010E94A3158983F801DE0112962B
:1057000001900D92FA94E1F722CD1C818AE0FE010E
:105710003596DE01919601900D928A95E1F789A167
:105720009AA10E9478099AA389A38BA19CA10E94A7
:1057300078099CA38BA38DA19EA10E9478099EA3AA
:105740008DA38FA198A50E94780998A78FA38FEFAA
:10575000143060F43AE0139FB001112467507D4F7C
:105760004AE050E0CE018196AFD680E089830E9466
:105770006009EDCC6C812AE0CE018196DC01E22F3C
:105780001D92EA95E9F7643080F4629FB00111241C
:105790006F5D7C4F4AE050E04DD680E089838AE01F
:1057A000FE01B196DE011296A2CE8FEFF7CF809167
:1057B0001303882309F454CA09BDF9BC09B400FED7
:1057C000FDCF8091D8008F7D8093D8008091E0003C
:1057D00082608093E0008091E00081FDFCCF109218
:1057E00009030E94B30D3CCA88E290E033D61B82C5
:1057F0001C821D82D3CEFF920F931F93CF93DF9312
:10580000182FEB011092BC0084EA8093BC000E9428
:105810000D19082FF92E8091BC0087FF28C08091B8
:10582000B900887F883029F08091B900887F803165
:1058300099F51093BB0084E88093BC000E940D1979
:10584000182F092F8091BC0087FF1EC02091B9003E
:10585000287F90E080E0283199F081E090E02034CA
:1058600011F490E080E091958195910909C0802F15
:105870009F2D0E940A24C817D90768F68EEF9FEF64
:10588000CDB7DEB7E5E0FCC2812F902F0E940A243D
:10589000C817D907B8F6F2CF8FEF9FEFF1CF10926C
:1058A000B9008CE08093B80008950F931F93CF93B5
:1058B000DF93EB018093BB0084E88093BC000E94DF
:1058C0000D19182F092F8091BC0087FF11C020915E
:1058D000B900287F81E090E0283211F490E080E068
:1058E000919581959109DF91CF911F910F91089525
:1058F000CF3FDC0741F3812F902F0E940A24C81765
:10590000D90708F78EEF9FEFEECFB0E0A0E0EAE80E
:10591000FCE292C2782E5B016A0189010E940D1996
:105920007C0188248394912C0431110558F085E082
:10593000882E912C0F3F100729F0C80164E170E018
:1059400062D24B01B401872D56DFEC0197FF09C0ED
:105950000F3F1007B9F3C7010E940A24081719075F
:1059600088F77501CA0CDB1CEC14FD0411F0D7FF9D
:1059700008C084E98093BC00CE01CDB7DEB7EDE06E
:1059800077C2B801F70181917F018FDFEC01ECCF85
:10599000B0E0A0E0EDECFCE24FC2782E5B016A01C2
:1059A00089010E940D197C0188248394912C043173
:1059B000110558F085E0882E912C0F3F100729F033
:1059C000C80164E170E01FD24B01B401872D13DFE1
:1059D000EC0197FF09C00F3F1007B9F3C7010E9400
:1059E0000A240817190788F77501CA0CDB1CEC1488
:1059F000FD0411F0D7FF08C084E98093BC00CE01FC
:105A0000CDB7DEB7EDE034C2F7018491B8014DDFC8
:105A1000EC01FFEFEF1AFF0AEACFB0E0A0E0E2E10D
:105A2000FDE209C2682E962E5A01690178010E9492
:105A30000D19782E892E01E010E084E1E816F104BA
:105A400058F005E010E0EFEFEE16FE0629F0C70172
:105A500064E170E0D8D18B01B801862DCCDEEC0179
:105A600097FF1FC0FFEFEF16FF06B1F3872D982DAC
:105A70000E940A24E816F90678F784E98093BC00AE
:105A8000CE01CDB7DEB7EEE0F2C1B701F8018191EA
:105A90008F010BDFEC01C016D10679F3D7FFF5CFEC
:105AA000ECCFB701892D01DFEC018501CA0CDB1CAD
:105AB000F2CF8EE14A9B02C08150E1F74A9BFECFB4
:105AC00008955A9880E28A95F1F75A9A0895FC0150
:105AD0003BE03A95F1F798E020E080E031E040E1EA
