:10000000A4C60000BFC60000BDC600000C947E2F31
:10001000B9C60000B7C60000B5C60000B3C60000F0
:10002000B1C60000AFC600000C942B190C94E71861
:100030000C944C25A7C60000A5C60000A3C600006E
:10004000A1C600009FC600009DC600009BC6000020
:1000500099C600000C94131A95C6000093C60000C0
:1000600091C600008FC600008DC600008BC6000040
:1000700089C6000087C6000085C6000083C6000050
:1000800081C600007FC600007DC600007BC6000060
:1000900079C6000077C6000075C6000073C6000070
:1000A00071C600006FC600006DC600000501098022
:1000B000A101850319012AB700150126B700950192
:1000C00075108100C0050C0901A101850419012AE0
:1000D000A002150126A002950175108100C00660DE
:1000E000FF0961A1010962150026FF00952075082E
:1000F00081020963150026FF00952075089102C052
:1001000005010906A101050719E029E715002501E8
:10011000950875018102950175088101050719008F
:1001200029FF150026FF00950675088100050819AE
:1001300001290515002501950575019102950175A7
:10014000039101C000DA0281FFD9F1DB20A4A62EC1
:10015000AF00A0C0D30000A1C8D30000AED580A8D6
:100160001F408D14200043415053204C4F434B3AC5
:10017000204F46460043415053204C4F434B3A20BA
:100180004F4E002D2D004F4E002D2D2020004F4EA4
:10019000202000434D443A20002D2D004F4E0041B9
:1001A0004C543A20002D2D2020004F4E202000439B
:1001B00054524C3A20005346543A20002035204DEA
:1001C0004F35003E35204D4F35002034204D4F3403
:1001D0002020202020003E34204D4F34202020209D
:1001E000200020332041444A555354003E332041DF
:1001F000444A55535400203220524149534520204F
:1002000020003E3220524149534520202000203119
:10021000204C4F574552003E31204C4F574552001D
:100220002030205157455254592020003E30205153
:100230005745525459202000FD377A585A0000047F
:10024000E6D6B4460200210116000000742FE5A393
:10025000E005C7015C5D003D8889C65436C3174F71
:10026000E4E20F535D9075DB08C965CE09CBAEF2B1
:10027000FFD16E9644531750A9573CF31C36AD7608
:100280008D7A7A850BC9433E38EE515A3E9C7DCE1D
:10029000B4C813B9F1CF8867CEB8A9BF34EAE3492F
:1002A0009914A741D5576A229C4F0765976DEDE6D3
:1002B0005205C276003360F788AF8348607DF4FD55
:1002C00032CB5CB4A3130FA779664A7A762F3B3002
:1002D000DDCAA3AAFD617C0E3B1587C37683075D4B
:1002E0003BDD124776E5A83D1F79BCA9EAD200287C
:1002F0001FB159F012878D588EB0E9D5FFF4E9038C
:10030000A04E8AAB492B16A40CD6DB26072A6054D4
:100310002BABFF81864810D3DE5CC6B9BB689DF865
:10032000152AF17BB847E73BB48E1DC999D80C80DC
:100330000D5362FBA3A7CA47DAC48DA5D400E4E03D
:10034000B68391325BFE7CB952F711374FBEFCB3D6
:10035000E328B73538102A1B49CA110AF865AD637E
:10036000E9DB025F78A396C6F1162682AA735DAB1D
:1003700026F1710555F4D70A2670CB8BE97F103131
:10038000D1D48C8FFE74B9BAE044C24CBC510C2D50
:1003900033D5C383EC4DC6E7B18A91DCFD2D84C70C
:1003A0009284B72A1FE6A8020BE48425F3DCA34C51
:1003B000FFF38400D549FD2D4E472EFA0001F802C7
:1003C000C80B0000C135F8FFB1C467FB0200000094
:1003D0000004595A00AF00AE29001E001F00200083
:1003E000210022002B0014001A000800150017003D
:1003F000E00004001600070009000A00E1001D00EB
:100400001B0006001900050000002152E300E20075
:100410002C002F0035002700260025002400230093
:100420002D00130012000C0018001C0034003300D3
:100430000F000E000D000B00E500380037003600FD
:100440001000110000002252E7002A0028003000AE
:1004500001000100010001000100010001001E0275
:100460001F0220022102220201001E001F002000A4
:100470002100220001000100010001000100010033
:100480000000010001000100010001000100010065
:1004900001000100010001000100270226022502DF
:1004A0002402230201002700260025002400230047
:1004B000010030022F022E0235003102000001003F
:1004C0000100010001000100010001000100010024
:1004D000010001003A003B003C003D003E003F00AF
:1004E0000100010001000100010001000100010004
:1004F00001000100010001000000010001000100F5
:1005000001000100010001000100010001000100E3
:1005100045004400430042004100400000004F00FD
:1005200052005100500000000100310030002F0047
:100530002E002E0200000100010001000100010058
:1005400000000000000000000000000000000000AB
:10055000000000000000000000000000000000009B
:10056000000000000000000000000000000000008B
:100570000000010001000100010000000000000077
:10058000000000000000000000000000000000006B
:10059000000000000000000000000000000000005B
:1005A000000000000000000000000000000001004A
:1005B0000100010001000000000000000000000038
:1005C000000000000000000000000000000000002B
:1005D000000000000000000000000000000000001B
:1005E0000000000000000000000001000100010008
:1005F00001000000000000000000000000000000FA
:1006000000000000000000000000000000000000EA
:1006100000000000000000000000000000000000DA
:1006200000000000000001000100010001000000C6
:1006300000000000000000000000000000000000BA
:1006400000000000000000000000000000000000AA
:10065000000000000000000000000000000000009A
:100660000000010001000100010000000000000086
:10067000000000000000000000000000000000007A
:10068000000000000000000000000000000000006A
:100690000000000000000000000000000000010059
:1006A000010001000100000009025B00030100A03D
:1006B000FA090400000103010100092111010001F0
:1006C0002244000705810308000109040100020318
:1006D0000000000921110100012222000705820308
:1006E00020000107050303200001090402000103A3
:1006F00000000009211101000122320007058403D6
:100700002000011201000200000008D8042DEB00B7
:1007100001010203011C037600690061006C003ACC
:10072000006600360034006300320062003300636C
:100730000000000E034C0069006C007900350038A1
:1007400000000010036C0069006C00690075006D0A
:100750000073000000040309040000000000000012
:100760000000000000000000000000000000000089
:10077000000000000000000000000000007E0F00EC
:10078000D4FFFFFFC7000000780000000000000059
:10079000002A2B28000000000000000000000000DC
:1007A0000000000029000000002C1E34202122241B
:1007B000342627252E362D3738271E1F20212223A9
:1007C0002425263333362E37381F0405060708093B
:1007D0000A0B0C0D0E0F1011121314151617181901
:1007E0001A1B1C1D2F3130232D350405060708095F
:1007F0000A0B0C0D0E0F10111213141516171819E1
:100800001A1B1C1D2F3130354C0000000000003E2B
:100810005B4F5B3E003E6B4F6B3E001C3E7C3E1CC4
:1008200000183C7E3C18001C577D571C001C5E7F46
:100830005E1C0000183C180000FFE7C3E7FF000043
:100840001824180000FFE7DBE7FF0030483A060EE7
:1008500000262979292600407F05050700407F05ED
:10086000253F005A3CE73C5A007F3E1C1C0800080C
:100870001C1C3E7F0014227F2214005F5F005F5F1C
:100880000006097F017F00006689956A006060604C
:1008900060600094A2FFA2940008047E0408001087
:1008A000207E20100008082A1C0800081C2A0808BE
:1008B000001E10101010000C1E0C1E0C0030383ED4
:1008C000383000060E3E0E0600000000000000005A
:1008D000005F000000000700070000147F147F1471
:1008E00000242A7F2A120023130864620036495626
:1008F000205000000807030000001C2241000000F7
:1009000041221C00002A1C7F1C2A0008083E0808FF
:10091000000080703000000808080808000000602F
:100920006000002010080402003E5149453E0000CE
:10093000427F4000007249494946002141494D33F8
:10094000001814127F10002745454539003C4A49DC
:10095000493100412111090700364949493600460D
:100960004949291E00000014000000004034000026
:100970000000081422410014141414140000412231
:100980001408000201590906003E415D594E007CE1
:100990001211127C007F49494936003E41414122F3
:1009A000007F4141413E007F49494941007F09099B
:1009B0000901003E41415173007F0808087F000093
:1009C000417F4100002040413F01007F0814224147
:1009D000007F40404040007F021C027F007F0408EF
:1009E000107F003E4141413E007F09090906003E5B
:1009F0004151215E007F09192946002649494932A3
:100A00000003017F0103003F4040403F001F2040A2
:100A1000201F003F4038403F006314081463000368
:100A200004780403006159494D4300007F4141416E
:100A300000020408102000004141417F000402012F
:100A4000020400404040404000000307080000202E
:100A500054547840007F28444438003844444428A3
:100A600000384444287F0038545454180000087E4D
:100A70000902001824241C78007F08040478000070
:100A8000447D4000002040403D00007F102844008D
:100A90000000417F4000007C04780478007C08045A
:100AA0000478003844444438007C18242418001882
:100AB0002424187C007C080404080048545454245E
:100AC0000004043F4424003C4040207C001C2040A3
:100AD000201C003C4030403C004428102844004C7E
:100AE0009090907C004464544C44000008364100CF
:100AF00000000077000000004136080000020102FB
:100B00000402003C2623263C0000000000008080F8
:100B10008080000000000080E070180C1830E08039
:100B2000000010F8901030783010B8FC3810000039
:100B300000000000F8FCF8000000000000000000C9
:100B4000000000001C9C1C00000000F8FCF80000E5
:100B5000000000001CFCF8C000000000000080E065
:100B6000F87C1C000000F0FCFCFC1C1C1C1C1C1C69
:100B70001C1C000000000000C0F0F8381C1C1C1CED
:100B80001C1C3CF8F0E000E0F0F0F0E0ECEEF7F3D5
:100B90007020007C7C7C7E007E7E7E7F7F7F0000DC
:100BA00080C0E07E5B4F5BFEC00000C000DCD7DE93
:100BB000DEDED7DC00C00000000000000000000006
:100BC00000000000000000000000000000000FBC5A
:100BD000E0818181838382870C183060C000001F10
:100BE000FE90B9FFBB91983C1811133F1100000013
:100BF00000000000FFFFFF000000000000000000F8
:100C000000000000FFFFFF00000000FFFFFF0000EA
:100C1000000000000000030F7FF8E080F0FC3F0FB1
:100C20000100000000003F3F3F1C1C1C1C1C3C78C6
:100C3000F8F0E08000000000C3E7FF7E3C387878E1
:100C40007070F8FFDF87000F1F3F7F7F7F7F7F3F40
:100C50001E0C001F1F1F3F003F3F3F7F7F7F003064
:100C60007B7F7830202030787F3B0003000F7F0FA0
:100C70000F0F7F0F000300000000000000000000C5
:100C8000000000000000000000183C24666341C121
:100C90008180808080808081C14162386C4CC681B7
:100CA00081808080808081C14362361C18000000F2
:100CB00000000000FFFFFFC0C0C0C0C0C0C0C0C077
:100CC000800000007FFF7F000000007FFFFFC080EA
:100CD000000000E0E0C0C0C0E0F97F1F0700000096
:100CE00000000000000070F0E0E0C0C0C0C0E0F014
:100CF000F87F3F0F0000000F3F7FF9E0E0C0C0C069
:100D0000C0C0E0F97F3F1F000000000000000000AD
:100D100000000000000000000000000000000000D3
:100D200000000000000000000000000000000000C3
:100D300000000000000000000000000000000000B3
:100D40000000000000000000000011241FBECFEFD3
:100D5000DAE0DEBFCDBF11E0A0E0B1E0EEE4F3E603
:100D600002C005900D92A43BB107D9F725E0A4EB92
:100D7000B1E001C01D92A638B207E1F70E947D25BF
:100D80000C947A313DC9982FE0917A034091410348
:100D900057E0E41302C080E008952E2F30E05E9FFC
:100DA000F0011124EE5BFC4F8181681306C0808145
:100DB000981303C085818111EFCFF9013196E77057
:100DC000E8CFFC01AC014B5F5F4F8FEF91E32191C6
:100DD000822728E030E087FF09C0880F892721504B
:100DE0003109C9F7E417F50791F70895880FF7CF90
:100DF000E0913F03F0914003309739F00284F3858E
:100E0000E02D309711F060E209950895E8EDF0E0EB
:100E100080818E7F80831092E2001092DA0010921F
:100E2000E100A0EEB0E08C9181608C9380818F779F
:100E3000808319BCA7EDB0E08C918E7F8C9380816C
:100E40008F7E80831092290308952091E4003091D1
:100E5000E50095E6A9012091EC00822F817020FF2A
:100E600006C08091E80080FF06C080E008952091D0
:100E7000E80022FD1AC080913503882389F085306F
:100E800089F08091EB0085FD0FC02091E400309146
:100E9000E50042175307F9F29150E1F684E0089516
:100EA00082E0089583E0089581E0089580913703FA
:100EB00087FF13C08091E80082FF06C08091E800A0
:100EC0008B778093E80004C0809135038111F2CFC5
:100ED0000895809135038823D9F38091E80080FF3D
:100EE000F8CF8091E8008E77ECCF982F9093E900AF
:100EF000242F762F50E0891731F07091EC0020916B
:100F0000ED005091F00021FD07C09F5F973071F711
:100F10008093E90081E008953091EB003E7F3093AB
:100F2000EB003091ED003D7F3093ED003091EB0010
:100F300031603093EB007093EC002093ED00509300
:100F4000F0002091EE0027FDE0CF80E00895B0E0B2
:100F5000A0E0EDEAF7E00C94AD30C8EDD0E0888178
:100F60008F7E8883E7EDF0E080818160808384E07C
:100F700082BF81E08093290388818E7F888302EE7F
:100F800010E0F80110821092DA0081EEC82ED12C08
:100F9000F601108288818F778883888180688883B2
:100FA00088818F7D888319BC109235031092360397
:100FB000109234031092330390EEE92EF12CF701D6
:100FC00080818B7F808388818160888342E060E0BC
:100FD00080E08BDFF60180818E7F8083F801808145
:100FE00081608083808188608083F70180818E7F2B
:100FF0008083888180618883CDB7DEB7E8E00C9478
:10100000C930FC01CB0120913D0330913E032617EE
:10101000370790F0009729F42091E8002E7720936D
:10102000E80040E0009751F4411108C08091E800C9
:1010300082FF31C080E00895C901F3CF20913503CC
:101040002223A9F12530A9F12091E80023FD2DC02C
:101050002091E80022FDEACF2091E80020FFE2CFB6
:101060003091F3002091F200009719F028303105FB
:1010700058F041E02830310509F040E02091E800C7
:101080002E772093E800CECF41914093F100019755
:101090002F5F3F4FE9CF80913503882341F08530A2
:1010A00041F08091E80083FFC1CF81E0089582E0A4
:1010B000089583E008950895089587E797E790934A
:1010C00001088093000888E19AE00FB6F894A8958B
:1010D000809360000FBE90936000FFCFA4E0B0E06B
:1010E000E4E7F8E00C94B3308FB7F894209125032F
:1010F00030912603409127035091280329833A8396
:101100004B835C838FBF69817A818B819C8124961C
:10111000E2E00C94CF3080914E010895E8EBF1E0CD
:101120009191891303C0DF0111971C9291E0EE3B6E
:10113000F907B1F708959C01FC0132968FEF90E01A
:101140004191461751F08F3F19F4411101C0892F89
:101150009F5F9630A9F78F3F09F40895280F311D3E
:1011600087FD3A95F90162830895A3E0B0E0EBEBC7
:10117000F8E00C94B3309C018091220390912303FA
:1011800082179307B1F03093230320932203E09159
:101190003F03F0914003309761F00084F185E02D2A
:1011A000309739F084E089833B832A83CE0101960E
:1011B00009952396E2E00C94CF30A3E0B0E0E3EE93
:1011C000F8E00C94B3309C018091200390912103AE
:1011D00082179307B1F03093210320932003E0910D
:1011E0003F03F0914003309761F00084F185E02DDA
:1011F000309739F083E089833B832A83CE010196BF
:1012000009952396E2E00C94CF3080911D03811163
:1012100003C080911F030895E0913F03F0914003C4
:10122000309739F00190F081E02D309711F0099559
:10123000089580E00895FA01309709F0099508951E
:10124000CF92DF92EF92FF92CF93DF9300D000D046
:1012500000D0CDB7DEB78E839D83C0900F03D090B2
:101260001003E0901103F090120338DFDC01CB0192
:101270008C199D09AE09BF09843F9140A105B105B4
:1012800038F5C0920B03D0920C03E0920D03F0925C
:101290000E0384EF91E0A0E0B0E080930703909309
:1012A0000803A0930903B0930A038E818093160369
:1012B0009D819093170326960FB6F894DEBF0FBE5C
:1012C000CDBFDF91CF91FF90EF90DF90CF90089549
:1012D00005DF60930B0370930C0380930D039093D1
:1012E0000E0382E390E0A0E0B0E0D7CFFC01848160
:1012F000862351F482818823B9F06823908593FF77
:1013000005C081E061110FC080E00895282F2F7083
:1013100082958F70282B962F9F7062956F70692B26
:1013200081E02613F1CF089581E0FDCFE6E8F2E0F9
:1013300090E080E064E974E248EB54E228E134E2B2
:101340007683658350874783328721879687858791
:1013500001963F968430910599F7089581152CE701
:10136000920741F42091050330910603232B11F4D9
:1013700090E080E0089580E00895F894E82FE295E9
:10138000EF70F0E041A18F7021E030E0B90102C0C0
:10139000660F771F8A95E2F7CB01962F90959423DD
:1013A00091A392A1892B82A378940895A4E0B0E040
:1013B000ECEDF9E00C94B33080911D03882369F0C3
:1013C0008DDE69837A838B839C8369817A818B81AB
:1013D0009C812496E2E00C94CF3080DE69837A838E
:1013E0008B839C838091200290912102A091220204
:1013F000B091230229813A814B815C81280F391FEA
:101400004A1F5B1F29833A834B835C83DECF909115
:10141000310292FF10C041E0282F2471243009F0DE
:1014200040E031E0282F2871283009F030E04317E0
:1014300011F02CE0822793FF10C041E0282F247187
:10144000243109F040E031E0282F2871283109F0DB
:1014500030E0431711F02CE082273091320230FF48
:1014600010C051E0282F2171213009F050E041E0F7
:10147000282F2871283009F040E0541711F029E096
:10148000822731FF10C041E0282F2171213109F05E
:1014900040E031E0282F2871283109F030E043176F
:1014A00011F029E0822794FD877E0895803E910502
:1014B000C1F1C8F48133910509F47DC048F4893243
:1014C000910509F46DC08A32910509F47BC0089535
:1014D00089339105D1F082389105B9F085339105B2
:1014E00009F459C00895843E9105C1F138F4823E53
:1014F000910521F1833E910531F10895863E9105D4
:10150000C1F1873E9105E1F10895209131022370E8
:1015100009F065C02091320223FF14C089E290E0F7
:1015200008952091310220FD43C03091320230FFF6
:1015300009C024FF4EC090E080E008952091310260
:1015400022FDF7CF08952091310222FD45C0309150
:10155000320230FD44C024FFF5CFEDCF209132029E
:1015600021FFF0CF8091310284FDE5CF87EE90E03E
:1015700008952091310223FFE5CF24FDDCCFF6CF83
:101580002091310223FD2EC03091320231FFE3CF92
:1015900084EE90E008952091310225FFD3CFBECF95
:1015A0002091310225FD21C02091320223FFCACFB4
:1015B00089E390E0C7CF2091310226FFC3CF8AE2B2
:1015C00090E008952091310226FFBCCF81E390E0A6
:1015D000089583EE90E0089582EE90E0089580EE05
:1015E00090E0089586EE90E0089585E390E00895F8
:1015F0001F93CF93DF935ADFEC01C11580E5D80725
:1016000008F052C0C11580E4D80708F0BFC0C03E42
:10161000D10530F5CD3CD10508F0A7C0C83AD105B9
:1016200078F4C53AD10508F09DC0C130D10531F13B
:10163000CE010497813A910508F1D0E0C0E01EC0C8
:10164000CE01885A91094B97C0F7C85AD0E0CC0F09
:10165000DD1FC65ADE4F0990D881C02DD4640EC05C
:10166000C11580E2D80778F4CF3FD10511F008F01A
:101670007EC0CE01805E91090897F8F6CE01DF9119
:10168000CF911F9108958D2F8F71C1DE182FCE013C
:1016900099270CDFC12FD0E0DC2FCC27CC27DF71BE
:1016A000C82BD92BD062EACFC03682E5D80748F5DF
:1016B000C03482E5D80708F086C0C03282E5D8077A
:1016C000C8F4C11582E5D80708F069C08C2F8F7166
:1016D0009EDE65E0D695C7956A95E1F7CF70D0E0BC
:1016E000DC2FCC27282F30E084FD8CC0C22BD32BDD
:1016F000D069C4CFCF71D0E0DC2FCC27C16FD06AC6
:10170000BDCFC03C82E5D80700F5C03A82E5D807D6
:1017100008F06EC0CE0180569245809708F08DCFBC
:101720002C2F26952695277080E2289F9001112462
:101730008C2F8370C1E0D0E002C0CC0FDD1F8A95F2
:10174000E2F7C22BD32BDA6899CFCE01805C9245A9
:10175000809708F072CFDC2FCC27CC27DF71C06FC9
:10176000D06A8CCFA497D06489CFD06587CF8D2FD6
:101770004EDE182FCE01992799DEC12FD0E0DC2F45
:10178000CC27CC27DF71C82BD92B78CFCE01992756
:101790008DDECC27DF70C82BD92BD06A6FCF2C2FD2
:1017A0002695269580E2289F900111248C2F837026
:1017B000C1E0D0E002C0CC0FDD1F8A95E2F7C22B5A
:1017C000D32BDD685BCF2C2F26952695277080E2E2
:1017D000289F900111248C2F8370C1E0D0E002C0BB
:1017E000CC0FDD1F8A95E2F7C22BD32BDC6846CFE6
:1017F0008C2F8F710CDEC82FD0E0DC2FCC27CC27AC
:10180000DF713CCF84E0220F331F8A95E1F7332745
:101810006DCF80917A0390914103981301C0089590
:101820008F5F8770FACF292F9A3078F5863068F568
:1018300090E036E0239F800D911D1124682F677082
:1018400023E0969587952A95E1F7FC01EE0FFF1F9F
:10185000E80FF91FE054FE4F50E040E080E0219196
:1018600030E0062E02C0369527950A94E2F72170E3
:101870003327042E01C0220F0A94EAF7822B4F5F10
:101880005F4F4330510559F7089580E00895292F9F
:101890009A3090F5863080F590E036E0239F800DF9
:1018A000911D1124282F277041E001C0440F2A9573
:1018B000EAF723E0969587952A95E1F7FC01EE0F6C
:1018C000FF1FE80FF91FE054FE4F90E080E070E04A
:1018D0005191DF0111979B01082E02C03695279583
:1018E0000A94E2F7217021952527242325272C939C
:1018F00001968330910561F70895982F9670963080
:1019000021F48860809340020895877FFBCF9091F7
:10191000400221E030E0F90101C0EE0F8A95EAF7BC
:10192000D90102C0AA0FBB1F6A95E2F7EA2B01C0DA
:10193000220F4A95EAF7892F8E23E81303C0292B3B
:10194000822FDBCF20952923FBCF21E030E001C09F
:10195000220F8A95EAF72095809140028223CDCF0D
:1019600021E030E001C0220F8A95EAF78091400221
:10197000822BC3CF809330020895982F82958F7069
:1019800011F0982F84E0292F2695269511F08E5F6F
:10199000922F969509F08F5F08959C019A95811575
:1019A0009F4150F5D901AA27B170F901EE27F270D5
:1019B000B90166277470A9014427587034FF0EC01E
:1019C00080E1AB2B09F480E0EF2B09F08062672BFC
:1019D00009F08064452B89F08068089581E0AB2B85
:1019E00009F480E0EF2B09F08260672B09F0846036
:1019F000452B19F08860089580E00895EEE7F3E044
:101A000080E092E0DF019C011D9221503040E1F71F
:101A1000F0938505E09384058FEF9FEF90937D030E
:101A200080937C030895CF93DF93682F81E06A3021
:101A300019F06D3029F480E082D0DF91CF910895C4
:101A4000809184059091850526E0FC01AEE7B5E024
:101A500001900D922A95E1F7603E08F458C026E007
:101A6000FC0111922A95E9F7C0918405D091850572
:101A700046E050E0BE018EE795E00E94FC309E01FA
:101A80002E573340892B41F1C90145E09695879542
:101A90004A95E1F741E050E0BA0102C0660F771FB6
:101AA0008A95E2F7CB0160917C0370917D03862BD0
:101AB000972BB9016B5F7F4FE5E076956795EA95C7
:101AC000E1F702C0440F551F6A95E2F7842B952B6E
:101AD00090937D0380937C032A5F3F4F40917B036B
:101AE000642F70E0C9010E948F30481B463010F40B
:101AF000240F311D211572E0370710F030E020E08F
:101B000022583C4F309385052093840596CFF6E00C
:101B10006F9FB0011124675F774F46E050E00E944D
:101B2000F330A2CFCF93DF93EC01FE0184918111BA
:101B300003C0DF91CF91089576DF2196F6CFCF9342
:101B4000382FE0918405F0918505EE57F340209100
:101B50007B03622F70E0CF010E948F30281B822F01
:101B6000332359F066E00E94DA30C82FC15010F4D8
:101B7000CF91089580E257DFF9CF9F01280F311DE3
:101B80002115324018F080E0F0E0E0E08E0F9F2F4A
:101B9000911D82589C4F9093850580938405E8CFD2
:101BA000C1DF81E0CCCF80912A0390911A03892B69
:101BB000909113039095892390911403892B80931E
:101BC000B60148E050E06FED71E086EB91E00E94D5
:101BD000FC30892BB9F088E0E6EBF1E0AFEDB1E045
:101BE00001900D928A95E1F7E0913F03F091400357
:101BF000309741F00280F381E02D309719F086EBA9
:101C000091E009950895E8EBF1E086E0DF011D928F
:101C10008A95E9F790E080E0D0DA90E080E0A5DAFC
:101C200010921A03C0CFAAE2B0E0E9E1FEE00C9402
:101C3000B23087E393E0FC0101962091F10020830C
:101C400023E08F339207B9F780913803893009F484
:101C500059C0C8F4823009F4B4C0833009F484C098
:101C6000813091F18091E80083FF37C18091370383
:101C7000909138039A3008F030C1E92FF0E0E45831
:101C8000FE4C0C94E6308A3009F48BC08B3051F74F
:101C900080913703813231F780913B0390913C036F
:101CA000892B01F78091E800877F8093E800FED8B8
:101CB00081E090913903911101C080E080934F0140
:101CC00010922A03A0DFCECF80913703813A51F6DC
:101CD0008091E800877F8093E80080913B0390919A
:101CE0003C03892B59F468E08BE293E070E089D9DA
:101CF0008091E8008B778093E800B4CF60E090E0BB
:101D000080E0F4CF80913703813209F0ABCF80912E
:101D10003B0390913C038D7F892B09F0A3CF8091E9
:101D2000E800877F8093E8008091E80082FF17C079
:101D30009091F3008091F200029731F48091F100CC
:101D4000813011F0863021F48091F10080934E01B2
:101D50008091E8008B778093E800A8D883CF8091AA
:101D600035038111E1CF7ECF80913703813A09F0AD
:101D700079CF80913B0390913C03892B09F072CF7E
:101D80008091E800877F8093E8008091E80080FFE1
:101D9000FCCF80914F018093F1008091E8008E7715
:101DA000DACF80913703813209F05CCF8091E8006F
:101DB000877F8093E8007AD880913A0380934D0121
:101DC00051CF80913703813A09F04CCF8091E800E0
:101DD000877F8093E8008091E80080FFFCCF8091AE
:101DE0004D01D9CF803899F0823809F076C08091C2
:101DF0003B038F70873008F070C08093E9008091BA
:101E0000EB0085FB882780F91092E90006C08091DD
:101E1000330390913403911182609091E800977F91
:101E20009093E8008093F1001092F1008091E80017
:101E30008E77C3C1882309F4B0C1823009F04DC048
:101E4000809139038111B4C180913B038F702FEFD2
:101E5000280F263008F041C08093E9002091EB0064
:101E600020FFA6C1933031F48091EB008062809313
:101E7000EB009EC19091EB0090619093EB0021E00C
:101E800030E001C0220F8A95EAF72093EA00109211
:101E9000EA008091EB008860EACF81111EC01091AA
:101EA00039031F778091E3008078812B8093E300D2
:101EB0008091E800877F8093E8000E945607809118
:101EC000E80080FFFCCF8091E30080688093E3000E
:101ED00082E0111183E0809335038091E80083FF55
:101EE0000AC08091E800877F8093E8008091EB0032
:101EF00080628093EB00AA96E3E00C94CE30805889
:101F0000823058F74091390350913A034C3D83E0B9
:101F1000580799F583E08A838AE289834FB7F8945A
:101F2000DE01139620E03EE051E2E32FF0E0509313
:101F30005700E49120FF03C0E295EF703F5FEF7020
:101F40008E2F90E0EA30B8F0C7968D939D932F5F67
:101F5000243159F74FBF8091E800877F8093E800D4
:101F60006AE270E0CE0101964CD88091E8008B7750
:101F70008093E800B2CFC096E8CF80913B03909168
:101F80003C03252F33272330310509F44AC078F567
:101F90002130310509F486C08BE590E0E8EAF6E0EF
:101FA0002230310509F099CF2091E800277F209356
:101FB000E80020913D0330913E038217930708F417
:101FC0009C0140E02115310509F071C041116FC03D
:101FD0008091E80082FDC9CF80913503882329F2E2
:101FE000853019F28091E80083FFF2CFBECF213215
:101FF000310509F448C02232310509F06ECF833033
:10200000910508F06ACFFC01EE0FFF1FE855FE4F67
:102010000190F081E02D8B559E4FDC018C9190E07A
:1020200026C0CA019927423031F18330910568F406
:102030000097B1F0019709F050CFE3E4F7E0E491A5
:102040008E2F90E0E3E4F7E012C0039709F045CF4C
:10205000E5E1F7E0E4918E2F90E0E5E1F7E007C0DD
:10206000E5E5F7E0E4918E2F90E0E5E5F7E00097F5
:1020700009F433CF99CFE3E3F7E0E4918E2F90E0BA
:10208000E3E3F7E0F4CF8330910508F026CF880F23
:10209000991FFC01E255FE4F0190F081E02D89E08F
:1020A00090E082CF82E190E0E3E0F7E07DCF8091A5
:1020B0003503882309F459CF853009F456CF809130
:1020C000E80083FD52CF8091E80082FD81CF8091AE
:1020D000E80080FF77CF9091F3008091F200211506
:1020E000310519F08830910550F041E0089709F06A
:1020F00040E08091E8008E778093E80063CF4491C0
:102100004093F1003196215031090196E8CF803893
:1021100009F0E3CE8091E800877F8093E80080910A
:1021200036038093F10082CE8111D7CE109139030E
:10213000123008F0D2CE8091E800877F8093E800CB
:10214000109336030E945607112311F084E005C056
:102150008091E30087FDFACF81E08093350342E070
:1021600061EC81E00E94750742E261EC84E00E942C
:10217000750742E261EC82E00E94750742E260EC82
:1021800083E00E94750780913503843021F081E05F
:1021900080935001A2CE82E0FBCF80913903813041
:1021A00009F09BCE81E0933009F080E08093340306
:1021B0001092E9008091E800877F8093E8000E94F8
:1021C00056078BCECF93DF93EC0149855A856D85F9
:1021D0007E8531D88B81982F909580911A03892321
:1021E00080931A03E0DC85E0FE0111928A95E9F7FD
:1021F000DF91CF910895CF93DF93EC018C8181FD26
:102200000FC082608C8380911A039B81892B8093FD
:102210001A03C9DC4F8158856D857E85CE010BD8A8
:1022200010921C0310921B038C8180FD02C0CE0112
:10223000C9DFDF91CF910895882339F0809590917F
:102240001A03892380931A03AECC0895882331F0B2
:1022500090911A03892B80931A03A5CC08958823A3
:1022600039F0809590912A03892380932A039BCC8F
:102270000895882331F090912A03892B80932A03B3
:1022800092CC0895882359F19CEF980F913A18F455
:102290000E948E0888CC90E2980F983088F487705E
:1022A00021E030E0A90102C0440F551F8A95E2F7F2
:1022B000CA01809590912A03892380932A03EACF4B
:1022C0009BE5980F933020F490E080E00C94DD08BB
:1022D000885A8B3120F490E080E00C94B508089582
:1022E000FF920F931F93CF93DF93F82E0091180363
:1022F000109119030115110509F448C01092170334
:10230000109216031092130310921403D80116961C
:10231000CD91DC91CE019A9581159F4108F4D07E34
:10232000D1E0C11101C0D0E0D8011996ED91FC9126
:102330001A97309731F01B966D917C9180E009954A
:10234000D823DD2339F08CEF8C0F813A28F58C2FC0
:102350000E948E08FF2099F0E0911803F091190374
:10236000808584FD0CC080911503882341F0808115
:1023700091819C01215031092F333E4788F013DCB5
:10238000109219031092180310921503C801CDB7CB
:10239000DEB7E5E00C94CC3006DC8C2F73DFDACFAF
:1023A0000E942009ECCFCF93C82F882399F08CEF9F
:1023B0008C0F813A88F4E8EBF1E08191C817B1F114
:1023C00021E0EE3BF207C9F76C2F86EB91E00E940B
:1023D0009B08E9DBCF91089580E28C0F883068F488
:1023E000C77021E030E001C0220FCA95EAF7809162
:1023F0002A03822B80932A03ECCF8BE58C0F83304A
:1024000038F42C2F2452330BC9010E94DD08E2CF8F
:10241000C85ACB31F8F6EC2FF0E0EE0FFF1FE65A6A
:10242000FE4F808191810E94B508D4CF8C2F0E94ED
:102430008E08B9DBC9CFCF93DF93EC01AEDA9E01F2
:10244000205E31092830310510F0209731F411DF7A
:102450008C2FA9DFDF91CF910895F8DEF9CF0F938C
:102460001F93CF93DF938B01EA0190913503943052
:1024700061F58093E9008FEF9091E800815095FD20
:1024800006C095ED9A95F1F700008111F5CF809186
:10249000E80085FF1AC00E942507811111C08091B4
:1024A000E80085FD06C08091E8008E778093E80003
:1024B000F2CFF80181918F018093F100219779F794
:1024C0008091E8008E778093E800DF91CF911F9193
:1024D0000F910895BC0143E050E084E0C0CFCF935A
:1024E000DF93D82FC92F48E050E0682F792F81E083
:1024F000B6DF88E0ED2FFC2FABE2B3E001900D9248
:102500008A95E1F7DF91CF910895792F603229F410
:1025100040E250E0682F82E0A2CF0895B0E0A0E052
:10252000E4E9F2E10C94AB30F82EE92ED62EC72E5A
:102530008A0180911F02AA24A394B12C8A3018F436
:102540008AE0A82EB12CC1E0D0E06D2D7C2D8F2D1E
:102550009E2DF8010995811104C02196AC16BD0687
:102560002CF4CDB7DEB7EAE00C94C730CC9F9001D5
:10257000CD9F300D300D112490E080E045E34A9569
:10258000F1F70000019682179307C1F7DECF1F9382
:10259000CF93DF93182FEB0106DF209731F4812FC3
:1025A00071DEDF91CF911F9108958FE99FE0019730
:1025B000F1F700C000002197F0CFB0E0A0E0E3EE1B
:1025C000F2E10C94AB30FC018AE0B82EDF012D91D2
:1025D0008D012223D1F1213009F051C08181813058
:1025E00061F482818F010D5F1F4F70E060E08933DD
:1025F00011F460E570E0CBDF07C0823039F48F0161
:102600000D5F1F4F8281CFDEF801E0CF833031F4C0
:102610008F010D5F1F4F828135DEF6CF8F010E5F78
:102620001F4F843081F482818F010D5F1F4F30E096
:1026300020E0682F6053770BAB016A30710550F0D2
:102640002115310599F48111DFCFCDB7DEB7EAE06E
:102650000C94C730B29EC001B39E900D11249A0114
:10266000280F391FF80181918F01E3CFAFE9BFE057
:102670001197F1F700C0000021503109E1CFE22F9E
:10268000F0E0E757F84FA490822F869586958695BF
:1026900090E0FC01E758F84FE4902770F12C022EEF
:1026A00002C0F594E7940A94E2F7B1E0EB22FF242C
:1026B000FC01E759F84FC490D12C022E02C0D594EA
:1026C000C7940A94E2F7E1E0CE22DD24FC01E75A48
:1026D000F84FC491D0E002C0D595C7952A95E2F78E
:1026E000C170DD27E114F10411F081EE5CDEC1144C
:1026F000D10411F086EE57DE70E060E08A2D47DFEE
:10270000C114D10411F086EEBDDDE114F10411F025
:1027100081EEB8DDCD2B09F477CF70E060E08CE27C
:102720006ACF10922A036FDA2FEF84E39CE02150E6
:1027300080409040E1F700C0000088E19AE00FB6C9
:10274000F894A895809360000FBE90936000FFCF2F
:102750001F93CF93DF93962F122F632F8630D8F4D9
:102760009A30C8F44630B8F4C42FD0E0CC0FDD1F47
:102770002CE0929FC00DD11D112498E7899FC00DB8
:10278000D11D1124CE0189960E944531612FCE01C1
:102790008A960E944531DF91CF911F91089585E27D
:1027A00090E00E9429318C3D89F486E290E00E94FD
:1027B00029318F3959F487E290E00E94293191E064
:1027C000873809F090E0892F8170089580E0FCCF70
:1027D000462F572FBC01CA01875B9C4F40345105DF
:1027E0006105710510F40C94293180E008950F9370
:1027F0001F93CF93DF93863030F56A3020F5463053
:1028000010F5C42FD0E0CC0FDD1F2CE0629FC00D6F
:10281000D11D112438E7839FC00DD11D1124CE0195
:1028200089960E942931082F10E0102F0027CE0131
:102830008A960E9429319801282BC901DF91CF91F6
:102840001F910F91089590E080E0F8CF462F672FF9
:102850002091740230917502232B81F4703F39F47A
:10286000403F61F4809176029091770208957A302A
:1028700028F4463018F4863008F4B9CF80E090E0B0
:102880000895B0E0A0E0E7E4F4E10C94AE307C0100
:102890000091400280913002082BC5E0D0E010E0AA
:1028A000DC2EC8010C2E02C0959587950A94E2F79C
:1028B00080FD09C02197A0F7D12C8D2DCDB7DEB7B3
:1028C000E7E00C94CA30B7018C2FC0DF0E94F80AF1
:1028D000019781F3F2CFCF93DF93D82FC92FD1DFA8
:1028E0006D2F7C2FB3DF0E94F80ADF91CF910895FE
:1028F000FC018481882399F080819181ECDF282F6D
:1029000092959F70963091F060F4925F9F70923034
:1029100030F481E0203F81F030F4283E30F080E058
:1029200004C09A5FF3CF243FD1F7089581E0283E99
:1029300020F0213FA1F7F9CF08950895A6E0B0E077
:10294000E4EAF4E10C94B2309C0186E0F901DE0186
:10295000119601900D928A95E1F7F90125818981FF
:102960009A81222389F0662379F08BDF182F682F54
:1029700089819A810E94470C69817A81812F66DF63
:102980002696E3E00C94CE300E94130C182FF4CF5F
:102990004F925F926F927F92AF92BF92CF92DF92EF
:1029A000EF92FF920F931F93CF93DF93CDB7DEB7D4
:1029B00060970FB6F894DEBF0FBECDBF1A821982A2
:1029C000FE0133968EE0DF011D928A95E9F704E05F
:1029D00010E099E4A92E93E0B92E20E4422E512C68
:1029E000612C712C6201B1E14B1651046104710438
:1029F0002CF080E1C82ED12CE12CF12CA601B501E0
:102A0000CE0101960E943631AC0CBD1C0D2C000C81
:102A1000EE08FF084C185D086E087F080150110988
:102A200009F760960FB6F894DEBF0FBECDBFDF91F9
:102A3000CF911F910F91FF90EF90DF90CF90BF90BB
:102A4000AF907F906F905F904F900895AAE0B0E0B4
:102A5000ECE2F5E10C94A830A0900503B0900603D9
:102A600081E090E09093060380930503912C812CE4
:102A7000E12C6401F12C14C0F80125913491472D0B
:102A80006F2D8E2D65DE0E5F1F4F739486E07812DA
:102A9000F3CFE6E0CE0ED11CF394FAE0FF1639F046
:102AA0008601000F111F08521C4F712CE5CFE394D3
:102AB0008CE3880E911CE6E0EE12DBCF1A821982BD
:102AC0001C821B821E821D8218861F8288EC90E069
:102AD0009A8789874AE050E069EF72E08E010F5FC4
:102AE0001F4FC8010E9463314AE050E063E073E089
:102AF000C8010E9463314AE050E06DE073E0C80114
:102B00000E9463314AE050E067E173E0C8010E942F
:102B1000633189E0F80111928A95E9F78FEF9FEF11
:102B20009E838D8387E08A874AE050E061E273E00C
:102B3000C8010E9463314AE050E06BE273E0C801D3
:102B40000E9463314AE050E065E373E0C8010E94EF
:102B500063314AE050E06FE373E0C8010E946331E3
:102B6000B0920603A09205032A96EDE00C94C430BF
:102B70006FEF85E290E00E9445316FEF86E290E0D2
:102B80000E9445316FEF87E290E00E94453160E09E
:102B900088E290E00E94453159DFFADE6CED85E273
:102BA00090E00E9445316FE986E290E00E94453155
:102BB00067E887E290E00C944531282FCB01243060
:102BC00068F43AE0239FB001112467507D4F4AE03A
:102BD00050E00E94193190E080E008958FEF9FEF60
:102BE0000895AAE0B0E0E7EFF5E10C94B3309C0162
:102BF00097558F3F910509F068F4BE016F5F7F4FD5
:102C0000822FDBDF892B31F489859A852A96E2E0D1
:102C10000C94CF3088EC90E0F9CFAAE0B0E0E3E18B
:102C2000F6E10C94AB3003EC12E081E2E82E83E095
:102C3000F82E96E0B92E22ECC22E22E0D22EAA2443
:102C4000A3944AE050E0B701CE0101960E941931E9
:102C5000F8013996DF018B2D1D928A95E9F789815C
:102C60009A81D80111969C938E938F8112968C93A2
:102C700012978D8113968C931397888514968C9355
:102C80001497898515968C9315978B819C8117963F
:102C90009C938E93169718961C9218978A8587FF97
:102CA0003CC01E961C921E921D9780FF03C0D80147
:102CB0001896AC9281FF04C0F801908592609087CD
:102CC00082FF07C0D80118969C91189794601896B7
:102CD0009C9383FF04C0F80190859860908784FFDF
:102CE00007C0D80118969C911897906118969C93EC
:102CF00085FF04C0F801808580628087FAE0EF0ECE
:102D0000F11C015F1F4F89E4E81683E0F80609F023
:102D100098CF2A96EAE00C94C730F801D686C5868B
:102D2000C4CFAB0124E630E0BC0188E70E94542EFA
:102D30009C0181E0232B09F080E00895809103033A
:102D400090910403911103C091E08927089588238D
:102D500061F062E070E086ED93E0E3DF811103C093
:102D60008091030308951092030380910303ECCF35
:102D7000A5E0B0E0EEEBF6E10C94B33080910303F4
:102D80008D83809104038823E9F00E946E08DC01A2
:102D9000CB01805A9541AF4FBF4F8093FF02909374
:102DA0000003A0930103B09302038D81811107C03A
:102DB00062E070E084ED93E0B4DF811108C080919F
:102DC00003038D838D812596E2E00C94CF3081E062
:102DD00080930303F4CFB0E0A0E0E1EFF6E10C94C0
:102DE000AD30FA0169017801C82F880FDD0B3097EB
:102DF000B1F0DE0193E0AA0FBB1F9A95E1F7AF5F38
:102E0000BE4F11968D919C9112978D509E4F4C9173
:102E100050E0E417F50708F4AF010E940931CE0134
:102E20000E941F30182F8823D1F0E114F104B9F06B
:102E300083E0CC0FDD1F8A95E1F7FE01EF5FFE4FC7
:102E4000438150E0E416F50608F4A701CF5FDE4F9A
:102E50006C817D816D507E4FC6010E940931812FAA
:102E6000CDB7DEB7E8E00C94C9308F929F92AF9255
:102E7000BF92DF92EF92FF920F931F93CF93DF9356
:102E800000D000D000D0CDB7DEB78D837B01142FEA
:102E9000D22E3E83DB018D909D90AD90BC900E9420
:102EA0006E08DC01CB0188199909AA09BB0984368F
:102EB0009105A105B10510F4112339F110E000E0EE
:102EC00030E020E041E050E06D2D7E818D8183DF98
:102ED0008983882339F00E946E08F701608371832B
:102EE00082839383898126960FB6F894DEBF0FBE46
:102EF000CDBFDF91CF911F910F91FF90EF90DF90A9
:102F0000BF90AF909F908F900895F1E0F983EACF42
:102F1000A1E0B0E0EEE8F7E10C94B3300E940509BF
:102F2000898341E09091FF01981301C040E09E0128
:102F30002F5F3F4F67E172E085E097DF2196E2E087
:102F40000C94CF3041E09091FD01809140029813A4
:102F500001C040E020E432E063E172E083E085DF1D
:102F6000882371F041E09091FE0180913002981326
:102F700001C040E020E332E06FE072E084E075CF12
:102F80000895A6E0B0E0E7ECF7E10C94AD30C09016
:102F90001B02D0901C02E0901D02F0901E020E94C5
:102FA0006E08DC01CB018C199D09AE09BF0921E037
:102FB00084369105A105B10508F420E030912A037B
:102FC000398384369105A105B10520F48091000272
:102FD000831321E080911A038A83211105C0909107
:102FE000010211E09817C1F010E000E030E020E0AD
:102FF00042E050E0BE016F5F7F4F86E0ECDE182FAD
:10300000882351F00E946E0860931B0270931C028B
:1030100080931D0290931E02812F2696E8E00C9467
:10302000C930A8E0B0E0E7E1F8E10C94AD30C09021
:103030000B02D0900C02E0900D02F0900E020E9464
:103040006E08DC01CB018C199D09AE09BF0911E0A6
:1030500084369105A105B10518F10E94D609DC015D
:10306000CB010296A11DB11D89839A83AB83BC83DA
:1030700010E000E030E020E044E050E0BE016F5F8F
:103080007F4F82E0A8DE182F882351F00E946E083F
:1030900060930B0270930C0280930D0290930E02CA
:1030A000812F2896E8E00C94C9308F929F92AF92BE
:1030B000BF92EF92FF920F931F93CF93DF93CDB701
:1030C000DEB72A970FB6F894DEBF0FBECDBF7B01E7
:1030D00001E010E09E012A5F3F4F50E040E070E0C9
:1030E00060E080E078DE182F882309F44BC08090E0
:1030F000070290900802A0900902B0900A020E9474
:103100006E086F83788789879A87DC01CB018819DD
:103110009909AA09BB0984369105A105B10538F4BE
:1031200084EF91E00E94E1069E81891759F105E044
:1031300010E09E012F5F3F4F50E040E070E060E004
:1031400081E049DE082F84EF91E00E94E10611E062
:103150009E81981310E0102301F10E946E08609385
:103160000702709308028093090290930A0285E097
:10317000FE013196A2E0B2E001900D928A95E1F74E
:1031800011E00BC085E0E4EFF1E0DE011196019063
:103190000D928A95E1F71111EACF85E0E2E0F2E0C5
:1031A000D70101900D928A95E1F7812F2A960FB6EB
:1031B000F894DEBF0FBECDBFDF91CF911F910F916D
:1031C000FF90EF90BF90AF909F908F9008951F92C7
:1031D0000F920FB60F9211242F933F934F935F934B
:1031E0006F937F938F939F93AF93BF93CF93DF930F
:1031F000EF93FF93D091E900DF708091EC00C82F2E
:10320000C17080FDC0E81092E9008091F000877FD6
:103210008093F00078940E94130E1092E900809140
:10322000F00088608093F000CD2BCF70C093E90050
:10323000FF91EF91DF91CF91BF91AF919F918F91CE
:103240007F916F915F914F913F912F910F900FBEA2
:103250000F901F9018951F920F920FB60F92112486
:103260002F933F934F935F936F937F938F939F938E
:10327000AF93BF93EF93FF938091E10082FF09C06A
:103280008091E20082FF05C08091E1008B7F8093F6
:10329000E1008091DA0080FF24C08091D80080FF97
:1032A00020C08091DA008E7F8093DA008091D9006F
:1032B00080FFA9C080E189BD82E189BD09B400FE1B
:1032C000FDCF81E08093350380912903811109C0EE
:1032D0000E9406070E94A7078091E2008460809305
:1032E000E2008091E10080FF1AC08091E20080FF3F
:1032F00016C08091E2008E7F8093E2008091E20010
:1033000080618093E2008091D80080628093D80031
:1033100019BC85E08093350383E080935001809150
:10332000E10084FF2FC08091E20084FF2BC080E188
:1033300089BD82E189BD09B400FEFDCF8091D8002E
:103340008F7D8093D8008091E1008F7E8093E10093
:103350008091E2008F7E8093E2008091E2008160A4
:103360008093E20080913603882309F452C084E000
:103370008093350380913503843009F452C081E095
:10338000809350018091E10083FF2CC08091E20086
:1033900083FF28C08091E100877F8093E10082E075
:1033A00080933503109236038091E1008E7F8093E5
:1033B000E1008091E2008E7F8093E2008091E20044
:1033C00080618093E20042E060E080E00E94750747
:1033D0008091F00088608093F00081E0809350013C
:1033E00080934F01FF91EF91BF91AF919F918F918A
:1033F0007F916F915F914F913F912F910F900FBEF1
:103400000F901F90189519BC109235031092290344
:1034100068CF8091E30087FD02C081E0A9CF83E0FF
:10342000A7CF82E0ADCF78941F921FB61F921124D0
:103430008F939F93AF93BF93809125039091260321
:10344000A0912703B09128030196A11DB11D80937F
:10345000250390932603A0932703B0932803BF91DD
:10346000AF919F918F911F901FBE1F9018952FB7FE
:10347000F8948091250390912603A0912703B091A1
:1034800028032FBF0895A3E1B0E0E9E4FAE10C942A
:10349000A9301A821982FE01339688E0DF011D925D
:1034A0008A95E9F782E9E82E81E0F82E10E000E045
:1034B000CC24C394D12C2DE9A22E21E0B22EF70109
:1034C00081917F018F3F09F445C0F894E82FE29580
:1034D000EF70F0E021A18F70A60102C0440F551FCC
:1034E0008A95E2F7CA01922F982B91A392A1809519
:1034F000892382A3789400C0E7E9F1E031E0912CC0
:1035000021912F3F09F4B7C0A22FA295AF70B0E070
:1035100090968C9190E02F7002C0959587952A9592
:10352000E2F780FDA8C0832F982A330FAE16BF069E
:1035300039F7F701319780818F3F11F00E94BD0963
:1035400050EA5A95F1F7E1E0F0E0EC0FFD1FE00FD3
:10355000F11F90820F5F1F4F0530110509F0AFCFAB
:103560004AE050E0BE016F5F7F4F84E292E00E942C
:10357000FC309C01892B49F08AE0FE013196A4E2DF
:10358000B2E001900D928A95E1F700912F0210E0D0
:1035900006591D4F232B09F470C081E08093EB0185
:1035A00066DF9093EA018093E901F12CE0901D031E
:1035B000EE2009F4BCC01C861B86FE013D9683E00C
:1035C000DF011D928A95E9F780911F028A3008F089
:1035D00079C045E558E1BE01655F7F4FC8010E9493
:1035E0008E12882309F493C041E158E1BE01655F62
:1035F0007F4FC8010E948E12882309F488C042EAD6
:1036000057E1BE01655F7F4FC8010E948E1288237B
:1036100009F47DC048E857E1BE01655F7F4FC801EE
:103620000E948E12882309F472C041EC57E1BE015A
:10363000655F7F4FC8010E948E12882309F467C01E
:1036400010921F0280912E0290E045E050E0BE01F2
:10365000655F7F4F86599D4F0E94FC3021E020938B
:10366000F201892B09F046C0E12C8E2D8F2963963B
:10367000ECE00C94C53080E057CFF090EB01FF20D8
:1036800009F493CFC090E901D090EA01F0DE8C19E3
:103690009D09059708F489CF45E050E064E272E0A7
:1036A000C8010E94FC30892B59F085E0E4E2F2E089
:1036B000D80101900D928A95E1F71092EB0176CF37
:1036C000F12CFBCFC090EC01D090ED01D0DE8C1935
:1036D0009D09843F914008F07CCF8091F2018823BE
:1036E00019F2FE013B9685E0DF011D928A95E9F70C
:1036F0001092F201A0912E02B0E0A659BD4F85E0D4
:10370000FE013B9601900D928A95E1F7AECF809134
:103710001F028F3F31F08F5F80931F028A3008F4C1
:1037200091CFA5DE9093ED018093EC01D6CF85E09B
:10373000F801A4EFB1E001900D928A95E1F784EFD2
:1037400091E00E94E1068093F3018090F90190904E
:10375000FA01A090FB01B090FC018091EE019091E4
:10376000EF01A091F001B091F10188169906AA0627
:10377000BB06B1F08092EE019092EF01A092F001B1
:10378000B092F1010E946E08861A970AA80AB90A37
:103790008092200290922102A0922202B0922302F3
:1037A0008091FD01809340028091FE018093300260
:1037B0008091FF0180931F0380910102909100028C
:1037C00090932A0380931A0350CFACE0B0E0EBEE65
:1037D000FBE10C94A3307C01DC0114968C918823CE
:1037E00009F48FC161E0C701A9D88C01F701858177
:1037F000882339F180911B0390911C03009709F1F4
:1038000008171907F1F09C0133278C7F9927F0E006
:10381000E0E0892B41F48FE0829FF001839FF00D5F
:103820001124EA57FD4F84818460848311830083CF
:10383000CF010E94FB1010921A0361E0C7017ED8ED
:103840008C01D70115968C91882309F4F2C0C80128
:1038500097578038910508F01DC1003108F051C11B
:103860006FE370E080E090E00E94E813811149C1AD
:10387000C12CD12C7601011148C004E09E012F5FBC
:103880003F4F590199249A94D501E02F1D92EA9552
:10389000E9F726013701FFEF4F1A5F0A6F0A7F0A27
:1038A000C701B6010E94E8138983882309F429C15E
:1038B000813039F5A70196012E5F3F4F4F4F5F4F83
:1038C0002D833E834F835887C301B2010E94E813C2
:1038D000182F8A83882309F414C18FEF810F833056
:1038E000A0F52601370133E0430E511C611C711C09
:1038F0006D817E818F8198850E94E8138B83882358
:10390000E1F0C5010E94DD1218C0B0E4CB16D1046D
:10391000E104F10409F4F5C0C701B6010E94E813FF
:10392000811101C00150EFEFCE1ADE0AEE0AFE0A45
:10393000A2CF49845A846B847C8473016201A4CF32
:103940004D805E806F807884F8CF8BEF810F83305D
:10395000A0F5D701C6010396A11DB11D89879A87DD
:10396000AB87BC876D817E818F8198850E94E8132B
:103970008B838823F1F22601370194E0490E511C14
:10398000611C711C69857A858B859C850E94E81372
:103990008C83882391F28B819C818130AFEF9A07D1
:1039A00010F0982F8827163021F0173021F0B1D76A
:1039B000C4CF8BD7C2CF05D7C0CF143009F0C0CF4A
:1039C0006D817E818F8198850E94E813182F2601D2
:1039D0003701B4E04B0E511C611C711CA70196010C
:1039E0002D5F3F4F4F4F5F4F2D833E834F8358874F
:1039F000CA01B9010E94E813112309F482C0882387
:103A000009F47FC08150990B989E9001999E300DCA
:103A10001124412F4150550BCA01820F931F01976A
:103A200008F48BCFAFE9BFE01197F1F700C00000B9
:103A3000F6CF6801E7E5DE1AFFEFCF16D10409F0F3
:103A400048F56CE772E08C2DB8D8892B19F58FE01A
:103A50008C9DF0018D9DF00D1124EA57FD4F828160
:103A6000813099F580917C0290917D02892B91F0B3
:103A700080917E0290917F02892B61F0809180027B
:103A8000909181022091820230918302822B932BAC
:103A9000892B19F1D70115963C903320B1F10E35E1
:103AA000BCE71B0759F10F35ECE71E0741F00D3558
:103AB000FCE71F0751F5809100018823F9F010926F
:103AC000000180E00E9470111CC0823019F78091C3
:103AD000800290918102892BE9F22FE02C9DC00198
:103AE0002D9D900D1124FC01E657FD4F20812E7F66
:103AF00020838A579D4F0E94FB10CCCF81E080939A
:103B000000012C96E2E10C94BF30809100018823E3
:103B100009F4E3C2380120EE621A710820902A03EA
:103B200038E06316710408F087C0980127703327C6
:103B300081E090E001C0880F2A95EAF7332009F46C
:103B400078C0282AD7018D919C910E94130C21E006
:103B500030E0290102C0440C551C8A95E2F7E0913F
:103B60001803F0911903FE83ED832091BE0130917B
:103B7000BF013A87298793ECC92E92E0D92EB12C48
:103B8000A12CB4E0AB16B10409F41EC3211005C08A
:103B9000D60112968C9181118BC0F601838190E041
:103BA00084219521892B09F483C08085982F9770F3
:103BB00009F487E0F8E06F16710408F057C033206D
:103BC00009F450C086958170882309F471C0D6012C
:103BD0008D909C900815190519F4332009F468C0DC
:103BE000ED81FE81CE16DF0609F462C0D6011D9676
:103BF000ED91FC91309721F08081882309F458C021
:103C0000622DC6010E947609882309F451C0081567
:103C1000190509F0FFC20115110509F400C331109F
:103C200000C3E985FA858E169F0609F041C0312C44
:103C3000F8C28095282286CF332009F4AEC21093B3
:103C4000BF010093BE010E946E0860930F03709342
:103C50001003809311039093120310921703109294
:103C6000160370CF82FB882780F9AECF332001F195
:103C70008170AACF0E944211F9C20497813A91053E
:103C800058F46C2D86EB91E00E949B08332009F4D8
:103C900024C20E94D30D35CF0E94D30D8FE39CE93F
:103CA0000197F1F700C000008C2D0E94D311EECFD8
:103CB0009FEFA91AB90AAFE0CA0ED11C62CFDC018E
:103CC0002D913C910217130709F001C2311001C276
:103CD0001092150380E00E947011FFC1902F812F78
:103CE0003AC2FA014385548565857685C6010E94EE
:103CF0001B09D60114968C9181FF31C2C6010E9426
:103D0000E21080911B0390911C030817190709F01A
:103D100026C210921C0310921B0321C2882349F073
:103D200081E00E94B00C43E062E081E00E94870CD9
:103D3000E8CE81E00E94A50CF6CF82E0FBCF88237D
:103D400019F101303CE71307E9F003304CE71407A1
:103D500099F001155CE71507B9F410922A030E9447
:103D6000030E8FEF94E3ACE081509040A040E1F768
:103D700000C000000E945D086FEF7FEF90E080E0E0
:103D80000E945F310E949113F701C080D180882387
:103D9000D9F1C6010E944114182F682FC6010E9454
:103DA000470CB601812F0E9426140E94F80A182F92
:103DB000C82ED70115962C91159716963C913295E1
:103DC0003F70D92ED2948FE0D822B8E0DB1609F4E8
:103DD000B4C0BD1578F1E3E0ED15D8F0092F0F70F0
:103DE000907FF1E0FD15C8F5802F903211F082959B
:103DF000807FA1E0CA1270C0222309F467C0363068
:103E000060F40E94391109C0C6010E94130C182FDA
:103E1000C8CF34E0D31609F476C04D2D4850550B69
:103E20004430510510F40E94050960E0C7010E946A
:103E30009E1467CE49E0D41609F4F0C086E08D0DDB
:103E40008F70823050F7812F52EF1513F7C0892FF2
:103E50008F71222309F428C1EEC0992311F0029535
:103E6000007F812F2223C9F0002369F090E2910F97
:103E7000983010F011110BC080912A03082B009389
:103E80002A030E94D30D812F0E94D311C6CF8091A7
:103E90001A03082B00931A03F4CF0E944211002347
:103EA00009F4BBCF0095105E183010F0C11008C0A7
:103EB00080912A03082300932A030E94D30DADCFDB
:103EC00080911A03082300931A03F7CF353008F0C6
:103ED000A4CF0E942F11A1CF222321F0332309F474
:103EE00090CFD1CF3323A9F3193349F4BFEFE7EED5
:103EF000F3E0B150E040F040E1F700C00000812F56
:103F00000E9442118ACF892F86958695837061F031
:103F1000813009F082CF812F9370211102C080E09F
:103F200090E00E94B50879CF812F9370211102C0D3
:103F300080E090E00E94DD0870CF892F8370A1F5AA
:103F400021116BCF812F829586958770880F880FFE
:103F5000412F4F70082E01C0440F0A94EAF7212F19
:103F6000207114FF07C02FE030E001C0220F8A95B6
:103F7000EAF72095969596959370923081F0822F6E
:103F8000842B933031F080913002913029F0242B32
:103F900082230E94BA0C41CF842B822BFACF242B90
:103FA000809130028227F5CF8695222311F0892F48
:103FB0008170882309F431CF812F8295869587708F
:103FC000880F880F412F4F70082E01C0440F0A94AC
:103FD000EAF7212F207114FF07C02FE030E001C065
:103FE000220F8A95EAF720959695969593709230D0
:103FF00081F0822F842B933031F0809140029130F8
:1040000029F0242B82230E947D0C07CF842B822B46
:10401000FACF242B809140028227F5CF092F0F7011
:10402000222329F0802F0E94B00C812FEACE812F0D
:104030000E942F11802F0E94A50CEFCE42EF411756
:1040400068F050EF1517B9F0A1EF1A1749F12223C4
:1040500071F1311118CF892F8F7126C0B3EF1B1367
:10406000F6CF80E0222379F29F7181E001C0880FB2
:104070009A95EAF7C8CF222379F0353008F0CDCEF3
:10408000292F2F7181E090E001C0880F2A95EAF76F
:10409000909140028927B7CF363008F0BECEF0CFDE
:1040A000892F8F71222339F20E94B00CB6CE3323B0
:1040B00059F0893309F023CFEFEFF7EE23E0E15019
:1040C000F0402040E1F719CF892F8F71B4CF332012
:1040D00021F0FC01808585FFFDCDC80197558F3FFC
:1040E000910511F008F084C0C8018C7F9927892BB5
:1040F00009F007CD2FE0029FF0011124AF014A57CC
:104100005D4F6A01D70115968C91E657FD4F90815E
:1041100080FB90F99083882309F4E3CDA8D990938C
:104120003F0280933E02F60182818F5F82838091FD
:104130001A0390912A03892B8383458156816585D3
:104140007685C6010E941B09D60114968C9181FFC9
:10415000C5CD90E080E090931B0380931C03F70192
:1041600085819801205E32452032310508F0E7CD87
:1041700081110ACE0F7181E090E09C0102C0220FF4
:10418000331F0A95E2F78901622F83E090E00E94D5
:104190004531802F0E94BA0CB4CC8091BE01909121
:1041A000BF010817190781F41092BF011092BE01D8
:1041B00010920F0310921003109211031092120329
:1041C000109217031092160380911803909119030F
:1041D000009709F482CFE8E06E16710408F06FCD05
:1041E000622D0E947609811103C081E00E94701146
:1041F000D70115968C910737BCE71B0709F48ECDC4
:104200000837ECE71E0709F0AACF882309F495CDFB
:1042100082E087CD8114910409F003CD312C912CDB
:10422000812C80E00E947011D0921903C092180373
:1042300081E0809315038FE08A9DF0018B9DF00D46
:104240001124ED53FD4F85818093130331100EC06F
:104250008114910459F0808191819C01245031098D
:10426000213A310508F006CD0E948E088FE08A9D24
:10427000F0018B9DF00D1124ED53FD4FC680D780CA
:10428000C6019A9581159F4110F420EED2229924FF
:104290009394C60101978F339E4708F0912C8FE0CD
:1042A0008A9DD0018B9DB00D1124AD53BD4F199641
:1042B000ED91FC911A97309731F01B966D917C919E
:1042C00081E0099598229920B1F08FE08A9DF00154
:1042D0008B9DF00D1124ED53FD4F868197810E9437
:1042E000CD0C80931403C60148E06416710408F0F5
:1042F000C4CC0E9420090E94D30DC8CCB0E0A0E03D
:10430000E4E8F1E20C94AE308091DE01807F09F0A8
:1043100050C08091DD01882309F44BC0E0917A03FD
:1043200087E0D82E809141038E1709F442C00E2FEA
:1043300010E0ED9DF0011124EE5BFC4F8481882399
:10434000E9F1D09EE001D19ED00D1124FE01EE5B7B
:10435000FC4F91818091D901981330C09081809158
:10436000D80198132BC08581811128C0E280F38089
:104370008091DA019091DB01E81AF90A60E088ED9A
:1043800091E00E949E140E94F115E816F906B0F41F
:104390008091DE018F7080618093DE01C85BDC4F0D
:1043A00088818F708061888388ED91E00EDA0E94A9
:1043B000090CCDB7DEB7E7E00C94CA30F8013196AE
:1043C000E770B0CFADE0B0E0E8EEF1E20C94A630DB
:1043D0008C0186E0F801DE01189601900D928A9515
:1043E000E1F7F801F480E58088ED882E81E0982ED1
:1043F0008091DC01811128C0F11003C0FF24F394E7
:104400001BC0EE20F1F0C8010E947814F82E88231A
:10441000C1F087E0F801A8EDB1E001900D928A9516
:10442000E1F78091DC01813031F48091D8019091E5
:10443000D9010E946B1462DF8F2D2D96EFE00C9452
:10444000C230C801C2D9DACFC280D380B090DD01BA
:104450008091DA019091DB013601681A790ABB205C
:1044600009F4D4C05080A18060E088ED91E00E9402
:104470009E140E94F1156816790608F0A0C0FF206E
:1044800009F4BCCF8091DE01382F307F2091D90113
:10449000F8019181311156C0FE2C291313C02091CF
:1044A000D801908129130EC0E11045C08F70806142
:1044B0008093DE0188ED91E088D98091DE01F801DA
:1044C0008683BACFE11037C06A2D852D0E94C306BE
:1044D0006A2D852D0E94C306E82E8111ADCF588626
:1044E000A986888599850E946B14292F22952F70A3
:1044F000903458F49F70223080F0992391F0F801A5
:104500009681907F71F4FE2C97CF2A5F2F70223016
:1045100060F0C8015AD9EB2CF6CF992311F088230B
:1045200091F3805E883078F3F4CF803F60F3815F51
:10453000833048F3EECF8091DE0181608093DE010D
:10454000F12C7ACF291314C02091D801908129131E
:104550000FC0E1100DC08683C80137D987E0F8018C
:10456000A8EDB1E001900D928A95E1F7FB2C64CFA4
:10457000C8010E947814882309F463CFEE2009F45F
:1045800060CF8091DE01803280F02091D80130919F
:10459000D9013A832983DC82CB829091DC019D830F
:1045A0001E828F83CE01019610D987E0F801A8ED15
:1045B000B1E001900D928A95E1F7A0DE1FCF8091C6
:1045C000DE01982F907F49F488ED91E0FED887E0D6
:1045D000F40111928A95E9F7B3CFFF2009F40ECFC9
:1045E0002091D901F80191812913C2CF2091D801DE
:1045F00090812913BDCFE110BBCF8683C801E5D8D8
:1046000087E0F40111928A95E9F7B0CF60E088ED78
:1046100091E00E949E140E94F11568167906B8F682
:10462000FF2009F4EBCEFE2CEE2009F40ACF909186
:10463000D901F801818198132BC09091D801808114
:10464000981326C08091DA019091DB01C81AD90A2B
:10465000F8ECCF16D10498F48091DE0180FD0FC0F4
:10466000982F907F61F0F8018683903F31F0982F6A
:10467000907F905F8F70892B8683C801A6D887E0D2
:10468000F801A8EDB1E001900D928A95E1F7D4CE42
:10469000C8010E947814811188CF8091DE01816069
:1046A0008093DE01C80191D8C7CEABE1B0E0EBE565
:1046B000F3E20C94B2304E8B5F8B688F798F8A8FC8
:1046C0009B8F911110921A031D8A86E0FE01769647
:1046D000DE011F9601900D928A95E1F78B89882360
:1046E00051F061E0CE010F960E949E1461E0CE0170
:1046F0000F960E949E1487E0FE013F96DE011896F9
:1047000001900D928A95E1F7CE0108965BDE81114A
:104710000CC087E0FE013896DE01119601900D92E3
:104720008A95E1F74C8541110BC017E080917A031F
:1047300090914103891334C06B96E3E00C94CE3022
:104740002091410330E0C90101968770992750916B
:104750007A0358171906A1F04D8397E0929FD00174
:10476000939FB00D1124AE5BBC4FFE0131960190BA
:104770000D929A95E1F7809341030E94090CD5CFE1
:1047800010922A030E94030E1092410310927A03A2
:1047900087E0E8EDF1E0DF011D928A95E9F7C5CFEA
:1047A000819FC00111248E5B9C4F0CDE882321F277
:1047B00080917A0390E001968770992780937A031D
:1047C000B5CFA6E0B0E0E7EEF3E20C94B1308C0197
:1047D0009093770280937602011580E21807C0F467
:1047E000802F0E944211C8010E94CD0C9801205ECA
:1047F00031092830310518F00115110531F40E94F6
:104800002F112696E4E00C94CD300E941C11F9CFB4
:1048100080EF89838A830E94371A8160682F9C8386
:104820008B8349815A817C8181E090E03EDFE9CF32
:104830000F931F93CF93DF938C01EB016CE772E032
:104840008C2F0E94DD15892B71F4DD27C858DD4FB0
:104850008881F801128218828330E9F048F48130AF
:1048600059F0823081F0DF91CF911F910F9108951F
:104870008430B1F08530B9F780917C0290917D024F
:10488000009789F306C080917E0290917F02009785
:1048900099F397DFE8CF8091800290918102F7CF62
:1048A0008091820290918302009799F720917C0277
:1048B00030917D0280917E0290917F022115310519
:1048C000F9F2009731F7C901E4CFA6E0B0E0EBE6DA
:1048D000F4E20C94B33090937702809376028115C2
:1048E00020E2920730F40E941B122696E2E00C941C
:1048F000CF3080EF89838A830E94371A8160682FC6
:104900009C838B8349815A817C8181E091E0CDDE5B
:10491000ECCFCF93DF93D82FC92FD7DF8D2F9C2FCC
:1049200050DFDF91CF9108950F931F93CF93DF93C3
:104930008C01862F6CE772E00E94DD15892B99F4BB
:10494000C0917C02D0917D02209769F0F8018281AC
:10495000833039F4CE01DDDFCE01DBDFCE01D9DFDC
:1049600002C08430D8F7DF91CF911F910F91089545
:104970000F931F93CF93DF938C01EB016CE772E0F1
:104980008C2F0E94DD15892B09F059C0FE01FF27ED
:10499000D80112968C911297E858FD4F8130B9F4E6
:1049A00014969C9192FF02C080830AC090FFFCCFB6
:1049B00082E0808380917E0290917F020097B9F41B
:1049C00080917C0290917D020097C9F110C08230E5
:1049D000A1F514968C9182FD26C080FD0AC083E06B
:1049E000808380918002909181020097F1F06DDFC9
:1049F00026C084E080838091820290918302009798
:104A0000B1F780917C0290917D020097E9F081DFFF
:104A100080917E0290917F02009749F780917C02FD
:104A200090917D02E4CF85E0808380917C0290911B
:104A30007D02009721F06DDFF1CF86E08083DF916A
:104A4000CF911F910F91089580917E0290917F02E6
:104A5000BBCFA6E0B0E0EFE2F5E20C94B1300E94EB
:104A6000371A8C018091E7019091E8018017910736
:104A700079F019821A820E94371A682F49815A8167
:104A8000792F80E090E011DE1093E8010093E701B8
:104A90002696E4E00C94CD301F921FB61F9211248D
:104AA0008F939F93AF93BF9380912403811113C081
:104AB0008091250390912603A0912703B0912803AC
:104AC0004196A11DB11D8093250390932603A093C9
:104AD0002703B0932803BF91AF919F918F911F90AF
:104AE0001FBE1F901895CF93DF93EC010E94371AD9
:104AF0008C1B9D0BDF91CF910895CDB7DEB7AF979B
:104B00000FB6F894DEBF0FBECDBF85B7806885BFF6
:104B100085B7806885BF84B7877F84BF0FB6F89458
:104B2000A895809160008861809360001092600079
:104B30000FBE80E890E00FB6F894809361009093E8
:104B400061000FBE81E0809350018BEB99E0909360
:104B5000B5018093B4010E9496090E940D160E942F
:104B600006070E94A7078091E20084608093E2001C
:104B70007894809135038823A1F01091E9001F708B
:104B80009091EC00892F817090FD80E8182B109295
:104B9000E9008091E80083FD0E94130E1F701093BE
:104BA000E90082E084BD93E095BD9AEF97BD8093C4
:104BB0006E00109220021092210210922202109296
:104BC00023020E94CF13811102C00E94B815809168
:104BD000D80080618093D8002AE12A95F1F700C0BF
:104BE0008091D900182F117080FD04C00E94060723
:104BF0001092350310931D0310931E031093390177
:104C000011110E943B2F809139018091390195E06B
:104C1000811190E090932F0285E0891B80932E02F2
:104C200002E911E037E9E32E31E0F32ED8018D914E
:104C30008D018F3F11F00E94BD09E016F106B1F71A
:104C400007E911E02DE9E22E21E0F22EF801819131
:104C50008F018F3F11F00E94BD09E016F106B1F7F8
:104C60008AE0EAE6F2E0DF01282F1D922A95E9F7B3
:104C7000E4E2F2E0DF011D928A95E9F790E080E03E
:104C80000E943131833E9E4F21F40E94CF13811147
:104C900029C063EE7EEF90E080E00E945F3160E02B
:104CA00082E090E00E94453181E08093300261E033
:104CB00083E090E00E94453160E074E184E090E0A0
:104CC0000E945F310E94B81540E050E0BA018FE0C9
:104CD00090E00E94573140E050E0BA0183E190E05B
:104CE0000E94573182E090E00E9429318093330284
:104CF00084E090E00E94313190933202809331023F
:104D00000E94431AEFEFF6E721E0E150F040204027
:104D1000E1F700C000000E94431A80916A0280FF00
:104D200008C06FEF7FEF90E080E00E945F310E944B
:104D30005D0883E090E00E9429310E94BA0C8091C6
:104D40001D038111ABC082E08093610280E88093F3
:104D50007B0331D76BE070E08BE591E00E94911608
:104D6000882389F18091610265E070E081FD98C03F
:104D700086E591E00E949116882329F16DE070E0AC
:104D800084E491E00E9491168823E9F00E946E0865
:104D90006BA77CA78DA79EA7DC01CB01805A95410C
:104DA000AF4FBF4F8093FF0290930003A093010386
:104DB000B09302030E94FE0C81E080930403809371
:104DC00003031092620280911D03811102C00E94B0
:104DD0003E2F8AE391E09093400380933F038AE65D
:104DE00092E03AE0380F3FA78091350310E400E1EC
:104DF00092E1F92E853009F489C00E94431A04E338
:104E000012E08AE6682E82E0782E2EE332E0D301AB
:104E1000F80191918D912E173F0709F483C09817DF
:104E2000C1F380901D03BAE6EB2EB2E0FB2ED12C2D
:104E3000D701CD907D01F80191908F019C1429F14B
:104E40009C24B12CAA24A3948A2D8921B1F0882016
:104E5000A1F0B982DA820E94371A9C838B83F1E039
:104E6000FD8391E08A2D8C2109F490E09E83498195
:104E70005A816B817C818D8118DCB394AA0C26E069
:104E8000B212E2CFF8013197C082D3943AE0D31244
:104E9000CFCF0E94D609FF24F39448C080E054CFBE
:104EA00081E591E067CF80913503843029F10E943C
:104EB0009E161092240348E150E00FB6F894A8958E
:104EC000409360000FBE1093600083B7817F8460C1
:104ED00083BF83B7816083BF7894889583B78E7FC3
:104EE00083BF0FB6F894A895809160008861809385
:104EF0006000109260000FBE0E94431AEAE6F2E0E2
:104F000081918111E0C55FA55E13FACF80913503D1
:104F1000853009F4C8CF10922A030E94030E0E9424
:104F200005096BCF98137DCF94DDF12C80911D0383
:104F3000882309F46EC00091160310911703011520
:104F40001105C1F180900B0390900C03A0900D030C
:104F5000B0900E030E946E086BA77CA78DA79EA73A
:104F6000DC01CB0188199909AA09BB094091070303
:104F7000509108036091090370910A038417950703
:104F8000A607B707B8F0C8010E941B1210921703BA
:104F90001092160310920B0310920C0310920D0343
:104FA00010920E0310920703109208031092090347
:104FB00010920A03C0901B03D0901C03C114D104AB
:104FC00041F1A0903E02B0903F020E94371A8C013E
:104FD0000A191B09C6010E94F11580179107C8F430
:104FE00080911B0390911C039C0133278C7F992790
:104FF000892B09F0E6C04FE0429FC001439F900D0E
:1050000011248A579D4FDC0114962C9122FF0E9497
:10501000FB1080910403882309F485C0009163028A
:10502000109164020E94371A801B910BC29708F4FA
:1050300050C00E94371A90936402809363028EE7F7
:1050400093E0909385058093840580911D038823C8
:1050500009F4C3C010912A030E940509082F0E9479
:10506000FE0C86EB91E00E94920D812F827209F076
:10507000ABC085EA91E00E94920D8FEA91E00E9418
:10508000920D812F817109F0A2C089E991E00E94FF
:10509000D00D8FE991E00E94920D812F847409F068
:1050A00099C089E891E00E94920D83E991E00E9405
:1050B000920D187883E891E011F086E891E00E9463
:1050C000D00D86E691E001FF02C085E791E00E94E5
:1050D000D00D80917C0390917D03892B09F0B4C0A1
:1050E000809103038823F9F00E946E086BA77CA7C8
:1050F0008DA79EA78091FF0290910003A0910103CC
:10510000B09102032BA53CA54DA55EA5281B390B2C
:105110004A0B5B0BDA01C9018F3F9F4FAF4FBF476F
:1051200010F40E949E16F1100E94B8160E94050904
:1051300090916502891721F0809365020E946E08A4
:1051400080913503843009F04FCE83E08093E900ED
:105150008091E80082FF48CE8091E80090E085FFD2
:105160000CC00E94250740E2E42EF12C8E010F5F57
:105170001F4F882309F44CC191E08091E8008B77A0
:105180008093E800992309F42FCE009174021091C6
:105190007502E9810115110509F448C1EE3F09F0D6
:1051A00069C18A81833020F08550833008F062C164
:1051B000EA81EE3008F05EC1F0E0EA57FE4C0C9454
:1051C000E63090E080E01FCF8AEA91E054CF8CE98E
:1051D00091E05DCF8EE891E066CF809140020E9421
:1051E000BD0C182F0E94FE0C80E292E0111102C04B
:1051F0008CE292E00E94920D8EE092E0113011F468
:1052000087E192E00E94D00D86EF91E0123011F418
:1052100082E092E00E94920D82EE91E0133011F450
:105220008CEE91E00E94D00D8AEC91E0143011F4E4
:1052300086ED91E00E94920D8CEB91E0153009F023
:1052400046CF83EC91E043CF80910403882309F497
:1052500047CF80916202811143CF0E94B8162091FE
:105260007C0330917D032115310509F439CF80E0AD
:1052700041E050E0082F10E04A01082E02C0880CDF
:10528000991C0A94E2F7B90168217921672B11F47E
:105290008F5FF0CF9091610290FF97C0880F880FC9
:1052A000880F8093480110924B01895F80934901D8
:1052B00083E080934C0124E630E047E050E066E470
:1052C00071E088E7AED4892B09F00ACFA801F5E098
:1052D000440F551FFA95E1F78091610280FF87C066
:1052E000E1E4F2E080E2DF011D928A95E9F7E1EA6C
:1052F000F1E0FCA7EBA76DE971E0E7E0DE2ECC243E
:10530000C394EBA5FCA5A191FCA7EBA7FB018191A0
:10531000BF01840F952F911D9C0122583C4F2901FC
:10532000EA2FF0E0EF5BFD4F90E080E0AD2CA81A93
:10533000EC2C082E01C0EE0C0A94EAF7120100E0F2
:10534000D1011D911D011E212A2D201B2770B22E77
:10535000022E000C330BB12F01C0BB0FBA94EAF739
:10536000BB2E3195219531092770332701C0169541
:105370002A95EAF7B12A1081B12AB0820F5F08306E
:10538000F9F6019631968830910581F6EBA5FCA5DA
:10539000E55AF14009F0B5CF04E610E020E230E034
:1053A00041E452E060E488E7C4D4892B09F098CE48
:1053B0008094909480917C0390917D03882299221F
:1053C00090927D0380927C038BCE8295880F8076AD
:1053D0008093480198013695279536952795209317
:1053E0004B01815E8093490120934C0164CF425868
:1053F0005C4F04E610E020E230E0D4CF8091F10071
:10540000D8018D938D01B1E0EB1AF10809F4B4CE07
:105410008091E80085FDF2CF8091E8008B77809342
:10542000E8000E942507882399F3A6CEE43148F4CA
:10543000EE2351F0E150E33138F4F0E0EC56FE4C4D
:10544000C5C6EE3F09F4B4CE8FEF898313C01A822C
:1054500089E08B830FC08A81823009F451C3833085
:1054600071F0813089F70E946E08B6D66B837C8319
:105470008D839E83CE0101960E94F806B5CC809163
:10548000050390910603892BA9F3FE013396D301FE
:105490008D913D018193B4E76B16B2E07B06B9F7BD
:1054A000E9CF8A81823081F62B813C814D815E81FA
:1054B0002BA73CA74DA75EA7CA01B9018DD688E2EC
:1054C00090E0E3D6D7CF4C816B818A810E94F7139D
:1054D0009827892798279E838D83CCCF2D813E8165
:1054E0003227232732274C816B818A810E94A8139F
:1054F000C1CF0E942615BECF80E18A83BBCF1A821E
:1055000080E4A7CF8C818D3108F0B4CF8A809B8056
:10551000982489249824C82ED12CF12CE12C240124
:10552000712C612C37EB831A3CEF930AAE014F5F6D
:105530005F4F5A0110E000E0C401800F911FA801E5
:1055400070E060E04C155D056E057F0508F092CFB8
:10555000440D551D661D771D4034510561057105CB
:1055600050F477D6D50114968C930F5F1F4FFFEF41
:10557000AF1ABF0AE1CFF5011482F7CF809105037E
:1055800090910603892B09F475CF8C818D3108F039
:1055900071CF8A809B80982489249824C82ED12C8E
:1055A000F12CE12C2401712C612C27EB821A2CEFB9
:1055B000920AAE014F5F5F4F5A0110E000E0C40154
:1055C000800F911FA80170E060E04C155D056E052D
:1055D0007F0508F04FCF440D551D661D771D4034E3
:1055E00051056105710520F4D50114966C914DD6D5
:1055F0000F5F1F4FBFEFAB1ABB0AE1CF0E94C81469
:1056000039CF86E07ACF8C818D3108F033CF882E68
:10561000912CB12CA12CCA80DB80DC24CD24DC248D
:10562000F12CE12C8E010F5F1F4F412C512C3201C8
:10563000C6018996481459046A047B0408F01ACFFD
:10564000E0EDCE16E2E0DE06E104F10488F401D6D6
:10565000D80114968C93FFEF4F1A5F0A6F0A7F0AE6
:105660000F5F1F4F2FEFC21AD20AE20AF20AE0CFF1
:10567000F8011482F0CF2C81A22EB12C2D3108F02C
:10568000F9CE8A819B81982789279827803D32E02F
:10569000930708F0EFCEC22ED12CF12CE12C2C0177
:1056A000712C612C40ED52E060E070E04419550926
:1056B000660977094C155D056E057F0508F4DACE9D
:1056C0001C0149E2240E311C209105033091060390
:1056D000232B19F1CE0101965C0110E000E0C1011D
:1056E000800F911FA80170E060E04C155D056E050C
:1056F0007F0508F0BFCE440D551D661D771D403D4A
:1057000052406105710518F4F5016481BED50F5F43
:105710001F4FFFEFAF1ABF0AE2CF8C0101701127B4
:1057200080FF0BC0889695D59D818927982789276A
:1057300081159C4711F48FEF8D83D701C601840D2D
:10574000951DA61DB71D450180FF19C0B1E08B1A3C
:105750009108E5E0F0E0EC0FFD1FE80DF91DFCA756
:10576000EBA7C1018A0D9B1D74D5ABA5BCA59C916F
:1057700081159C4721F48FEFEBA5FCA58083E1E028
:10578000F0E0EC0FFD1FE00FF11F2FEF08151905DA
:1057900008F0A0CF9481858181159C4711F4248362
:1057A00025830E5F1F4F3296F1CF809105039091B4
:1057B0000603892B09F45ECECE0101960E94F806FD
:1057C0002FEF31EE44E0215030404040E1F700C07F
:1057D0000000ADCA88E0E1E5F1E0DE0191960190BC
:1057E0000D928A95E1F7FE013D9684E1DF011D925D
:1057F0008A95E9F786E089831A821B821C8288E0F9
:105800007496DE01159601900D928A95E1F732CEDD
:105810008CE98983B1E0BA831B821C822BCE8C81F8
:10582000682F70E0762F66278B81860F972F911D4A
:10583000092E000CAA0BBB0B35E0880F991FAA1F7D
:10584000BB1F3A95D1F7AC01BD01405E5F4F6F4F72
:105850007F4F803EEFEF9E07AE07BE0708F00ACEEF
:105860008C39F1E09F07A105B10508F003CE4D3951
:1058700021E052076105710520F04CE951E060E03C
:1058800070E0481B590BBC01685C7D4FCE0101964E
:10589000AAD4F0CD4AE150E06FEF70E0CE01079658
:1058A000C1D48091050389830A8384E08B838C8330
:1058B00099E09D838E83DECD81E090E09093750228
:1058C0008093740282E390E090936902809368026F
:1058D0000E94371A9093670280936602CBCD012B0A
:1058E00071F1E0906E02F0907302009166021091E7
:1058F00067020E94371A801B910B8536910540F193
:10590000E4FE26C0F4FE24C00E94371A909367027A
:10591000809366028091680290916902019790934A
:10592000690280936802892B51F4109275021092DB
:10593000740281E090E090930603809305038091C8
:1059400005038983809174028A838091680281CDE6
:1059500082E390E09093690280936802F0CF109206
:1059600006031092050386CD40E250E06FEF70E031
:10597000CE01019657D47ECD8B81823009F451C07F
:1059800080F4811137C0FE0135968BE1DF011D9255
:105990008A95E9F784E089831A828B831C8218A296
:1059A00069CD853009F472C0863009F063CD1C8161
:1059B0008AE0FE013596DE01919601900D928A955E
:1059C000E1F78BA19CA10E94AE099CA38BA38FEF52
:1059D000143060F4FAE01F9FB00111246F5D7C4F1A
:1059E0004AE050E0CE0181966ED480E089830E9427
:1059F0000D1640CD8C819AE0F92E8E010F5D1F4F60
:105A0000F8012F2D11922A95E9F7B8010E94DD15B2
:105A10008983F801DE01129601900D92FA94E1F764
:105A200029CD1C818AE0FE013596DE019196019018
:105A30000D928A95E1F789A19AA10E94AE099AA3D5
:105A400089A38BA19CA10E94AE099CA38BA38DA1CD
:105A50009EA10E94AE099EA38DA38FA198A50E942E
:105A6000AE0998A78FA38FEF143060F43AE0139F2C
:105A7000B001112467507D4F4AE050E0CE0181967D
:105A800022D480E089830E949609F4CC6C812AE0BC
:105A9000CE018196DC01E22F1D92EA95E9F7643090
:105AA00080F4629FB00111246F5D7C4F4AE050E0AA
:105AB000C0D380E089838AE0FE01B196DE011296B0
:105AC000A2CE8FEFF7CF80913403882309F41ECA4A
:105AD00009BDF9BC09B400FEFDCF8091D8008F7DCF
