:10000000E5C5000000C60000FEC500000C94B42E3B
:10001000FAC50000F8C50000F6C50000F4C50000F0
:10002000F2C50000F0C500000C9460180C941D1877
:100030000C948424E8C50000E6C50000E4C5000077
:10004000E2C50000E0C50000DEC50000DCC5000020
:10005000DAC500000C944819D6C50000D4C50000CC
:10006000D2C50000D0C50000CEC50000CCC5000040
:10007000CAC50000C8C50000C6C50000C4C5000050
:10008000C2C50000C0C50000BEC50000BCC5000060
:10009000BAC50000B8C50000B6C50000B4C5000070
:1000A000B2C50000B0C50000AEC500000501098062
:1000B000A101850319012AB700150126B700950192
:1000C00075108100C0050C0901A101850419012AE0
:1000D000A002150126A002950175108100C00660DE
:1000E000FF0961A1010962150026FF00952075082E
:1000F00081020963150026FF00952075089102C052
:1001000005010906A101050719E029E715002501E8
:10011000950875018102950175088101050719008F
:1001200029FF150026FF00950675088100050819AE
:1001300001290515002501950575019102950175A7
:10014000039101C000DA0281FFD9F1DB20A4A62EC1
:10015000AF00A0C0D30000A1C8D30000AED580A8D6
:100160001F408D142000434150530000434D440074
:1001700000414C5400004354524C0000534849463F
:100180005400202033003E203300202032003E2047
:10019000320000202031003E2031000020203000BD
:1001A0003E203000004C4159455200FD377A585AE4
:1001B000000004E6D6B446020021011600000074D7
:1001C0002FE5A3E005C7015C5D003D8889C6543674
:1001D000C3174FE4E20F535D9075DB08C965CE0984
:1001E000CBAEF2FFD16E9644531750A9573CF31C87
:1001F00036AD768D7A7A850BC9433E38EE515A3E3C
:100200009C7DCEB4C813B9F1CF8867CEB8A9BF34EE
:10021000EAE3499914A741D5576A229C4F0765978D
:100220006DEDE65205C276003360F788AF83486013
:100230007DF4FD32CB5CB4A3130FA779664A7A76BE
:100240002F3B30DDCAA3AAFD617C0E3B1587C37628
:1002500083075D3BDD124776E5A83D1F79BCA9EA1F
:10026000D200281FB159F012878D588EB0E9D5FF02
:10027000F4E903A04E8AAB492B16A40CD6DB260763
:100280002A60542BABFF81864810D3DE5CC6B9BB15
:10029000689DF8152AF17BB847E73BB48E1DC999D4
:1002A000D80C800D5362FBA3A7CA47DAC48DA5D42E
:1002B00000E4E0B68391325BFE7CB952F711374F10
:1002C000BEFCB3E328B73538102A1B49CA110AF817
:1002D00065AD63E9DB025F78A396C6F1162682AAB4
:1002E000735DAB26F1710555F4D70A2670CB8BE907
:1002F0007F1031D1D48C8FFE74B9BAE044C24CBCAB
:10030000510C2D33D5C383EC4DC6E7B18A91DCFD8A
:100310002D84C79284B72A1FE6A8020BE48425F334
:10032000DCA34CFFF38400D549FD2D4E472EFA0087
:1003300001F802C80B0000C135F8FFB1C467FB0229
:100340000000000004595A0000000000003E5B4F0E
:100350005B3E003E6B4F6B3E001C3E7C3E1C00181B
:100360003C7E3C18001C577D571C001C5E7F5E1CA9
:100370000000183C180000FFE7C3E7FF0000182446
:10038000180000FFE7DBE7FF0030483A060E0026C2
:100390002979292600407F05050700407F05253F74
:1003A000005A3CE73C5A007F3E1C1C0800081C1CFD
:1003B0003E7F0014227F2214005F5F005F5F000613
:1003C000097F017F00006689956A00606060606057
:1003D0000094A2FFA2940008047E04080010207E6E
:1003E00020100008082A1C0800081C2A0808001E03
:1003F00010101010000C1E0C1E0C0030383E38304F
:1004000000060E3E0E060000000000000000005F27
:10041000000000000700070000147F147F14002470
:100420002A7F2A120023130864620036495620509E
:1004300000000807030000001C22410000004122C8
:100440001C00002A1C7F1C2A0008083E0808000027
:100450008070300000080808080800000060600094
:10046000002010080402003E5149453E0000427F32
:100470004000007249494946002141494D33001866
:1004800014127F10002745454539003C4A4949313F
:1004900000412111090700364949493600464949BA
:1004A000291E00000014000000004034000000007D
:1004B00008142241001414141414000041221408DA
:1004C000000201590906003E415D594E007C12119F
:1004D000127C007F49494936003E41414122007F5C
:1004E0004141413E007F49494941007F09090901D5
:1004F000003E41415173007F0808087F0000417FA2
:100500004100002040413F01007F08142241007F4C
:1005100040404040007F021C027F007F0408107FA3
:10052000003E4141413E007F09090906003E41511C
:10053000215E007F091929460026494949320003F6
:10054000017F0103003F4040403F001F2040201F2B
:10055000003F4038403F00631408146300030478F0
:100560000403006159494D4300007F4141410002AD
:100570000408102000004141417F000402010204F0
:100580000040404040400000030708000020545451
:100590007840007F284444380038444444280038D8
:1005A0004444287F0038545454180000087E09023F
:1005B000001824241C78007F080404780000447D7F
:1005C0004000002040403D00007F10284400000013
:1005D000417F4000007C04780478007C08040478A3
:1005E000003844444438007C18242418001824247B
:1005F000187C007C08040408004854545424000467
:10060000043F4424003C4040207C001C2040201C2F
:10061000003C4030403C004428102844004C90905E
:10062000907C004464544C440000083641000000B3
:1006300000770000000041360800000201020402B9
:10064000003C2623263C00000000000080808080C3
:10065000000000000080E070180C1830E0800000FE
:1006600010F8901030783010B8FC381000000000FE
:100670000000F8FCF800000000000000000000008E
:1006800000001C9C1C00000000F8FCF800000000AA
:1006900000001CFCF8C000000000000080E0F87CB6
:1006A0001C000000F0FCFCFC1C1C1C1C1C1C1C1C6A
:1006B000000000000000C0F0F8381C1C1C1C1C1CB2
:1006C0003CF8F0E000E0F0F0F0E0ECEEF7F3702042
:1006D000007C7C7C7E007E7E7E7F7F7F000080C0F1
:1006E000E07E5B4F5BFEC00000C000DCD7DEDEDEDC
:1006F000D7DC00C000000000000000000000000087
:100700000000000000000000000000000FBCE081BD
:100710008181838382870C183060C000001FFE90A7
:10072000B9FFBB91983C1811133F11000000000065
:100730000000FFFFFF0000000000000000000000BC
:100740000000FFFFFF00000000FFFFFF00000000AF
:1007500000000000030F7FF8E080F0FC3F0F010075
:10076000000000003F3F3F1C1C1C1C1C3C78F8F0A4
:10077000E08000000000C3E7FF7E3C3878787070AE
:10078000F8FFDF87000F1F3F7F7F7F7F7F3F1E0CBB
:10079000001F1F1F3F003F3F3F7F7F7F00307B7F59
:1007A0007830202030787F3B0003000F7F0F0F0F41
:1007B0007F0F0003000000000000000000000000A8
:1007C00000000000000000183C24666341C18180E5
:1007D000808080808081C14162386C4CC68181807C
:1007E0008080808081C14362361C180000000000B8
:1007F0000000FFFFFFC0C0C0C0C0C0C0C0C08000BC
:1008000000007FFF7F000000007FFFFFC08000002E
:1008100000E0E0C0C0C0E0F97F1F0700000000005A
:100820000000000070F0E0E0C0C0C0C0E0F0F87F61
:100830003F0F0000000F3F7FF9E0E0C0C0C0C0C024
:10084000E0F97F3F1F0000000000000000000000F2
:100850000000000000000000000000000000000098
:100860000000000000000000000000000000000088
:100870000000000000000000000000000000000078
:100880000000000000000000AF00AE29001E001FA5
:10089000002000210022002B0014001A000800157F
:1008A000001700E00004001600070009000A00E13C
:1008B000001D001B0006001900050000002152E386
:1008C00000E2002C002F0035002700260025002420
:1008D0000023002D00130012000C0018001C00342F
:1008E0000033000F000E000D000B00E5003800374C
:1008F0000036001000110000002252E7002A0028F4
:1009000000300001000100010001000100010001B0
:10091000001E021F0220022102220201001E001FEF
:10092000002000210022000100010001000100015F
:1009300000010000000100010001000100010001B0
:100940000001000100010001000100010027022652
:10095000022502240223020100270026002500248C
:10096000002300010030022F022E02350031020068
:10097000000100010001000100010001000100016F
:10098000000100010001003A003B003C003D003E38
:10099000003F000100010001000100010001000111
:1009A0000001000100010001000100000001000140
:1009B000000100010001000100010001000100012F
:1009C0000001004500440043004200410040000097
:1009D000004F005200510050000000010031003073
:1009E000002F002E002E0200000100010001000176
:1009F00000010000000000000000000000000000F6
:100A000000000000000000000000000000000000E6
:100A100000000000000000000000000000000000D6
:100A200000000000000100010001000100000000C2
:100A300000000000000000000000000000000000B6
:100A400000000000000000000000000000000000A6
:100A50000000000000000000000000000000000096
:100A6000000100010001000100000009025B000319
:100A70000100A0FA0904000001030101000921118D
:100A80000100012244000705810308000109040157
:100A900000020300000009211101000122220007C9
:100AA0000582032000010705030320000109040259
:100AB000000103000000092111010001223200079A
:100AC0000584032000011201000200000008D80480
:100AD0002DEB0001010203011C0376006900610097
:100AE0006C003A0066003600340063003200620099
:100AF0003300630000000E034C0069006C007900B5
:100B000035003800000010036C0069006C006900BB
:100B100075006D007300000004030904000000006C
:100B200000000000000000000000000000000000C5
:100B300000000000000000000000000000000000B5
:100B40007E0F00D4FFFFFFC7000000780000000008
:100B5000000000002A2B2800000000000000000018
:100B60000000000000000029000000002C1E3420BE
:100B7000212224342627252E362D3738271E1F20E4
:100B80002122232425263333362E37381F04050629
:100B90000708090A0B0C0D0E0F101112131415166D
:100BA0001718191A1B1C1D2F3130232D350405066B
:100BB0000708090A0B0C0D0E0F101112131415164D
:100BC0001718191A1B1C1D2F3130354C11241FBE4C
:100BD000CFEFDAE0DEBFCDBF11E0A0E0B1E0EAEB9D
:100BE000F1E602C005900D92A43BB107D9F726E0CB
:100BF000A4EBB1E001C01D92AA3FB207E1F70E9449
:100C0000B5240C94B030FCC9982FE091F9064091BE
:100C1000C00657E0E41302C080E008952E2F30E0B4
:100C20005E9FF0011124EF53F94F8181681306C0D4
:100C30008081981303C085818111EFCFF90131962E
:100C4000E770E8CFFC01AC014B5F5F4F8FEF91E3A2
:100C50002191822728E030E087FF09C0880F89278B
:100C600021503109C9F7E417F50791F70895880F66
:100C7000F7CFE091BE06F091BF06309739F00284BD
:100C8000F385E02D309711F060E209950895E8EDC5
:100C9000F0E080818E7F80831092E2001092DA0073
:100CA0001092E100A0EEB0E08C9181608C93808185
:100CB0008F77808319BCA7EDB0E08C918E7F8C93E9
:100CC00080818F7E80831092A80608952091E40091
:100CD0003091E50095E6A9012091EC00822F81700A
:100CE00020FF06C08091E80080FF06C080E00895E4
:100CF0002091E80022FD1AC08091B406882389F073
:100D0000853089F08091EB0085FD0FC02091E400D3
:100D10003091E50042175307F9F29150E1F684E073
:100D2000089582E0089583E0089581E00895809118
:100D3000B60687FF13C08091E80082FF06C080914D
:100D4000E8008B778093E80004C08091B40681119D
:100D5000F2CF08958091B4068823D9F38091E800FA
:100D600080FFF8CF8091E8008E77ECCF982F90939A
:100D7000E900242F762F50E0891731F07091EC00B4
:100D80002091ED005091F00021FD07C09F5F97304A
:100D900071F78093E90081E008953091EB003E7F88
:100DA0003093EB003091ED003D7F3093ED003091BA
:100DB000EB0031603093EB007093EC002093ED007A
:100DC0005093F0002091EE0027FDE0CF80E00895E1
:100DD000B0E0A0E0EEEEF6E00C94E32FC8EDD0E03A
:100DE00088818F7E8883E7EDF0E080818160808359
:100DF00084E082BF81E08093A80688818E7F88830B
:100E000002EE10E0F80110821092DA0081EEC82E96
:100E1000D12CF601108288818F7788838881806841
:100E2000888388818F7D888319BC1092B4061092C4
:100E3000B5061092B3061092B20690EEE92EF12C90
:100E4000F70180818B7F808388818160888342E085
:100E500060E080E08BDFF60180818E7F8083F80187
:100E6000808181608083808188608083F7018081B8
:100E70008E7F8083888180618883CDB7DEB7E8E08C
:100E80000C94FF2FFC01CB012091BC063091BD06D4
:100E90002617370790F0009729F42091E8002E7765
:100EA0002093E80040E0009751F4411108C0809180
:100EB000E80082FF31C080E00895C901F3CF20919E
:100EC000B4062223A9F12530A9F12091E80023FDE1
:100ED0002DC02091E80022FDEACF2091E80020FFFC
:100EE000E2CF3091F3002091F200009719F0283002
:100EF000310558F041E02830310509F040E02091FB
:100F0000E8002E772093E800CECF41914093F10086
:100F100001972F5F3F4FE9CF8091B406882341F0BE
:100F2000853041F08091E80083FFC1CF81E00895D2
:100F300082E0089583E008950895089587E797E78C
:100F4000909301088093000888E19AE00FB6F89426
:100F5000A895809360000FBE90936000FFCFA4E03F
:100F6000B0E0E5EBF7E00C94E92F8FB7F89420910F
:100F7000A4063091A5064091A6065091A7062983A4
:100F80003A834B835C838FBF69817A818B819C819B
:100F90002496E2E00C94053080914E010895E8EB30
:100FA000F1E09191891303C0DF0111971C9291E048
:100FB000EE3BF907B1F708959C01FC0132968FEFE3
:100FC00090E04191461751F08F3F19F4411101C053
:100FD000892F9F5F9630A9F78F3F09F40895280F56
:100FE000311D87FD3A95F90162830895A3E0B0E0D1
:100FF000ECEFF7E00C94E92F9C018091A106909111
:10100000A20682179307B1F03093A2062093A1069F
:10101000E091BE06F091BF06309761F00084F18543
:10102000E02D309739F084E089833B832A83CE0119
:10103000019609952396E2E00C940530A3E0B0E018
:10104000E4E2F8E00C94E92F9C0180919F069091D6
:10105000A00682179307B1F03093A00620939F0655
:10106000E091BE06F091BF06309761F00084F185F3
:10107000E02D309739F083E089833B832A83CE01CA
:10108000019609952396E2E00C94053080919C0628
:10109000811103C080919E060895E091BE06F091F3
:1010A000BF06309739F00190F081E02D309711F0B4
:1010B0000995089580E00895FA01309709F009959F
:1010C0000895CF92DF92EF92FF92CF93DF9300D0FB
:1010D00000D000D0CDB7DEB78E839D83C0908E0642
:1010E000D0908F06E0909006F090910638DFDC01FA
:1010F000CB018C199D09AE09BF09843F9140A10520
:10110000B10538F5C0928A06D0928B06E0928C0623
:10111000F0928D0684EF91E0A0E0B0E08093860627
:1011200090938706A0938806B09389068E8180935A
:1011300095069D819093960626960FB6F894DEBF8D
:101140000FBECDBFDF91CF91FF90EF90DF90CF909A
:10115000089505DF60938A0670938B0680938C0652
:1011600090938D0682E390E0A0E0B0E0D7CFFC0141
:101170008481862351F482818823B9F06823908585
:1011800093FF05C081E061110FC080E00895282F12
:101190002F7082958F70282B962F9F7062956F709D
:1011A000692B81E02613F1CF089581E0FDCFE2E9BC
:1011B000F2E090E080E06CEC73E240EF53E220E577
:1011C00033E276836583508747833287218796870A
:1011D000858701963F968031910599F7089581158D
:1011E0002CE7920741F42091840630918506232B49
:1011F00011F490E080E0089580E00895F894E82FDD
:10120000E295EF70F0E041A18F7021E030E0B9018C
:1012100002C0660F771F8A95E2F7CB01962F909553
:10122000942391A392A1892B82A378940895A4E09A
:10123000B0E0EDE1F9E00C94E92F80919C06882361
:1012400069F08DDE69837A838B839C8369817A81DF
:101250008B819C812496E2E00C94053080DE6983CA
:101260007A838B839C838091200290912102A091AC
:101270002202B091230229813A814B815C81280F9F
:10128000391F4A1F5B1F29833A834B835C83DECF60
:101290009091310292FF10C041E0282F2471243038
:1012A00009F040E031E0282F2871283009F030E0C3
:1012B000431711F02CE0822793FF10C041E0282F44
:1012C0002471243109F040E031E0282F28712831C1
:1012D00009F030E0431711F02CE082273091320200
:1012E00030FF10C051E0282F2171213009F050E06B
:1012F00041E0282F2871283009F040E0541711F000
:1013000029E0822731FF10C041E0282F21712131CF
:1013100009F040E031E0282F2871283109F030E051
:10132000431711F029E0822794FD877E0895803EBF
:101330009105C1F1C8F48133910509F47DC048F4E9
:101340008932910509F46DC08A32910509F47BC098
:10135000089589339105D1F082389105B9F085332C
:10136000910509F459C00895843E9105C1F138F4FE
:10137000823E910521F1833E910531F10895863E2B
:101380009105C1F1873E9105E1F108952091310267
:10139000237009F065C02091320223FF14C089E256
:1013A00090E008952091310220FD43C03091320237
:1013B00030FF09C024FF4EC090E080E008952091E6
:1013C000310222FDF7CF08952091310222FD45C060
:1013D0003091320230FD44C024FFF5CFEDCF209193
:1013E000320221FFF0CF8091310284FDE5CF87EEFC
:1013F00090E008952091310223FFE5CF24FDDCCF5A
:10140000F6CF2091310223FD2EC03091320231FF00
:10141000E3CF84EE90E008952091310225FFD3CFF1
:10142000BECF2091310225FD21C02091320223FF41
:10143000CACF89E390E0C7CF2091310226FFC3CF06
:101440008AE290E008952091310226FFBCCF81E32B
:1014500090E0089583EE90E0089582EE90E0089584
:1014600080EE90E0089586EE90E0089585E390E0A8
:1014700008951F93CF93DF935ADFEC01C11580E5E8
:10148000D80708F052C0C11580E4D80708F0BFC0E3
:10149000C03ED10530F5CD3CD10508F0A7C0C83A13
:1014A000D10578F4C53AD10508F09DC0C130D10509
:1014B00031F1CE010497813A910508F1D0E0C0E006
:1014C0001EC0CE01885A91094B97C0F7C85AD0E088
:1014D000CC0FDD1FC65ADE4F0990D881C02DD464D1
:1014E0000EC0C11580E2D80778F4CF3FD10511F0C6
:1014F00008F07EC0CE01805E91090897F8F6CE0113
:10150000DF91CF911F9108958D2F8F71C1DE182F1C
:10151000CE0199270CDFC12FD0E0DC2FCC27CC27C0
:10152000DF71C82BD92BD062EACFC03682E5D8074D
:1015300048F5C03482E5D80708F086C0C03282E59D
:10154000D807C8F4C11582E5D80708F069C08C2F08
:101550008F719EDE65E0D695C7956A95E1F7CF70ED
:10156000D0E0DC2FCC27282F30E084FD8CC0C22BAC
:10157000D32BD069C4CFCF71D0E0DC2FCC27C16F83
:10158000D06ABDCFC03C82E5D80700F5C03A82E5FD
:10159000D80708F06EC0CE0180569245809708F0BB
:1015A0008DCF2C2F26952695277080E2289F9001BD
:1015B00011248C2F8370C1E0D0E002C0CC0FDD1F5E
:1015C0008A95E2F7C22BD32BDA6899CFCE01805CE3
:1015D0009245809708F072CFDC2FCC27CC27DF71A3
:1015E000C06FD06A8CCFA497D06489CFD06587CFE5
:1015F0008D2F4EDE182FCE01992799DEC12FD0E016
:10160000DC2FCC27CC27DF71C82BD92B78CFCE018C
:1016100099278DDECC27DF70C82BD92BD06A6FCFEE
:101620002C2F2695269580E2289F900111248C2F3F
:101630008370C1E0D0E002C0CC0FDD1F8A95E2F7D5
:10164000C22BD32BDD685BCF2C2F269526952770D8
:1016500080E2289F900111248C2F8370C1E0D0E09C
:1016600002C0CC0FDD1F8A95E2F7C22BD32BDC68BA
:1016700046CF8C2F8F710CDEC82FD0E0DC2FCC270B
:10168000CC27DF713CCF84E0220F331F8A95E1F72E
:1016900033276DCF8091F9069091C006981301C051
:1016A00008958F5F8770FACF292F9A3078F58630AA
:1016B00068F590E036E0239F800D911D1124682F7E
:1016C000677023E0969587952A95E1F7FC01EE0F68
:1016D000FF1FE80FF91FE054FE4F50E040E080E0AC
:1016E000219130E0062E02C0369527950A94E2F744
:1016F00021703327042E01C0220F0A94EAF7822BAF
:101700004F5F5F4F4330510559F7089580E00895CA
:10171000292F9A3090F5863080F590E036E0239FAF
:10172000800D911D1124282F277041E001C0440F26
:101730002A95EAF723E0969587952A95E1F7FC012B
:10174000EE0FFF1FE80FF91FE054FE4F90E080E01E
:1017500070E05191DF0111979B01082E02C0369570
:1017600027950A94E2F72170219525272423252720
:101770002C9301968330910561F70895982F967008
:10178000963021F48860809340020895877FFBCFD4
:101790009091400221E030E0F90101C0EE0F8A95FE
:1017A000EAF7D90102C0AA0FBB1F6A95E2F7EA2B3C
:1017B00001C0220F4A95EAF7892F8E23E81303C050
:1017C000292B822FDBCF20952923FBCF21E030E08E
:1017D00001C0220F8A95EAF720958091400282236A
:1017E000CDCF21E030E001C0220F8A95EAF7809149
:1017F0004002822BC3CF809330020895982F8295A8
:101800008F7011F0982F84E0292F2695269511F0DE
:101810008E5F922F969509F08F5F08959C019A959F
:1018200081159F4150F5D901AA27B170F901EE2722
:10183000F270B90166277470A9014427587034FF0B
:101840000EC080E1AB2B09F480E0EF2B09F0806241
:10185000672B09F08064452B89F08068089581E04A
:10186000AB2B09F480E0EF2B09F08260672B09F0C5
:101870008460452B19F08860089580E008950F93E7
:101880001F93CF93DF938B01EA019091B4069430BC
:1018900059F58093E9008FEF9091E800815095FD14
:1018A00006C095ED9A95F1F700008111F5CF809172
:1018B000E80085FF19C00ADA811111C08091E800A3
:1018C00085FD06C08091E8008E778093E800F3CF15
:1018D000F80181918F018093F100219779F7809130
:1018E000E8008E778093E800DF91CF911F910F91F0
:1018F0000895BC0143E050E084E0C1CFCF93DF9373
:10190000D82FC92F48E050E0682F792F81E0B7DF4A
:1019100088E0ED2FFC2FAAEAB6E001900D928A959F
:10192000E1F7DF91CF910895792F603229F440E2F9
:1019300050E0682F82E0A3CF0895B0E0A0E0E3EA92
:10194000FCE00C94E12FF82EE92ED62EC72E8A014A
:1019500080911F02AA24A394B12C8A3018F48AE043
:10196000A82EB12CC1E0D0E06D2D7C2D8F2D9E2DA9
:10197000F8010995811104C02196AC16BD062CF41E
:10198000CDB7DEB7EAE00C94FD2FCC9F9001CD9F40
:10199000300D300D112490E080E045E34A95F1F7D9
:1019A0000000019682179307C1F7DECF1F93CF93F4
:1019B000DF93962F122F632F8430D8F49A30C8F417
:1019C0004630B8F4C42FD0E0CC0FDD1F2CE0929F3E
:1019D000C00DD11D112498E7899FC00DD11D112480
:1019E000CE0189960E947B30612FCE018A960E949B
:1019F0007B30DF91CF911F91089585E290E00E94A6
:101A00005F308D3689F486E290E00E945F308F303F
:101A100059F487E290E00E945F3091E0833C09F046
:101A200090E0892F8170089580E0FCCF462F572FDA
:101A3000BC01CA01875B9C4F4034510561057105AB
:101A400010F40C945F3080E008950F931F93CF93B0
:101A5000DF93843030F56A3020F5463010F5C42F1E
:101A6000D0E0CC0FDD1F2CE0629FC00DD11D1124F2
:101A700038E7839FC00DD11D1124CE0189960E94A5
:101A80005F30082F10E0102F0027CE018A960E94A9
:101A90005F309801282BC901DF91CF911F910F91E1
:101AA000089590E080E0F8CF462F672F20917402D0
:101AB00030917502232B81F4703F39F4403F61F47B
:101AC000809176029091770208957A3028F446301A
:101AD00018F4843008F4B9CF80E090E00895B0E0C5
:101AE000A0E0E5E7FDE00C94E42F7C0100914002CA
:101AF00080913002082BC3E0D0E010E0DC2EC8015A
:101B00000C2E02C0959587950A94E2F780FD09C0D6
:101B10002197A0F7D12C8D2DCDB7DEB7E7E00C943F
:101B20000030B7018C2FC0DFA4DC019789F3F3CF1D
:101B3000CF93DF93D82FC92FD2DF6D2F7C2FB4DF47
:101B400098DCDF91CF910895FC018481882399F07E
:101B500080819181EDDF282F92959F70963091F0D2
:101B600060F4925F9F70923030F481E0203F81F00A
:101B700030F4283E30F080E004C09A5FF3CF243F79
:101B8000D1F7089581E0283E20F0213FA1F7F9CF59
:101B900008950895A6E0B0E0E0EDFDE00C94E82F94
:101BA0009C0186E0F901DE01119601900D928A9563
:101BB000E1F7F901258189819A81222381F0662349
:101BC00071F08DDF182F682F89819A81A1DD6981DD
:101BD0007A81812F69DF2696E3E00C94043064DD7E
:101BE000182FF5CF4F925F926F927F92AF92BF9274
:101BF000CF92DF92EF92FF920F931F93CF93DF93D9
:101C0000CDB7DEB760970FB6F894DEBF0FBECDBF7D
:101C10001A821982FE0133968EE0DF011D928A95A9
:101C2000E9F704E010E099E4A92E93E0B92E20E44E
:101C3000422E512C612C712C6201B1E14B165104E2
:101C4000610471042CF080E1C82ED12CE12CF12C20
:101C5000A601B501CE0101960E946C30AC0CBD1CF2
:101C60000D2C000CEE08FF084C185D086E087F086C
:101C70000150110909F760960FB6F894DEBF0FBE48
:101C8000CDBFDF91CF911F910F91FF90EF90DF902B
:101C9000CF90BF90AF907F906F905F904F900895DE
:101CA000AAE0B0E0E6E5FEE00C94DE2FA09084060A
:101CB000B090850681E090E090938506809384063D
:101CC000912C812CE12C6401F12C14C0F801259198
:101CD0003491472D6F2D8E2D69DE0E5F1F4F73944B
:101CE00086E07812F3CF96E0C90ED11CF394EAE0B7
:101CF000FE1639F08601000F111F0557174F712C82
:101D0000E5CFE394FCE38F0E911C84E0E812DBCF77
:101D10001A8219821C821B821E821D8218861F82D3
:101D200088EC90E09A87898709E012E0FE013196FD
:101D30007F014AE050E0B801C7010E949930065F78
:101D40001F4F093AF2E01F07A1F789E0F70111924E
:101D50008A95E9F78FEF9FEF9E838D8387E08A87CF
:101D60004AE050E0B801C7010E949930065F1F4F5A
:101D70000934F3E01F07A1F7B0928506A09284060C
:101D80002A96EDE00C94FA2F6FEF85E290E00E9426
:101D90007B306FEF86E290E00E947B306FEF87E24E
:101DA00090E00E947B3060E088E290E00E947B300F
:101DB00077DF18DF6DE685E290E00E947B306FE010
:101DC00086E290E00E947B3063EC87E290E00C9426
:101DD0007B30282FCB01203168F43AE0239FB001FB
:101DE0001124675F7D4F4AE050E00E944F3090E041
:101DF00080E008958FEF9FEF0895AAE0B0E0E3E060
:101E0000FFE00C94E92F9C0197558F3F910509F055
:101E100068F4BE016F5F7F4F822FDBDF892B31F4C7
:101E200089859A852A96E2E00C94053088EC90E04A
:101E3000F9CF8091A90690919906892B90919206ED
:101E40009095892390919306892B8093B60148E061
:101E500050E06FED71E086EB91E00E943230892B0B
:101E6000B9F088E0E6EBF1E0AFEDB1E001900D9262
:101E70008A95E1F7E091BE06F091BF06309741F0F8
:101E80000280F381E02D309719F086EB91E00995FF
:101E90000895CF93DF93EC0149855A856D857E8542
:101EA0000BD98B81982F90958091990689238093E7
:101EB0009906BFDF85E0FE0111928A95E9F7DF916F
:101EC000CF910895CF93DF93EC018C8181FD0FC0FA
:101ED00082608C83809199069B81892B80939906DF
:101EE000A8DF4F8158856D857E85CE01E5D810929B
:101EF0009B0610929A068C8180FD02C0CE01C9DF3C
:101F0000DF91CF910895882339F0809590919906BB
:101F10008923809399068DCF0895882331F090917D
:101F20009906892B8093990684CF0895882339F0E8
:101F300080959091A90689238093A9067ACF089568
:101F4000882331F09091A906892B8093A90671CF3F
:101F50000895882341F19CEF980F913A10F41FD80F
:101F600068CF90E2980F983088F4877021E030E0D5
:101F7000A90102C0440F551F8A95E2F7CA01809556
:101F80009091A90689238093A906EACF9BE5980F33
:101F9000933018F490E080E051C8885A8B3118F4DF
:101FA00090E080E023C80895FF920F931F93CF9392
:101FB000DF93F82E009197061091980601151105F0
:101FC00009F448C010929606109295061092920657
:101FD00010929306D8011696CD91DC91CE019A9578
:101FE00081159F4108F4D07ED1E0C11101C0D0E03D
:101FF000D8011996ED91FC911A97309731F01B9604
:102000006D917C9180E00995D823DD2339F08CEF28
:102010008C0F813A28F58C2F0E94CF07FF2099F072
:10202000E0919706F0919806808584FD0CC0809120
:102030009406882341F0808191819C0121503109CF
:102040002F333E4788F0F5DE1092980610929706DF
:1020500010929406C801CDB7DEB7E5E00C940230CB
:10206000E8DE8C2F76DFDACF2CD8EDCFCF93C82FD8
:10207000882399F08CEF8C0F813A88F4E8EBF1E03B
:102080008191C817B1F121E0EE3BF207C9F76C2F3F
:1020900086EB91E00E94DC07CCDECF91089580E2D0
:1020A0008C0F883068F4C77021E030E001C0220F47
:1020B000CA95EAF78091A906822B8093A906ECCFF6
:1020C0008BE58C0F833038F42C2F2452330BC9014D
:1020D0000E941E08E2CFC85ACB31F8F6EC2FF0E090
:1020E000EE0FFF1FE65AFE4F808191810E94F60796
:1020F000D4CF8C2F0E94CF079CDEC9CF1F93CF93E4
:10210000DF93182FEB01B2DF209731F4812F21DF0D
:10211000DF91CF911F9108958FE99FE00197F1F72B
:1021200000C000002197F0CFB0E0A0E0EAE9F0E1C4
:102130000C94E12FFC018AE0B82EDF012D918D0176
:102140002223D1F1213009F051C08181813061F425
:1021500082818F010D5F1F4F70E060E0893311F4C1
:1021600060E570E0CBDF07C0823039F48F010D5F8E
:102170001F4F82817BDFF801E0CF833031F48F0184
:102180000D5F1F4F8281E5DEF6CF8F010E5F1F4F7F
:10219000843081F482818F010D5F1F4F30E020E099
:1021A000682F6053770BAB016A30710550F0211531
:1021B000310599F48111DFCFCDB7DEB7EAE00C9499
:1021C000FD2FB29EC001B39E900D11249A01280FDD
:1021D000391FF80181918F01E3CFAFE9BFE011977B
:1021E000F1F700C0000021503109E1CFE22FF0E00B
:1021F000E45BF44FA490822F86958695869590E0B7
:10220000FC01E45CF44FE4902770F12C022E02C034
:10221000F594E7940A94E2F7B1E0EB22FF24FC0185
:10222000E45DF44FC490D12C022E02C0D594C79423
:102230000A94E2F7E1E0CE22DD24FC01E45EF44FF3
:10224000C491D0E002C0D595C7952A95E2F7C17038
:10225000DD27E114F10411F081EE08DFC114D1048F
:1022600011F086EE03DF70E060E08A2D47DFC114D5
:10227000D10411F086EE6DDEE114F10411F081EE6F
:1022800068DECD2B09F477CF70E060E08CE26ACF96
:10229000CF93DF93EC01C2DA9E01205E3109283032
:1022A000310510F0209731F44BDE8C2FDFDEDF910B
:1022B000CF91089532DEF9CF1F93CF93DF93982FFC
:1022C000162F81E09A3019F09D3031F480E084D0EF
:1022D000DF91CF911F910895C0917C06D0917D062A
:1022E00086E0FE01A6E7B6E001900D928A95E1F73F
:1022F000903E90F186E0FE0111928A95E9F7C09137
:102300007C06D0917D06111133C046E050E0BE013D
:1023100086E796E00E9432309E0126573440892B92
:1023200091F52A5F3F4F40917304642F70E0C9011B
:102330000E94C52F481B463010F4240F311D211573
:1023400072E0370710F030E020E02A583B4F30931E
:102350007D0620937C06BCCFF6E09F9FB001112440
:10236000695B7C4F46E050E0CE010E942930C7CF28
:102370009E012A5F3F4FFE012E173F0731F28081F9
:1023800080958193F9CFC90145E0969587954A9547
:10239000E1F741E050E0BA0102C0660F771F8A956D
:1023A000E2F7CB016091740470917504862B972B32
:1023B000B9016B5F7F4FE5E076956795EA95E1F7A8
:1023C00002C0440F551F6A95E2F7842B952B90931A
:1023D000750480937404A5CFCF93382FE0917C06C9
:1023E000F0917D06E657F44020917304622F70E06F
:1023F000CF010E94C52F281B822F332361F066E096
:102400000E941030C82FC15010F4CF91089560E0A1
:1024100080E252DFF8CF9F01280F311D2115324095
:1024200018F080E0F0E0E0E08E0F9F2F911D8A58B9
:102430009B4F90937D0680937C06E7CF1F93CF93AD
:10244000DF93EC01162FFE018491811106C081E01B
:10245000C3DFDF91CF911F910895612F2DDF21966A
:10246000F2CFE6E7F4E080E092E0DF019C011D920C
:1024700021503040E1F7F0937D06E0937C068FEF2A
:102480009FEF90937504809374040895AAE0B0E0E0
:10249000ECE4F2E10C94E12F03E813E089EAE82E82
:1024A00082E0F82E96E0B92E22E8C22E23E0D22E4A
:1024B000AA24A3944AE050E0B701CE0101960E94FD
:1024C0004F30F8013996DF018B2D1D928A95E9F77F
:1024D00089819A81D80111969C938E938F8112964F
:1024E0008C9312978D8113968C93139788851496ED
:1024F0008C931497898515968C9315978B819C8165
:1025000017969C938E93169718961C9218978A8507
:1025100087FF3CC01E961C921E921D9780FF03C031
:10252000D8011896AC9281FF04C0F80190859260A2
:10253000908782FF07C0D80118969C9118979460E5
:1025400018969C9383FF04C0F8019085986090874B
:1025500084FF07C0D80118969C911897906118962F
:102560009C9385FF04C0F801808580628087FAE033
:10257000EF0EF11C015F1F4F89E4E81683E0F806B7
:1025800009F098CF2A96EAE00C94FD2FF801D68640
:10259000C586C4CFE8EBF1E086E0DF011D928A95A5
:1025A000E9F790E080E00E941E0890E080E00E9441
:1025B000F607109299063DCCAAE2B0E0E2EEF2E115
:1025C0000C94E82F86EB96E0FC0101962091F10037
:1025D000208326E08E3B9207B9F78091B7068930B9
:1025E00009F45BC0C8F4823009F4B8C0833009F440
:1025F00087C0813099F18091E80083FF3BC18091D1
:10260000B6069091B7069A3008F034C1E92FF0E091
:10261000EE54FF4C0C941C308A3009F48EC08B3081
:1026200051F78091B606813231F78091BA069091C8
:10263000BB06892B01F78091E800877F8093E80033
:102640000E94970681E09091B806911101C080E048
:1026500080934F011092A9069DDFCDCF8091B606E1
:10266000813A49F68091E800877F8093E800809165
:10267000BA069091BB06892B61F468E08AEA96E07D
:1026800070E00E9442078091E8008B778093E80019
:10269000B2CF60E090E080E0F3CF8091B606813267
:1026A00009F0A9CF8091BA069091BB068D7F892B46
:1026B00009F0A1CF8091E800877F8093E8008091A6
:1026C000E80082FF18C09091F3008091F200029719
:1026D00031F48091F100813011F0863021F4809145
:1026E000F10080934E018091E8008B778093E800A1
:1026F0000E94970680CF8091B4068111E0CF7BCFF6
:102700008091B606813A09F076CF8091BA06909111
:10271000BB06892B09F06FCF8091E800877F8093FB
:10272000E8008091E80080FFFCCF80914F0180930A
:10273000F1008091E8008E77D9CF8091B606813282
:1027400009F059CF8091E800877F8093E8000E94CC
:1027500097068091B90680934D014DCF8091B606C2
:10276000813A09F048CF8091E800877F8093E800A4
:102770008091E80080FFFCCF80914D01D8CF803858
:1027800099F0823809F076C08091BA068F70873050
:1027900008F070C08093E9008091EB0085FB8827EA
:1027A00080F91092E90006C08091B2069091B306BC
:1027B000911182609091E800977F9093E800809358
:1027C000F1001092F1008091E8008E77C4C1882357
:1027D00009F4B1C1823009F04DC08091B806811171
:1027E000B5C18091BA068F702FEF280F263008F000
:1027F00041C08093E9002091EB0020FFA7C19330F6
:1028000031F48091EB0080628093EB009FC1909146
:10281000EB0090619093EB0021E030E001C0220FCB
:102820008A95EAF72093EA001092EA008091EB0083
:102830008860EACF81111EC01091B8061F77809181
:10284000E3008078812B8093E3008091E800877F0C
:102850008093E8000E9497068091E80080FFFCCFFB
:102860008091E30080688093E30082E0111183E0AF
:102870008093B4068091E80083FF0AC08091E8004D
:10288000877F8093E8008091EB0080628093EB006B
:10289000AA96E3E00C9404308058823058F74091B7
:1028A000B8065091B9064C3D83E05807A1F583E086
:1028B0008A838AE289834FB7F894DE01139620E079
:1028C0003EE051E2E32FF0E050935700E49120FF07
:1028D00003C0E295EF703F5FEF708E2F90E0EA301B
:1028E000C0F0C7968D939D932F5F243159F74FBF4A
:1028F0008091E800877F8093E8006AE270E0CE0173
:1029000001960E9442078091E8008B778093E8004F
:10291000B1CFC096E7CF8091BA069091BB06252F24
:1029200033272330310509F44AC078F521303105C9
:1029300009F486C08BE590E0EBE6FAE02230310541
:1029400009F098CF2091E800277F2093E80020919C
:10295000BC063091BD068217930708F49C0140E045
:102960002115310509F071C041116FC08091E80057
:1029700082FDC9CF8091B406882329F2853019F2EF
:102980008091E80083FFF2CFBECF2132310509F4F8
:1029900048C02232310509F06DCF8330910508F02F
:1029A00069CFFC01EE0FFF1FE855FE4F0190F0814B
:1029B000E02D8B559E4FDC018C9190E026C0CA0122
:1029C0009927423031F18330910568F40097B1F0D6
:1029D000019709F04FCFE6E0FBE0E4918E2F90E005
:1029E000E6E0FBE012C0039709F044CFE8EDFAE01F
:1029F000E4918E2F90E0E8EDFAE007C0E8E1FBE01B
:102A0000E4918E2F90E0E8E1FBE0009709F432CFEB
:102A100099CFE6EFFAE0E4918E2F90E0E6EFFAE04E
:102A2000F4CF8330910508F025CF880F991FFC0162
:102A3000E255FE4F0190F081E02D89E090E082CFD9
:102A400082E190E0E6ECFAE07DCF8091B406882345
:102A500009F459CF853009F456CF8091E80083FD01
:102A600052CF8091E80082FD81CF8091E80080FF05
:102A700077CF9091F3008091F2002115310519F084
:102A80008830910550F041E0089709F040E08091CE
:102A9000E8008E778093E80063CF44914093F10083
:102AA0003196215031090196E8CF803809F0E2CE05
:102AB0008091E800877F8093E8008091B50680933D
:102AC000F10081CE8111D6CE1091B806123008F0F7
:102AD000D1CE8091E800877F8093E8001093B506FF
:102AE0000E949706112311F084E005C08091E30055
:102AF00087FDFACF81E08093B40642E061EC81E08B
:102B00000E94B60642E261EC84E00E94B60642E210
:102B100061EC82E00E94B60642E260EC83E00E9433
:102B2000B6068091B406843021F081E08093500194
:102B3000A1CE82E0FBCF8091B806813009F09ACE19
:102B400081E0933009F080E08093B3061092E900B1
:102B50008091E800877F8093E8000E9497068ACEE4
:102B60001092A90617DD2FEF84E39CE021508040EE
:102B70009040E1F700C0000088E19AE00FB6F894B9
:102B8000A895809360000FBE90936000FFCFAB01CB
:102B900024E630E0BC0188E70E948A2D9C0181E098
:102BA000232B09F080E0089580918206909183069E
:102BB000911103C091E089270895882361F062E0B4
:102BC00070E089E898E0E3DF811103C0809182061C
:102BD00008951092820680918206ECCFA5E0B0E0C5
:102BE000E4EFF5E10C94E92F809182068D838091CA
:102BF00083068823E9F00E94AF07DC01CB01805AED
:102C00009541AF4FBF4F80937E0690937F06A09370
:102C10008006B09381068D81811107C062E070E06B
:102C200087E898E0B4DF811108C0809182068D8327
:102C30008D812596E2E00C94053081E08093820638
:102C4000F4CFB0E0A0E0E7E2F6E10C94E32FFA0164
:102C500069017801C82F880FDD0B3097B1F0DE01D4
:102C600093E0AA0FBB1F9A95E1F7AF5FBE4F119695
:102C70008D919C9112978D509E4F4C9150E0E4178E
:102C8000F50708F4AF010E943F30CE010E94552F96
:102C9000182F8823D1F0E114F104B9F083E0CC0FB0
:102CA000DD1F8A95E1F7FE01EF5FFE4F438150E0A3
:102CB000E416F50608F4A701CF5FDE4F6C817D8135
:102CC0006D507E4FC6010E943F30812FCDB7DEB7D9
:102CD000E8E00C94FF2F8F929F92AF92BF92DF9209
:102CE000EF92FF920F931F93CF93DF9300D000D00A
:102CF00000D0CDB7DEB78D837B01142FD22E3E835B
:102D0000DB018D909D90AD90BC900E94AF07DC01DF
:102D1000CB0188199909AA09BB0984369105A10537
:102D2000B10510F4112339F110E000E030E020E0AB
:102D300041E050E06D2D7E818D8183DF8983882382
:102D400039F00E94AF07F701608371838283938318
:102D5000898126960FB6F894DEBF0FBECDBFDF91F6
:102D6000CF911F910F91FF90EF90DF90BF90AF90A8
:102D70009F908F900895F1E0F983EACFA1E0B0E051
:102D8000E4ECF6E10C94E92F0E944608898341E0C7
:102D90009091FF01981301C040E09E012F5F3F4FCB
:102DA00067E172E085E097DF2196E2E00C94053060
:102DB00041E09091FD0180914002981301C040E0F4
:102DC00020E432E063E172E083E085DF882371F084
:102DD00041E09091FE0180913002981301C040E0E3
:102DE00020E332E06FE072E084E075CF0895A6E062
:102DF000B0E0EDEFF6E10C94E32FC0901B02D09011
:102E00001C02E0901D02F0901E020E94AF07DC0140
:102E1000CB018C199D09AE09BF0921E084369105CB
:102E2000A105B10508F420E03091A9063983843664
:102E30009105A105B10520F480910002831321E0E2
:102E4000809199068A83211105C09091010211E0B9
:102E50009817C1F010E000E030E020E042E050E0E0
:102E6000BE016F5F7F4F86E0ECDE182F882351F0A4
:102E70000E94AF0760931B0270931C0280931D0297
:102E800090931E02812F2696E8E00C94FF2FA8E075
:102E9000B0E0EDE4F7E10C94E32FC0900B02D0908A
:102EA0000C02E0900D02F0900E020E94AF07DC01D0
:102EB000CB018C199D09AE09BF0911E0843691053B
:102EC000A105B10518F10E941709DC01CB0102969A
:102ED000A11DB11D89839A83AB83BC8310E000E000
:102EE00030E020E044E050E0BE016F5F7F4F82E0C1
:102EF000A8DE182F882351F00E94AF0760930B02C1
:102F000070930C0280930D0290930E02812F2896ED
:102F1000E8E00C94FF2F8F929F92AF92BF92EF92B6
:102F2000FF920F931F93CF93DF93CDB7DEB72A970E
:102F30000FB6F894DEBF0FBECDBF7B0101E010E0FD
:102F40009E012A5F3F4F50E040E070E060E080E08B
:102F500078DE182F882309F44BC0809007029090E8
:102F60000802A0900902B0900A020E94AF076F8386
:102F7000788789879A87DC01CB0188199909AA0982
:102F8000BB0984369105A105B10538F484EF91E0C1
:102F90000E9422069E81891759F105E010E09E01EA
:102FA0002F5F3F4F50E040E070E060E081E049DE9D
:102FB000082F84EF91E00E94220611E09E81981371
:102FC00010E0102301F10E94AF0760930702709395
:102FD00008028093090290930A0285E0FE0131966F
:102FE000A2E0B2E001900D928A95E1F711E00BC0EA
:102FF00085E0E4EFF1E0DE01119601900D928A95F3
:10300000E1F71111EACF85E0E2E0F2E0D7010190AB
:103010000D928A95E1F7812F2A960FB6F894DEBFBC
:103020000FBECDBFDF91CF911F910F91FF90EF9019
:10303000BF90AF909F908F9008951F920F920FB600
:103040000F9211242F933F934F935F936F937F932E
:103050008F939F93AF93BF93CF93DF93EF93FF93A0
:10306000D091E900DF708091EC00C82FC17080FD25
:10307000C0E81092E9008091F000877F8093F00013
:1030800078949ADA1092E9008091F0008860809339
:10309000F000CD2BCF70C093E900FF91EF91DF914D
:1030A000CF91BF91AF919F918F917F916F915F91E0
:1030B0004F913F912F910F900FBE0F901F90189539
:1030C0001F920F920FB60F9211242F933F934F939D
:1030D0005F936F937F938F939F93AF93BF93EF9380
:1030E000FF938091E10082FF09C08091E20082FF9E
:1030F00005C08091E1008B7F8093E1008091DA0030
:1031000080FF24C08091D80080FF20C08091DA0029
:103110008E7F8093DA008091D90080FFA9C080E182
:1031200089BD82E189BD09B400FEFDCF81E08093B5
:10313000B4068091A806811109C00E9447060E942A
:10314000E8068091E20084608093E2008091E100D3
:1031500080FF1AC08091E20080FF16C08091E200DB
:103160008E7F8093E2008091E20080618093E20094
:103170008091D80080628093D80019BC85E080934C
:10318000B40683E0809350018091E10084FF2FC05A
:103190008091E20084FF2BC080E189BD82E189BD7E
:1031A00009B400FEFDCF8091D8008F7D8093D800B8
:1031B0008091E1008F7E8093E1008091E2008F7E1C
:1031C0008093E2008091E20081608093E200809130
:1031D000B506882309F452C084E08093B406809138
:1031E000B406843009F452C081E08093500180918C
:1031F000E10083FF2CC08091E20083FF28C0809112
:10320000E100877F8093E10082E08093B406109212
:10321000B5068091E1008E7F8093E1008091E2000D
:103220008E7F8093E2008091E20080618093E200D3
:1032300042E060E080E00E94B6068091F000886085
:103240008093F00081E08093500180934F01FF91C3
:10325000EF91BF91AF919F918F917F916F915F910E
:103260004F913F912F910F900FBE0F901F90189587
:1032700019BC1092B4061092A80668CF8091E300A2
:1032800087FD02C081E0A9CF83E0A7CF82E0ADCF68
:1032900078941F921FB61F9211248F939F93AF9320
:1032A000BF938091A4069091A506A091A606B09127
:1032B000A7060196A11DB11D8093A4069093A506B3
:1032C000A093A606B093A706BF91AF919F918F914F
:1032D0001F901FBE1F9018952FB7F8948091A406D9
:1032E0009091A506A091A606B091A7062FBF0895BC
:1032F000A3E1B0E0EEE7F9E10C94DF2F1A82198226
:10330000FE01339688E0DF011D928A95E9F782E994
:10331000E82E81E0F82E10E000E0CC24C394D12CFC
:103320002DE9A22E21E0B22EF70181917F018F3F7E
:1033300009F445C0F894E82FE295EF70F0E021A180
:103340008F70A60102C0440F551F8A95E2F7CA018B
:10335000922F982B91A392A18095892382A3789490
:1033600000C0E7E9F1E031E0912C21912F3F09F411
:10337000B7C0A22FA295AF70B0E090968C9190E06C
:103380002F7002C0959587952A95E2F780FDA8C019
:10339000832F982A330FAE16BF0639F7F7013197FE
:1033A00080818F3F11F00E94FE0850EA5A95F1F794
:1033B000E1E0F0E0EC0FFD1FE00FF11F90820F5FE6
:1033C0001F4F0530110509F0AFCF4AE050E0BE01B4
:1033D0006F5F7F4F84E292E00E9432309C01892B24
:1033E00049F08AE0FE013196A4E2B2E001900D922C
:1033F0008A95E1F700912F0210E006591D4F232B0B
:1034000009F470C081E08093EB0166DF9093EA01DC
:103410008093E901F12CE0909C06EE2009F4BCC0F9
:103420001C861B86FE013D9683E0DF011D928A9576
:10343000E9F780911F028A3008F079C04BE857E124
:10344000BE01655F7F4FC8010E949D0C882309F46F
:1034500093C047E457E1BE01655F7F4FC8010E94FA
:103460009D0C882309F488C048ED56E1BE01655FD4
:103470007F4FC8010E949D0C882309F47DC04EEB4C
:1034800056E1BE01655F7F4FC8010E949D0C8823F5
:1034900009F472C047EF56E1BE01655F7F4FC80176
:1034A0000E949D0C882309F467C010921F0280912E
:1034B0002E0290E045E050E0BE01655F7F4F8659E7
:1034C0009D4F0E94323021E02093F201892B09F0B8
:1034D00046C0E12C8E2D8F296396ECE00C94FB2FD7
:1034E00080E057CFF090EB01FF2009F493CFC0901C
:1034F000E901D090EA01F0DE8C199D09059708F4E6
:1035000089CF45E050E064E272E0C8010E943230A9
:10351000892B59F085E0E4E2F2E0D80101900D92A8
:103520008A95E1F71092EB0176CFF12CFBCFC0909A
:10353000EC01D090ED01D0DE8C199D09843F9140C3
:1035400008F07CCF8091F201882319F2FE013B96AE
:1035500085E0DF011D928A95E9F71092F201A091B2
:103560002E02B0E0A659BD4F85E0FE013B960190CA
:103570000D928A95E1F7AECF80911F028F3F31F017
:103580008F5F80931F028A3008F491CFA5DE90935D
:10359000ED018093EC01D6CF85E0F801A4EFB1E016
:1035A00001900D928A95E1F784EF91E00E94220646
:1035B0008093F3018090F9019090FA01A090FB01B3
:1035C000B090FC018091EE019091EF01A091F0018B
:1035D000B091F10188169906AA06BB06B1F0809257
:1035E000EE019092EF01A092F001B092F1010E94E1
:1035F000AF07861A970AA80AB90A80922002909209
:103600002102A0922202B09223028091FD018093B8
:1036100040028091FE01809330028091FF018093EF
:103620009E0680910102909100029093A9068093DA
:10363000990650CFACE0B0E0E0E2FBE10C94D92F6A
:103640007C01DC0114968C91882309F492C161E01D
:10365000C7010E94CA0D8C01F7018581882341F1C1
:1036600080919A0690919B06009711F1081719070F
:10367000F9F09C013327807F9927F0E0E0E0892B67
:1036800041F48FE0829FF001839FF00D1124EE56EC
:10369000FD4F84818460848311830083CF010E9465
:1036A000620F1092990661E0C7010E94CA0D8C0159
:1036B000D70115968C91882309F4F2C0C801975759
:1036C0008038910508F01EC1003108F052C16FE347
:1036D00070E080E090E00E94160D81114AC1C12C7B
:1036E000D12C7601011148C004E09E012F5F3F4FAD
:1036F000590199249A94D501E02F1D92EA95E9F792
:1037000026013701FFEF4F1A5F0A6F0A7F0AC701D0
:10371000B6010E94160D8983882309F42AC18130DD
:1037200039F5A70196012E5F3F4F4F4F5F4F2D8315
:103730003E834F835887C301B2010E94160D182F94
:103740008A83882309F415C18FEF810F8330A0F598
:103750002601370133E0430E511C611C711C6D8141
:103760007E818F8198850E94160D8B838823E1F0DE
:10377000C5010E94941018C0B0E4CB16D104E10436
:10378000F10409F4F6C0C701B6010E94160D8111BB
:1037900001C00150EFEFCE1ADE0AEE0AFE0AA2CFF8
:1037A00049845A846B847C8473016201A4CF4D8068
:1037B0005E806F807884F8CF8BEF810F8330A0F527
:1037C000D701C6010396A11DB11D89879A87AB87D2
:1037D000BC876D817E818F8198850E94160D8B83B9
:1037E0008823F1F22601370194E0490E511C611C37
:1037F000711C69857A858B859C850E94160D8C834A
:10380000882391F28B819C818130AFEF9A0710F071
:10381000982F8827163021F0173021F0B2D7C4CF67
:103820008CD7C2CF06D7C0CF143009F0C0CF6D817E
:103830007E818F8198850E94160D182F26013701F1
:10384000B4E04B0E511C611C711CA70196012D5F49
:103850003F4F4F4F5F4F2D833E834F835887CA01A1
:10386000B9010E94160D112309F483C0882309F4BD
:1038700080C08150990B989E9001999E300D112423
:10388000412F4150550BCA01820F931F019708F435
:103890008BCFAFE9BFE01197F1F700C00000F6CF82
:1038A0006801E7E5DE1AFFEFCF16D10409F050F505
:1038B00068E872E08C2D0E94E90E892B19F58FE0E3
:1038C0008C9DF0018D9DF00D1124EE56FD4F8281EF
:1038D000813099F58091880290918902892B91F02D
:1038E00080918A0290918B02892B61F080918C02E9
:1038F00090918D0220918E0230918F02822B932B1A
:10390000892B19F1D70115963C903320B1F10E3572
:10391000BCE71B0759F10F35ECE71E0741F00D35E9
:10392000FCE71F0751F5809100018823F9F0109200
:10393000000180E00E94D40F1CC0823019F78091F2
:103940008C0290918D02892BE9F22FE02C9DC00111
:103950002D9D900D1124FC01EA56FD4F20812E7FF4
:1039600020838E569D4F0E94620FCCCF81E08093C2
:1039700000012C96E2E10C94F52F80910001882340
:1039800009F4E3C2380120EE621A71082090A906FA
:1039900038E06316710408F087C098012770332758
:1039A00081E090E001C0880F2A95EAF7332009F4FE
:1039B00078C0282AD7018D919C910E94540B21E058
:1039C00030E0290102C0440C551C8A95E2F7E091D1
:1039D0009706F0919806FE83ED832091BE01309109
:1039E000BF013A87298793E8C92E93E0D92EB12CDD
:1039F000A12CB0E1AB16B10409F41EC3211005C01F
:103A0000D60112968C9181118BC0F601838190E0D2
:103A100084219521892B09F483C08085982F977084
:103A200009F487E0F8E06F16710408F057C03320FE
:103A300009F450C086958170882309F471C0D601BD
:103A40008D909C900815190519F4332009F468C06D
:103A5000ED81FE81CE16DF0609F462C0D6011D9607
:103A6000ED91FC91309721F08081882309F458C0B2
:103A7000622DC6010E94B708882309F451C00815B9
:103A8000190509F0FFC20115110509F400C3311031
:103A900000C3E985FA858E169F0609F041C0312CD6
:103AA000F8C28095282286CF332009F4AEC2109345
:103AB000BF010093BE010E94AF0760938E06709312
:103AC0008F0680939006909391061092960610921E
:103AD000950670CF82FB882780F9AECF332001F1A5
:103AE0008170AACF0E94A90FF9C20497813A91056B
:103AF00058F46C2D86EB91E00E94DC07332009F42A
:103B000024C20E94190F35CF0E94190F8FE39CE940
:103B10000197F1F700C000008C2D0E943610EECF07
:103B20009FEFA91AB90AAFE0CA0ED11C62CFDC011F
:103B30002D913C910217130709F001C2311001C207
:103B40001092940680E00E94D40FFFC1902F812F25
:103B50003AC2FA014385548565857685C6010E947F
:103B60005C08D60114968C9181FF31C2C6010E9477
:103B7000490F80919A0690919B060817190709F042
:103B800026C210929B0610929A0621C2882349F001
:103B900081E00E94F10B43E062E081E00E94C80BEB
:103BA000E8CE81E00E94E60BF6CF82E0FBCF8823CF
:103BB00019F101303CE71307E9F003304CE7140733
:103BC00099F001155CE71507B9F41092A9060E9457
:103BD000CA128FEF94E3ACE081509040A040E1F72F
:103BE00000C000000E949E076FEF7FEF90E080E032
:103BF0000E9495300E94B015F701C080D1808823C3
:103C0000D9F1C6010E946F0D182F682FC6010E94BE
:103C1000880BB601812F0E94540D0E94390A182F7B
:103C2000C82ED70115962C91159716963C91329572
:103C30003F70D92ED2948FE0D822B8E0DB1609F479
:103C4000B4C0BD1578F1E3E0ED15D8F0092F0F7081
:103C5000907FF1E0FD15C8F5802F903211F082952C
:103C6000807FA1E0CA1270C0222309F467C03630F9
:103C700060F40E94A00F09C0C6010E94540B182FC7
:103C8000C8CF34E0D31609F476C04D2D4850550BFB
:103C90004430510510F40E94460860E0C7010E94BC
:103CA000CA0D67CE49E0D41609F4F0C086E08D0D48
:103CB0008F70823050F7812F52EF1513F7C0892F84
:103CC0008F71222309F428C1EEC0992311F00295C7
:103CD000007F812F2223C9F0002369F090E2910F29
:103CE000983010F011110BC08091A906082B009399
:103CF000A9060E94190F812F0E943610C6CF80910D
:103D00009906082B00939906F4CF0E94A90F00236F
:103D100009F4BBCF0095105E183010F0C11008C038
:103D20008091A90608230093A9060E94190FADCF20
:103D300080919906082300939906F7CF353008F053
:103D4000A4CF0E94960FA1CF222321F0332309F4A0
:103D500090CFD1CF3323A9F3193349F4BFEFE7EE66
:103D6000F3E0B150E040F040E1F700C00000812FE7
:103D70000E94A90F8ACF892F86958695837061F05E
:103D8000813009F082CF812F9370211102C080E031
:103D900090E00E94F60779CF812F9370211102C025
:103DA00080E090E00E941E0870CF892F8370A1F5FB
:103DB00021116BCF812F829586958770880F880F90
:103DC000412F4F70082E01C0440F0A94EAF7212FAB
:103DD000207114FF07C02FE030E001C0220F8A9548
:103DE000EAF72095969596959370923081F0822F00
:103DF000842B933031F080913002913029F0242BC4
:103E000082230E94FB0B41CF842B822BFACF242BE1
:103E1000809130028227F5CF8695222311F0892FD9
:103E20008170882309F431CF812F82958695877020
:103E3000880F880F412F4F70082E01C0440F0A943D
:103E4000EAF7212F207114FF07C02FE030E001C0F6
:103E5000220F8A95EAF72095969596959370923061
:103E600081F0822F842B933031F080914002913089
:103E700029F0242B82230E94BE0B07CF842B822B98
:103E8000FACF242B809140028227F5CF092F0F70A3
:103E9000222329F0802F0E94F10B812FEACE812F5F
:103EA0000E94960F802F0E94E60BEFCE42EF411743
:103EB00068F050EF1517B9F0A1EF1A1749F1222356
:103EC00071F1311118CF892F8F7126C0B3EF1B13F9
:103ED000F6CF80E0222379F29F7181E001C0880F44
:103EE0009A95EAF7C8CF222379F0353008F0CDCE85
:103EF000292F2F7181E090E001C0880F2A95EAF701
:103F0000909140028927B7CF363008F0BECEF0CF6F
:103F1000892F8F71222339F20E94F10BB6CE332301
:103F200059F0893309F023CFEFEFF7EE23E0E150AA
:103F3000F0402040E1F719CF892F8F71B4CF3320A3
:103F400021F0FC01808585FFFDCDC80197558F3F8D
:103F5000910511F008F084C0C801807F9927892B52
:103F600009F007CD2FE0029FF0011124AF014E565A
:103F70005D4F6A01D70115968C91EA56FD4F9081ED
:103F800080FB90F99083882309F4E3CDA5D9909321
:103F90003F0280933E02F60182818F5F828380918F
:103FA00099069091A906892B838345815681658561
:103FB0007685C6010E945C08D60114968C9181FF1B
:103FC000C5CD90E080E090939A0680939B06F70120
:103FD00085819801205E32452032310508F0E7CD19
:103FE00081110ACE0F7181E090E09C0102C0220F86
:103FF000331F0A95E2F78901622F83E090E00E9467
:104000007B30802F0E94FB0BB4CC8091BE0190913D
:10401000BF010817190781F41092BF011092BE0169
:1040200010928E0610928F061092900610929106B2
:104030001092960610929506809197069091980698
:10404000009709F482CFE8E06E16710408F06FCD96
:10405000622D0E94B708811103C081E00E94D40F35
:10406000D70115968C910737BCE71B0709F48ECD55
:104070000837ECE71E0709F0AACF882309F495CD8D
:1040800082E087CD8114910409F003CD312C912C6D
:10409000812C80E00E94D40FD0929806C09297069F
:1040A00081E0809394068FE08A9DF0018B9DF00D56
:1040B0001124ED57FC4F85818093920631100EC07C
:1040C0008114910459F0808191819C01245031091F
:1040D000213A310508F006CD0E94CF078FE08A9D76
:1040E000F0018B9DF00D1124ED57FC4FC680D78059
:1040F000C6019A9581159F4110F420EED222992491
:104100009394C60101978F339E4708F0912C8FE05E
:104110008A9DD0018B9DB00D1124AD57BC4F1996CF
:10412000ED91FC911A97309731F01B966D917C912F
:1041300081E0099598229920B1F08FE08A9DF001E5
:104140008B9DF00D1124ED57FC4F868197810E94C5
:104150000E0C80939306C60148E06416710408F0C3
:10416000C4CC0E9461080E94190FC8CCB0E0A0E046
:10417000ECEBF0E20C94E42F8091DE01807F09F0FB
:1041800050C08091DD01882309F44BC0E091F9060D
:1041900087E0D82E8091C0068E1709F442C00E2FFA
:1041A00010E0ED9DF0011124EF53F94F8481882335
:1041B000E9F1D09EE001D19ED00D1124FE01EF5314
:1041C000F94F91818091D901981330C090818091ED
:1041D000D80198132BC08581811128C0E280F3801B
:1041E0008091DA019091DB01E81AF90A60E088ED2C
:1041F00091E00E94CA0D0E94FD0EE816F906B0F487
:104200008091DE018F7080618093DE01C953D94FA8
:1042100088818F708061888388ED91E00BDA0E943D
:104220004A0BCDB7DEB7E7E00C940030F8013196C9
:10423000E770B0CFADE0B0E0E0E2F1E20C94DC2F4B
:104240008C0186E0F801DE01189601900D928A95A6
:10425000E1F7F801F480E58088ED882E81E0982E62
:104260008091DC01811128C0F11003C0FF24F39478
:104270001BC0EE20F1F0C8010E94A40DF82E882387
:10428000C1F087E0F801A8EDB1E001900D928A95A8
:10429000E1F78091DC01813031F48091D801909177
:1042A000D9010E94980D62DF8F2D2D96EFE00C94BE
:1042B000F82FC801BFD9DACFC280D380B090DD011A
:1042C0008091DA019091DB013601681A790ABB20EE
:1042D00009F4D4C05080A18060E088ED91E00E9494
:1042E000CA0D0E94FD0E6816790608F0A0C0FF20D6
:1042F00009F4BCCF8091DE01382F307F2091D901A5
:10430000F8019181311156C0FE2C291313C0209160
:10431000D801908129130EC0E11045C08F708061D3
:104320008093DE0188ED91E085D98091DE01F8016E
:104330008683BACFE11037C06A2D852D0E9404060E
:104340006A2D852D0E940406E82E8111ADCF588676
:10435000A986888599850E94980D292F22952F700E
:10436000903458F49F70223080F0992391F0F80136
:104370009681907F71F4FE2C97CF2A5F2F702230A8
:1043800060F0C80157D9EB2CF6CF992311F08823A0
:1043900091F3805E883078F3F4CF803F60F3815FE3
:1043A000833048F3EECF8091DE0181608093DE019F
:1043B000F12C7ACF291314C02091D80190812913B0
:1043C0000FC0E1100DC08683C80134D987E0F80121
:1043D000A8EDB1E001900D928A95E1F7FB2C64CF36
:1043E000C8010E94A40D882309F463CFEE2009F4CC
:1043F00060CF8091DE01803280F02091D801309131
:10440000D9013A832983DC82CB829091DC019D83A0
:104410001E828F83CE0101960DD987E0F801A8EDA9
:10442000B1E001900D928A95E1F7A0DE1FCF809157
:10443000DE01982F907F49F488ED91E0FBD887E06A
:10444000F40111928A95E9F7B3CFFF2009F40ECF5A
:104450002091D901F80191812913C2CF2091D8016F
:1044600090812913BDCFE110BBCF8683C801E2D86C
:1044700087E0F40111928A95E9F7B0CF60E088ED0A
:1044800091E00E94CA0D0E94FD0E68167906B8F6EA
:10449000FF2009F4EBCEFE2CEE2009F40ACF909118
:1044A000D901F801818198132BC09091D8018081A6
:1044B000981326C08091DA019091DB01C81AD90ABD
:1044C000F8ECCF16D10498F48091DE0180FD0FC086
:1044D000982F907F61F0F8018683903F31F0982FFC
:1044E000907F905F8F70892B8683C801A3D887E067
:1044F000F801A8EDB1E001900D928A95E1F7D4CED4
:10450000C8010E94A40D811188CF8091DE018160D5
:104510008093DE01C8018ED8C7CEABE1B0E0E3E9FD
:10452000F2E20C94E82F4E8B5F8B688F798F8A8F25
:104530009B8F9111109299061D8A86E0FE01769656
:10454000DE011F9601900D928A95E1F78B898823F1
:1045500051F061E0CE010F960E94CA0D61E0CE01DC
:104560000F960E94CA0D87E0FE013F96DE01189665
:1045700001900D928A95E1F7CE0108965BDE8111DC
:104580000CC087E0FE013896DE01119601900D9275
:104590008A95E1F74C8541110BC017E08091F9062F
:1045A0009091C006891334C06B96E3E00C940430FC
:1045B0002091C00630E0C90101968770992750917B
:1045C000F90658171906A1F04D8397E0929FD00184
:1045D000939FB00D1124AF53B94FFE013196019056
:1045E0000D929A95E1F78093C0060E944A0BD5CFB1
:1045F0001092A9060E94CA121092C0061092F906E3
:1046000087E0E8EDF1E0DF011D928A95E9F7C5CF7B
:10461000819FC00111248F53994F0CDE882321F212
:104620008091F90690E00196877099278093F906AA
:10463000B5CFA6E0B0E0EFE1F3E20C94E72F8C01F8
:104640009093770280937602011580E21807C0F4F8
:10465000802F0E94A90FC8010E940E0C9801205EB5
:1046600031092830310518F00115110531F40E9487
:10467000960F2696E4E00C9403300E94830FF9CF46
:1046800080EF89838A830E946C198160682F9C83E4
:104690008B8349815A817C8181E090E03EDFE9CFC4
:1046A0000F931F93CF93DF938C01EB0168E872E0C7
:1046B0008C2F0E94E90E892B71F4DD27C858DD4F3D
:1046C0008881F801128218828330E9F048F4813041
:1046D00059F0823081F0DF91CF911F910F910895B1
:1046E0008430B1F08530B9F78091880290918902C9
:1046F000009789F306C080918A0290918B020097FF
:1047000099F397DFE8CF80918C0290918D02F7CFDB
:1047100080918E0290918F02009799F720918802E4
:104720003091890280918A0290918B022115310586
:10473000F9F2009731F7C901E4CFA6E0B0E0E3EA6F
:10474000F3E20C94E92F909377028093760281151F
:1047500020E2920730F40E9448112696E2E00C9481
:10476000053080EF89838A830E946C198160682FED
:104770009C838B8349815A817C8181E091E0CDDEED
:10478000ECCFCF93DF93D82FC92FD7DF8D2F9C2F5E
:1047900050DFDF91CF9108950F931F93CF93DF9355
:1047A0008C01862F68E872E00E94E90E892B99F44B
:1047B000C0918802D0918902209769F0F801828126
:1047C000833039F4CE01DDDFCE01DBDFCE01D9DF6E
:1047D00002C08430D8F7DF91CF911F910F910895D7
:1047E0000F931F93CF93DF938C01EB0168E872E086
:1047F0008C2F0E94E90E892B09F059C0FE01FF277A
:10480000D80112968C911297E858FD4F8130B9F477
:1048100014969C9192FF02C080830AC090FFFCCF47
:1048200082E0808380918A0290918B020097B9F494
:1048300080918802909189020097C9F110C082305E
:10484000A1F514968C9182FD26C080FD0AC083E0FC
:10485000808380918C0290918D020097F1F06DDF42
:1048600026C084E0808380918E0290918F02009711
:10487000B1F780918802909189020097E9F081DF79
:1048800080918A0290918B02009749F7809188026B
:1048900090918902E4CF85E0808380918802909195
:1048A0008902009721F06DDFF1CF86E08083DF91F0
:1048B000CF911F910F91089580918A0290918B0260
:1048C000BBCFA6E0B0E0E7E6F4E20C94E72F0E944D
:1048D0006C198C018091E7019091E8018017910794
:1048E00079F019821A820E946C19682F49815A81C5
:1048F000792F80E090E011DE1093E8010093E7014A
:104900002696E4E00C9403301F921FB61F921124E8
:104910008F939F93AF93BF938091A306811113C090
:104920008091A4069091A506A091A606B091A70635
:104930004196A11DB11D8093A4069093A506A09356
:10494000A606B093A706BF91AF919F918F911F903C
:104950001FBE1F901895CF93DF93EC010E946C1936
:104960008C1B9D0BDF91CF910895CDB7DEB7AF972C
:104970000FB6F894DEBF0FBECDBF85B7806885BF88
:1049800085B7806885BF84B7877F84BF0FB6F894EA
:10499000A89580916000886180936000109260000B
:1049A0000FBE80E890E00FB6F8948093610090937A
:1049B00061000FBE81E0809350018CEF98E09093EE
:1049C000B5018093B4010E94D7080E9446120E944C
:1049D00047060E94E8068091E20084608093E2002E
:1049E00078948091B4068823A1F01091E9001F709B
:1049F0009091EC00892F817090FD80E8182B109227
:104A0000E9008091E80083FD0E94DC121F70109382
:104A1000E90082E084BD93E095BD9AEF97BD809355
:104A20006E00109220021092210210922202109227
:104A300023020E94FD0C811102C00E94C40E8091CD
:104A4000D80080618093D8002AE12A95F1F700C050
:104A50008091D900182F117080FD04C00E94470674
:104A60001092B40610939C0610939D061093390182
:104A700011110E94712E809139018091390195E0C8
:104A8000811190E090932F0285E0891B80932E0284
:104A900002E911E037E9E32E31E0F32ED8018D91E0
:104AA0008D018F3F11F00E94FE08E016F106B1F76C
:104AB00007E911E02DE9E22E21E0F22EF8018191C3
:104AC0008F018F3F11F00E94FE08E016F106B1F74A
:104AD0008AE0EAE6F2E0DF01282F1D922A95E9F745
:104AE000E4E2F2E0DF011D928A95E9F790E080E0D0
:104AF0000E946730833E9E4F21F40E94FD0C81117D
:104B000029C063EE7EEF90E080E00E94953060E087
:104B100082E090E00E947B3081E08093300261E08F
:104B200083E090E00E947B3060E074E184E090E0FC
:104B30000E9495300E94C40E40E050E0BA018FE020
:104B400090E00E948D3040E050E0BA0183E190E0B7
:104B50000E948D3082E090E00E945F3080933302AB
:104B600084E090E00E94673090933202809331029B
:104B70000E947819EFEFF6E721E0E150F040204085
:104B8000E1F700C000000E94781980916A0280FF5E
:104B900008C06FEF7FEF90E080E00E9495300E94A8
:104BA0009E0783E090E00E945F300E94FB0B83E051
:104BB0008093610280E28093730433D76BE070E0EE
:104BC0008BE591E00E94C715882389F180916102ED
:104BD00065E070E081FD96C086E591E00E94C71512
:104BE000882329F16DE070E084E491E00E94C7150C
:104BF0008823E9F00E94AF076BA77CA78DA79EA72B
:104C0000DC01CB01805A9541AF4FBF4F80937E06A8
:104C100090937F06A0938006B09381060E94311284
:104C200081E08093830680938206109262028091D5
:104C30009C06811102C00E94742E8AE391E0909339
:104C4000BF068093BE068AE692E03AE0380F3FA79F
:104C50008091B40610E400E192E1F92E853009F468
:104C600087C00E94781904E312E08AE6682E82E089
:104C7000782E2EE332E0D301F80191918D912E1719
:104C80003F0709F481C09817C1F380909C06BAE6EB
:104C9000EB2EB2E0FB2ED12CD701CD907D01F80197
:104CA00091908F019C1429F19C24B12CAA24A394E7
:104CB000892D8A21B1F08820A1F0B982DA820E9480
:104CC0006C199C838B83F1E0FD8391E08C2D8A210C
:104CD00009F490E09E8349815A816B817C818D81AA
:104CE0001CDCB394AA0C26E0B212E2CFF801319793
:104CF000C082D3943AE0D312CFCF0E941709FF2489
:104D0000F39446C081E591E069CF8091B406843088
:104D100029F10E94D4151092A30648E150E00FB685
:104D2000F894A895409360000FBE1093600083B77D
:104D3000817F846083BF83B7816083BF78948895C7
:104D400083B78E7F83BF0FB6F894A89580916000DB
:104D5000886180936000109260000FBE0E947819F5
:104D6000EAE6F2E081918111E4C55FA55E13FACF16
:104D70008091B406853009F4C8CF1092A9060E942C
:104D8000CA120E9446086DCF98137FCF9ADDF12C8E
:104D900080919C06882309F46EC0009195061091BD
:104DA000960601151105C1F180908A0690908B0638
:104DB000A0908C06B0908D060E94AF076BA77CA7D1
:104DC0008DA79EA7DC01CB0188199909AA09BB0907
:104DD00040918606509187066091880670918906F9
:104DE00084179507A607B707B8F0C8010E944811B5
:104DF000109296061092950610928A0610928B06D3
:104E000010928C0610928D061092860610928706DC
:104E10001092880610928906C0909A06D0909B0640
:104E2000C114D10441F1A0903E02B0903F020E9413
:104E30006C198C010A191B09C6010E94FD0E80170E
:104E40009107C8F480919A0690919B069C013327A4
:104E5000807F9927892B09F0ECC04FE0429FC00169
:104E6000439F900D11248E569D4FDC0114962C917A
:104E700022FF0E94620F80918306882309F48BC071
:104E800000916302109164020E946C19801B910BC7
:104E9000C29708F456C00E946C19909364028093E4
:104EA000630286E794E090937D0680937C06809170
:104EB0009C06882309F4C0C01091A9060E944608E8
:104EC00081FB002700F90E943112812F827261E07C
:104ED00009F460E08CE791E00E941E1260E08BE72D
:104EE00091E00E941E1261E0812F817109F460E05F
:104EF00086E791E00E941E1260E085E791E00E9443
:104F00001E1261E0812F847409F460E081E791E072
:104F10000E941E1260E080E791E00E941E12187845
:104F200061E009F460E08CE691E00E941E1260E00E
:104F30008BE691E00E941E12602F86E691E00E94AF
:104F40001E128091740490917504892B09F0B2C0EF
:104F5000809182068823F9F00E94AF076BA77CA797
:104F60008DA79EA780917E0690917F06A0918006D6
:104F7000B09181062BA53CA54DA55EA5281B390B3C
:104F80004A0B5B0BDA01C9018F3F9F4FAF4FBF4701
:104F900010F40E94D415F1100E94EE150E944608EC
:104FA00090916502891721F0809365020E94AF07F6
:104FB0008091B406843009F04BCE83E08093E90001
:104FC0008091E80082FF44CE8091E80090E085FF68
:104FD0000CC00E94660640E2E42EF12C8E010F5FA9
:104FE0001F4F882309F44AC191E08091E8008B7734
:104FF0008093E800992309F42BCE0091740210915C
:105000007502E9810115110509F446C1EE3F09F069
:1050100067C18A81833020F08550833008F060C1F9
:10502000EA81EE3008F05CC1F0E0E454FF4C0C94EF
:105030001C3090E080E019CF809140020E94FE0B6E
:10504000182F0E94311260E085EA91E00E941E1242
:105050008CE991E0111102C080EA91E060E00E94C9
:105060001E1260E084EA91E00E941E1283E991E042
:10507000113011F487E991E060E00E941E1260E0B7
:105080008BE991E00E941E128AE891E0123011F43F
:105090008EE891E060E00E941E1260E082E991E0FB
:1050A0000E941E1282E891E0133011F486E891E02C
:1050B00060E045CF80918306882309F449CF809131
:1050C0006202811145CF0E94EE1520917404309147
:1050D00075042115310509F43BCF80E041E050E033
:1050E000082F10E04A01082E02C0880C991C0A946F
:1050F000E2F7B90168217921672B11F48F5FF0CFB6
:105100009091610290FF97C0880F880F880F80935D
:10511000480110924B01895F8093490183E080939D
:105120004C0124E630E047E050E066E471E088E7B7
:10513000AED4892B09F00CCFA801F5E0440F551F20
:10514000FA95E1F78091610280FF87C0E1E4F2E027
:1051500080E2DF011D928A95E9F7E1EAF1E0FCA720
:10516000EBA76DE971E0E7E0DE2ECC24C394EBA55C
:10517000FCA5A191FCA7EBA7FB018191BF01840FC6
:10518000952F911D9C012A583B4F2901EA2FF0E0F1
:10519000EF5BFD4F90E080E0AD2CA81AEC2C082EC0
:1051A00001C0EE0C0A94EAF7120100E0D1011D9152
:1051B0001D011E212A2D201B2770B22E022E000C4D
:1051C000330BB12F01C0BB0FBA94EAF7BB2E319558
:1051D000219531092770332701C016952A95EAF7E2
:1051E000B12A1081B12AB0820F5F0830F9F601961A
:1051F00031968830910581F6EBA5FCA5E55AF14082
:1052000009F0B5CF04E610E020E230E041E452E0DE
:1052100060E488E7C4D4892B09F09ACE80949094F6
:10522000809174049091750488229922909275045B
:10523000809274048DCE8295880F80768093480189
:105240009801369527953695279520934B01815ED9
:105250008093490120934C0164CF4A585B4F04E688
:1052600010E020E230E0D4CF8091F100D8018D939E
:105270008D01B1E0EB1AF10809F4B6CE8091E80097
:1052800085FDF2CF8091E8008B778093E8000E9443
:105290006606882399F3A8CEE43148F4EE2351F052
:1052A000E150E33138F4F0E0E653FF4CC5C6EE3F81
:1052B00009F4B6CE8FEF898313C01A8289E08B83FD
:1052C0000FC08A81823009F451C3833071F081307C
:1052D00089F70E94AF07B6D66B837C838D839E834C
:1052E000CE0101960E943906B3CC8091840690913C
:1052F0008506892BA9F3FE013396D3018D913D01DB
:105300008193B4E76B16B2E07B06B9F7E9CF8A81E7
:10531000823081F62B813C814D815E812BA73CA799
:105320004DA75EA7CA01B9018DD688E290E0E3D609
:10533000D7CF4C816B818A810E94250D98278927C0
:1053400098279E838D83CCCF2D813E8132272327C2
:1053500032274C816B818A810E94D60CC1CF0E947A
:10536000500EBECF80E18A83BBCF1A8280E4A7CFE4
:105370008C818D3108F0B4CF8A809B809824892459
:105380009824C82ED12CF12CE12C2401712C612CF5
:1053900037EB831A3CEF930AAE014F5F5F4F5A0120
:1053A00010E000E0C401800F911FA80170E060E0F0
:1053B0004C155D056E057F0508F092CF440D551D17
:1053C000661D771D403451056105710550F477D68F
:1053D000D50114968C930F5F1F4FFFEFAF1ABF0AD2
:1053E000E1CFF5011482F7CF809184069091850674
:1053F000892B09F475CF8C818D3108F071CF8A80AB
:105400009B80982489249824C82ED12CF12CE12C3F
:105410002401712C612C27EB821A2CEF920AAE0129
:105420004F5F5F4F5A0110E000E0C401800F911FF1
:10543000A80170E060E04C155D056E057F0508F081
:105440004FCF440D551D661D771D40345105610534
:10545000710520F4D50114966C914DD60F5F1F4F46
:10546000BFEFAB1ABB0AE1CF0E94F20D39CF84E047
:105470007ACF8C818D3108F033CF882E912CB12CCE
:10548000A12CCA80DB80DC24CD24DC24F12CE12C8F
:105490008E010F5F1F4F412C512C3201C60189969E
:1054A000481459046A047B0408F01ACFE0EECE16C3
:1054B000E1E0DE06E104F10488F401D6D801149697
:1054C0008C93FFEF4F1A5F0A6F0A7F0A0F5F1F4F1F
:1054D0002FEFC21AD20AE20AF20AE0CFF8011482D0
:1054E000F0CF2C81A22EB12C2D3108F0F9CE8A817B
:1054F0009B81982789279827803E31E0930708F001
:10550000EFCEC22ED12CF12CE12C2C01712C612C70
:1055100040EE51E060E070E04419550966097709F2
:105520004C155D056E057F0508F4DACE1C0149E2D5
:10553000240E311C2091840630918506232B19F10D
:10554000CE0101965C0110E000E0C101800F911FC7
:10555000A80170E060E04C155D056E057F0508F060
:10556000BFCE440D551D661D771D403E514061055F
:10557000710518F4F5016481BED50F5F1F4FFFEF71
:10558000AF1ABF0AE2CF8C010170112780FF0BC058
:10559000889695D59D8189279827892781159C47CD
:1055A00011F48FEF8D83D701C601840D951DA61DC3
:1055B000B71D450180FF19C0B1E08B1A9108E5E0E5
:1055C000F0E0EC0FFD1FE80DF91DFCA7EBA7C101F2
:1055D0008A0D9B1D74D5ABA5BCA59C9181159C47DC
:1055E00021F48FEFEBA5FCA58083E1E0F0E0EC0F68
:1055F000FD1FE00FF11F2FEF0815190508F0A0CFD0
:105600009481858181159C4711F4248325830E5F45
:105610001F4F3296F1CF8091840690918506892B99
:1056200009F45ECECE0101960E9439062FEF31EECD
:1056300044E0215030404040E1F700C00000AFCAD4
:1056400088E0E1E5F1E0DE01919601900D928A9506
:10565000E1F7FE013D9684E1DF011D928A95E9F7AD
:1056600086E089831A821B821C8288E07496DE01A0
:10567000159601900D928A95E1F732CE8CE98983D7
:10568000B1E0BA831B821C822BCE8C81682F70E024
:10569000762F66278B81860F972F911D092E000C80
:1056A000AA0BBB0B35E0880F991FAA1FBB1F3A95A9
:1056B000D1F7AC01BD01405E5F4F6F4F7F4F803E21
:1056C000EFEF9E07AE07BE0708F00ACE8C39F1E077
:1056D0009F07A105B10508F003CE4D3921E052071F
:1056E0006105710520F04CE951E060E070E0481B75
:1056F000590BBC0165557E4FCE010196AAD4F0CD61
:105700004AE150E06FEF70E0CE010796C1D480917E
:10571000840689830A8384E08B838C8399E09D834C
:105720008E83DECD81E090E09093750280937402C9
:1057300082E390E090936902809368020E946C1962
:105740009093670280936602CBCD012B71F1E090BC
:105750006E02F090730200916602109167020E943F
:105760006C19801B910B8536910540F1E4FE26C033
:10577000F4FE24C00E946C19909367028093660225
:1057800080916802909169020197909369028093D9
:105790006802892B51F4109275021092740281E014
:1057A00090E0909385068093840680918406898397
:1057B000809174028A838091680281CD82E390E0B7
:1057C0009093690280936802F0CF10928506109240
:1057D000840686CD40E250E06FEF70E0CE01019686
:1057E00057D47ECD8B81823009F451C080F4811171
:1057F00037C0FE0135968BE1DF011D928A95E9F7EE
:1058000080E189831A828B831C8218A269CD85303E
:1058100009F472C0863009F063CD1C818AE0FE0174
:105820003596DE01919601900D928A95E1F78BA154
:105830009CA10E94EF089CA38BA38FEF103160F412
:10584000FAE01F9FB001112467557D4F4AE050E0F8
:10585000CE0181966ED480E089830E94461240CDAD
:105860008C819AE0F92E8E010F5D1F4FF8012F2DCC
:1058700011922A95E9F7B8010E94E90E8983F8018F
:10588000DE01129601900D92FA94E1F729CD1C8168
:105890008AE0FE013596DE01919601900D928A957F
:1058A000E1F789A19AA10E94EF089AA389A38BA18D
:1058B0009CA10E94EF089CA38BA38DA19EA10E9496
:1058C000EF089EA38DA38FA198A50E94EF0898A72B
:1058D0008FA38FEF103160F43AE0139FB0011124D1
:1058E000675F7D4F4AE050E0CE01819622D480E090
:1058F00089830E94D708F4CC6C812AE0CE0181967E
:10590000DC01E22F1D92EA95E9F7603180F4629F95
:10591000B001112467557D4F4AE050E0C0D380E0CC
:1059200089838AE0FE01B196DE011296A2CE8FEF46
:10593000F7CF8091B306882309F41ACA09BDF9BCD0
:1059400009B400FEFDCF8091D8008F7D8093D800F0
:105950008091E00082608093E0008091E00081FD12
:10596000FCCF1092A9060E94CA1202CA88E290E0F7
:10597000A6D31B821C821D82D3CEFF920F931F934E
:10598000CF93DF93182FEB011092BC0084EA809331
:10599000BC000E946C19082FF92E8091BC0087FF73
:1059A00028C08091B900887F883029F08091B900A3
:1059B000887F803199F51093BB0084E88093BC0008
:1059C0000E946C19182F092F8091BC0087FF1EC000
:1059D0002091B900287F90E080E0283199F081E0A3
:1059E00090E0203411F490E080E091958195910948
:1059F00009C0802F9F2D0E94AB24C817D90768F6D5
:105A00008EEF9FEFCDB7DEB7E5E0FCC2812F902F80
:105A10000E94AB24C817D907B8F6F2CF8FEF9FEFDB
:105A2000F1CF1092B9008CE08093B80008950F93E5
:105A30001F93CF93DF93EB018093BB0084E88093A7
:105A4000BC000E946C19182F092F8091BC0087FFA1
:105A500011C02091B900287F81E090E0283211F434
:105A600090E080E0919581959109DF91CF911F9110
:105A70000F910895CF3FDC0741F3812F902F0E94B3
:105A8000AB24C817D90708F78EEF9FEFEECFB0E031
:105A9000A0E0ECE4FDE292C2782E5B016A0189018C
:105AA0000E946C197C0188248394912C0431110587
:105AB00058F085E0882E912C0F3F100729F0C8017F
:105AC00064E170E062D24B01B401872D56DFEC0136
:105AD00097FF09C00F3F1007B9F3C7010E94AB241D
