:10000000D1C50000ECC50000EAC500000C94312FFA
:10001000E6C50000E4C50000E2C50000E0C5000040
:10002000DEC50000DCC500000C94EE180C94AB1883
:100030000C941225D4C50000D2C50000D0C5000024
:10004000CEC50000CCC50000CAC50000C8C5000070
:10005000C6C500000C94D619C2C50000C0C500007A
:10006000BEC50000BCC50000BAC50000B8C5000090
:10007000B6C50000B4C50000B2C50000B0C50000A0
:10008000AEC50000ACC50000AAC50000A8C50000B0
:10009000A6C50000A4C50000A2C50000A0C50000C0
:1000A0009EC500009CC500009AC50000050109809E
:1000B000A101850319012AB700150126B700950192
:1000C00075108100C0050C0901A101850419012AE0
:1000D000A002150126A002950175108100C00660DE
:1000E000FF0961A1010962150026FF00952075082E
:1000F00081020963150026FF00952075089102C052
:1001000005010906A101050719E029E715002501E8
:10011000950875018102950175088101050719008F
:1001200029FF150026FF00950675088100050819AE
:1001300001290515002501950575019102950175A7
:10014000039101C000DA0281FFD9F1DB20A4A62EC1
:10015000AF00A0C0D30000A1C8D30000AED580A8D6
:100160001F408D142000434150530000434D440074
:1001700000414C5400004354524C0000534849463F
:100180005400FD377A585A000004E6D6B4460200FF
:10019000210116000000742FE5A3E005C7015C5D96
:1001A000003D8889C65436C3174FE4E20F535D9073
:1001B00075DB08C965CE09CBAEF2FFD16E9644530C
:1001C0001750A9573CF31C36AD768D7A7A850BC94A
:1001D000433E38EE515A3E9C7DCEB4C813B9F1CFA0
:1001E0008867CEB8A9BF34EAE3499914A741D55727
:1001F0006A229C4F0765976DEDE65205C276003383
:1002000060F788AF8348607DF4FD32CB5CB4A31304
:100210000FA779664A7A762F3B30DDCAA3AAFD6123
:100220007C0E3B1587C37683075D3BDD124776E581
:10023000A83D1F79BCA9EAD200281FB159F0128746
:100240008D588EB0E9D5FFF4E903A04E8AAB492B57
:1002500016A40CD6DB26072A60542BABFF818648F8
:1002600010D3DE5CC6B9BB689DF8152AF17BB84790
:10027000E73BB48E1DC999D80C800D5362FBA3A730
:10028000CA47DAC48DA5D400E4E0B68391325BFEA0
:100290007CB952F711374FBEFCB3E328B73538109D
:1002A0002A1B49CA110AF865AD63E9DB025F78A32E
:1002B00096C6F1162682AA735DAB26F1710555F438
:1002C000D70A2670CB8BE97F1031D1D48C8FFE7486
:1002D000B9BAE044C24CBC510C2D33D5C383EC4DAC
:1002E000C6E7B18A91DCFD2D84C79284B72A1FE648
:1002F000A8020BE48425F3DCA34CFFF38400D5496A
:10030000FD2D4E472EFA0001F802C80B0000C13542
:10031000F8FFB1C467FB020000000004595A000056
:10032000000000003E5B4F5B3E003E6B4F6B3E00AB
:100330001C3E7C3E1C00183C7E3C18001C577D5720
:100340001C001C5E7F5E1C0000183C180000FFE7CC
:10035000C3E7FF00001824180000FFE7DBE7FF00F9
:1003600030483A060E00262979292600407F0505E7
:100370000700407F05253F005A3CE73C5A007F3E7E
:100380001C1C0800081C1C3E7F0014227F22140045
:100390005F5F005F5F0006097F017F00006689954F
:1003A0006A0060606060600094A2FFA2940008048C
:1003B0007E04080010207E20100008082A1C080077
:1003C000081C2A0808001E10101010000C1E0C1E1D
:1003D0000C0030383E383000060E3E0E060000009D
:1003E0000000000000005F000000000700070000A0
:1003F000147F147F1400242A7F2A12002313086418
:100400006200364956205000000807030000001C17
:10041000224100000041221C00002A1C7F1C2A00EF
:1004200008083E080800008070300000080808082E
:1004300008000000606000002010080402003E5127
:1004400049453E0000427F4000007249494946004C
:100450002141494D33001814127F100027454545AE
:1004600039003C4A49493100412111090700364908
:1004700049493600464949291E0000001400000081
:100480000040340000000008142241001414141429
:1004900014000041221408000201590906003E41DF
:1004A0005D594E007C1211127C007F49494936008B
:1004B0003E41414122007F4141413E007F4949493F
:1004C00041007F09090901003E41415173007F0845
:1004D00008087F0000417F4100002040413F0100AB
:1004E0007F08142241007F40404040007F021C02F0
:1004F0007F007F0408107F003E4141413E007F099C
:10050000090906003E4151215E007F091929460074
:1005100026494949320003017F0103003F40404022
:100520003F001F2040201F003F4038403F00631421
:10053000081463000304780403006159494D430023
:10054000007F414141000204081020000041414168
:100550007F000402010204004040404040000003CC
:10056000070800002054547840007F284444380095
:10057000384444442800384444287F0038545454B4
:10058000180000087E0902001824241C78007F0847
:100590000404780000447D4000002040403D0000FD
:1005A0007F102844000000417F4000007C04780454
:1005B00078007C08040478003844444438007C18EF
:1005C00024241800182424187C007C080404080043
:1005D00048545454240004043F4424003C40402028
:1005E0007C001C2040201C003C4030403C00442843
:1005F000102844004C9090907C004464544C44007B
:100600000008364100000000770000000041360875
:1006100000000201020402003C2623263C000000E8
:1006200000000080808080000000000080E07018E2
:100630000C1830E080000010F8901030783010B8BE
:10064000FC3810000000000000F8FCF8000000007A
:100650000000000000000000001C9C1C00000000C6
:10066000F8FCF80000000000001CFCF8C0000000CE
:1006700000000080E0F87C1C000000F0FCFCFC1C8A
:100680001C1C1C1C1C1C1C000000000000C0F0F8FE
:10069000381C1C1C1C1C1C3CF8F0E000E0F0F0F0C6
:1006A000E0ECEEF7F37020007C7C7C7E007E7E7EAA
:1006B0007F7F7F000080C0E07E5B4F5BFEC000005C
:1006C000C000DCD7DEDEDED7DC00C00000000000AA
:1006D000000000000000000000000000000000001A
:1006E0000000000FBCE0818181838382870C183079
:1006F00060C000001FFE90B9FFBB91983C18111319
:100700003F1100000000000000FFFFFF000000009C
:10071000000000000000000000FFFFFF00000000DC
:10072000FFFFFF0000000000000000030F7FF8E063
:1007300080F0FC3F0F0100000000003F3F3F1C1C09
:100740001C1C1C3C78F8F0E08000000000C3E7FFB0
:100750007E3C3878787070F8FFDF87000F1F3F7F8E
:100760007F7F7F7F3F1E0C001F1F1F3F003F3F3FCB
:100770007F7F7F00307B7F7830202030787F3B0088
:1007800003000F7F0F0F0F7F0F000300000000001A
:100790000000000000000000000000000000183C05
:1007A00024666341C18180808080808081C14162F4
:1007B000386C4CC68181808080808081C1436236E4
:1007C0001C1800000000000000FFFFFFC0C0C0C0F8
:1007D000C0C0C0C0C0800000007FFF7F00000000DC
:1007E0007FFFFFC080000000E0E0C0C0C0E0F97FF4
:1007F0001F0700000000000000000070F0E0E0C0F3
:10080000C0C0C0E0F0F87F3F0F0000000F3F7FF94D
:10081000E0E0C0C0C0C0C0E0F97F3F1F00000000A2
:1008200000000000000000000000000000000000C8
:1008300000000000000000000000000000000000B8
:1008400000000000000000000000000000000000A8
:10085000000000000000000000000000000000AFE9
:1008600000AE29001E001F002000210022002B00E6
:1008700014001A00080015001700E000040016001C
:10088000070009000A00E1001D001B000600190016
:10089000050000002152E300E2002C002F0035008B
:1008A000270026002500240023002D00130012003D
:1008B0000C0018001C00340033000F000E000D0067
:1008C0000B00E50038003700360010001100000072
:1008D0002252E7002A002800300001000100010038
:1008E00001000100010001001E021F02200221027E
:1008F000220201001E001F00200021002200010032
:1009000001000100010001000100000001000100E0
:1009100001000100010001000100010001000100CF
:100920000100010027022602250224022302010001
:1009300027002600250024002300010030022F029A
:100940002E0235003102000001000100010001000B
:1009500001000100010001000100010001003A0056
:100960003B003C003D003E003F0001000100010053
:10097000010001000100010001000100010001006F
:100980000100000001000100010001000100010060
:100990000100010001000100010045004400430086
:1009A00042004100400000004F0052005100500042
:1009B00000000100310030002F002E002E02000048
:1009C0000100010001000100010000000000000022
:1009D0000000000000000000000000000000000017
:1009E0000000000000000000000000000000000007
:1009F00000000000000000000000000001000100F5
:100A000001000100000000000000000000000000E4
:100A100000000000000000000000000000000000D6
:100A200000000000000000000000000000000000C6
:100A300000000000000000000100010001000100B2
:100A4000000009025B00030100A0FA090400000194
:100A50000301010009211101000122440007058161
:100A6000030800010904010002030000000921112C
:100A7000010001222200070582032000010705036F
:100A800003200001090402000103000000092111F4
:100A90000100012232000705840320000112010039
:100AA0000200000008D8042DEB0001010203011C24
:100AB000037600690061006C003A0066003600347D
:100AC000006300320062003300630000000E034C3C
:100AD0000069006C00790035003800000010036CDC
:100AE0000069006C00690075006D0073000000046F
:100AF00003090400000000000000000000000000E6
:100B000000000000000000000000000000000000E5
:100B1000000000000000007E0F00D4FFFFFFC700B0
:100B200000007800000000000000002A2B280000D0
:100B3000000000000000000000000000000029008C
:100B40000000002C1E3420212224342627252E3696
:100B50002D3738271E1F2021222324252633333604
:100B60002E37381F0405060708090A0B0C0D0E0F57
:100B7000101112131415161718191A1B1C1D2F31DA
:100B800030232D350405060708090A0B0C0D0E0F3E
:100B9000101112131415161718191A1B1C1D2F31BA
:100BA00030354C0011241FBECFEFDAE0DEBFCDBFE1
:100BB00011E0A0E0B1E0E4EBF2E602C005900D9296
:100BC000A23DB107D9F727E0A2EDB1E001C01D9227
:100BD000A831B207E1F70E9443250C942D3110CAC9
:100BE000982FE09117074091DE0657E0E41302C00A
:100BF00080E008952E2F30E05E9FF0011124E15235
:100C0000F94F8181681306C08081981303C08581E4
:100C10008111EFCFF9013196E770E8CFFC01AC010B
:100C20004B5F5F4F8FEF91E32191822728E030E007
:100C300087FF09C0880F892721503109C9F7E417B8
:100C4000F50791F70895880FF7CFE091DC06F09152
:100C5000DD06309739F00284F385E02D309711F0EE
:100C600060E209950895E8EDF0E080818E7F808351
:100C70001092E2001092DA001092E100A0EEB0E0D3
:100C80008C9181608C9380818F77808319BCA7EDD4
:100C9000B0E08C918E7F8C9380818F7E80831092C8
:100CA000C60608952091E4003091E50095E6A9017B
:100CB0002091EC00822F817020FF06C08091E80017
:100CC00080FF06C080E008952091E80022FD1AC050
:100CD0008091D206882389F0853089F08091EB00DD
:100CE00085FD0FC02091E4003091E50042175307C5
:100CF000F9F29150E1F684E0089582E0089583E0EE
:100D0000089581E008958091D40687FF13C08091F3
:100D1000E80082FF06C08091E8008B778093E800AE
:100D200004C08091D2068111F2CF08958091D2063D
:100D30008823D9F38091E80080FFF8CF8091E80004
:100D40008E77ECCF982F9093E900242F762F50E0E8
:100D5000891731F07091EC002091ED005091F00076
:100D600021FD07C09F5F973071F78093E90081E014
:100D700008953091EB003E7F3093EB003091ED0011
:100D80003D7F3093ED003091EB0031603093EB000C
:100D90007093EC002093ED005093F0002091EE0052
:100DA00027FDE0CF80E00895B0E0A0E0EAEDF6E0B6
:100DB0000C946030C8EDD0E088818F7E8883E7EDA9
:100DC000F0E080818160808384E082BF81E0809355
:100DD000C60688818E7F888302EE10E0F8011082BB
:100DE0001092DA0081EEC82ED12CF6011082888193
:100DF0008F77888388818068888388818F7D8883C6
:100E000019BC1092D2061092D3061092D1061092FD
:100E1000D00690EEE92EF12CF70180818B7F808344
:100E200088818160888342E060E080E08BDFF601AA
:100E300080818E7F8083F8018081816080838081C2
:100E400088608083F70180818E7F808388818061C4
:100E50008883CDB7DEB7E8E00C947C30FC01CB0191
:100E60002091DA063091DB062617370790F00097BD
:100E700029F42091E8002E772093E80040E00097C5
:100E800051F4411108C08091E80082FF31C080E038
:100E90000895C901F3CF2091D2062223A9F125306C
:100EA000A9F12091E80023FD2DC02091E80022FD4A
:100EB000EACF2091E80020FFE2CF3091F3002091AB
:100EC000F200009719F02830310558F041E0283041
:100ED000310509F040E02091E8002E772093E800EA
:100EE000CECF41914093F10001972F5F3F4FE9CF63
:100EF0008091D206882341F0853041F08091E8004E
:100F000083FFC1CF81E0089582E0089583E00895D2
:100F10000895089587E797E7909301088093000864
:100F200088E19AE00FB6F894A895809360000FBE10
:100F300090936000FFCFA4E0B0E0E1EAF7E00C940A
:100F400066308FB7F8942091C2063091C306409165
:100F5000C4065091C50629833A834B835C838FBFB7
:100F600069817A818B819C812496E2E00C948230A5
:100F700080914F010895E6EDF1E09191891303C04E
:100F8000DF0111971C9291E0EC3DF907B1F708954C
:100F90009C01FC0132968FEF90E04191461751F091
:100FA0008F3F19F4411101C0892F9F5F9630A9F737
:100FB0008F3F09F40895280F311D87FD3A95F901F7
:100FC00062830895A3E0B0E0E8EEF7E00C946630A9
:100FD0009C018091BF069091C00682179307B1F0E3
:100FE0003093C0062093BF06E091DC06F091DD0649
:100FF000309761F00084F185E02D309739F084E07E
:1010000089833B832A83CE01019609952396E2E0EA
:101010000C948230A3E0B0E0E0E1F8E00C9466309C
:101020009C018091BD069091BE0682179307B1F096
:101030003093BE062093BD06E091DC06F091DD06FC
:10104000309761F00084F185E02D309739F083E02E
:1010500089833B832A83CE01019609952396E2E09A
:101060000C9482308091BA06811103C08091BC0635
:101070000895E091DC06F091DD06309739F001909B
:10108000F081E02D309711F00995089580E00895E2
:10109000FA01309709F009950895CF92DF92EF9207
:1010A000FF92CF93DF9300D000D000D0CDB7DEB752
:1010B0008E839D83C090AC06D090AD06E090AE06C6
:1010C000F090AF0638DFDC01CB018C199D09AE0929
:1010D000BF09843F9140A105B10538F5C092A8062B
:1010E000D092A906E092AA06F092AB0684EF91E0B6
:1010F000A0E0B0E08093A4069093A506A093A60676
:10110000B093A7068E818093B3069D819093B40619
:1011100026960FB6F894DEBF0FBECDBFDF91CF91FC
:10112000FF90EF90DF90CF90089505DF6093A806C1
:101130007093A9068093AA069093AB0682E390E091
:10114000A0E0B0E0D7CFFC018481862351F48281F6
:101150008823B9F06823908593FF05C081E0611171
:101160000FC080E00895282F2F7082958F70282B54
:10117000962F9F7062956F70692B81E02613F1CFD7
:10118000089581E0FDCF30919B068317A0F590E094
:10119000262F269526952695239F800D911D112497
:1011A000811522E092073CF5FC01E556FB4F50818A
:1011B000677021E030E001C0220F6A95EAF744230E
:1011C000D9F0252B2517B9F0208325E09695879532
:1011D0002A95E1F721E030E002C0220F331F8A9503
:1011E000E2F78091990490919A04822B932B90932B
:1011F0009A0480939904089520952523E3CFB0E0C5
:10120000A0E0E5E0F9E00C945D30182FF62E042FF5
:10121000E82EC0E0D1E081E009C081E0DD3129F0B5
:10122000CC2319F0CD3109F080E0DF5F011102C05D
:1012300080FF04C041E06E2D8D2FA5DFDE3169F700
:10124000CF5FE394CE3131F787E0F89EE0011124BF
:10125000CB54DE4FEE24E394E10E2DE1F22EF10E9D
:1012600041E004271AE084E0C82ED12C888190E068
:101270000C2C02C0959587950A94E2F780FF11C067
:10128000A12C9E2C9A0C9CEFB92EB10E402F692DEB
:101290008B2D79DFB3941B11F9CFA39484E0A812AE
:1012A000F0CF81E0C81AD1081C5F1E31F9F62196F3
:1012B00084E0E80EFE10D6CFCDB7DEB7EBE00C949D
:1012C0007930E0EBF2E090E080E06AE574E24EE72E
:1012D00054E22EED33E2768365835087478332876D
:1012E00021879687858701963F968031910599F7EA
:1012F000089581152CE7920741F42091A2063091C0
:10130000A306232B11F490E080E0089580E0089577
:10131000F894E82FE295EF70F0E041A18F7021E0A2
:1013200030E0B90102C0660F771F8A95E2F7CB0162
:10133000962F9095942391A392A1892B82A37894C0
:101340000895A4E0B0E0E7EAF9E00C9466308091FB
:10135000BA06882369F0EFDD69837A838B839C83E7
:1013600069817A818B819C812496E2E00C948230A1
:10137000E2DD69837A838B839C8380913E02909126
:101380003F02A0914002B091410229813A814B81F4
:101390005C81280F391F4A1F5B1F29833A834B83C7
:1013A0005C83DECF90914F0292FF10C041E0282F66
:1013B0002471243009F040E031E0282F28712830D2
:1013C00009F030E0431711F02CE0822793FF10C0A2
:1013D00041E0282F2471243109F040E031E0282F2A
:1013E0002871283109F030E0431711F02CE08227F2
:1013F0003091500230FF10C051E0282F2171213070
:1014000009F050E041E0282F2871283009F040E031
:10141000541711F029E0822731FF10C041E0282F36
:101420002171213109F040E031E0282F2871283165
:1014300009F030E0431711F029E0822794FD877E00
:101440000895803E9105C1F1C8F48133910509F4F6
:101450007DC048F48932910509F46DC08A32910546
:1014600009F47BC0089589339105D1F08238910544
:10147000B9F08533910509F459C00895843E91056A
:10148000C1F138F4823E910521F1833E910531F19D
:101490000895863E9105C1F1873E9105E1F10895D9
:1014A00020914F02237009F065C02091500223FF64
:1014B00014C089E290E0089520914F0220FD43C0BE
:1014C0003091500230FF09C024FF4EC090E080E010
:1014D000089520914F0222FDF7CF089520914F02E9
:1014E00022FD45C03091500230FD44C024FFF5CFAD
:1014F000EDCF2091500221FFF0CF80914F0284FD6B
:10150000E5CF87EE90E0089520914F0223FFE5CFCD
:1015100024FDDCCFF6CF20914F0223FD2EC0309169
:10152000500231FFE3CF84EE90E0089520914F0206
:1015300025FFD3CFBECF20914F0225FD21C02091A2
:10154000500223FFCACF89E390E0C7CF20914F021A
:1015500026FFC3CF8AE290E0089520914F0226FF34
:10156000BCCF81E390E0089583EE90E0089582EE91
:1015700090E0089580EE90E0089586EE90E0089562
:1015800085E390E008951F93CF93DF935ADFEC013A
:10159000C11580E5D80708F052C0C11580E4D8070E
:1015A00008F0BFC0C03ED10530F5CD3CD10508F0F4
:1015B000A7C0C83AD10578F4C53AD10508F09DC056
:1015C000C130D10531F1CE010497813A910508F17E
:1015D000D0E0C0E01EC0CE01885A91094B97C0F7F9
:1015E000C85AD0E0CC0FDD1FC55ADE4F0990D88114
:1015F000C02DD4640EC0C11580E2D80778F4CF3F67
:10160000D10511F008F07EC0CE01805E91090897E7
:10161000F8F6CE01DF91CF911F9108958D2F8F7134
:10162000C1DE182FCE0199270CDFC12FD0E0DC2FAF
:10163000CC27CC27DF71C82BD92BD062EACFC0369C
:1016400082E5D80748F5C03482E5D80708F086C09F
:10165000C03282E5D807C8F4C11582E5D80708F082
:1016600069C08C2F8F719EDE65E0D695C7956A950F
:10167000E1F7CF70D0E0DC2FCC27282F30E084FDBD
:101680008CC0C22BD32BD069C4CFCF71D0E0DC2F5C
:10169000CC27C16FD06ABDCFC03C82E5D80700F52A
:1016A000C03A82E5D80708F06EC0CE018056924558
:1016B000809708F08DCF2C2F26952695277080E2F5
:1016C000289F900111248C2F8370C1E0D0E002C0CC
:1016D000CC0FDD1F8A95E2F7C22BD32BDA6899CFA6
:1016E000CE01805C9245809708F072CFDC2FCC272A
:1016F000CC27DF71C06FD06A8CCFA497D06489CF1C
:10170000D06587CF8D2F4EDE182FCE01992799DE19
:10171000C12FD0E0DC2FCC27CC27DF71C82BD92BF1
:1017200078CFCE0199278DDECC27DF70C82BD92B3F
:10173000D06A6FCF2C2F2695269580E2289F9001A6
:1017400011248C2F8370C1E0D0E002C0CC0FDD1FCC
:101750008A95E2F7C22BD32BDD685BCF2C2F269521
:101760002695277080E2289F900111248C2F83708A
:10177000C1E0D0E002C0CC0FDD1F8A95E2F7C22B9A
:10178000D32BDC6846CF8C2F8F710CDEC82FD0E0B6
:10179000DC2FCC27CC27DF713CCF84E0220F331F16
:1017A0008A95E1F733276DCF809117079091DE0678
:1017B000981301C008958F5F8770FACF292F9A3050
:1017C00078F5863068F590E036E0239F800D911D16
:1017D0001124682F677023E0969587952A95E1F785
:1017E000FC01EE0FFF1FE80FF91FE252FE4F50E021
:1017F00040E080E0219130E0062E02C0369527952A
:101800000A94E2F721703327042E01C0220F0A94B4
:10181000EAF7822B4F5F5F4F4330510559F7089528
:1018200080E00895292F9A3090F5863080F590E079
:1018300036E0239F800D911D1124282F277041E051
:1018400001C0440F2A95EAF723E0969587952A95DB
:10185000E1F7FC01EE0FFF1FE80FF91FE252FE4F08
:1018600090E080E070E05191DF0111979B01082E1C
:1018700002C0369527950A94E2F721702195252715
:10188000242325272C9301968330910561F7089531
:10189000982F9670963021F4886080935E020895A8
:1018A000877FFBCF90915E0221E030E0F90101C01B
:1018B000EE0F8A95EAF7D90102C0AA0FBB1F6A95FD
:1018C000E2F7EA2B01C0220F4A95EAF7892F8E230F
:1018D000E81303C0292B822FDBCF20952923FBCFD0
:1018E00021E030E001C0220F8A95EAF7209580912F
:1018F0005E028223CDCF21E030E001C0220F8A9525
:10190000EAF780915E02822BC3CF80934E02089546
:10191000982F82958F7011F0982F84E0292F2695AB
:10192000269511F08E5F922F969509F08F5F08959E
:101930009C019A9581159F4150F5D901AA27B17054
:10194000F901EE27F270B90166277470A9014427E6
:10195000587034FF0EC080E1AB2B09F480E0EF2B10
:1019600009F08062672B09F08064452B89F080685C
:10197000089581E0AB2B09F480E0EF2B09F0826041
:10198000672B09F08460452B19F08860089580E08A
:1019900008950F931F93CF93DF938B01EA019091EA
:1019A000D206943059F58093E9008FEF9091E800CA
:1019B000815095FD06C095ED9A95F1F700008111D3
:1019C000F5CF8091E80085FF19C06CD9811111C055
:1019D0008091E80085FD06C08091E8008E778093B5
:1019E000E800F3CFF80181918F018093F1002197F6
:1019F00079F78091E8008E778093E800DF91CF91AE
:101A00001F910F910895BC0143E050E084E0C1CFE5
:101A1000CF93DF93D82FC92F48E050E0682F792F5C
:101A200081E0B7DF88E0ED2FFC2FA8ECB6E0019055
:101A30000D928A95E1F7DF91CF910895792F603269
:101A400029F440E250E0682F82E0A3CF0895B0E08F
:101A5000A0E0EDE2FDE00C945E30F82EE92ED62EEB
:101A6000C72E8A0180913D02AA24A394B12C8A300A
:101A700018F48AE0A82EB12CC1E0D0E06D2D7C2DA9
:101A80008F2D9E2DF8010995811104C02196AC1669
:101A9000BD062CF4CDB7DEB7EAE00C947A30CC9FCB
:101AA0009001CD9F300D300D112490E080E045E392
:101AB0004A95F1F70000019682179307C1F7DECF30
:101AC0001F93CF93DF93962F122F632F8430D8F478
:101AD0009A30C8F44630B8F4C42FD0E0CC0FDD1FE4
:101AE0002CE0929FC00DD11D112498E7899FC00D55
:101AF000D11D1124CE0189960E94F830612FCE01AC
:101B00008A960E94F830DF91CF911F91089585E267
:101B100090E00E94DC30803989F486E290E00E94F7
:101B2000DC30873B59F487E290E00E94DC3091E0A2
:101B30008E3409F090E0892F8170089580E0FCCF09
:101B4000462F572FBC01CA01875B9C4F4038510577
:101B50006105710510F40C94DC3080E008950F935A
:101B60001F93CF93DF93843030F56A3020F54630F1
:101B700010F5C42FD0E0CC0FDD1F2CE0629FC00D0C
:101B8000D11D112438E7839FC00DD11D1124CE0132
:101B900089960E94DC30082F10E0102F0027CE011C
:101BA0008A960E94DC309801282BC901DF91CF91E1
:101BB0001F910F91089590E080E0F8CF462F672F96
:101BC0002091920230919302232B81F4703F39F4DB
:101BD000403F61F4809194029091950208957A308B
:101BE00028F4463018F4843008F4B9CF80E090E04F
:101BF0000895B0E0A0E0EFEFFDE00C9461307C01CF
:101C000000915E0280914E02082BC3E0D0E010E00C
:101C1000DC2EC8010C2E02C0959587950A94E2F738
:101C200080FD09C02197A0F7D12C8D2DCDB7DEB74F
:101C3000E7E00C947D30B7018C2FC0DFA4DC019766
:101C400089F3F3CFCF93DF93D82FC92FD2DF6D2F36
:101C50007C2FB4DF98DCDF91CF910895FC01848163
:101C6000882399F080819181EDDF282F92959F70D4
:101C7000963091F060F4925F9F70923030F481E082
:101C8000203F81F030F4283E30F080E004C09A5FBD
:101C9000F3CF243FD1F7089581E0283E20F0213F83
:101CA000A1F7F9CF08950895A6E0B0E0EAE5FEE0D7
:101CB0000C9465309C0186E0F901DE0111960190DB
:101CC0000D928A95E1F7F901258189819A81222374
:101CD00081F0662371F08DDF182F682F89819A813A
:101CE000A1DD69817A81812F69DF2696E3E00C947A
:101CF000813064DD182FF5CF4F925F926F927F9203
:101D0000AF92BF92CF92DF92EF92FF920F931F9309
:101D1000CF93DF93CDB7DEB760970FB6F894DEBFF1
:101D20000FBECDBF1A821982FE0133968EE0DF010D
:101D30001D928A95E9F708E010E099E4A92E93E056
:101D4000B92E20E8422E512C612C712C6201B1E198
:101D50004B165104610471042CF080E1C82ED12C83
:101D6000E12CF12CA601B501CE0101960E94E930CB
:101D7000AC0CBD1C0D2C000CEE08FF084C185D08C7
:101D80006E087F080150110909F760960FB6F894A4
:101D9000DEBF0FBECDBFDF91CF911F910F91FF909E
:101DA000EF90DF90CF90BF90AF907F906F905F905B
:101DB0004F900895AAE0B0E0E0EEFEE00C945B30B6
:101DC000A090A206B090A30681E090E09093A306B5
:101DD0008093A206912C812CE12C6401F12C14C07B
:101DE000F80125913491472D6F2D8E2D69DE0E5F00
:101DF0001F4F739486E07812F3CF96E0C90ED11C82
:101E0000F394EAE0FE1639F08601000F111F0E5917
:101E1000174F712CE5CFE394FCE38F0E911C84E007
:101E2000E812DBCF1A8219821C821B821E821D825D
:101E300018861F8288EC90E09A87898709E012E073
:101E4000FE0131967F014AE050E0B801C7010E94CF
:101E50001631065F1F4F093AF2E01F07A1F789E02C
:101E6000F70111928A95E9F78FEF9FEF9E838D839B
:101E700087E08A874AE050E0B801C7010E94163126
:101E8000065F1F4F0934F3E01F07A1F7B092A306C6
:101E9000A092A2062A96EDE00C9477306FEF85E2CF
:101EA00090E00E94F8306FEF86E290E00E94F830F8
:101EB0006FEF87E290E00E94F83060E088E290E007
:101EC0000E94F83077DF18DF60E985E290E00E9439
:101ED000F83067EB86E290E00E94F8306EE487E22B
:101EE00090E00C94F830282FCB01203168F43AE0D0
:101EF000239FB0011124675F7D4F4AE050E00E94AC
:101F0000CC3090E080E008958FEF9FEF0895AAE035
:101F1000B0E0EDE8FFE00C9466309C0197558F3FF0
:101F2000910509F068F4BE016F5F7F4F822FDBDF00
:101F3000892B31F489859A852A96E2E00C948230C7
:101F400088EC90E0F9CF8091C7069091B706892B75
:101F50009091B006909589239091B106892B80933A
:101F6000D40148E050E06DEF71E084ED91E00E9413
:101F7000AF30892BB9F088E0E4EDF1E0ADEFB1E0EE
:101F800001900D928A95E1F7E091DC06F091DD0673
:101F9000309741F00280F381E02D309719F084ED05
:101FA00091E009950895CF93DF93EC0149855A8517
:101FB0006D857E856DD88B81982F90958091B70621
:101FC00089238093B706BFDF85E0FE0111928A95D1
:101FD000E9F7DF91CF910895CF93DF93EC018C81E6
:101FE00081FD0FC082608C838091B7069B81892B15
:101FF0008093B706A8DF4F8158856D857E85CE0119
:1020000047D81092B9061092B8068C8180FD02C0A4
:10201000CE01C9DFDF91CF910895882339F08095F3
:102020009091B70689238093B7068DCF08958823B2
:1020300031F09091B706892B8093B70684CF08952D
:10204000882339F080959091C70689238093C7062D
:102050007ACF0895882331F09091C706892B809319
:10206000C70671CF0895882359F19CEF980F913AD4
:1020700018F40E94BB0767CF90E2980F983088F45D
:10208000877021E030E0A90102C0440F551F8A95F6
:10209000E2F7CA0180959091C70689238093C7060D
:1020A000EACF9BE5980F933020F490E080E00C9409
:1020B0000A08885A8B3120F490E080E00C94E20703
:1020C0000895FF920F931F93CF93DF93F82E009103
:1020D000B5061091B6060115110509F448C0109215
:1020E000B4061092B3061092B0061092B106D80151
:1020F0001696CD91DC91CE019A9581159F4108F4F9
:10210000D07ED1E0C11101C0D0E0D8011996ED9187
:10211000FC911A97309731F01B966D917C9180E07D
:102120000995D823DD2339F08CEF8C0F813A28F5FF
:102130008C2F0E94BB07FF2099F0E091B506F0912B
:10214000B606808584FD0CC08091B206882341F0DC
:10215000808191819C01215031092F333E4788F0C5
:10216000F2DE1092B6061092B5061092B206C801C1
:10217000CDB7DEB7E5E00C947F30E5DE8C2F73DF62
:10218000DACF0E944D08ECCFCF93C82F882399F067
:102190008CEF8C0F813A88F4E6EDF1E08191C8175D
:1021A000B1F121E0EC3DF207C9F76C2F84ED91E02D
:1021B0000E94C807C8DECF91089580E28C0F883056
:1021C00068F4C77021E030E001C0220FCA95EAF739
:1021D0008091C706822B8093C706ECCF8BE58C0FCE
:1021E000833038F42C2F2452330BC9010E940A0883
:1021F000E2CFC85ACB31F8F6EC2FF0E0EE0FFF1F1C
:10220000E55AFE4F808191810E94E207D4CF8C2F46
:102210000E94BB0798DEC9CF1F93CF93DF93182F7F
:10222000EB01B2DF209731F4812F1DDFDF91CF91D9
:102230001F9108958FE99FE00197F1F700C000001A
:102240002197F0CFB0E0A0E0E8E2F1E10C945E303D
:10225000FC018AE0B82EDF012D918D012223D1F1FE
:10226000213009F051C08181813061F482818F0178
:102270000D5F1F4F70E060E0893311F460E570E09E
:10228000CBDF07C0823039F48F010D5F1F4F828191
:102290007BDFF801E0CF833031F48F010D5F1F4FFA
:1022A0008281E1DEF6CF8F010E5F1F4F843081F413
:1022B00082818F010D5F1F4F30E020E0682F605357
:1022C000770BAB016A30710550F02115310599F497
:1022D0008111DFCFCDB7DEB7EAE00C947A30B29E41
:1022E000C001B39E900D11249A01280F391FF801E7
:1022F00081918F01E3CFAFE9BFE01197F1F700C003
:10230000000021503109E1CFE22FF0E0ED5DF44F04
:10231000A490822F86958695869590E0FC01ED5ECF
:10232000F44FE4902770F12C022E02C0F594E7944C
:102330000A94E2F7B1E0EB22FF24FC01ED5FF44FD9
:10234000C490D12C022E02C0D594C7940A94E2F70F
:10235000E1E0CE22DD24FC01ED50F54FC491D0E048
:1023600002C0D595C7952A95E2F7C170DD27E11423
:10237000F10411F081EE08DFC114D10411F086EEF2
:1023800003DF70E060E08A2D47DFC114D10411F053
:1023900086EE69DEE114F10411F081EE64DECD2BEE
:1023A00009F477CF70E060E08CE26ACFCF93DF93DF
:1023B000EC01BEDA9E01205E31092830310510F0B3
:1023C000209731F447DE8C2FDFDEDF91CF91089527
:1023D0002EDEF9CF1F93CF93DF93982F162F81E036
:1023E0009A3019F09D3031F480E084D0DF91CF91A4
:1023F0001F910895C0919704D091980486E0FE0142
:10240000A1E9B4E001900D928A95E1F7903E90F138
:1024100086E0FE0111928A95E9F7C0919704D09168
:102420009804111133C046E050E0BE0181E994E008
:102430000E94AF309E012B593440892B91F52A5FC1
:102440003F4F40919B06642F70E0C9010E944230CB
:10245000481B463010F4240F311D211572E0370758
:1024600010F030E020E025563B4F30939804209345
:102470009704BCCFF6E09F9FB0011124625E7C4FB1
:1024800046E050E0CE010E94A630C7CF9E012A5FF1
:102490003F4FFE012E173F0731F2808180958193D7
:1024A000F9CFC90145E0969587954A95E1F741E056
:1024B00050E0BA0102C0660F771F8A95E2F7CB01A0
:1024C0006091990470919A04862B972BB9016B5FE8
:1024D0007F4FE5E076956795EA95E1F702C0440FF6
:1024E000551F6A95E2F7842B952B90939A0480935D
:1024F0009904A5CFCF93382FE0919704F0919804D9
:10250000EB59F44020919B06622F70E0CF010E94AE
:102510004230281B822F332361F066E00E948D3009
:10252000C82FC15010F4CF91089560E080E252DFCF
:10253000F8CF9F01280F311D2115324018F080E09F
:10254000F0E0E0E08E0F9F2F911D85569B4F9093FA
:10255000980480939704E7CF1F93CF93DF93EC0108
:10256000162FFE018491811106C081E0C3DFDF9147
:10257000CF911F910895612F2DDF2196F2CFEBE9C6
:10258000F4E080E092E0DF019C011D922150304098
:10259000E1F7F0939804E09397048FEF9FEF909307
:1025A0009A04809399040895AAE0B0E0EAEDF2E17C
:1025B0000C945E3001EA13E089EAE82E82E0F82EFE
:1025C00096E0B92E20EAC22E23E0D22EAA24A394AC
:1025D0004AE050E0B701CE0101960E94CC30F801EC
:1025E0003996DF018B2D1D928A95E9F789819A81B1
:1025F000D80111969C938E938F8112968C9312978B
:102600008D8113968C931397888514968C931497C9
:10261000898515968C9315978B819C8117969C9331
:102620008E93169718961C9218978A8587FF3CC040
:102630001E961C921E921D9780FF03C0D80118960B
:10264000AC9281FF04C0F80190859260908782FF70
:1026500007C0D80118969C911897946018969C937F
:1026600083FF04C0F80190859860908784FF07C0BD
:10267000D80118969C911897906118969C9385FFA5
:1026800004C0F801808580628087FAE0EF0EF11CBB
:10269000015F1F4F89E4E81683E0F80609F098CF40
:1026A0002A96EAE00C947A30F801D686C586C4CF23
:1026B000E6EDF1E086E0DF011D928A95E9F790E012
:1026C00080E00E940A0890E080E00E94E2071092F9
:1026D000B70639CCAAE2B0E0E0E7F3E10C9465304C
:1026E00084ED96E0FC0101962091F100208326E024
:1026F0008C3D9207B9F78091D506893009F45BC00B
:10270000C8F4823009F4B8C0833009F487C081303E
:1027100099F18091E80083FF3BC18091D4069091AC
:10272000D5069A3008F034C1E92FF0E0E15DFE4CA7
:102730000C9499308A3009F48EC08B3051F7809117
:10274000D406813231F78091D8069091D906892B31
:1027500001F78091E800877F8093E8000E9483065C
:1027600081E09091D606911101C080E080935001E4
:102770001092C7069DDFCDCF8091D406813A49F6ED
:102780008091E800877F8093E8008091D80690913F
:10279000D906892B61F468E088EC96E070E00E942D
:1027A0002E078091E8008B778093E800B2CF60E03D
:1027B00090E080E0F3CF8091D406813209F0A9CF78
:1027C0008091D8069091D9068D7F892B09F0A1CFF1
:1027D0008091E800877F8093E8008091E80082FF85
:1027E00018C09091F3008091F200029731F480912B
:1027F000F100813011F0863021F48091F100809356
:102800004F018091E8008B778093E8000E94830657
:1028100080CF8091D2068111E0CF7BCF8091D4060A
:10282000813A09F076CF8091D8069091D906892B0C
:1028300009F06FCF8091E800877F8093E800809156
:10284000E80080FFFCCF809150018093F1008091DF
:10285000E8008E77D9CF8091D406813209F059CF24
:102860008091E800877F8093E8000E948306809132
:10287000D70680934E014DCF8091D406813A09F05E
:1028800048CF8091E800877F8093E8008091E8003E
:1028900080FFFCCF80914E01D8CF803899F08238EC
:1028A00009F076C08091D8068F70873008F070C02C
:1028B0008093E9008091EB0085FB882780F91092D6
:1028C000E90006C08091D0069091D10691118260F6
:1028D0009091E800977F9093E8008093F100109228
:1028E000F1008091E8008E77C4C1882309F4B1C15A
:1028F000823009F04DC08091D6068111B5C180911A
:10290000D8068F702FEF280F263008F041C0809333
:10291000E9002091EB0020FFA7C1933031F48091B2
:10292000EB0080628093EB009FC19091EB0090617F
:102930009093EB0021E030E001C0220F8A95EAF786
:102940002093EA001092EA008091EB008860EACFC1
:1029500081111EC01091D6061F778091E300807808
:10296000812B8093E3008091E800877F8093E800CB
:102970000E9483068091E80080FFFCCF8091E300F5
:1029800080688093E30082E0111183E08093D20697
:102990008091E80083FF0AC08091E800877F8093E0
:1029A000E8008091EB0080628093EB00AA96E3E060
:1029B0000C9481308058823058F74091D60650915F
:1029C000D7064C3D83E05807A1F583E08A838AE26D
:1029D00089834FB7F894DE01139620E03EE051E280
:1029E000E32FF0E050935700E49120FF03C0E295FD
:1029F000EF703F5FEF708E2F90E0EA30C0F0C79627
:102A00008D939D932F5F243159F74FBF8091E8003C
:102A1000877F8093E8006AE270E0CE0101960E9411
:102A20002E078091E8008B778093E800B1CFC096A5
:102A3000E7CF8091D8069091D906252F33272330F0
:102A4000310509F44AC078F52130310509F486C012
:102A50008BE590E0E2E4FAE02230310509F098CF0E
:102A60002091E800277F2093E8002091DA0630913A
:102A7000DB068217930708F49C0140E0211531051D
:102A800009F071C041116FC08091E80082FDC9CF8B
:102A90008091D206882329F2853019F28091E800CE
:102AA00083FFF2CFBECF2132310509F448C0223274
:102AB000310509F06DCF8330910508F069CFFC0135
:102AC000EE0FFF1FE755FE4F0190F081E02D8A5574
:102AD0009E4FDC018C9190E026C0CA0199274230BC
:102AE00031F18330910568F40097B1F0019709F056
:102AF0004FCFEDEDFAE0E4918E2F90E0EDEDFAE0AE
:102B000012C0039709F044CFEFEAFAE0E4918E2F68
:102B100090E0EFEAFAE007C0EFEEFAE0E4918E2FE2
:102B200090E0EFEEFAE0009709F432CF99CFEDECA8
:102B3000FAE0E4918E2F90E0EDECFAE0F4CF8330F0
:102B4000910508F025CF880F991FFC01E155FE4F34
:102B50000190F081E02D89E090E082CF82E190E069
:102B6000EDE9FAE07DCF8091D206882309F459CFB0
:102B7000853009F456CF8091E80083FD52CF8091D3
:102B8000E80082FD81CF8091E80080FF77CF9091AF
:102B9000F3008091F2002115310519F0883091057C
:102BA00050F041E0089709F040E08091E8008E770E
:102BB0008093E80063CF44914093F1003196215017
:102BC00031090196E8CF803809F0E2CE8091E80023
:102BD000877F8093E8008091D3068093F10081CEB7
:102BE0008111D6CE1091D606123008F0D1CE809148
:102BF000E800877F8093E8001093D3060E94830645
:102C0000112311F084E005C08091E30087FDFACF25
:102C100081E08093D20642E061EC81E00E94A2064E
:102C200042E261EC84E00E94A20642E261EC82E0B2
:102C30000E94A20642E260EC83E00E94A20680911C
:102C4000D206843021F081E080935101A1CE82E050
:102C5000FBCF8091D606813009F09ACE81E0933087
:102C600009F080E08093D1061092E9008091E8009D
:102C7000877F8093E8000E9483068ACE1092C70661
:102C800017DD2FEF84E39CE0215080409040E1F776
:102C900000C0000088E19AE00FB6F894A8958093F0
:102CA00060000FBE90936000FFCFAB0124E630E0E0
:102CB000BC0188E70E94072E9C0181E0232B09F0CC
:102CC00080E008958091A0069091A106911103C023
:102CD00091E089270895882361F062E070E080E642
:102CE00098E0E3DF811103C08091A006089510925F
:102CF000A0068091A006ECCFA5E0B0E0E2E8F6E106
:102D00000C9466308091A0068D838091A106882363
:102D1000E9F00E949B07DC01CB01805A9541AF4F3F
:102D2000BF4F80939C0690939D06A0939E06B09300
:102D30009F068D81811107C062E070E08EE598E00A
:102D4000B4DF811108C08091A0068D838D81259606
:102D5000E2E00C94823081E08093A006F4CFB0E0F2
:102D6000A0E0E5EBF6E10C946030FA01690178012E
:102D7000C82F880FDD0B3097B1F0DE0193E0AA0F6A
:102D8000BB1F9A95E1F7AF5FBE4F11968D919C9155
:102D900012978F5E9D4F4C9150E0E417F50708F4B1
:102DA000AF010E94BC30CE010E94D22F182F882381
:102DB000D1F0E114F104B9F083E0CC0FDD1F8A9566
:102DC000E1F7FE01EF5FFE4F438150E0E416F506A8
:102DD00008F4A701CF5FDE4F6C817D816F5E7D4F70
:102DE000C6010E94BC30812FCDB7DEB7E8E00C945D
:102DF0007C308F929F92AF92BF92DF92EF92FF92C0
:102E00000F931F93CF93DF9300D000D000D0CDB7A6
:102E1000DEB78D837B01142FD22E3E83DB018D9094
:102E20009D90AD90BC900E949B07DC01CB0188195E
:102E30009909AA09BB0984369105A105B10510F4C9
:102E4000112339F110E000E030E020E041E050E0F3
:102E50006D2D7E818D8183DF8983882339F00E94E7
:102E60009B07F70160837183828393838981269610
:102E70000FB6F894DEBF0FBECDBFDF91CF911F918B
:102E80000F91FF90EF90DF90BF90AF909F908F9049
:102E90000895F1E0F983EACFA1E0B0E0E2E5F7E1DF
:102EA0000C9466300E943208898341E090911D02A3
:102EB000981301C040E09E012F5F3F4F65E372E031
:102EC00085E097DF2196E2E00C94823041E090911A
:102ED0001B0280915E02981301C040E02EE532E0B3
:102EE00061E372E083E085DF882371F041E0909137
:102EF0001C0280914E02981301C040E02EE432E0A3
:102F00006DE272E084E075CF0895A6E0B0E0EBE8F2
:102F1000F7E10C946030C0903902D0903A02E09012
:102F20003B02F0903C020E949B07DC01CB018C1914
:102F30009D09AE09BF0921E084369105A105B105BF
:102F400008F420E03091C706398384369105A10545
:102F5000B10520F480911E02831321E08091B70611
:102F60008A83211105C090911F0211E09817C1F0CA
:102F700010E000E030E020E042E050E0BE016F5F92
:102F80007F4F86E0ECDE182F882351F00E949B07CC
:102F90006093390270933A0280933B0290933C0213
:102FA000812F2696E8E00C947C30A8E0B0E0EBEDB1
:102FB000F7E10C946030C0902902D0902A02E09092
:102FC0002B02F0902C020E949B07DC01CB018C1994
:102FD0009D09AE09BF0911E084369105A105B1052F
:102FE00018F10E94A109DC01CB010296A11DB11DBF
:102FF00089839A83AB83BC8310E000E030E020E05B
:1030000044E050E0BE016F5F7F4F82E0A8DE182FE2
:10301000882351F00E949B076093290270932A0233
:1030200080932B0290932C02812F2896E8E00C9439
:103030007C308F929F92AF92BF92EF92FF920F934C
:103040001F93CF93DF93CDB7DEB72A970FB6F894CF
:10305000DEBF0FBECDBF7B0101E010E09E012A5F05
:103060003F4F50E040E070E060E080E078DE182FF5
:10307000882309F44BC08090250290902602A090EE
:103080002702B09028020E949B076F837887898768
:103090009A87DC01CB0188199909AA09BB098436F2
:1030A0009105A105B10538F482E192E00E940E0677
:1030B0009E81891759F105E010E09E012F5F3F4F77
:1030C00050E040E070E060E081E049DE082F82E1FE
:1030D00092E00E940E0611E09E81981310E01023EA
:1030E00001F10E949B076093250270932602809352
:1030F00027029093280285E0FE013196A0E2B2E01B
:1031000001900D928A95E1F711E00BC085E0E2E1B4
:10311000F2E0DE01119601900D928A95E1F711110E
:10312000EACF85E0E0E2F2E0D70101900D928A95C6
:10313000E1F7812F2A960FB6F894DEBF0FBECDBF00
:10314000DF91CF911F910F91FF90EF90BF90AF90C3
:103150009F908F9008951F920F920FB60F92112497
:103160002F933F934F935F936F937F938F939F938F
:10317000AF93BF93CF93DF93EF93FF93D091E90089
:10318000DF708091EC00C82FC17080FDC0E8109204
:10319000E9008091F000877F8093F00078949ADABC
:1031A0001092E9008091F00088608093F000CD2BB0
:1031B000CF70C093E900FF91EF91DF91CF91BF9164
:1031C000AF919F918F917F916F915F914F913F91BF
:1031D0002F910F900FBE0F901F9018951F920F9276
:1031E0000FB60F9211242F933F934F935F936F93DA
:1031F0007F938F939F93AF93BF93EF93FF938091B0
:10320000E10082FF09C08091E20082FF05C0809149
:10321000E1008B7F8093E1008091DA0080FF24C081
:103220008091D80080FF20C08091DA008E7F80934B
:10323000DA008091D90080FFA9C080E189BD82E1D8
:1032400089BD09B400FEFDCF81E08093D206809154
:10325000C606811109C00E9433060E94D4068091DF
:10326000E20084608093E2008091E10080FF1AC058
:103270008091E20080FF16C08091E2008E7F8093F3
:10328000E2008091E20080618093E2008091D800AA
:1032900080628093D80019BC85E08093D20683E0D9
:1032A000809351018091E10084FF2FC08091E20062
:1032B00084FF2BC080E189BD82E189BD09B400FE95
:1032C000FDCF8091D8008F7D8093D8008091E10060
:1032D0008F7E8093E1008091E2008F7E8093E200F8
:1032E0008091E20081608093E2008091D306882380
:1032F00009F452C084E08093D2068091D2068430D3
:1033000009F452C081E0809351018091E10083FF74
:103310002CC08091E20083FF28C08091E100877F6C
:103320008093E10082E08093D2061092D3068091D0
:10333000E1008E7F8093E1008091E2008E7F809398
:10334000E2008091E20080618093E20042E060E070
:1033500080E00E94A2068091F00088608093F000D7
:1033600081E08093510180935001FF91EF91BF91D3
:10337000AF919F918F917F916F915F914F913F910D
:103380002F910F900FBE0F901F90189519BC10929F
:10339000D2061092C60668CF8091E30087FD02C076
:1033A00081E0A9CF83E0A7CF82E0ADCF78941F92D0
:1033B0001FB61F9211248F939F93AF93BF93809159
:1033C000C2069091C306A091C406B091C5060196AD
:1033D000A11DB11D8093C2069093C306A093C4069D
:1033E000B093C506BF91AF919F918F911F901FBE63
:1033F0001F9018952FB7F8948091C2069091C3063C
:10340000A091C406B091C5062FBF0895A3E1B0E016
:10341000ECE0FAE10C945C301A821982FE013396DA
:1034200088E0DF011D928A95E9F783E9E82E81E0C3
:10343000F82E10E000E0CC24C394D12C2EE9A22E6B
:1034400021E0B22EF70181917F018F3F09F445C041
:10345000F894E82FE295EF70F0E021A18F70A601BB
:1034600002C0440F551F8A95E2F7CA01922F982B8C
:1034700091A392A18095892382A3789400C0E8E962
:10348000F1E031E0912C21912F3F09F4B7C0A22F38
:10349000A295AF70B0E090968C9190E02F7002C032
:1034A000959587952A95E2F780FDA8C0832F982AE5
:1034B000330FAE16BF0639F7F701319780818F3F82
:1034C00011F00E94880950EA5A95F1F7E1E0F0E026
:1034D000EC0FFD1FE00FF11F90820F5F1F4F0530B3
:1034E000110509F0AFCF4AE050E0BE016F5F7F4F9A
:1034F00082E492E00E94AF309C01892B49F08AE07F
:10350000FE013196A2E4B2E001900D928A95E1F7B6
:1035100000914D0210E008571D4F232B09F470C095
:1035200081E08093090266DF90930802809307028E
:10353000F12CE090BA06EE2009F4BCC01C861B8674
:10354000FE013D9683E0DF011D928A95E9F78091A7
:103550003D028A3008F079C049E158E1BE01655F5B
:103560007F4FC8010E94270D882309F493C045EDC1
:1035700057E1BE01655F7F4FC8010E94270D882378
:1035800009F488C046E657E1BE01655F7F4FC80178
:103590000E94270D882309F47DC04CE457E1BE0149
:1035A000655F7F4FC8010E94270D882309F472C010
:1035B00045E857E1BE01655F7F4FC8010E94270DB6
:1035C000882309F467C010923D0280914C0290E07C
:1035D00045E050E0BE01655F7F4F88579D4F0E94D8
:1035E000AF3021E020931002892B09F046C0E12C76
:1035F0008E2D8F296396ECE00C94783080E057CFC5
:10360000F0900902FF2009F493CFC0900702D090F8
:103610000802F0DE8C199D09059708F489CF45E072
:1036200050E062E472E0C8010E94AF30892B59F08B
:1036300085E0E2E4F2E0D80101900D928A95E1F78D
:103640001092090276CFF12CFBCFC0900A02D090E5
:103650000B02D0DE8C199D09843F914008F07CCF8D
:1036600080911002882319F2FE013B9685E0DF016C
:103670001D928A95E9F710921002A0914C02B0E0D9
:10368000A857BD4F85E0FE013B9601900D928A95AB
:10369000E1F7AECF80913D028F3F31F08F5F809395
:1036A0003D028A3008F491CFA5DE90930B028093FF
:1036B0000A02D6CF85E0F801A2E1B2E001900D92B6
:1036C0008A95E1F782E192E00E940E068093110252
:1036D0008090170290901802A0901902B0901A02E0
:1036E00080910C0290910D02A0910E02B0910F02F8
:1036F00088169906AA06BB06B1F080920C02909239
:103700000D02A0920E02B0920F020E949B07861A31
:10371000970AA80AB90A80923E0290923F02A092AC
:103720004002B092410280911B0280935E02809120
:103730001C0280934E0280911D028093BC068091F2
:103740001F0290911E029093C7068093B70650CF38
:10375000ACE0B0E0EEEAFBE10C9456307C01DC0119
:1037600014968C91882309F492C161E0C7010E94EC
:10377000540E8C01F7018581882341F18091B806B0
:103780009091B906009711F108171907F9F09C01FB
:103790003327807F9927F0E0E0E0892B41F48FE028
:1037A000829FF001839FF00D1124E055FD4F84812D
:1037B0008460848311830083CF010E94EC0F1092F8
:1037C000B70661E0C7010E94540E8C01D70115961F
:1037D0008C91882309F4F2C0C8019757803891056D
:1037E00008F01EC1003108F052C16FE770E080E0C0
:1037F00090E00E94A00D81114AC1C12CD12C76010C
:10380000011148C004E09E012F5F3F4F59019924E8
:103810009A94D501E02F1D92EA95E9F72601370128
:10382000FFEF4F1A5F0A6F0A7F0AC701B6010E94B5
:10383000A00D8983882309F42AC1813039F5A701B5
:1038400096012E5F3F4F4F4F5F4F2D833E834F8337
:103850005887C301B2010E94A00D182F8A838823C4
:1038600009F415C18FEF810F8330A0F526013701D0
:1038700033E0430E511C611C711C6D817E818F8170
:1038800098850E94A00D8B838823E1F0C5010E94DA
:10389000221118C0B0E8CB16D104E104F10409F4F8
:1038A000F6C0C701B6010E94A00D811101C00150F0
:1038B000EFEFCE1ADE0AEE0AFE0AA2CF49845A843E
:1038C0006B847C8473016201A4CF4D805E806F8025
:1038D0007884F8CF8BEF810F8330A0F5D701C60134
:1038E0000396A11DB11D89879A87AB87BC876D811F
:1038F0007E818F8198850E94A00D8B838823F1F2B1
:103900002601370194E0490E511C611C711C698528
:103910007A858B859C850E94A00D8C83882391F2EB
:103920008B819C818130AFEF9A0710F0982F882708
:10393000163021F0173021F0B2D7C4CF8CD7C2CFC8
:1039400006D7C0CF143009F0C0CF6D817E818F8142
:1039500098850E94A00D182F26013701B4E04B0E68
:10396000511C611C711CA70196012D5F3F4F4F4FE9
:103970005F4F2D833E834F835887CA01B9010E9450
:10398000A00D112309F483C0882309F480C081505D
:10399000990B989E9001999E300D1124412F415012
:1039A000550BCA01820F931F019708F48BCFAFE923
:1039B000BFE01197F1F700C00000F6CF6801E7E51E
:1039C000DE1AFFEFCF16D10409F050F566EA72E077
:1039D0008C2D0E94730F892B19F58FE08C9DF001BF
:1039E0008D9DF00D1124E055FD4F8281813099F5B8
:1039F0008091A6029091A702892B91F08091A80254
:103A00009091A902892B61F08091AA029091AB025A
:103A10002091AC023091AD02822B932B892B19F1AE
:103A2000D70115963C903320B1F10E35BCE71B074A
:103A300059F10F35ECE71E0741F00D35FCE71F0784
:103A400051F5809100018823F9F01092000180E087
:103A50000E9461101CC0823019F78091AA029091D7
:103A6000AB02892BE9F22FE02C9DC0012D9D900D1A
:103A70001124FC01EC54FD4F20812E7F20838055C2
:103A80009D4F0E94EC0FCCCF81E0809300012C96DB
:103A9000E2E10C94723080910001882309F4E3C2C2
:103AA000380120EE621A71082090C70638E06316CC
:103AB000710408F087C098012770332781E090E0F7
:103AC00001C0880F2A95EAF7332009F478C0282A24
:103AD000D7018D919C910E94DE0B21E030E02901FD
:103AE00002C0440C551C8A95E2F7E091B506F091AE
:103AF000B606FE83ED832091DC013091DD013A872B
:103B0000298791EAC92E93E0D92EB12CA12CB0E1DE
:103B1000AB16B10409F41EC3211005C0D6011296DC
:103B20008C9181118BC0F601838190E084219521D5
:103B3000892B09F483C08085982F977009F487E05A
:103B4000F8E06F16710408F057C0332009F450C034
:103B500086958170882309F471C0D6018D909C9060
:103B60000815190519F4332009F468C0ED81FE81A8
:103B7000CE16DF0609F462C0D6011D96ED91FC91C8
:103B8000309721F08081882309F458C0622DC60146
:103B90000E94A308882309F451C00815190509F0EB
:103BA000FFC20115110509F400C3311000C3E985F6
:103BB000FA858E169F0609F041C0312CF8C2809517
:103BC000282286CF332009F4AEC21093DD01009382
:103BD000DC010E949B076093AC067093AD06809356
:103BE000AE069093AF061092B4061092B30670CF53
:103BF00082FB882780F9AECF332001F18170AACFF4
:103C00000E943310F9C20497813A910558F46C2D43
:103C100084ED91E00E94C807332009F424C20E9479
:103C2000A30F35CF0E94A30F8FE39CE90197F1F713
:103C300000C000008C2D0E94C410EECF9FEFA91A87
:103C4000B90AAFE0CA0ED11C62CFDC012D913C91C4
:103C50000217130709F001C2311001C21092B20617
:103C600080E00E946110FFC1902F812F3AC2FA01BB
:103C70004385548565857685C6010E944808D6012E
:103C800014968C9181FF31C2C6010E94D30F80919E
:103C9000B8069091B9060817190709F026C21092C4
:103CA000B9061092B80621C2882349F081E00E942B
:103CB0007B0C43E062E081E00E94520CE8CE81E0A0
:103CC0000E94700CF6CF82E0FBCF882319F10130FF
:103CD0003CE71307E9F003304CE7140799F00115AE
:103CE0005CE71507B9F41092C7060E9458138FEFCE
:103CF00094E3ACE081509040A040E1F700C00000A8
:103D00000E948A076FEF7FEF90E080E00E941231FF
:103D10000E943E16F701C080D1808823D9F1C601E8
:103D20000E94F90D182F682FC6010E94120CB601CF
:103D3000812F0E94DE0D0E94C30A182FC82ED701C2
:103D400015962C91159716963C9132953F70D92E69
:103D5000D2948FE0D822B8E0DB1609F4B4C0BD15C8
:103D600078F1E3E0ED15D8F0092F0F70907FF1E0C6
:103D7000FD15C8F5802F903211F08295807FA1E06B
:103D8000CA1270C0222309F467C0363060F40E9462
:103D90002A1009C0C6010E94DE0B182FC8CF34E0DC
:103DA000D31609F476C04D2D4850550B44305105BB
:103DB00010F40E94320860E0C7010E94540E67CEE2
:103DC00049E0D41609F4F0C086E08D0D8F70823082
:103DD00050F7812F52EF1513F7C0892F8F712223CF
:103DE00009F428C1EEC0992311F00295007F812FBC
:103DF0002223C9F0002369F090E2910F983010F06F
:103E000011110BC08091C706082B0093C7060E94B2
:103E1000A30F812F0E94C410C6CF8091B706082B34
:103E20000093B706F4CF0E943310002309F4BBCFF0
:103E30000095105E183010F0C11008C08091C706C0
:103E400008230093C7060E94A30FADCF8091B70649
:103E500008230093B706F7CF353008F0A4CF0E94AF
:103E60002010A1CF222321F0332309F490CFD1CF0A
:103E70003323A9F3193349F4BFEFE7EEF3E0B15070
:103E8000E040F040E1F700C00000812F0E943310B5
:103E90008ACF892F86958695837061F0813009F0ED
:103EA00082CF812F9370211102C080E090E00E94A8
:103EB000E20779CF812F9370211102C080E090E05A
:103EC0000E940A0870CF892F8370A1F521116BCF52
:103ED000812F829586958770880F880F412F4F70AC
:103EE000082E01C0440F0A94EAF7212F207114FF15
:103EF00007C02FE030E001C0220F8A95EAF7209535
:103F0000969596959370923081F0822F842B933002
:103F100031F080914E02913029F0242B82230E94AF
:103F2000850C41CF842B822BFACF242B80914E021B
:103F30008227F5CF8695222311F0892F817088235F
:103F400009F431CF812F829586958770880F880F6D
:103F5000412F4F70082E01C0440F0A94EAF7212F19
:103F6000207114FF07C02FE030E001C0220F8A95B6
:103F7000EAF72095969596959370923081F0822F6E
:103F8000842B933031F080915E02913029F0242B04
:103F900082230E94480C07CF842B822BFACF242B3C
:103FA00080915E028227F5CF092F0F70222329F01E
:103FB000802F0E947B0C812FEACE812F0E9420103F
:103FC000802F0E94700CEFCE42EF411768F050EF47
:103FD0001517B9F0A1EF1A1749F1222371F1311128
:103FE00018CF892F8F7126C0B3EF1B13F6CF80E057
:103FF000222379F29F7181E001C0880F9A95EAF738
:10400000C8CF222379F0353008F0CDCE292F2F717B
:1040100081E090E001C0880F2A95EAF790915E0256
:104020008927B7CF363008F0BECEF0CF892F8F71F9
:10403000222339F20E947B0CB6CE332359F0893308
:1040400009F023CFEFEFF7EE23E0E150F0402040FE
:10405000E1F719CF892F8F71B4CF332021F0FC0104
:10406000808585FFFDCDC80197558F3F910511F0E3
:1040700008F084C0C801807F9927892B09F007CDFB
:104080002FE0029FF0011124AF0140555D4F6A01FE
:10409000D70115968C91EC54FD4F908180FB90F9DF
:1040A0009083882309F4E3CDA5D990935D02809392
:1040B0005C02F60182818F5F82838091B7069091C6
:1040C000C706892B83834581568165857685C60120
:1040D0000E944808D60114968C9181FFC5CD90E0CE
:1040E00080E09093B8068093B906F7018581980126
:1040F000205E32452032310508F0E7CD81110ACE2D
:104100000F7181E090E09C0102C0220F331F0A95DD
:10411000E2F78901622F83E090E00E94F830802F5F
:104120000E94850CB4CC8091DC019091DD010817D0
:10413000190781F41092DD011092DC011092AC0697
:104140001092AD061092AE061092AF061092B40611
:104150001092B3068091B5069091B606009709F4C7
:1041600082CFE8E06E16710408F06FCD622D0E94D8
:10417000A308811103C081E00E946110D701159648
:104180008C910737BCE71B0709F48ECD0837ECE7A5
:104190001E0709F0AACF882309F495CD82E087CDC8
:1041A0008114910409F003CD312C912C812C80E0F5
:1041B0000E946110D092B606C092B50681E080934D
:1041C000B2068FE08A9DF0018B9DF00D1124EF5512
:1041D000FC4F85818093B00631100EC0811491048C
:1041E00059F0808191819C0124503109213A310597
:1041F00008F006CD0E94BB078FE08A9DF0018B9DE1
:10420000F00D1124EF55FC4FC680D780C6019A955A
:1042100081159F4110F420EED22299249394C60177
:1042200001978F339E4708F0912C8FE08A9DD00133
:104230008B9DB00D1124AF55BC4F1996ED91FC919B
:104240001A97309731F01B966D917C9181E009951A
:1042500098229920B1F08FE08A9DF0018B9DF00D9E
:104260001124EF55FC4F868197810E94980C809312
:10427000B106C60148E06416710408F0C4CC0E947F
:104280004D080E94A30FC8CCB0E0A0E0EAE4F1E240
:104290000C9461308091FC01807F09F050C08091C6
:1042A000FB01882309F44BC0E091170787E0D82E63
:1042B0008091DE068E1709F442C00E2F10E0ED9DAE
:1042C000F0011124E152F94F84818823E9F1D09E55
:1042D000E001D19ED00D1124FE01E152F94F9181F0
:1042E0008091F701981330C090818091F601981366
:1042F0002BC08581811128C0E280F3808091F80174
:104300009091F901E81AF90A60E086EF91E00E94C5
:10431000540E0E94870FE816F906B0F48091FC0154
:104320008F7080618093FC01CB51D94F88818F7051
:104330008061888386EF91E00BDA0E94D40BCDB7C1
:10434000DEB7E7E00C947D30F8013196E770B0CF2E
:10435000ADE0B0E0EEEAF1E20C9459308C0186E079
:10436000F801DE01189601900D928A95E1F7F801A7
:10437000F480E58086EF882E81E0982E8091FA0106
:10438000811128C0F11003C0FF24F3941BC0EE205C
:10439000F1F0C8010E942E0EF82E8823C1F087E0AC
:1043A000F801A6EFB1E001900D928A95E1F78091B6
:1043B000FA01813031F48091F6019091F7010E9469
:1043C000220E62DF8F2D2D96EFE00C947530C80120
:1043D000BFD9DACFC280D380B090FB018091F801C1
:1043E0009091F9013601681A790ABB2009F4D4C00A
:1043F0005080A18060E086EF91E00E94540E0E9400
:10440000870F6816790608F0A0C0FF2009F4BCCF1A
:104410008091FC01382F307F2091F701F8019181C4
:10442000311156C0FE2C291313C02091F601908142
:1044300029130EC0E11045C08F7080618093FC018C
:1044400086EF91E085D98091FC01F8018683BACF8F
:10445000E11037C06A2D852D0E94F0056A2D852D4B
:104460000E94F005E82E8111ADCF5886A986888577
:1044700099850E94220E292F22952F70903458F48E
:104480009F70223080F0992391F0F8019681907FFF
:1044900071F4FE2C97CF2A5F2F70223060F0C80194
:1044A00057D9EB2CF6CF992311F0882391F3805E36
:1044B000883078F3F4CF803F60F3815F833048F336
:1044C000EECF8091FC0181608093FC01F12C7ACFCA
:1044D000291314C02091F601908129130FC0E11017
:1044E0000DC08683C80134D987E0F801A6EFB1E09A
:1044F00001900D928A95E1F7FB2C64CFC8010E94D0
:104500002E0E882309F463CFEE2009F460CF80914A
:10451000FC01803280F02091F6013091F7013A835E
:104520002983DC82CB829091FA019D831E828F8346
:10453000CE0101960DD987E0F801A6EFB1E0019018
:104540000D928A95E1F7A0DE1FCF8091FC01982F94
:10455000907F49F486EF91E0FBD887E0F401119257
:104560008A95E9F7B3CFFF2009F40ECF2091F70128
:10457000F80191812913C2CF2091F601908129136E
:10458000BDCFE110BBCF8683C801E2D887E0F4013C
:1045900011928A95E9F7B0CF60E086EF91E00E9432
:1045A000540E0E94870F68167906B8F6FF2009F4AA
:1045B000EBCEFE2CEE2009F40ACF9091F701F80122
:1045C000818198132BC09091F6018081981326C0A9
:1045D0008091F8019091F901C81AD90AF8ECCF1628
:1045E000D10498F48091FC0180FD0FC0982F907F3A
:1045F00061F0F8018683903F31F0982F907F905FB3
:104600008F70892B8683C801A3D887E0F801A6EFB5
:10461000B1E001900D928A95E1F7D4CEC8010E94D5
:104620002E0E811188CF8091FC0181608093FC0166
:10463000C8018ED8C7CEABE1B0E0E1E2F3E20C9462
:1046400065304E8B5F8B688F798F8A8F9B8F91112E
:104650001092B7061D8A86E0FE017696DE011F964F
:1046600001900D928A95E1F78B89882351F061E0E2
:10467000CE010F960E94540E61E0CE010F960E946B
:10468000540E87E0FE013F96DE01189601900D92D0
:104690008A95E1F7CE0108965BDE81110CC087E0B8
:1046A000FE013896DE01119601900D928A95E1F790
:1046B0004C8541110BC017E0809117079091DE06E1
:1046C000891334C06B96E3E00C9481302091DE06B0
:1046D00030E0C90101968770992750911707581744
:1046E0001906A1F04D8397E0929FD001939FB00DE2
:1046F0001124A152B94FFE01319601900D929A9565
:10470000E1F78093DE060E94D40BD5CF1092C70646
:104710000E9458131092DE061092170787E0E6EF0A
:10472000F1E0DF011D928A95E9F7C5CF819FC001B5
:1047300011248152994F0CDE882321F280911707B2
:1047400090E001968770992780931707B5CFA6E070
:10475000B0E0EDEAF3E20C9464308C0190939502A2
:1047600080939402011580E21807C0F4802F0E9404
:104770003310C8010E94980C9801205E310928303E
:10478000310518F00115110531F40E94201026960C
:10479000E4E00C9480300E940D10F9CF80EF898303
:1047A0008A830E94FA198160682F9C838B834981D8
:1047B0005A817C8181E090E03EDFE9CF0F931F9327
:1047C000CF93DF938C01EB0166EA72E08C2F0E949D
:1047D000730F892B71F4DD27CA56DD4F8881F801EC
:1047E000128218828330E9F048F4813059F0823027
:1047F00081F0DF91CF911F910F9108958430B1F036
:104800008530B9F78091A6029091A702009789F3AD
:1048100006C08091A8029091A902009799F397DFB2
:10482000E8CF8091AA029091AB02F7CF8091AC02C1
:104830009091AD02009799F72091A6023091A702BE
:104840008091A8029091A90221153105F9F20097F3
:1048500031F7C901E4CFA6E0B0E0E1E3F4E20C9463
:1048600066309093950280939402811520E292071E
:1048700030F40E94D6112696E2E00C94823080EF4C
:1048800089838A830E94FA198160682F9C838B83B5
:1048900049815A817C8181E091E0CDDEECCFCF93DC
:1048A000DF93D82FC92FD7DF8D2F9C2F50DFDF91BB
:1048B000CF9108950F931F93CF93DF938C01862F91
:1048C00066EA72E00E94730F892B99F4C091A602E8
:1048D000D091A702209769F0F8018281833039F4E2
:1048E000CE01DDDFCE01DBDFCE01D9DF02C08430B7
:1048F000D8F7DF91CF911F910F9108950F931F93D8
:10490000CF93DF938C01EB0166EA72E08C2F0E945B
:10491000730F892B09F059C0FE01FF27D8011296A9
:104920008C911297EA56FD4F8130B9F414969C9100
:1049300092FF02C080830AC090FFFCCF82E0808398
:104940008091A8029091A9020097B9F48091A602E3
:104950009091A7020097C9F110C08230A1F514967A
:104960008C9182FD26C080FD0AC083E08083809107
:10497000AA029091AB020097F1F06DDF26C084E0AF
:1049800080838091AC029091AD020097B1F7809145
:10499000A6029091A7020097E9F081DF8091A8021A
:1049A0009091A902009749F78091A6029091A702E1
:1049B000E4CF85E080838091A6029091A7020097C2
:1049C00021F06DDFF1CF86E08083DF91CF911F91E1
:1049D0000F9108958091A8029091A902BBCFA6E003
:1049E000B0E0E5EFF4E20C9464300E94FA198C0117
:1049F00080910502909106028017910779F0198243
:104A00001A820E94FA19682F49815A81792F80E011
:104A100090E011DE10930602009305022696E4E072
:104A20000C9480301F921FB61F9211248F939F9376
:104A3000AF93BF938091C106811113C08091C206CC
:104A40009091C306A091C406B091C5064196A11DE0
:104A5000B11D8093C2069093C306A093C406B09381
:104A6000C506BF91AF919F918F911F901FBE1F9060
:104A70001895CF93DF93EC010E94FA198C1B9D0BC4
:104A8000DF91CF910895CDB7DEB7AF970FB6F89409
:104A9000DEBF0FBECDBF85B7806885BF85B7806894
:104AA00085BF84B7877F84BF0FB6F894A89580919F
:104AB0006000886180936000109260000FBE80E803
:104AC00090E00FB6F89480936100909361000FBE60
:104AD00081E08093510186E899E09093D30180931F
:104AE000D2010E9461090E94D4120E9433060E94E2
:104AF000D4068091E20084608093E20078948091F3
:104B0000D2068823A1F01091E9001F709091EC006B
:104B1000892F817090FD80E8182B1092E900809118
:104B2000E80083FD0E946A131F701093E90082E081
:104B300084BD93E095BD9AEF97BD80936E0010926F
:104B40003E0210923F0210924002109241020E94D7
:104B5000870D811102C00E944E0F8091D8008061A4
:104B60008093D8002AE12A95F1F700C08091D900FE
:104B7000182F117080FD04C00E9433061092D206D7
:104B80001093BA061093BB061093390111110E94BD
:104B9000EE2E809139018091390195E0811190E0EC
:104BA00090934D0285E0891B80934C0203E911E04C
:104BB00038E9E32E31E0F32ED8018D918D018F3F3E
:104BC00011F00E948809E016F106B1F708E911E03A
:104BD0002EE9E22E21E0F22EF80181918F018F3F24
:104BE00011F00E948809E016F106B1F78AE0E8E8C2
:104BF000F2E0DF01282F1D922A95E9F7E2E4F2E0C6
:104C0000DF011D928A95E9F790E080E00E94E43090
:104C1000833E9E4F21F40E94870D811129C063EECF
:104C20007EEF90E080E00E94123160E082E090E050
:104C30000E94F83081E080934E0261E083E090E0D2
:104C40000E94F83060E074E184E090E00E9412314C
:104C50000E944E0F40E050E0BA018FE090E00E94C9
:104C60000A3140E050E0BA0183E190E00E940A314D
:104C700082E090E00E94DC308093510284E090E07A
:104C80000E94E4309093500280934F020E94061AD3
:104C9000EFEFF6E721E0E150F0402040E1F700C0FF
:104CA00000000E94061A8091880280FF08C06FEF02
:104CB0007FEF90E080E00E9412310E948A0783E03B
:104CC00090E00E94DC300E94850C83E080937F029C
:104CD00080E280939B0622D76BE070E08BE591E049
:104CE0000E945516882389F180917F0265E070E06B
:104CF00081FD96C086E591E00E945516882329F132
:104D00006DE070E084E491E00E9455168823E9F09C
:104D10000E949B076BA77CA78DA79EA7DC01CB01F8
:104D2000805A9541AF4FBF4F80939C0690939D064C
:104D3000A0939E06B0939F060E94BF1281E08093CD
:104D4000A1068093A006109280028091BA0681117C
:104D500002C00E94F12E8AE391E09093DD068093D9
:104D6000DC0688E892E03AE0380F3FA78091D2064F
:104D700010E400E192E1F92E853009F487C00E9429
:104D8000061A02E512E088E8682E82E0782E2CE50B
:104D900032E0D301F80191918D912E173F0709F46C
:104DA00081C09817C1F38090BA06B8E8EB2EB2E044
:104DB000FB2ED12CD701CD907D01F80191908F0170
:104DC0009C1429F19C24B12CAA24A3948A2D892116
:104DD000B1F08820A1F0B982DA820E94FA199C838E
:104DE0008B83F1E0FD8391E08A2D8C2109F490E022
:104DF0009E8349815A816B817C818D811CDCB394B7
:104E0000AA0C26E0B212E2CFF8013197C082D39407
:104E10003AE0D312CFCF0E94A109FF24F39446C0F9
:104E200081E591E069CF8091D206843029F10E941A
:104E300062161092C10648E150E00FB6F894A895AA
:104E4000409360000FBE1093600083B7817F846041
:104E500083BF83B7816083BF7894889583B78E7F43
:104E600083BF0FB6F894A895809160008861809305
:104E70006000109260000FBE0E94061AE8E8F2E09F
:104E800081918111D3C55FA55E13FACF8091D206BF
:104E9000853009F4C8CF1092C7060E9458130E94AB
:104EA00032086DCF98137FCF9ADDF12C8091BA062E
:104EB000882309F46EC00091B3061091B406011561
:104EC0001105C1F18090A8069090A906A090AA06AD
:104ED000B090AB060E949B076BA77CA78DA79EA7EF
:104EE000DC01CB0188199909AA09BB094091A406E4
:104EF0005091A5066091A6067091A70684179507A4
:104F0000A607B707B8F0C8010E94D6111092B406E0
:104F10001092B3061092A8061092A9061092AA0643
:104F20001092AB061092A4061092A5061092A60647
:104F30001092A706C090B806D090B906C114D1044B
:104F400041F1A0905C02B0905D020E94FA198C01C0
:104F50000A191B09C6010E94870F80179107C8F420
:104F60008091B8069091B9069C013327807F9927DC
:104F7000892B09F0EBC04FE0429FC001439F900D89
:104F8000112480559D4FDC0114962C9122FF0E9424
:104F9000EC0F8091A106882309F48BC00091810257
:104FA000109182020E94FA19801B910BC29708F49B
:104FB00056C00E94FA1990938202809381028BE975
:104FC00094E090939804809397048091BA06882384
:104FD00009F4BFC01091C7060E94320881FB002768
:104FE00000F90E94BF12812F827261E009F460E033
:104FF0008CE791E00E94AC1260E08BE791E00E94A8
:10500000AC1261E0812F817109F460E086E791E0E4
:105010000E94AC1260E085E791E00E94AC1261E072
:10502000812F847409F460E081E791E00E94AC1262
:1050300060E080E791E00E94AC12187861E009F42A
:1050400060E08CE691E00E94AC1260E08BE691E0BB
:105050000E94AC12602F86E691E00E94AC12809113
:10506000990490919A04892B09F0A1C08091A0061F
:105070008823F9F00E949B076BA77CA78DA79EA7AA
:1050800080919C0690919D06A0919E06B0919F06EE
:105090002BA53CA54DA55EA5281B390B4A0B5B0B28
:1050A000DA01C9018F3F9F4FAF4FBF4710F40E94F5
:1050B0006216F1100E947C160E94320890918302C1
:1050C000891721F0809383020E949B078091D2066A
:1050D000843009F04BCE83E08093E9008091E800B2
:1050E00082FF44CE8091E80090E085FF0CC00E94D2
:1050F000520640E2E42EF12C8E010F5F1F4F8823F1
:1051000009F439C191E08091E8008B778093E80041
:10511000992309F42BCE0091920210919302E98118
:105120000115110509F435C1EE3F09F056C18A8118
:10513000833020F08550833008F04FC1EA81EE3093
:1051400008F04BC1F0E0E75CFE4CF3C790E080E074
:105150001ACF80915E020E94880C182F8091460120
:10516000181709F47CCF109346010E94BF1241E04A
:10517000111140E060E081E00E94FF0841E0113041
:1051800009F040E061E081E20E94FF0841E0123056
:1051900009F040E062E081E40E94FF0841E0133042
:1051A00009F040E063E081E60E94FF0858CF80915B
:1051B000A106882309F45ACF80918002811156CF2D
:1051C0000E947C162091990430919A042115310592
:1051D00009F44CCF80E041E050E0082F10E04A0194
:1051E000082E02C0880C991C0A94E2F7B9016821C4
:1051F0007921672B11F48F5FF0CF90917F0290FFA0
:1052000097C0880F880F880F8093490110924C0136
:10521000895F80934A0183E080934D0124E630E06A
:1052200047E050E067E471E088E7AED4892B09F0ED
:105230001DCFA801F5E0440F551FFA95E1F78091C5
:105240007F0280FF87C0EFE5F2E080E2DF011D9280
:105250008A95E9F7E2EAF1E0FCA7EBA76EE971E0D5
:10526000E7E0DE2ECC24C394EBA5FCA5A191FCA71E
:10527000EBA7FB018191BF01840F952F911D9C012C
:1052800025563B4F2901EA2FF0E0E15AFD4F90E00F
:1052900080E0AD2CA81AEC2C082E01C0EE0C0A946C
:1052A000EAF7120100E0D1011D911D011E212A2DF6
:1052B000201B2770B22E022E000C330BB12F01C021
:1052C000BB0FBA94EAF7BB2E3195219531092770AF
:1052D000332701C016952A95EAF7B12A1081B12A21
:1052E000B0820F5F0830F9F601963196883091054B
:1052F00081F6EBA5FCA5E65AF14009F0B5CF04E62E
:1053000010E020E230E04FE552E060E488E7C4D4EA
:10531000892B09F0ABCE8094909480919904909160
:105320009A048822992290929A04809299049ECE9F
:105330008295880F8076809349019801369527954C
:105340003695279520934C01815E80934A012093E6
:105350004D0164CF45565B4F04E610E020E230E09B
:10536000D4CF8091F100D8018D938D01B1E0EB1A7B
:10537000F10809F4C7CE8091E80085FDF2CF809155
:10538000E8008B778093E8000E945206882399F307
:10539000B9CEE43148F4EE2351F0E150E33138F472
:1053A000F0E0E95BFE4CC5C6EE3F09F4C7CE8FEFD7
:1053B000898313C01A8289E08B830FC08A8182306F
:1053C00009F451C3833071F0813089F70E949B0743
:1053D000B6D66B837C838D839E83CE0101960E941B
:1053E0002506C4CC8091A2069091A306892BA9F32F
:1053F000FE013396D3018D913D018193B2E96B1685
:10540000B2E07B06B9F7E9CF8A81823081F62B8141
:105410003C814D815E812BA73CA74DA75EA7CA01A9
:10542000B9018DD688E290E0E3D6D7CF4C816B816D
:105430008A810E94AF0D9827892798279E838D83A4
:10544000CCCF2D813E813227232732274C816B819F
:105450008A810E94600DC1CF0E94DA0EBECF80E12A
:105460008A83BBCF1A8280E8A7CF8C818D3108F068
:10547000B4CF8A809B80982489249824C82ED12C6C
:10548000F12CE12C2401712C612C37EB831A3CEFB9
:10549000930AAE014F5F5F4F5A0110E000E0C40174
:1054A000800F911FA80170E060E04C155D056E054E
:1054B0007F0508F092CF440D551D661D771D4038BD
:1054C00051056105710550F477D6D50114968C937A
:1054D0000F5F1F4FFFEFAF1ABF0AE1CFF501148234
:1054E000F7CF8091A2069091A306892B09F475CF7E
:1054F0008C818D3108F071CF8A809B80982489241B
:105500009824C82ED12CF12CE12C2401712C612C73
:1055100027EB821A2CEF920AAE014F5F5F4F5A01C0
:1055200010E000E0C401800F911FA80170E060E06E
:105530004C155D056E057F0508F04FCF440D551DD8
:10554000661D771D403851056105710520F4D501B0
:1055500014966C914DD60F5F1F4FBFEFAB1ABB0A6D
:10556000E1CF0E947C0E39CF84E07ACF8C818D31DF
:1055700008F033CF882E912CB12CA12CCA80DB806F
:10558000DC24CD24DC24F12CE12C8E010F5F1F4F95
:10559000412C512C3201C6018996481459046A04E1
:1055A0007B0408F01ACFE0EECE16E1E0DE06E1045F
:1055B000F10488F401D6D80114968C93FFEF4F1AAA
:1055C0005F0A6F0A7F0A0F5F1F4F2FEFC21AD20ABE
:1055D000E20AF20AE0CFF8011482F0CF2C81A22E69
:1055E000B12C2D3108F0F9CE8A819B81982789272B
:1055F0009827803E31E0930708F0EFCEC22ED12CE1
:10560000F12CE12C2C01712C612C40EE51E060E07A
:1056100070E044195509660977094C155D056E055A
:105620007F0508F4DACE1C0149E2240E311C2091DA
:10563000A2063091A306232B19F1CE0101965C013D
:1056400010E000E0C101800F911FA80170E060E050
:105650004C155D056E057F0508F0BFCE440D551D48
:10566000661D771D403E51406105710518F4F50136
:105670006481BED50F5F1F4FFFEFAF1ABF0AE2CFA5
:105680008C010170112780FF0BC0889695D59D81F4
:1056900089279827892781159C4711F48FEF8D83DF
:1056A000D701C601840D951DA61DB71D450180FFBC
:1056B00019C0B1E08B1A9108E5E0F0E0EC0FFD1F96
:1056C000E80DF91DFCA7EBA7C1018A0D9B1D74D540
:1056D000ABA5BCA59C9181159C4721F48FEFEBA550
:1056E000FCA58083E1E0F0E0EC0FFD1FE00FF11F6F
:1056F0002FEF0815190508F0A0CF94818581811539
:105700009C4711F4248325830E5F1F4F3296F1CFFF
:105710008091A2069091A306892B09F45ECECE015A
:1057200001960E9425062FEF31EE44E021503040D3
:105730004040E1F700C00000C0CA88E0E2E5F1E0C7
:10574000DE01919601900D928A95E1F7FE013D965A
:1057500084E1DF011D928A95E9F786E089831A8248
:105760001B821C8288E07496DE01159601900D92D2
:105770008A95E1F732CE8CE98983B1E0BA831B8246
:105780001C822BCE8C81682F70E0762F66278B8150
:10579000860F972F911D092E000CAA0BBB0B35E02D
:1057A000880F991FAA1FBB1F3A95D1F7AC01BD0105
:1057B000405E5F4F6F4F7F4F803EEFEF9E07AE071B
:1057C000BE0708F00ACE8C39F1E09F07A105B105AC
:1057D00008F003CE4D3921E052076105710520F034
:1057E0004CE951E060E070E0481B590BBC016E577A
:1057F0007E4FCE010196AAD4F0CD4AE150E06FEF82
:1058000070E0CE010796C1D48091A20689830A83F5
:1058100084E08B838C8399E09D838E83DECD81E051
:1058200090E0909393028093920282E390E09093B1
:105830008702809386020E94FA19909385028093D2
:105840008402CBCD012B71F1E0908C02F09091029B
:1058500000918402109185020E94FA19801B910B1D
:105860008536910540F1E4FE26C0F4FE24C00E9476
:10587000FA19909385028093840280918602909118
:10588000870201979093870280938602892B51F4B7
:10589000109293021092920281E090E09093A306FE
:1058A0008093A2068091A2068983809192028A83C6
:1058B0008091860281CD82E390E09093870280936D
:1058C0008602F0CF1092A3061092A20686CD40E287
:1058D00050E06FEF70E0CE01019657D47ECD8B8102
:1058E000823009F451C080F4811137C0FE01359631
:1058F0008BE1DF011D928A95E9F780E189831A82A5
:105900008B831C8218A269CD853009F472C0863061
:1059100009F063CD1C818AE0FE013596DE01919687
:1059200001900D928A95E1F78BA19CA10E947909C3
:105930009CA38BA38FEF103160F4FAE01F9FB0019E
:10594000112467557D4F4AE050E0CE0181966ED418
:1059500080E089830E94D41240CD8C819AE0F92E98
:105960008E010F5D1F4FF8012F2D11922A95E9F737
:10597000B8010E94730F8983F801DE01129601902D
:105980000D92FA94E1F729CD1C818AE0FE0135964B
:10599000DE01919601900D928A95E1F789A19AA175
:1059A0000E9479099AA389A38BA19CA10E947909DD
:1059B0009CA38BA38DA19EA10E9479099EA38DA378
:1059C0008FA198A50E94790998A78FA38FEF103116
:1059D00060F43AE0139FB0011124675F7D4F4AE005
:1059E00050E0CE01819622D480E089830E94610933
:1059F000F4CC6C812AE0CE018196DC01E22F1D926D
:105A0000EA95E9F7603180F4629FB001112467558F
:105A10007D4F4AE050E0C0D380E089838AE0FE01F8
:105A2000B196DE011296A2CE8FEFF7CF8091D1060C
:105A3000882309F42BCA09BDF9BC09B400FEFDCFC7
:105A40008091D8008F7D8093D8008091E0008260A3
:105A50008093E0008091E00081FDFCCF1092C706AA
:105A60000E94581313CA88E290E0A6D31B821C82BE
:105A70001D82D3CEFF920F931F93CF93DF93182FE6
:105A8000EB011092BC0084EA8093BC000E94FA19DA
:105A9000082FF92E8091BC0087FF28C08091B900A3
:105AA000887F883029F08091B900887F803199F50E
:105AB0001093BB0084E88093BC000E94FA19182F51
:105AC000092F8091BC0087FF1EC02091B900287F5C
:105AD00090E080E0283199F081E090E0203411F4EA
