:1000000085C60000A0C600009EC600000C94BE304D
:100010009AC6000098C6000096C6000094C600006C
:1000200092C6000090C600000C9463170C941F1732
:100030000C94E02588C6000086C6000084C6000037
:1000400082C6000080C600007EC600007CC600009C
:100050007AC600000C944B1876C6000074C60000E7
:1000600072C6000070C600006EC600006CC60000BC
:100070006AC6000068C6000066C6000064C60000CC
:1000800062C6000060C600005EC600005CC60000DC
:100090005AC6000058C6000056C6000054C60000EC
:1000A00052C6000050C600004EC60000050109807F
:1000B000A101850319012AB700150126B700950192
:1000C00075108100C0050C0901A101850419012AE0
:1000D000A002150126A002950175108100C00660DE
:1000E000FF0961A1010962150026FF00952075082E
:1000F00081020963150026FF00952075089102C052
:1001000005010906A101050719E029E715002501E8
:10011000950875018102950175088101050719008F
:1001200029FF150026FF00950675088100050819AE
:1001300001290515002501950575019102950175A7
:10014000039101C0504F52514A4D4B4E2A4C2F3013
:10015000B6B7ABACBBBCA9AABDBE0D0E0B0F1A0542
:1001600008050905071811130408120C00DA0281AA
:10017000FFD9F1DB20A4A62EAF00A0C0D30000A1C0
:10018000C8D30000AED580A81F408D142000207772
:10019000706D0A0020200041646A7573740052611A
:1001A00069736520004C6F77657220005157455286
:1001B0005459006C61796572200080818283848546
:1001C000868788898A8B8C8D8E8F9091929394A04C
:1001D000A1A2A3A4A5A6A7A8A9AAABACADAEAFB097
:1001E000B1B2B3B4C0C1C2C3C4C5C6C7C8C9CACB03
:1001F000CCCDCECFD0D1D2D3D400FD377A585A004F
:100200000004E6D6B4460200210116000000742F57
:10021000E5A3E005C7015C5D003D8889C65436C38F
:10022000174FE4E20F535D9075DB08C965CE09CB2B
:10023000AEF2FFD16E9644531750A9573CF31C36CB
:10024000AD768D7A7A850BC9433E38EE515A3E9C85
:100250007DCEB4C813B9F1CF8867CEB8A9BF34EA50
:10026000E3499914A741D5576A229C4F0765976DBA
:10027000EDE65205C276003360F788AF8348607DB3
:10028000F4FD32CB5CB4A3130FA779664A7A762FBC
:100290003B30DDCAA3AAFD617C0E3B1587C3768384
:1002A000075D3BDD124776E5A83D1F79BCA9EAD280
:1002B00000281FB159F012878D588EB0E9D5FFF490
:1002C000E903A04E8AAB492B16A40CD6DB26072ADD
:1002D00060542BABFF81864810D3DE5CC6B9BB6887
:1002E0009DF8152AF17BB847E73BB48E1DC999D814
:1002F0000C800D5362FBA3A7CA47DAC48DA5D400B6
:10030000E4E0B68391325BFE7CB952F711374FBE01
:10031000FCB3E328B73538102A1B49CA110AF8651F
:10032000AD63E9DB025F78A396C6F1162682AA7355
:100330005DAB26F1710555F4D70A2670CB8BE97FAA
:100340001031D1D48C8FFE74B9BAE044C24CBC5188
:100350000C2D33D5C383EC4DC6E7B18A91DCFD2D5E
:1003600084C79284B72A1FE6A8020BE48425F3DC35
:10037000A34CFFF38400D549FD2D4E472EFA000112
:10038000F802C80B0000C135F8FFB1C467FB0200DA
:1003900000000004595A00AF00AE29001E001F00E3
:1003A0002000210022002B0014001A000800150074
:1003B0001700E00004001600070009000A00E10031
:1003C0001D001B0006001900050000002152E3007B
:1003D000E2002C002F003500270026002500240015
:1003E00023002D00130012000C0018001C00340024
:1003F00033000F000E000D000B00E5003800370041
:1004000036001000110000002252E7002A002800E8
:1004100030000100010001000100010001000100A5
:100420001E021F0220022102220201001E001F00E4
:100430002000210022000100010001000100010054
:1004400001000000010001000100010001000100A5
:100450000100010001000100010001002702260245
:100460002502240223020100270026002500240083
:100470002300010030022F022E023500310200005D
:100480000100010001000100010001000100010064
:100490000100010001003A003B003C003D003E002D
:1004A0003F00010001000100010001000100010006
:1004B0000100010001000100010000000100010035
:1004C0000100010001000100010001000100010024
:1004D000010045004400430042004100400000008C
:1004E0004F00520051005000000001003100300068
:1004F0002F002E002E02000001000100010001006B
:1005000001000000000000000000000000000000EA
:1005100000000000000000000000000000000000DB
:1005200000000000000000000000000000000000CB
:1005300000000000010001000100010000000000B7
:1005400000000000000000000000000000000000AB
:10055000000000000000000000000000000000009B
:10056000000000000000000000000000000000008B
:100570000100010001000100000000000000000077
:10058000000000000000000000000000000000006B
:10059000000000000000000000000000000000005B
:1005A0000000000000000000000000000100010049
:1005B0000100010000000000000000000000000039
:1005C000000000000000000000000000000000002B
:1005D000000000000000000000000000000000001B
:1005E0000000000000000000010001000100010007
:1005F00000000000000000000000000000000000FB
:1006000000000000000000000000000000000000EA
:1006100000000000000000000000000000000000DA
:1006200000000000010001000100010000000000C6
:1006300000000000000000000000000000000000BA
:1006400000000000000000000000000000000000AA
:10065000000000000000000000000000000000009A
:100660000100010001000100000009025B0003011C
:1006700000A0FA0904000001030101000921110191
:10068000000122440007058103080001090401005C
:1006900002030000000921110100012222000705C8
:1006A0008203200001070503032000010904020062
:1006B0000103000000092111010001223200070599
:1006C00084032000011201000200000008D8042D5C
:1006D000EB0001010203011C037600690061006C5C
:1006E000003A0066003600340063003200620033D6
:1006F00000630000000E034C0069006C00790035B7
:10070000003800000010036C0069006C006900757F
:10071000006D0073000000040309040000000000E5
:1007200000000000000000000000000000000000C9
:100730000000000000000000000000000000007E3B
:100740000F00D4FFFFFFC70000007800000000008A
:100750000000002A2B28000000000000000000001C
:1007600000000000000029000000002C1E342021A1
:100770002224342627252E362D3738271E1F2021E8
:1007800022232425263333362E37381F0405060747
:1007900008090A0B0C0D0E0F101112131415161761
:1007A00018191A1B1C1D2F3130232D35040506077F
:1007B00008090A0B0C0D0E0F101112131415161741
:1007C00018191A1B1C1D2F3130354C000000000079
:1007D000003E5B4F5B3E003E6B4F6B3E001C3E7C21
:1007E0003E1C00183C7E3C18001C577D571C001C0A
:1007F0005E7F5E1C0000183C180000FFE7C3E7FFA7
:1008000000001824180000FFE7DBE7FF0030483A3B
:10081000060E00262979292600407F05050700409D
:100820007F05253F005A3CE73C5A007F3E1C1C08D0
:1008300000081C1C3E7F0014227F2214005F5F0012
:100840005F5F0006097F017F00006689956A00608E
:10085000606060600094A2FFA2940008047E040817
:100860000010207E20100008082A1C0800081C2AFE
:100870000808001E10101010000C1E0C1E0C00307A
:10088000383E383000060E3E0E0600000000000024
:100890000000005F000000000700070000147F1444
:1008A0007F1400242A7F2A12002313086462003672
:1008B0004956205000000807030000001C22410098
:1008C000000041221C00002A1C7F1C2A0008083E50
:1008D00008080000807030000008080808080000C0
:1008E00000606000002010080402003E5149453EAF
:1008F0000000427F400000724949494600214149B9
:100900004D33001814127F10002745454539003C2F
:100910004A49493100412111090700364949493600
:1009200000464949291E0000001400000000403420
:1009300000000000081422410014141414140000D4
:1009400041221408000201590906003E415D594E3A
:10095000007C1211127C007F49494936003E41411A
:100960004122007F4141413E007F49494941007F8A
:1009700009090901003E41415173007F0808087FC1
:100980000000417F4100002040413F01007F0814EA
:100990002241007F40404040007F021C027F007FD8
:1009A0000408107F003E4141413E007F09090906CD
:1009B000003E4151215E007F091929460026494920
:1009C00049320003017F0103003F4040403F001FC8
:1009D0002040201F003F4038403F0063140814634C
:1009E000000304780403006159494D4300007F412E
:1009F000414100020408102000004141417F0004F1
:100A0000020102040040404040400000030708008B
:100A1000002054547840007F28444438003844442F
:100A2000442800384444287F0038545454180000A7
:100A3000087E0902001824241C78007F080404782A
:100A40000000447D4000002040403D00007F102811
:100A500044000000417F4000007C04780478007C62
:100A600008040478003844444438007C18242418CE
:100A700000182424187C007C0804040800485454FE
:100A800054240004043F4424003C4040207C001CCB
:100A90002040201C003C4030403C004428102844AA
:100AA000004C9090907C004464544C440000083604
:100AB00041000000007700000000413608000002FD
:100AC00001020402003C2623263C00000000000036
:100AD00080808080000000000080E070180C1830DA
:100AE000E080000010F8901030783010B8FC38101A
:100AF000000000000000F8FCF8000000000000000A
:100B00000000000000001C9C1C00000000F8FCF825
:100B10000000000000001CFCF8C000000000000005
:100B200080E0F87C1C000000F0FCFCFC1C1C1C1C81
:100B30001C1C1C1C000000000000C0F0F8381C1C2D
:100B40001C1C1C1C3CF8F0E000E0F0F0F0E0ECEEC7
:100B5000F7F37020007C7C7C7E007E7E7E7F7F7F32
:100B6000000080C0E07E5B4F5BFEC00000C000DC88
:100B7000D7DEDEDED7DC00C0000000000000000091
:100B80000000000000000000000000000000000065
:100B90000FBCE0818181838382870C183060C000A4
:100BA000001FFE90B9FFBB91983C1811133F110034
:100BB000000000000000FFFFFF0000000000000038
:100BC000000000000000FFFFFF00000000FFFFFF2B
:100BD0000000000000000000030F7FF8E080F0FC40
:100BE0003F0F0100000000003F3F3F1C1C1C1C1C6D
:100BF0003C78F8F0E08000000000C3E7FF7E3C385E
:100C000078787070F8FFDF87000F1F3F7F7F7F7F4E
:100C10007F3F1E0C001F1F1F3F003F3F3F7F7F7F16
:100C200000307B7F7830202030787F3B0003000F3E
:100C30007F0F0F0F7F0F0003000000000000000077
:100C40000000000000000000000000183C24666363
:100C500041C18180808080808081C14162386C4C3C
:100C6000C68181808080808081C14362361C1800EB
:100C7000000000000000FFFFFFC0C0C0C0C0C0C037
:100C8000C0C0800000007FFF7F000000007FFFFFEA
:100C9000C080000000E0E0C0C0C0E0F97F1F070096
:100CA000000000000000000070F0E0E0C0C0C0C024
:100CB000E0F0F87F3F0F0000000F3F7FF9E0E0C059
:100CC000C0C0C0C0E0F97F3F1F000000000000006E
:100CD0000000000000000000000000000000000014
:100CE0000000000000000000000000000000000004
:100CF00000000000000000000000000000000000F4
:100D000000000000000000000000000011241FBED1
:100D1000CFEFDAE0DEBFCDBF11E0A0E0B1E0E6ED5D
:100D2000FBE602C005900D92A43AB107D9F725E081
:100D3000A4EAB1E001C01D92A13DB207E1F70E9413
:100D400011260C94B7355CC9982FE091C5034091EA
:100D50007C0359E0E41302C080E008952E2F30E0B8
:100D60005E9FF0011124E358FC4F8181681306C097
:100D70008081981303C085818111EFCFF9013196ED
:100D8000E770E8CFFC01AC014B5F5F4F8FEF91E361
:100D90002191822728E030E087FF09C0880F89274A
:100DA00021503109C9F7E417F50791F70895880F25
:100DB000F7CFE0917A03F0917B03309739F002840A
:100DC000F385E02D309711F060E209950895E8ED84
:100DD000F0E080818E7F80831092E2001092DA0032
:100DE0001092E100A0EEB0E08C9181608C93808144
:100DF0008F77808319BCA7EDB0E08C918E7F8C93A8
:100E000080818F7E80831092640308952091E40096
:100E10003091E50095E6A9012091EC00822F8170C8
:100E200020FF06C08091E80080FF06C080E00895A2
:100E30002091E80022FD1AC080917003882389F078
:100E4000853089F08091EB0085FD0FC02091E40092
:100E50003091E50042175307F9F29150E1F684E032
:100E6000089582E0089583E0089581E008958091D7
:100E7000720387FF13C08091E80082FF06C0809153
:100E8000E8008B778093E80004C0809170038111A3
:100E9000F2CF0895809170038823D9F38091E80000
:100EA00080FFF8CF8091E8008E77ECCF982F909359
:100EB000E900242F762F50E0891731F07091EC0073
:100EC0002091ED005091F00021FD07C09F5F973009
:100ED00071F78093E90081E008953091EB003E7F47
:100EE0003093EB003091ED003D7F3093ED00309179
:100EF000EB0031603093EB007093EC002093ED0039
:100F00005093F0002091EE0027FDE0CF80E008959F
:100F1000B0E0A0E0EEE8F7E00C94ED31C8EDD0E0F1
:100F200088818F7E8883E7EDF0E080818160808317
:100F300084E082BF81E08093640388818E7F888310
:100F400002EE10E0F80110821092DA0081EEC82E55
:100F5000D12CF601108288818F7788838881806800
:100F6000888388818F7D888319BC109270031092CA
:100F7000710310926F0310926E0390EEE92EF12C24
:100F8000F70180818B7F808388818160888342E044
:100F900060E080E08BDFF60180818E7F8083F80146
:100FA000808181608083808188608083F701808177
:100FB0008E7F8083888180618883CDB7DEB7E8E04B
:100FC0000C940932FC01CB01209178033091790314
:100FD0002617370790F0009729F42091E8002E7724
:100FE0002093E80040E0009751F4411108C080913F
:100FF000E80082FF31C080E00895C901F3CF20915D
:1010000070032223A9F12530A9F12091E80023FDE6
:101010002DC02091E80022FDEACF2091E80020FFBA
:10102000E2CF3091F3002091F200009719F02830C0
:10103000310558F041E02830310509F040E02091B9
:10104000E8002E772093E800CECF41914093F10045
:1010500001972F5F3F4FE9CF80917003882341F0C4
:10106000853041F08091E80083FFC1CF81E0089591
:1010700082E0089583E008950895089587E797E74B
:10108000909301088093000888E19AE00FB6F894E5
:10109000A895809360000FBE90936000FFCFA4E0FE
:1010A000B0E0E5E5F8E00C94F3318FB7F8942091C7
:1010B000600330916103409162035091630329837F
:1010C0003A834B835C838FBF69817A818B819C815A
:1010D0002496E2E00C940F3280912E010895A3E053
:1010E000B0E0E5E7F8E00C94F3319C0180915D03FA
:1010F00090915E0382179307B1F030935E032093C3
:101100005D03E0917A03F0917B03309761F00084F6
:10111000F185E02D309739F084E089833B832A8381
:10112000CE01019609952396E2E00C940F32A3E0DC
:10113000B0E0EDE9F8E00C94F3319C0180915B03A1
:1011400090915C0382179307B1F030935C03209376
:101150005B03E0917A03F0917B03309761F00084A8
:10116000F185E02D309739F083E089833B832A8332
:10117000CE01019609952396E2E00C940F328091FE
:101180005903882369F0E0917A03F0917B0330974B
:1011900039F00190F081E02D309711F00995089514
:1011A00080E00895FA01309709F009950895DC016F
:1011B00030E020E0FD01E20FF31FE491E41307C0EB
:1011C000E1E0E227EA0FFB2FF11D849108952F5FE4
:1011D0003F4F261778F380E00895909152038902DB
:1011E0009001112437FF03C08093520308952F37D5
:1011F0003105E4F7890FF8CF462B22FF0FC0982F57
:101200009F7082958F70892B962F9F7062956F705B
:10121000692B942F9F7042954F70492B982F9623DE
:10122000961309C050E04095509590E0482359230B
:1012300081E0452B09F080E081700895FB01811564
:1012400020E2920770F48F3F910551F048F0392F5A
:1012500094FF02C03295307F2081232B2083992771
:1012600008959C01305221153043C8F30895ECECE9
:10127000F2E090E080E068E275E24CE455E229E9B2
:1012800034E2768365835087478332872187968748
:10129000858701963F968430910599F708958115C9
:1012A0002CE7920741F420914F0330915003232BF8
:1012B00011F490E080E0089580E00895F894E82F1C
:1012C000E295EF70F0E041A18F7021E030E0B901CC
:1012D00002C0660F771F8A95E2F7CB01962F909593
:1012E000942391A392A1892B82A378940895A4E0DA
:1012F000B0E0EDE7F9E00C94F331809159038823D5
:1013000069F0CDDE69837A838B839C8369817A81DE
:101310008B819C812496E2E00C940F32C0DE6983BD
:101320007A838B839C8380911B0290911C02A091F5
:101330001D02B0911E0229813A814B815C81280FE8
:10134000391F4A1F5B1F29833A834B835C83DECF9F
:1013500090912C0292FF10C041E0282F247124307C
:1013600009F040E031E0282F2871283009F030E002
:10137000431711F02CE0822793FF10C041E0282F83
:101380002471243109F040E031E0282F2871283100
:1013900009F030E0431711F02CE0822730912D0244
:1013A00030FF10C051E0282F2171213009F050E0AA
:1013B00041E0282F2871283009F040E0541711F03F
:1013C00029E0822731FF10C041E0282F217121310F
:1013D00009F040E031E0282F2871283109F030E091
:1013E000431711F029E0822794FD877E0895803EFF
:1013F0009105C1F1C8F48133910509F47DC048F429
:101400008932910509F46DC08A32910509F47BC0D7
:10141000089589339105D1F082389105B9F085336B
:10142000910509F459C00895843E9105C1F138F43D
:10143000823E910521F1833E910531F10895863E6A
:101440009105C1F1873E9105E1F1089520912C02AB
:10145000237009F065C020912D0223FF14C089E29A
:1014600090E0089520912C0220FD43C030912D0280
:1014700030FF09C024FF4EC090E080E00895209125
:101480002C0222FDF7CF089520912C0222FD45C0A9
:1014900030912D0230FD44C024FFF5CFEDCF2091D7
:1014A0002D0221FFF0CF80912C0284FDE5CF87EE45
:1014B00090E0089520912C0223FFE5CF24FDDCCF9E
:1014C000F6CF20912C0223FD2EC030912D0231FF4A
:1014D000E3CF84EE90E0089520912C0225FFD3CF36
:1014E000BECF20912C0225FD21C020912D0223FF8B
:1014F000CACF89E390E0C7CF20912C0226FFC3CF4B
:101500008AE290E0089520912C0226FFBCCF81E36F
:1015100090E0089583EE90E0089582EE90E00895C3
:1015200080EE90E0089586EE90E0089585E390E0E7
:1015300008951F93CF93DF935ADFEC01C11580E527
:10154000D80708F052C0C11580E4D80708F0BFC022
:10155000C03ED10530F5CD3CD10508F0A7C0C83A52
:10156000D10578F4C53AD10508F09DC0C130D10548
:1015700031F1CE010497813A910508F1D0E0C0E045
:101580001EC0CE01885A91094B97C0F7C85AD0E0C7
:10159000CC0FDD1FC75BDE4F0990D881C02DD4640E
:1015A0000EC0C11580E2D80778F4CF3FD10511F005
:1015B00008F07EC0CE01805E91090897F8F6CE0152
:1015C000DF91CF911F9108958D2F8F71C1DE182F5C
:1015D000CE0199270CDFC12FD0E0DC2FCC27CC2700
:1015E000DF71C82BD92BD062EACFC03682E5D8078D
:1015F00048F5C03482E5D80708F086C0C03282E5DD
:10160000D807C8F4C11582E5D80708F069C08C2F47
:101610008F719EDE65E0D695C7956A95E1F7CF702C
:10162000D0E0DC2FCC27282F30E084FD8CC0C22BEB
:10163000D32BD069C4CFCF71D0E0DC2FCC27C16FC2
:10164000D06ABDCFC03C82E5D80700F5C03A82E53C
:10165000D80708F06EC0CE0180569245809708F0FA
:101660008DCF2C2F26952695277080E2289F9001FC
:1016700011248C2F8370C1E0D0E002C0CC0FDD1F9D
:101680008A95E2F7C22BD32BDA6899CFCE01805C22
:101690009245809708F072CFDC2FCC27CC27DF71E2
:1016A000C06FD06A8CCFA497D06489CFD06587CF24
:1016B0008D2F4EDE182FCE01992799DEC12FD0E055
:1016C000DC2FCC27CC27DF71C82BD92B78CFCE01CC
:1016D00099278DDECC27DF70C82BD92BD06A6FCF2E
:1016E0002C2F2695269580E2289F900111248C2F7F
:1016F0008370C1E0D0E002C0CC0FDD1F8A95E2F715
:10170000C22BD32BDD685BCF2C2F26952695277017
:1017100080E2289F900111248C2F8370C1E0D0E0DB
:1017200002C0CC0FDD1F8A95E2F7C22BD32BDC68F9
:1017300046CF8C2F8F710CDEC82FD0E0DC2FCC274A
:10174000CC27DF713CCF84E0220F331F8A95E1F76D
:1017500033276DCF982F90958091650389238093CF
:10176000650308958091C50390917C03981301C08F
:1017700008958F5F8770FACF292F9A3078F58630D9
:1017800068F590E036E0239F800D911D1124682FAD
:10179000677023E0969587952A95E1F7FC01EE0F97
:1017A000FF1FE80FF91FE253FE4F50E040E080E0DA
:1017B000219130E0062E02C0369527950A94E2F773
:1017C00021703327042E01C0220F0A94EAF7822BDE
:1017D0004F5F5F4F4330510559F7089580E00895FA
:1017E000292F9A3090F5863080F590E036E0239FDF
:1017F000800D911D1124282F277041E001C0440F56
:101800002A95EAF723E0969587952A95E1F7FC015A
:10181000EE0FFF1FE80FF91FE253FE4F90E080E04C
:1018200070E05191DF0111979B01082E02C036959F
:1018300027950A94E2F7217021952527242325274F
:101840002C9301968330910561F70895982F967037
:10185000963021F48860809386020895877FFBCFBD
:101860009091860221E030E0F90101C0EE0F8A95E7
:10187000EAF7D90102C0AA0FBB1F6A95E2F7EA2B6B
:1018800001C0220F4A95EAF7892F8E23E81303C07F
:10189000292B822FDBCF20952923FBCF21E030E0BD
:1018A00001C0220F8A95EAF7209580918602822353
:1018B000CDCF21E030E001C0220F8A95EAF7809178
:1018C0008602822BC3CF0F931F93CF9301E010E0CA
:1018D000082E01C0000F0A94EAF7C09151039C2F13
:1018E000902341F4E6DFC027C0935103CF911F91AD
:1018F0000F910895D3DFF7CF80932B020895982F8F
:1019000082958F7011F0982F84E0292F26952695C7
:1019100011F08E5F922F969509F08F5F0895982FA2
:1019200080E0911101C008952FEF290F92238F5F5E
:10193000F8CF9C019A9581159F4150F5D901AA27AE
:10194000B170F901EE27F270B90166277470A90130
:101950004427587034FF0EC080E1AB2B09F480E0BF
:10196000EF2B09F08062672B09F08064452B89F02A
:101970008068089581E0AB2B09F480E0EF2B09F03B
:101980008260672B09F08460452B19F08860089508
:1019900080E00895CF93DF93682F8091CF059091D9
:1019A000D0056A30B1F42091C603895C9340622F60
:1019B00070E00E94CF31281B822F66E00E941A320D
:1019C000C82FC15018F4DF91CF91089580E2E2DF73
:1019D000F8CF6D30F9F49C01295C33404091C60387
:1019E000642F70E0C9010E94CF31481B842FA901E8
:1019F000480F511D4115524018F080E030E020E0C2
:101A0000820F932F911D87539C4F9093D005809305
:101A1000CF05D9CF26E0FC01A9ECB5E001900D92ED
:101A20002A95E1F7603E08F458C026E0FC011192C7
:101A30002A95E9F7C091CF05D091D00546E050E056
:101A4000BE0189EC95E00E94AC329E01295C3340D6
:101A5000892B41F1C90145E0969587954A95E1F7B3
:101A600041E050E0BA0102C0660F771F8A95E2F7A5
:101A7000CB016091C7037091C803862B972BB901E6
:101A80006B5F7F4FE5E076956795EA95E1F702C0D9
:101A9000440F551F6A95E2F7842B952B9093C8034A
:101AA0008093C7032A5F3F4F4091C603642F70E0C5
:101AB000C9010E94CF31481B463010F4240F311D5C
:101AC000211572E0370710F030E020E027533C4F3B
:101AD0003093D0052093CF0576CFF6E06F9FB0010D
:101AE00011246553784F46E050E00E94A332A2CF04
:101AF000CF93DF93EC01FE018491811103C0DF914C
:101B0000CF91089547DF2196F6CF8091650390919C
:101B10005603892B8093A60148E050E06FEE71E0F8
:101B200086EA91E00E94AC32892BB9F088E0E6EABF
:101B3000F1E0AFEEB1E001900D928A95E1F7E0910E
:101B40007A03F0917B03309741F00280F381E02D1E
:101B5000309719F086EA91E009950895E8EAF1E0F6
:101B600086E0DF011D928A95E9F790E080E0DFDAF8
:101B700090E080E0B4DA10925603C7CFAAE2B0E05A
:101B8000E4ECFDE00C94F23182E793E0FC01019675
:101B90002091F100208323E08A379207B9F78091E2
:101BA0007303893009F459C0C8F4823009F4B4C011
:101BB000833009F484C0813091F18091E80083FF83
:101BC00036C180917203909173039A3008F02FC14F
:101BD000E92FF0E0E754FA4C0C9477328A3009F49C
:101BE0008BC08B3051F780917203813231F7809135
:101BF000760390917703892B01F78091E800877F26
:101C00008093E80034D981E090917403911101C070
:101C100080E080932F0110926503A0DFCECF8091EA
:101C20007203813A51F68091E800877F8093E80043
:101C30008091760390917703892B59F468E086E6CA
:101C400093E070E0BFD98091E8008B778093E80043
:101C5000B4CF60E090E080E0F4CF809172038132F5
:101C600009F0ABCF80917603909177038D7F892B1C
:101C700009F0A3CF8091E800877F8093E8008091EE
:101C8000E80082FF17C09091F3008091F200029764
:101C900031F48091F100813011F0863021F480918F
:101CA000F10080932E018091E8008B778093E8000B
:101CB000DED883CF809170038111E1CF7ECF8091F8
:101CC0007203813A09F079CF80917603909177037E
:101CD000892B09F072CF8091E800877F8093E8001C
:101CE0008091E80080FFFCCF80912F018093F1006C
:101CF0008091E8008E77DACF80917203813209F00B
:101D00005CCF8091E800877F8093E800B0D8809115
:101D1000750380932D0151CF80917203813A09F0B0
:101D20004CCF8091E800877F8093E8008091E800A5
:101D300080FFFCCF80912D01D9CF803899F0823877
:101D400009F075C0809176038F70873008F06FC0FE
:101D50008093E9008091EB0085FB882780F9109241
:101D6000E90006C080916E0390916F03911182602B
:101D70009091E800977F9093E8008093F100109293
:101D8000F1008091E8008E77C2C1882309F4AFC1C9
:101D9000823009F04CC0809174038111B3C18091ED
:101DA00076038F702FEF280F263008F040C0809305
:101DB000E9002091EB0020FFA5C1933031F4809120
:101DC000EB0080628093EB009DC19091EB009061ED
:101DD0009093EB0021E030E001C0220F8A95EAF7F2
:101DE0002093EA001092EA008091EB008860EACF2D
:101DF00081111DC0109174031F778091E3008078DA
:101E0000812B8093E3008091E800877F8093E80036
:101E10002ED88091E80080FFFCCF8091E30080689D
:101E20008093E30082E0111183E08093700380913E
:101E3000E80083FF0AC08091E800877F8093E80074
:101E40008091EB0080628093EB00AA96E3E00C9413
:101E50000E328058823058F74091740350917503C8
:101E60004C3D83E0580799F583E08A838AE28983B1
:101E70004FB7F894DE01139620E03EE051E2E32FE5
:101E8000F0E050935700E49120FF03C0E295EF701B
:101E90003F5FEF708E2F90E0EA30B8F0C7968D93D9
:101EA0009D932F5F243159F74FBF8091E800877FC2
:101EB0008093E8006AE270E0CE01019683D88091B9
:101EC000E8008B778093E800B2CFC096E8CF80918E
:101ED000760390917703252F33272330310509F4BA
:101EE0004AC078F52130310509F486C08BE590E0D1
:101EF000EAE6F6E02230310509F099CF2091E800BA
:101F0000277F2093E800209178033091790382178E
:101F1000930708F49C0140E02115310509F071C0D8
:101F200041116FC08091E80082FDC9CF809170039C
:101F3000882329F2853019F28091E80083FFF2CFDF
:101F4000BECF2132310509F448C02232310509F0F3
:101F50006ECF8330910508F06ACFFC01EE0FFF1FB2
:101F6000E956FE4F0190F081E02D8C569E4FDC012A
:101F70008C9190E026C0CA019927423031F183301C
:101F8000910568F40097B1F0019709F050CFE5E0B2
:101F9000F7E0E4918E2F90E0E5E0F7E012C00397C0
:101FA00009F045CFE7EDF6E0E4918E2F90E0E7ED04
:101FB000F6E007C0E7E1F7E0E4918E2F90E0E7E17B
:101FC000F7E0009709F433CF99CFE5EFF6E0E4911D
:101FD0008E2F90E0E5EFF6E0F4CF8330910508F026
:101FE00026CF880F991FFC01E356FE4F0190F08128
:101FF000E02D89E090E082CF82E190E0E5ECF6E030
:102000007DCF80917003882309F459CF853009F47E
:1020100056CF8091E80083FD52CF8091E80082FD89
:1020200081CF8091E80080FF77CF9091F30080917D
:10203000F2002115310519F08830910550F041E08A
:10204000089709F040E08091E8008E778093E800DF
:1020500063CF44914093F1003196215031090196AC
:10206000E8CF803809F0E3CE8091E800877F809345
:10207000E800809171038093F10083CE8111D7CE67
:1020800010917403123008F0D2CE8091E800877F5F
:102090008093E800109371030E943707112311F019
:1020A00084E005C08091E30087FDFACF81E0809352
:1020B000700342E061EC81E00E94560742E261EC6D
:1020C00084E00E94560742E261EC82E00E945607DB
:1020D00042E260EC83E00E945607809170038430F6
:1020E00021F081E080933001A2CE82E0FBCF80918D
:1020F0007403813009F09BCE81E0933009F080E0D9
:1021000080936F031092E9008091E800877F8093AD
:10211000E8000E9437078BCECF93DF93EC0149850F
:102120005A856D857E853ED88B81982F90958091BC
:102130005603892380935603E8DC85E0FE01119263
:102140008A95E9F7DF91CF910895CF93DF93EC0162
:102150008C8181FD0FC082608C83809156039B81AE
:10216000892B80935603D1DC4F8158856D857E8500
:10217000CE0118D810925803109257038C8180FD1D
:1021800002C0CE01C9DFDF91CF910895882339F0D5
:10219000809590915603892380935603B6CC089579
:1021A00080914E03882321F082E2F0DF10924E03EB
:1021B0000895882331F090915603892B809356031C
:1021C000A4CC0895882311F0C5DA9FCC0895882304
:1021D00031F090916503892B8093650396CC089527
:1021E000882371F19CEF980F913A70F4E8EAF1E0DE
:1021F0002EEA31E09191891303C0DF0111971C92FF
:102200002E173F07B9F781CC90E2980F983048F429
:10221000877091E001C0990F8A95EAF7892F9ADAC1
:10222000F2CF9BE5980F933020F490E080E00C947F
:102230009708885A8B3120F490E080E00C946F0866
:1022400008950F931F93CF93C82F882339F18CEFF4
:102250008C0F813AA0F508EA11E08EEA91E0F801CE
:102260002191C217F9F08E179F07D1F7EFEF80E0A9
:10227000D8019D918D01C91781F0EF3F19F491119B
:1022800001C0E82F8F5F863099F7EF3F31F00E2EB7
:10229000000CFF0BEA55FE4FC28337DCCF911F9134
:1022A0000F910895E8EAF1E02191C21303C0DF0124
:1022B00011971C928E179F07B9F727DCD7CF80E2C2
:1022C0008C0F883068F4C77021E030E001C0220F25
:1022D000CA95EAF780916503822B80936503DDCF71
:1022E0008BE58C0F833038F42C2F2452330BC9012B
:1022F0000E949708D3CFC85ACB3180F6EC2FF0E07C
:10230000EE0FFF1FE75BFE4F808191810E946F08F7
:10231000C5CF0F931F93CF93DF93EC01FC01019086
:102320000020E9F78F0101501109C017D10728F0EB
:10233000DF91CF911F910F91089589912BDBF5CFFC
:102340000F931F93CF93DF938B01EA01909170035A
:10235000943061F58093E9008FEF9091E80081500F
:1023600095FD06C095ED9A95F1F700008111F5CF26
:102370008091E80085FF1AC00E940607811111C0F4
:102380008091E80085FD06C08091E8008E778093FB
:10239000E800F2CFF80181918F018093F10021973D
:1023A00079F78091E8008E778093E800DF91CF91F4
:1023B0001F910F910895BC0143E050E084E0C0CF2D
:1023C000CF93DF93D82FC92F48E050E0682F792FA3
:1023D00081E0B6DF88E0ED2FFC2FA6E6B3E00190A8
:1023E0000D928A95E1F7DF91CF910895792F6032B0
:1023F00029F440E250E0682F82E0A2CF0895B0E0D7
:10240000A0E0E5E0F2E10C94EB31F82EE92ED62EB7
:10241000C72E8A0180911A02AA24A394B12C8A3073
:1024200018F48AE0A82EB12CC1E0D0E06D2D7C2DEF
:102430008F2D9E2DF8010995811104C02196AC16AF
:10244000BD062CF4CDB7DEB7EAE00C940732CC9F82
:102450009001CD9F300D300D112490E080E045E3D8
:102460004A95F1F70000019682179307C1F7DECF76
:102470001F93CF93DF93182FEB01E3DE209731F406
:10248000812FAEDEDF91CF911F9108958FE99FE0FC
:102490000197F1F700C000002197F0CFB0E0A0E075
:1024A000E4E5F2E10C94EB31FC018AE0B82EDF01A7
:1024B0002D918D012223D1F1213009F051C081816C
:1024C000813061F482818F010D5F1F4F70E060E009
:1024D000893311F460E570E0CBDF07C0823039F456
:1024E0008F010D5F1F4F8281ACDEF801E0CF83309A
:1024F00031F48F010D5F1F4F828172DEF6CF8F01A5
:102500000E5F1F4F843081F482818F010D5F1F4F5A
:1025100030E020E0682F6053770BAB016A30710523
:1025200050F02115310599F48111DFCFCDB7DEB719
:10253000EAE00C940732B29EC001B39E900D1124C4
:102540009A01280F391FF80181918F01E3CFAFE97C
:10255000BFE01197F1F700C0000021503109E1CF31
:10256000E22FF0E0E55BF84FA490822F86958695E8
:10257000869590E0FC01E55CF84FE4902770F12C23
:10258000022E02C0F594E7940A94E2F7B1E0EB2240
:10259000FF24FC01E55DF84FC490D12C022E02C04F
:1025A000D594C7940A94E2F7E1E0CE22DD24FC0141
:1025B000E55EF84FC491D0E002C0D595C7952A9545
:1025C000E2F7C170DD27E114F10411F081EE39DE8C
:1025D000C114D10411F086EE34DE70E060E08A2D83
:1025E00047DFC114D10411F086EEFADDE114F104E5
:1025F00011F081EEF5DDCD2B09F477CF70E060E0CE
:102600008CE26ACF10926503A9DA2FEF84E39CE095
:10261000215080409040E1F700C0000088E19AE03E
:102620000FB6F894A895809360000FBE9093600059
:10263000FFCF1F93CF93DF93962F122F632F8630F8
:10264000D8F49A30C8F44630B8F4C42FD0E0CC0F98
:10265000DD1F2CE0929FC00DD11D112498E7899FAA
:10266000C00DD11D1124CE0189960E948235612FA3
:10267000CE018A960E948235DF91CF911F910895F5
:1026800085E290E00E946635863089F486E290E02B
:102690000E9466358C3659F487E290E00E946635D8
:1026A00091E08E3809F090E0892F8170089580E0E4
:1026B000FCCF462F572FBC01CA018F5A9C4F4F3A6F
:1026C00051056105710510F40C94663580E008959C
:1026D0000F931F93CF93DF93863030F56A3020F548
:1026E000463010F5C42FD0E0CC0FDD1F2CE0629FE8
:1026F000C00DD11D112438E7839FC00DD11D1124B9
:10270000CE0189960E946635082F10E0102F002711
:10271000CE018A960E9466359801282BC901DF9167
:10272000CF911F910F91089590E080E0F8CF462F50
:10273000672F2091BA023091BB02232B81F4703FA6
:1027400039F4403F61F48091BC029091BD0208953C
:102750007A3028F4463018F4863008F4B9CF80E097
:1027600090E00895B0E0A0E0E8EBF3E10C94EE31E6
:102770007C010091860280912B02082BC5E0D0E0FD
:1027800010E0DC2EC8010C2E02C0959587950A94A6
:10279000E2F780FD09C02197A0F7D12C8D2DCDB790
:1027A000DEB7E7E00C940A32B7018C2FC0DF0E943D
:1027B000990A019781F3F2CFCF93DF93D82FC92FD6
:1027C000D1DF6D2F7C2FB3DF0E94990ADF91CF916B
:1027D0000895FC0184818823B1F08781908500975A
:1027E000A1F00E94990A282F92959F709630B1F01F
:1027F00080F4925F9F70923030F481E0203FA1F02E
:1028000050F4283E50F080E008C080819181D4DFF0
:10281000EACF9A5FEFCF243FB1F7089581E0283ED9
:1028200020F0213F81F7F9CF08950895A6E0B0E0A8
:10283000ECE1F4E10C94F2319C01FC01878190857C
:102840000097D1F486E0DE01119601900D928A95F1
:10285000E1F7F901258189819A81222389F0662394
:1028600079F080DF182F682F89819A810E94F00B00
:1028700069817A81812F5BDF2696E3E00C940E322A
:102880000E94BC0B182FF4CF4F925F926F927F92F1
:10289000AF92BF92CF92DF92EF92FF920F931F936E
:1028A000CF93DF93CDB7DEB760970FB6F894DEBF56
:1028B0000FBECDBF1A821982FE0133968EE0DF0172
:1028C0001D928A95E9F70CE010E09FEA492E512C01
:1028D000612C712C21E5A22E23E0B22E01501109AA
:1028E000A9F460960FB6F894DEBF0FBECDBFDF919E
:1028F000CF911F910F91FF90EF90DF90CF90BF90FD
:10290000AF907F906F905F904F9008956201B1E11A
:102910004B165104610471042CF080E1C82ED12CB7
:10292000E12CF12CA601B501CE0101960E94733570
:10293000AC0CBD1C0D2C000CEE08FF084C185D08FB
:102940006E087F08CBCFAAE0B0E0E9EAF4E10C948E
:10295000E831C0904F03D090500381E090E0909315
:10296000500380934F03912C812CF12C5401E12CC6
:1029700014C0F80125913491472D6E2D8F2D59DE0D
:102980000E5F1F4F739486E07812F3CFE6E0AE0E31
:10299000B11CE394FAE0EF1639F08501000F111F26
:1029A00006561C4F712CE5CFF3948CE3880E911CD6
:1029B000E6E0FE12DBCF1A8219821C821B821E8285
:1029C0001D8218861F8284E690E09A8789874AE0F4
:1029D00050E069EF72E08E010F5F1F4FC8010E9447
:1029E000A0354AE050E063E073E0C8010E94A035E2
:1029F0004AE050E06DE073E0C8010E94A0354AE073
:102A000050E067E173E0C8010E94A035F80111921F
:102A1000FA94E9F781E2E82E83E0F82E46E050E0F0
:102A2000B701C8010E94A035F6E0EF0EF11C81E568
:102A3000E81683E0F80691F7D0925003C0924F0356
:102A40002A96EDE00C9404326FEF85E290E00E944C
:102A500082356FEF86E290E00E9482356FEF87E269
:102A600090E00E94823560E088E290E00E9482352A
:102A70006ADF0ADF66E085E290E00E9482356CE65C
:102A800086E290E00E9482356EE887E290E00C9446
:102A90008235282FCB01243068F43AE0239FB0011F
:102AA000112467507D4F4AE050E00E94563590E077
:102AB00080E008958FEF9FEF0895AAE0B0E0E3E68D
:102AC000F5E10C94F3319C0197558F3F910509F086
:102AD00068F4BE016F5F7F4F822FDBDF892B31F4FB
:102AE00089859A852A96E2E00C940F3284E690E07C
:102AF000F9CFA6E0B0E0EFE7F5E10C94EE3108E0A5
:102B000013E081E2E82E83E0F82E98E0D92E46E02B
:102B100050E0B701CE0101960E945635F8018D2D87
:102B200011928A95E9F7B8016C5F7F4F89819A818C
:102B30000E941E09F80191838083B8016B5F7F4F6B
:102B40008B819C810E941E09F801938382838D8171
:102B500086838E818783F6E0EF0EF11C085F1F4F9E
:102B600081E5E81683E0F80691F62696E7E00C94F6
:102B70000A32AB0124E630E0BC0188E70E94942FC2
:102B80009C0181E0232B09F080E0089580914C03A3
:102B900090914D03911103C091E0892708958823F6
:102BA00061F062E070E088E993E0E3DF811103C047
:102BB00080914C03089510924C0380914C03ECCF0C
:102BC000A5E0B0E0E6EEF5E10C94F33180914C0322
:102BD0008D8380914D038823E9F00E944F08DC012A
:102BE000CB01805A9541AF4FBF4F809348039093DC
:102BF0004903A0934A03B0934B038D81811107C011
:102C000062E070E086E993E0B4DF811108C0809152
:102C10004C038D838D812596E2E00C940F3281E088
:102C200080934C03F4CFCF92DF92EF92FF921F93E9
:102C3000CF93DF93CDB7DEB728970FB6F894DEBFFA
:102C40000FBECDBFC0901602D0901702E0901802C0
:102C5000F09019020E944F08DC01CB018C199D09EC
:102C6000AE09BF0911E084369105A105B10578F1DF
:102C70000E947709DC01CB010296A11DB11D898359
:102C80009A83AB83BC838091110190911201845F80
:102C90009D4F20911001422F50E0253010F044E06C
:102CA00050E0BE016F5F7F4F0E94B93282E090E03A
:102CB0000E945F31182F882351F00E944F086093C3
:102CC0001602709317028093180290931902812FB5
:102CD00028960FB6F894DEBF0FBECDBFDF91CF911F
:102CE0001F91FF90EF90DF90CF9008958F929F9269
:102CF000AF92BF92FF920F931F93CF93DF93CDB705
:102D0000DEB72A970FB6F894DEBF0FBECDBFF62E02
:102D1000072F90E080E00E945F31182F882309F48C
:102D200082C080910301482F50E0882311F041E0D8
:102D300050E06091040170910501645F7D4FCE0108
:102D400006960E94B9328090080290900902A090E5
:102D50000A02B0900B020E944F086F837887898720
:102D60009A87DC01CB0188199909AA09BB09843625
:102D70009105A105B10540F48DE092E00E94C206E4
:102D80009E81891709F44FC081E090E00E945F3175
:102D900081111BC010E085E0E3E0F2E0AF2DB02F21
:102DA00001900D928A95E1F7812F2A960FB6F8943B
:102DB000DEBF0FBECDBFDF91CF911F910F91FF906E
:102DC000BF90AF909F908F90089580910B01482FF6
:102DD00050E0863010F045E050E060910C017091B9
:102DE0000D01645F7D4FCE0101960E94B9328DE0E6
:102DF00092E00E94C2069E818913CCCF0E944F08A8
:102E0000609308027093090280930A0290930B0268
:102E100085E0FE013196A3E0B2E001900D928A9523
:102E2000E1F711E0B8CF85E0EDE0F2E0DE011196C8
:102E300001900D928A95E1F71111EACFACCF1F9264
:102E40000F920FB60F9211242F933F934F935F93DE
:102E50006F937F938F939F93AF93BF93CF93DF93A2
:102E6000EF93FF93D091E900DF708091EC00C82FC1
:102E7000C17080FDC0E81092E9008091F000877F6A
:102E80008093F00078940E94BE0D1092E90080912A
:102E9000F00088608093F000CD2BCF70C093E900E4
:102EA000FF91EF91DF91CF91BF91AF919F918F9162
:102EB0007F916F915F914F913F912F910F900FBE36
:102EC0000F901F9018951F920F920FB60F9211241A
:102ED0002F933F934F935F936F937F938F939F9322
:102EE000AF93BF93EF93FF938091E10082FF09C0FE
:102EF0008091E20082FF05C08091E1008B7F80938A
:102F0000E1008091DA0080FF24C08091D80080FF2A
:102F100020C08091DA008E7F8093DA008091D90002
:102F200080FFA9C080E189BD82E189BD09B400FEAE
:102F3000FDCF81E08093700380916403811109C00B
:102F40000E94E7060E9488078091E20084608093D7
:102F5000E2008091E10080FF1AC08091E20080FFD2
:102F600016C08091E2008E7F8093E2008091E200A3
:102F700080618093E2008091D80080628093D800C5
:102F800019BC85E08093700383E0809330018091C9
:102F9000E10084FF2FC08091E20084FF2BC080E11C
:102FA00089BD82E189BD09B400FEFDCF8091D800C2
:102FB0008F7D8093D8008091E1008F7E8093E10027
:102FC0008091E2008F7E8093E2008091E200816038
:102FD0008093E20080917103882309F452C084E059
:102FE0008093700380917003843009F452C081E0B3
:102FF000809330018091E10083FF2CC08091E2003A
:1030000083FF28C08091E100877F8093E10082E008
:1030100080937003109271038091E1008E7F809302
:10302000E1008091E2008E7F8093E2008091E200D7
:1030300080618093E20042E060E080E00E945607F9
:103040008091F00088608093F00081E080933001EF
:1030500080932F01FF91EF91BF91AF919F918F913D
:103060007F916F915F914F913F912F910F900FBE84
:103070000F901F90189519BC109270031092640362
:1030800068CF8091E30087FD02C081E0A9CF83E093
:10309000A7CF82E0ADCF78941F921FB61F92112464
:1030A0008F939F93AF93BF9380916003909161033F
:1030B000A0916203B09163030196A11DB11D80939D
:1030C000600390936103A0936203B0936303BF9185
:1030D000AF919F918F911F901FBE1F9018952FB792
:1030E000F8948091600390916103A0916203B09184
:1030F00063032FBF0895B0E0A0E0E1E8F8E10C948D
:10310000ED31F62E172FC42FE22EFC018581882386
:1031100099F040935503E3DF909354038093530356
:10312000C77081E001C0880FCA95EAF750D8CDB7C3
:10313000DEB7E8E00C940932D0915503D41334C0C3
:10314000C0905303D0905403CADF9C012C193D0951
:1031500069018F2D912FB1DCC816D90628F5C0E280
:10316000CE0DDE1591F0D77011E0812F01C0880FD0
:10317000DA95EAF727D8C83040F48E2D877001C061
:10318000110F8A95EAF7812F22D870E060E0802F36
:103190006FD9C83060F62E2D277081E001C0880FEE
:1031A0002A95EAF70FD8C3CFC77081E001C0880F16
:1031B000CA95EAF7F7CFA3E1B0E0E1EEF8E10C94AD
:1031C000E9311A821982FE01339688E0DF011D92EF
:1031D0008A95E9F781E8E82E81E0F82E10E000E01A
:1031E000CC24C394D12C2CE8A22E21E0B22EF701DE
:1031F00081917F018F3F09F445C0F894E82FE29553
:10320000EF70F0E021A18F70A60102C0440F551F9E
:103210008A95E2F7CA01922F982B91A392A18095EB
:10322000892382A3789400C0E6E8F1E031E0912C94
:1032300021912F3F09F494C0A22FA295AF70B0E066
:1032400090968C9190E02F7002C0959587952A9565
:10325000E2F780FD85C0832F982A330FAE16BF0694
:1032600039F7F701319780818F3F11F00E945E0995
:1032700050EA5A95F1F7E1E0F0E0EC0FFD1FE00FA6
:10328000F11F90820F5F1F4F0530110509F0AFCF7E
:103290004AE050E0BE016F5F7F4F8FE192E00E94F5
:1032A000AC329C01892B49F08AE0FE013196AFE1F6
:1032B000B2E001900D928A95E1F700912A0210E0A8
:1032C00000551D4F232B09F44DC081E08093FB0175
:1032D00006DF9093FA018093F901F12CE0905903F5
:1032E000EE2009F499C01C861B86FE013D9683E002
:1032F000DF011D928A95E9F780911A028A3008F061
:1033000056C046E756E1BE01655F7F4FC80177D8DA
:10331000882309F471C043E156E1BE01655F7F4F28
:10332000C8016DD8882309F467C010921A028091F1
:10333000290290E045E050E0BE01655F7F4F805577
:103340009D4F0E94AC3221E020930202892B09F0AC
:1033500046C0E12C8E2D8F296396ECE00C9405324B
:1033600080E07ACFF090FB01FF2009F4B6CFC09047
:10337000F901D090FA01B3DE8C199D09059708F484
:10338000ACCF45E050E06FE172E0C8010E94AC3282
:10339000892B59F085E0EFE1F2E0D80101900D9220
:1033A0008A95E1F71092FB0199CFF12CFBCFC090E9
:1033B000FC01D090FD0193DE8C199D09843F914062
:1033C00008F09FCF80910202882319F2FE013B96FC
:1033D00085E0DF011D928A95E9F710920202A09123
:1033E0002902B0E0A055BD4F85E0FE013B9601905B
:1033F0000D928A95E1F7AECF80911A028F3F31F09E
:103400008F5F80931A028A3008F491CF68DE909320
:10341000FD018093FC01D6CF85E0F801ADE0B2E07C
:1034200001900D928A95E1F78DE092E00E94C2062C
:1034300080930C028090120290901302A0901402CC
:10344000B09015028091FE019091FF01A0910002C1
:10345000B091010288169906AA06BB0609F47ACF34
:103460008092FE019092FF01A0920002B0920102B0
:103470000E944F08861A970AA80AB90A80921B026E
:1034800090921C02A0921D02B0921E0263CFAEE089
:10349000B0E0EDE4FAE10C94E3317C01DC01149638
:1034A0008C91882309F427C161E0C701BFD98C0141
:1034B000F7018581882339F1809157039091580352
:1034C000009709F108171907F1F09C0133278C7F49
:1034D0009927F0E0E0E0892B41F48FE0829FF00132
:1034E000839FF00D1124E453FD4F84818460848315
:1034F00011830083CF010E94A5101092560361E052
:10350000C70194D98C01D70115962C91222309F17A
:10351000C8019A9581159F4408F098C0C801992761
:10352000AC01445051094432510518F08B970E9765
:1035300080F4E0914102F0E0EE0FFF1FEA5BFD4FE7
:10354000808191818F3F3FE7930719F00196918326
:1035500080834091CC014987411119C0222309F48D
:10356000F1C0011550E5150708F0C9C0011580E24A
:10357000180708F0AAC1011597E0190741F008F0F3
:103580006EC0C801805E9109089708F06DC02223C3
:1035900009F47CC2C80197578038910508F0F1C63C
:1035A000003108F0A8C06EEA70E080E090E081D8B9
:1035B0008111A1C0C12CD12C76010111D2C104E02E
:1035C000AE014F5F5F4F5A0199249A94D501E02FC5
:1035D0001D92EA95E9F726013701FFEF4F1A5F0ABE
:1035E0006F0A7F0AC701B60164D88983882309F46A
:1035F00082C0813039F5A70196012E5F3F4F4F4FB2
:103600005F4F2D833E834F835887C301B20151D84A
:10361000182F8A83882309F46EC08FEF810F8330BF
:1036200008F0BFC12601370133E0430E511C611C75
:10363000711C6D817E818F8198853BD88B83882317
:1036400009F4A7C1C5010E944E12A3C190E080E019
:103650000F3F110511F008F063CFC80161CF0115CC
:10366000BFE01B0709F493CF2091650380915603B7
:1036700099E0F701A9EBB1E001900D929A95E1F77D
:103680001093C1010093C00110925203822B8093CA
:10369000B8010937BCE71B0709F09CC681E00E940E
:1036A000ED088091B8010E94D91089E0E9EBF1E0C2
:1036B000AFEAB1E001900D928A95E1F78091520353
:1036C0008093AE0186E0F701AFEAB1E001900D9280
:1036D0008A95E1F78091AE018093CC018FEA91E069
:1036E000D6DE1092CC01F7018581811104C0809152
:1036F000B8010E94C6102E96E2E10C94FF31003E04
:10370000E2E51E07C8F4003CF2E51F0748F4003468
:1037100032E5130758F4011542E5140708F4A4CF65
:103720000A378CE7180709F032CF19C0C801805654
:1037300092458097A8F398CFC80187579C47059773
:1037400008F092CF09373CE7130709F4C5C00A37E0
:10375000FCE71F0709F01BCF222309F4DAC0A09071
:10376000C001B090C1012091B8012D832983BE0111
:103770006F5F7F4FC5010E941E092C0139813D8773
:1037800078E0C72E73E0D72E01E010E022242A94BF
:10379000D60117963C90179733FE54C08D909C909D
:1037A000119748145904B9F414967C901497232D5A
:1037B00016964C91672D8D850E94FC08882359F040
:1037C000872D0E948F0C281634F4F6019581028112
:1037D0001381192B282ED60112966D907C90139789
:1037E00046145704C9F431FE17C01596BC91BE8724
:1037F000232DF60146816B2F8D850E94FC088823BE
:1038000059F08E850E948F0C281634F4D601149638
:103810009C918401192B282E30FE14C0BFEF2B126F
:1038200011C00130110571F4232DF601468160E0CD
:103830008D850E94FC08882329F0D60115968C916D
:103840008301182BB8E0CB0ED11CE8E4F3E0EC15B3
:10385000FD0509F09DCF0130110509F04FC08D81A4
:10386000807F11F0F0E1F9871D8112951F702D8185
:10387000122B1F703985132BA11440E2B406B8F542
:103880005FEFA516B10419F010F01B29BB240A2D17
:10389000812F8D704A2D09F460C06AE082E691E0C4
:1038A0000E94D708282F30E02115310551F4402F10
:1038B00066E184E491E00E94D708282F30E0882355
:1038C000D9F0F901F12B8F0119C0D70116968C910F
:1038D000807F09F0C9CE5BCE8091C0019091C1017B
:1038E000892B09F408CF222309F4ECCED7CEC501E9
:1038F00090528115904350F210E000E087E0E3EC35
:10390000F1E0DF011D928A95E9F71093CB01009356
:10391000CA018091CA019091CB01892B09F4EBCEA9
:10392000F7018581882339F08FEF0E94ED0880919F
:1039300052038093C20186E0F701A3ECB1E001904D
:103940000D928A95E1F78091C2018093CC0183ECBE
:1039500091E09DDD1092CC01CECE68E08AE591E049
:103960009FCFFFEACF16D104E104F10409F4C3CEDE
:10397000C701B6010E945913811101C001502FEFF8
:10398000C21AD20AE20AF20A18CE49845A846B8417
:103990007C84730162011ACE4D805E806F807884D2
:1039A000F8CF8BEF810F8330A8F5D701C6010396BE
:1039B000A11DB11D89879A87AB87BC876D817E81E8
:1039C0008F8198850E9459138B838823F1F22601F9
:1039D000370194E0490E511C611C711C69857A8580
:1039E0008B859C850E9459138C83882391F28B814F
:1039F0009C818130AFEF9A0710F0982F88271630FE
:103A000029F0173029F00E941D25C3CFDFD7C1CF81
:103A100059D7BFCF143009F0BFCF6D817E818F8120
:103A200098850E945913182F26013701B4E04B0ED8
:103A3000511C611C711CA70196012D5F3F4F4F4F18
:103A40005F4F2D833E834F835887CA01B9010E947F
:103A50005913112309F44FCE882309F44CCE815019
:103A6000990B989E9001999E300D1124412F415041
:103A7000550BCA01820F931F019708F48ACFAFE953
:103A8000BFE01197F1F700C00000F6CF0115E7E5A0
:103A90001E0708F441C40115F8E51F0708F06BC4C0
:103AA000680127E5D21A62EC72E08C2D0E9449155C
:103AB000892B19F58FE08C9DF0018D9DF00D11245F
:103AC000E453FD4F8281813091F58091C202909143
:103AD000C302892B91F08091C4029091C502892B79
:103AE00061F08091C6029091C7022091C802309186
:103AF000C902822B932B892B11F1053E110509F484
:103B000042C080914E03811156C0C80197558F3F26
:103B1000910509F008F4EEC0F801E851FC47E730E0
:103B2000F10508F022C1ED53FA4C0C947732823043
:103B300021F78091C6029091C702892BF1F22FE004
:103B40002C9DC0012D9D900D1124FC01E053FD4FD3
:103B500020812E7F208384539D4F0E94A510CDCFBE
:103B60000E94D010C8CDD70116968C91807F29F67F
:103B7000812F99278F7199278230910509F4DBC332
:103B8000429709F0BACF25EE30E0D7C38095822363
:103B9000E9C3322F382309F4B8CF982F9095292301
:103BA0002093CD010E94AA0BD70115968C918823F2
:103BB00009F4A1CDAACFD090650391DA88579C4E25
:103BC0009093790280937802F7018581882309F424
:103BD0009CCF8D2D8D7909F063C00115F0E51F078D
:103BE00038F5011520E4120708F064C0063E1105FF
:103BF00009F48BCFC80190528115904288F5D70106
:103C000016968C91807F09F442C0C80199271092C2
:103C100056038D32910541F008F065C08E31910553
:103C200008F04FC00497E0F182E0809356034EC045
:103C3000003EB2E51B07E0F4003CE2E51E0708F099
:103C400064CF003AF2E51F0768F4003622E5120758
:103C500008F05BCFC80192558034910508F455CF28
:103C6000C801D5CF043B32E5130709F44ECFF8CF96
:103C700009374CE7140728F407375CE7150780F38A
:103C800044CF0B378CE7180709F43FCFE9CF812FDA
:103C90008F71843109F439CF863111F410925603B3
:103CA0000E94D010809165039091CD01892B809363
:103CB00065032BCFD70116968C91807F09F0A5CF95
:103CC00024CF8832910510F08A9751F78091CD0169
:103CD000882331F08091560392E089278093560320
:103CE0000E94850D12CF8C34910581F38D32924064
:103CF00069F3D6CFC8018C7F9927892B09F0FBCCBB
:103D00002FE0029FF0011124AF0144535D4F6A017F
:103D1000D70115968C91E053FD4F908180FB90F96F
:103D20009083882309F452C0DAD990933A028093A1
:103D30003902F60182818F5F8283809156039091D0
:103D40006503892B83834581568165857685C60108
:103D50000E94D208D60114968C9181FF34C090E065
:103D600080E09093570380935803F701958199233E
:103D700009F41DC31092550381E00737FCE71F07C4
:103D800009F46EC008374CE7140709F468C09801BD
:103D9000205E32452032310508F065C0911163C0C4
:103DA0000F7181E090E09C0102C0220F331F0A9541
:103DB000E2F78901622F83E090E00E948235802F34
:103DC0000E947C0C98CC902F812FCBCFFA01438599
:103DD000548565857685C6010E94D208D601149661
:103DE0008C9181FF99CEC6010E948C10809157035F
:103DF000909158030817190709F08ECE10925803B6
:103E000010925703B2CF06E221EE41EE6AE17CE761
:103E1000C70171D970CC07E225EE45EE6BE17CE776
:103E2000F7CF06E221EE40EE68E17CE7F1CF07E252
:103E300025EE44EE69E17CE7EBCF06E221EE42EEAF
:103E40006CE17CE7E5CF07E225EE46EE6DE17CE72D
:103E5000DFCF08E221E045EE6EE17CE7D9CF82E0DA
:103E60000E94590CB1C280915103C09086022C2D42
:103E700030E02095309550E028233523232B19F08E
:103E80008C21809351030B373CE7130749F49923A6
:103E900009F431CC8C2D0E947F0C0E94630C2BCC3A
:103EA000003442E5140708F089C0003252E51507D6
:103EB00008F08AC0011580E5180708F05AC00115FE
:103EC000A0E41A0708F45AC0F7018681807F09F040
:103ED00055C0911111C0812F8F7021E030E002C0D8
:103EE000220F331F8A95E2F74091510350E02423BB
:103EF0003523232B09F0FFCBD70117962D913C9149
:103F00002115310509F49CC0C9010E94990A082FA6
:103F1000292F182FD70115963C91159716964C917D
:103F200042954F70D92ED2948FE0D822B8E0DB169C
:103F300009F430C1BD1508F4ABC0E3E0ED1508F499
:103F400096C0092F0F70907FF1E0FD1508F0B3C007
:103F5000802F903211F08295807F113009F0E9C0F6
:103F6000332309F4E0C0463008F085C00E94E71012
:103F700082C09801305521153240D8F1992309F4B7
:103F8000BBCF0130FCE71F0709F458C003302CE712
:103F9000120709F44DC001151C4709F0ADCF10926E
:103FA00065030E94AE0D4FEF54E38CE0415050404A
:103FB0008040E1F700C000000E943E089801205CAC
:103FC000324520323105D0F6802F8F712091510378
:103FD00030E041E050E0082E02C0440F551F0A9423
:103FE000E2F724233523232B49F2992309F483CBC9
:103FF00054CF980145E0369527954A95E1F7822FF1
:104000008F702091510330E041E050E0082E02C053
:10401000440F551F0A94E2F724233523232B09F478
:10402000ADCF91113ACF109265030E94850D63CBFD
:104030006FEF7FEF90E080E00E949C350E940213BA
:10404000F701A080B180992369F0C5010E94B213E5
:10405000182F682FC5010E94F00BB501812F0E9417
:10406000971353CFC5010E94BC0B182FF6CF24E045
:10407000D21609F475C02D2D2850330B243031058C
:1040800010F40E94BF0860E0C7010E94161433CBF1
:1040900059E0D51609F4ECC086E08D0D8F708230A2
:1040A00050F7802F023F09F0F3C0892F8F7133231F
:1040B00009F41DC1EAC0992311F00295007F332352
:1040C000C9F0002369F080E2810F883010F01111EF
:1040D0000BC080916503082B009365030E94850D3A
:1040E000812F0E942111C7CF80915603082B009386
:1040F0005603F4CF812F0E94F010002309F4BBCFA8
:1041000080E2810F883010F0111106C0802F0E94CC
:10411000AA0B0E94850DAFCF00958091560308230E
:1041200000935603F6CF453008F0A5CF0E94E21069
:10413000A2CF332321F0442309F418CFD1CF442355
:10414000A9F3193349F48FEF97EEA3E08150904023
:10415000A040E1F700C00000812F0E94F0108BCF3B
:10416000892F86958695837061F0813009F083CF21
:10417000802F9370311102C080E090E00E946F08A0
:104180007ACF802F9370311102C080E090E00E94BE
:10419000970871CF2370A1F531116DCF802F8295D3
:1041A00086958770880F880F402F4F70082E01C0AA
:1041B000440F0A94EAF7202F207104FF07C02FE074
:1041C00030E001C0220F8A95EAF7209596959695E2
:1041D0009370923081F0822F842B933031F0809154
:1041E0002B02913029F0242B82230E947C0C43CF98
:1041F000842B822BFACF242B80912B028227F5CFA0
:104200002695332311F0292F2170222309F433CF6F
:10421000812F829586958770880F880F412F4F7068
:10422000082E01C0440F0A94EAF7212F207114FFD1
:1042300007C02FE030E001C0220F8A95EAF72095F1
:10424000969596959370923079F0822F842B9330C7
:1042500041F0822F842B8C21913019F48C2D842BEA
:10426000822B0E94260C07CF822F842B8C25F9CF1E
:10427000192F1F70332329F0812F0E94590C802F92
:1042800075CE802F0E94E210812F0E944E0CF3CE3B
:10429000033F58F4003FA9F0013F29F1332351F1C6
:1042A00041111FCF892F8F7122C0033FB9F780E0E2
:1042B0003323B9F29F7181E001C0880F9A95EAF724
:1042C000D0CF332361F0453008F0D5CE292F2F71A0
:1042D00081E090E001C0880F2A95EAF7C7CF463009
:1042E00008F0C9CEF3CF892F8F71332371F20E946A
:1042F000590CC1CE442369F0893309F02ECFBFEFAA
:10430000E7EEF3E0B150E040F040E1F700C000001C
:1043100024CF892F8F71B9CF023A42E5140759F0A3
:1043200020F5C80190528115904208F41CCC013E42
:10433000110509F0E2CB21EE30E02770332781E050
:1043400090E001C0880F2A95EAF72091CD013091C5
:104350004E03332309F41DCCF7013581332309F4CF
:1043600015CC822B8093CD01C6C9023BB2E51B0759
:1043700009F409CCC2CB0337ECE71E0709F4BBC92B
:10438000BCCB0337FCE71F0739F680914E03811140
:10439000E7CB109265030E946F1888579C4E90934C
:1043A00079028093780281E080934E03A4C981E072
:1043B00007372CE7120731F082E008375CE7150772
:1043C00009F0E5CC0E944E0C43E062E081E00E94DF
:1043D000300C91C90A373CE7130709F0DBC8BFC9A5
:1043E000B0E0A0E0E6EFF1E20C94EE318091EC0158
:1043F000807F09F051C08091EB01882309F44CC003
:10440000E091C50389E0D82E80917C038E1709F4D2
:1044100043C00E2F10E0ED9DF0011124E358FC4F36
:1044200084818823F1F1D09EE001D19ED00D11242A
:10443000FE01E358FC4F91818091E701981331C050
:1044400090818091E60198132CC08581811129C04B
:10445000E280F3808091E8019091E901E81AF90A7D
:1044600060E086EE91E00E9416140E945D15E81649
:10447000F906B8F48091EC018F7080618093EC01B3
:10448000CD57DC4F88818F708061888386EE91E004
:104490000E94471A0E94B20BCDB7DEB7E7E00C943A
:1044A0000A32F8013196E770AFCFAFE0B0E0EBE54C
:1044B000F2E20C94E6318C0186E0F801DE011A96F6
:1044C00001900D928A95E1F7F801F480E58086EE7F
:1044D000882E81E0982E8091EA01811129C0F11087
:1044E00003C0FF24F3941BC0EE20F1F0C8010E942A
:1044F000E913F82E8823C1F089E0F801A6EEB1E0B7
:1045000001900D928A95E1F78091EA01813031F4B2
:104510008091E6019091E7010E94DC1361DF8F2D0D
:104520002F96EFE00C940232C8010E94471AD9CFAF
:10453000C280D380B090EB018091E8019091E901B5
:104540003601681A790ABB2009F4DDC05080A180C9
:1045500060E086EE91E00E9416140E945D156816D8
:10456000790608F0A7C0FF2009F4BBCF8091EC01C9
:10457000382F307F2091E701F8019181311158C027
:10458000FE2C291314C02091E601908129130FC03D
:10459000E11047C08F7080618093EC0186EE91E05E
:1045A0000E94471A8091EC01F8018683B8CFE11090
:1045B00038C06A2D852D0E94A4066A2D852D0E9483
:1045C000A406E82E8111ABCF5A86AB868A859B85DF
:1045D0000E94DC13292F22952F70903458F49F707D
:1045E000223088F0992399F0F8019681907F79F430
:1045F000FE2C95CF2A5F2F70223068F0C8010E94F0
:10460000471AEB2CF5CF992311F0882389F3805EAC
:10461000883070F3F3CF803F58F3815F833040F3ED
:10462000EDCF8091EC0181608093EC01F12C77CF8C
:10463000291315C02091E6019081291310C0E110C3
:104640000EC08683C8010E94471A89E0F801A6EED1
:10465000B1E001900D928A95E1F7FB2C60CFC80183
:104660000E94E913882309F45FCFEE2009F45CCFA0
:104670008091EC018032A0F01E821F82188619867C
:104680002091E6013091E7013A832983DC82CB82D5
:104690009091EA019D838F83CE0101960E94471A73
:1046A00089E0F801A6EEB1E001900D928A95E1F75C
:1046B00097DE17CF8091EC01982F907F51F486EE12
:1046C00091E00E94471A89E0F40111928A95E9F776
:1046D000ADCFFF2009F405CF2091E701F8019181CA
:1046E0002913BDCF2091E60190812913B8CFE110A5
:1046F000B6CF8683C8010E94471A89E0F40111925F
:104700008A95E9F7AACF60E086EE91E00E94161440
:104710000E945D1568167906B0F6FF2009F4E1CE17
:10472000FE2CEE2009F400CF9091E701F801818181
:1047300098132CC09091E6018081981327C0809136
:10474000E8019091E901C81AD90AF4E6CF16D1041C
:10475000A0F48091EC0180FD10C0982F907F69F04B
:10476000F8018683903F31F0982F907F905F8F7093
:10477000892B8683C8010E94471A89E0F801A6EEBA
:10478000B1E001900D928A95E1F7C9CEC8010E946F
:10479000E913811185CF8091EC0181608093EC0158
:1047A000C8010E94471ABBCEA1E2B0E0EAEDF3E2F5
:1047B0000C94F2314C8F5D8F6E8F7F8F88A399A3FD
:1047C000911110925603198E1A8E1B8E86E0FE01EF
:1047D0007C96DE01539601900D928A95E1F78F89C0
:1047E000882351F061E0CE0143960E94161461E0E7
:1047F000CE0143960E94161489E0FE017396DE01F5
:104800001A9601900D928A95E1F7CE010A964DDE37
:1048100081110CC089E0FE013A96DE0111960190EB
:104820000D928A95E1F74E8541110BC019E08091F8
:10483000C50390917C03891334C0A196E3E00C94E6
:104840000E3220917C0330E0C901019687709927D0
:104850005091C50358171906A1F04D8399E0929F16
:10486000D001939FB00D1124A358BC4FFE01319687
:1048700001900D929A95E1F780937C030E94B20B10
:10488000D5CF109265030E94AE0D10927C0310925A
:10489000C50389E0E6EEF1E0DF011D928A95E9F7B4
:1048A000C5CF819FC001112483589C4FFEDD882312
:1048B00021F28091C50390E001968770992780933B
:1048C000C503B5CFA6E0B0E0E8E6F4E20C94F13120
:1048D0008C019093BD028093BC02011580E2180701
:1048E000C0F4802F0E94F010C8010E94990C98011A
:1048F000205E31092830310518F00115110531F419
:104900000E94E2102696E4E00C940D320E94C6103C
:10491000F9CF80EF89838A830E946F188160682FA6
:104920009C838B8349815A817C8181E090E03CDFCC
:10493000E9CF0F931F93CF93DF938C01EB0162ECD0
:1049400072E08C2F0E944915892B71F4DD27C25427
:10495000DD4F8881F801128218828330E9F048F433
:10496000813059F0823081F0DF91CF911F910F910A
:1049700008958430B1F08530B9F78091C2029091EA
:10498000C302009789F306C08091C4029091C502CA
:10499000009799F397DFE8CF8091C6029091C70204
:1049A000F7CF8091C8029091C902009799F72091A2
:1049B000C2023091C3028091C4029091C5022115B8
:1049C0003105F9F2009731F7C901E4CFA6E0B0E074
:1049D000ECEEF4E20C94F1318C019093BD028093E3
:1049E000BC02011580E21807C0F4C8010E94990CAE
:1049F0009801205E31092830310518F001151105A4
:104A000049F40E94E710802F0E9421112696E4E0CD
:104A10000C940D320E94D910F6CF80EF89838A83DF
:104A20000E946F188160682F9C838B8349815A8113
:104A30007C8181E091E0B8DEE9CFCF93DF93D82F7E
:104A4000C92FC4DF8D2F9C2F3DDFDF91CF910895BB
:104A50000F931F93CF93DF938C01862F62EC72E04C
:104A60000E944915892B99F4C091C202D091C302CA
:104A7000209769F0F8018281833039F4CE01DDDFBF
:104A8000CE01DBDFCE01D9DF02C08430D8F7DF9161
:104A9000CF911F910F9108950F931F93CF93DF93A1
:104AA0008C01EB0162EC72E08C2F0E944915892B7E
:104AB00009F059C0FE01FF27D80112968C91129778
:104AC000E254FD4F8130B9F414969C9192FF02C0DC
:104AD00080830AC090FFFCCF82E080838091C40273
:104AE0009091C5020097B9F48091C2029091C302DF
:104AF0000097C9F110C08230A1F514968C9182FD07
:104B000026C080FD0AC083E080838091C602909118
:104B1000C7020097F1F05ADF26C084E080838091BD
:104B2000C8029091C9020097B1F78091C20290919A
:104B3000C3020097E9F081DF8091C4029091C50221
:104B4000009749F78091C2029091C302E4CF85E0BB
:104B500080838091C2029091C302009721F06DDFA3
:104B6000F1CF86E08083DF91CF911F910F9108955F
:104B70008091C4029091C502BBCFA6E0B0E0E3EC07
:104B8000F5E20C94F1310E946F188C018091F701CD
:104B90009091F8018017910779F019821A820E948A
:104BA0006F18682F49815A81792F80E090E0FCDDF1
:104BB0001093F8010093F7012696E4E00C940D326F
:104BC0001F921FB61F9211248F939F93AF93BF9391
:104BD00080915F03811113C0809160039091610304
:104BE000A0916203B09163034196A11DB11D809312
:104BF000600390936103A0936203B0936303BF913A
:104C0000AF919F918F911F901FBE1F901895CF93CA
:104C1000DF93EC010E946F188C1B9D0BDF91CF91ED
:104C20000895CDB7DEB7E7970FB6F894DEBF0FBE95
:104C3000CDBF85B7806885BF85B7806885BF84B7DD
:104C4000877F84BF0FB6F894A89580916000886133
:104C500080936000109260000FBE80E890E00FB675
:104C6000F89480936100909361000FBE81E080937F
:104C700030018CE599E09093A5018093A4010E94F6
:104C800037090E9479150E94E7060E9488078091E3
:104C9000E20084608093E20078948091700388231E
:104CA000A1F01091E9001F709091EC00892F8170A4
:104CB00090FD80E8182B1092E9008091E80083FDB8
:104CC0000E94BE0D1F701093E90082E084BD93E046
:104CD00095BD9AEF97BD80936E0010921B021092C3
:104CE0001C0210921D0210921E020E94401381119C
:104CF00002C00E9424158091D80080618093D80062
:104D00002AE12A95F1F700C08091D900182F11707F
:104D100080FD04C00E94E7061092700310935903AF
:104D200010935A031093180111110E947B30809147
:104D300018018091180195E0811190E090932A026A
:104D400085E0891B8093290201E811E056E8E52EF1
:104D500051E0F52ED8018D918D018F3F11F00E9409
:104D60005E09E016F106B1F706E811E04CE8E42E22
:104D700041E0F42EF80181918F018F3F11F00E94E4
:104D80005E09E016F106B1F78AE0E0EBF2E0DF0140
:104D9000282F1D922A95E9F7EFE1F2E0DF011D923D
:104DA0008A95E9F790E080E00E946E35833E9E4F41
:104DB00021F40E944013811129C063EE7EEF90E040
:104DC00080E00E949C3560E082E090E00E948235A5
:104DD00081E080932B0261E083E090E00E948235C5
:104DE00060E074E184E090E00E949C350E9424150C
:104DF00040E050E0BA018FE090E00E94943540E03E
:104E000050E0BA0183E190E00E94943582E090E0A6
:104E10000E94663580932E0284E090E00E946E35F9
:104E200090932D0280932C020E94DB18EFEFF6E79F
:104E300021E0E150F0402040E1F700C000000E9476
:104E4000DB188091B00280FF08C06FEF7FEF90E029
:104E500080E00E949C350E943E0883E090E00E9422
:104E600066350E947C0C809159038111C0C082E09C
:104E70008093A70280E88093C603DDD76BE070E0E3
:104E800083E891E00E94B915882309F443C080911A
:104E9000A70265E070E081FDACC08EE791E00E9462
:104EA000B9158823B9F16DE070E08CE691E00E94BD
:104EB000B915882379F10E944F086FA778AB89ABA9
:104EC0009AABDC01CB01805A9541AF4FBF4F809325
:104ED000480390934903A0934A03B0934B03E9EC32
:104EE000F3E080E092E0DF019C011D922150304010
:104EF000E1F7F093D005E093CF058FEF9FEF90930C
:104F0000C8038093C70381E080934D0380934C03D3
:104F10001092A80280915903811102C00E947E3034
:104F200089E191E090937B0380937A0380EB92E098
:104F30003AE0380F3FAB8091700310E400E132E1BA
:104F4000F32E853009F48BC00E94DB189FE2E92E16
:104F500092E0F92E20EB422E22E0522E29E332E09D
:104F6000D201F70191918D912E173F0709F483C06B
:104F70009817C1F38090590380EBC82E82E0D82E99
:104F800010E077247394D6010D916D01F701919093
:104F90007F01901621F19026B12CAA24A3948A2D8A
:104FA0008921A9F0882099F0B9821A830E946F188C
:104FB0009C838B837D8291E08A2D802309F490E08D
:104FC0009E8349815A816B817C818D81EDDBB39415
:104FD000AA0CF6E0BF12E3CFF701319700831F5F01
:104FE0001A3089F60E94770921E02FA748C080E097
:104FF0003FCF89E791E053CF80917003843029F14E
:105000000E94C61510925F0348E150E00FB6F89475
:10501000A895409360000FBE1093600083B7817F16
:10502000846083BF83B7816083BF7894889583B79A
:105030008E7F83BF0FB6F894A89580916000886139
:1050400080936000109260000FBE0E94DB18E0EBBE
:10505000F2E08191811177C65FA95E13FACF80914A
:105060007003853009F4C8CF109265030E94AE0D1D
:105070000E94BF0869CF98137DCF7FDD1FA6809166
:105080005903882309F40AC1C0905703D0905803EC
:10509000C114D10441F1A0903902B0903A020E94AB
:1050A0006F188C010A191B09C6010E945D15801733
:1050B0009107C8F480915703909158039C013327BE
:1050C0008C7F9927892B09F0B6C14FE0429FC00120
:1050D000439F900D112484539D4FDC0114962C9115
:1050E00022FF0E94A510C0904602D09047020D2CCE
:1050F000000CEE08FF0810912501212F30E0E6E4B6
:10510000F2E081E090E03296281739070CF096C162
:105110008090420290904302A0904402B0904502D9
:105120000E944F089B01AC01281939094A095B0903
:1051300049015A0139EC83169104A104B10414F118
:105140008091410290E0019669E170E00E94263270
:1051500080934102880F991FFC01EA5BFD4F118289
:105160001082812F183108F087E18F5F809325012D
:105170000E944F086093420270934302809344025E
:105180009093450242E0C416D104E104F1040CF40A
:1051900061C1A0E6BAEEA70196010E9484326BA716
:1051A0007CA78DA79EA758EC159F90011124032E74
:1051B000000C440B550B280D391D4A1D5B1DA5E045
:1051C000B0E00E9484326BAB7CAB8DAB9EAB6BA529
:1051D0007CA58DA59EA52BA93CA94DA95EA90E94E1
:1051E000393269017A0181EFC816D104E104F10472
:1051F0002CF0B0EFCB2ED12CE12CF12C80903D0285
:1052000090903E02A0903F02B09040020E944F0852
:105210009B01AC01281939094A095B0949015A0166
:1052200035E683169104A104B10484F00E944F086E
:1052300060933D0270933E0280933F029093400240
:1052400080917A0280933C02C0923B0210913C0212
:10525000A0913B02A11BBB0BA50194010E948E32C1
:105260006BA77CA78DA79EA724E630E040E050E026
:105270000E945B32120F10937A0280914E038823B2
:1052800069F00E946F182091780230917902821B98
:10529000930B8F3F9F4710F40E94D01080914D03D5
:1052A000882309F479C00091A9021091AA020E94F2
:1052B0006F18801B910BC29708F444C00E946F18AE
:1052C0009093AA028093A90289EC93E09093D00571
:1052D0008093CF0580915903882309F4E1C083EBC3
:1052E00091E00E94780D809186020E947F0C8230AE
:1052F00009F4D0C008F0B2C08111C9C08CEA91E0B5
:105300000E94780D84E991E00E94780D80917A02E4
:105310001F928F938BE391E09F938F938BE792E0A3
:105320009F938F930E94C9328BE792E00E9489116C
:105330008EE891E00E94780D0F900F900F900F90E3
:105340000F900F908091C7039091C803892B09F0AB
:10535000ACC080914C038823F9F00E944F086BA7E2
:105360007CA78DA79EA78091480390914903A091A7
:105370004A03B0914B032BA53CA54DA55EA5281B68
:10538000390B4A0B5B0BDA01C9018F3F9F4FAF4FBF
:10539000BF4710F40E94C6154FA541110E94E015A9
:1053A0000E94BF089091AB02891721F08093AB0255
:1053B0000E944F0880917003843009F0BCCD83E0D7
:1053C0008093E9008091E80082FFB5CD8091E800EC
:1053D00090E085FF0CC00E94060740E2E42EF12C0D
:1053E0008E010F5F1F4F882309F443C191E0809124
:1053F000E8008B778093E800992309F49CCD009115
:10540000BA021091BB02E9810115110509F43FC1EF
:10541000EE3F09F060C18A81833020F085508330EF
:1054200008F059C1EA81EE3008F055C1F0E0E653CA
:10543000FA4C0C94773290E080E04FCE408151815D
:10544000052E000C660B770BC40ED51EE61EF71E4C
:10545000019659CEC12CD12C7601D0CE8330E9F003
:105460001F928F9381E391E09F938F938FE792E058
:105470009F938F930E94C9328FE792E00E94891117
:105480000F900F900F900F900F900F903BCF85EAE9
:1054900091E036CF8EE991E033CF87E991E030CFCC
:1054A0008AEB91E00E94780D4DCF80914D038823C7
:1054B00009F44FCF8091A80281114BCF0E94E015D3
:1054C0002091C7033091C8032115310509F441CF5C
:1054D00080E041E050E0082F10E04A01082E02C0B1
:1054E000880C991C0A94E2F7B90168217921672B8D
:1054F00011F48F5FF0CF9091A70290FF97C0880FB3
:10550000880F880F8093280110922B01895F809368
:10551000290183E080932C0124E630E047E050E04D
:1055200066E271E088E7BDD4892B09F012CFA801AB
:10553000F5E0440F551FFA95E1F78091A70280FF2F
:1055400087C0E7E8F2E080E2DF011D928A95E9F783
:10555000E0E9F1E0FCA7EBA76CE871E0E7E0DE2E04
:10556000CC24C394EBA5FCA5A191FCA7EBA7FB0160
:105570008191BF01840F952F911D9C0127533C4FB2
:105580003901EA2FF0E0E957FD4F90E080E0AD2CC3
:10559000A81AEC2C082E01C0EE0C0A94EAF71301AD
:1055A00000E0D1011D911D011E212A2D201B277015
:1055B000B22E022E000C330BB12F01C0BB0FBA94D8
:1055C000EAF7BB2E3195219531092770332701C0A9
:1055D00016952A95EAF7B12A1081B12AB0820F5F99
:1055E0000830F9F6019631968830910581F6EBA5E1
:1055F000FCA5E459F14009F0B5CF04E610E020E243
:1056000030E047E852E060E488E7D3D4892B09F022
:10561000A0CE809490948091C7039091C803882273
:1056200099229092C8038092C70393CE8295880FE7
:105630008076809328019801369527953695279591
:1056400020932B01815E8093290120932C0164CF4C
:1056500047535C4F04E610E020E230E0D4CF809165
:10566000F100D8018D938D01B1E0EB1AF10809F436
:10567000BDCE8091E80085FDF2CF8091E8008B7768
:105680008093E8000E940607882399F3AFCEE431A7
:1056900048F4EE2351F0E150E33138F4F0E0E85201
:1056A000FA4C25C7EE3F09F4BDCE8FEF898313C0B6
:1056B0001A8289E08B830FC08A81823009F460C32B
:1056C000833071F0813089F70E944F0816D76B83C1
:1056D0007C838D839E83CE0101960E94D9062BCCBC
:1056E00080914F0390915003892BA9F3FE013396CB
:1056F000D2018D912D018193BAEB4B16B2E05B067E
:10570000B9F7E9CF8A81823081F62B813C814D81C6
:105710005E812FA738AB49AB5AABCA01B901EDD6B0
:1057200088E290E00E948235D6CF4C816B818A81DD
:105730000E9468139827892798279E838D83CBCF53
:105740002D813E813227232732274C816B818A812C
:105750000E941913C0CF0E94A314BDCF80E18A8399
:10576000BACF1A828FEAA6CF8C818D3108F0B3CFE1
:105770008A809B80982489249824C82ED12CF12CCF
:10578000E12C2401712C612C3FEA831A3CEF930A2F
:10579000AE014F5F5F4F5A0110E000E0C401800F7F
:1057A000911FA80170E060E04C155D056E057F0556
:1057B00008F091CF440D551D661D771D4F3A5105D8
:1057C0006105710558F40E946635D50114968C93D5
:1057D0000F5F1F4FFFEFAF1ABF0AE0CFF501148232
:1057E000F7CF80914F0390915003892B09F473CF29
:1057F0008C818D3108F06FCF8A809B80982489241A
:105800009824C82ED12CF12CE12C2401712C612C70
:105810002FEA821A2CEF920AAE014F5F5F4F5A01B6
:1058200010E000E0C401800F911FA80170E060E06B
:105830004C155D056E057F0508F04DCF440D551DD7
:10584000661D771D4F3A51056105710528F4D50194
:1058500014966C910E9482350F5F1F4FBFEFAB1AF9
:10586000BB0AE0CF0E94441436CF86E078CF8C810B
:105870008D3108F030CF882E912CB12CA12CCA800C
:10588000DB80DC24CD24DC24F12CE12C8E010F5FA5
:105890001F4F412C512C3201C601899648145904DE
:1058A0006A047B0408F017CFE0EDCE16E2E0DE06D6
:1058B000E104F10490F40E946635D80114968C93AB
:1058C000FFEF4F1A5F0A6F0A7F0A0F5F1F4F2FEF1C
:1058D000C21AD20AE20AF20ADFCFF8011482F0CF2C
:1058E0002C81E22EF12C2D3108F0F5CE8A819B819E
:1058F000982789279827803D32E0930708F0EBCE60
:10590000822E912CB12CA12C2C01712C612C40EDFC
:1059100052E060E070E044195509660977094815BE
:1059200059056A057B0508F4D6CE1C0149E2240E10
:10593000311C20914F0330915003232B21F1CE01D4
:1059400001967C0110E000E0C101800F911FA801C9
:1059500070E060E0481559056A057B0508F0BBCE8C
:10596000440D551D661D771D403D52406105710572
:1059700020F4F70164810E9482350F5F1F4FFFEF13
:10598000EF1AFF0AE1CF8C010170112780FF0CC0D4
:1059900088960E9466359D818927982789278115D9
:1059A0009C4711F48FEF8D83D501C401840D951DA3
:1059B000A61DB71D670180FF1AC0B1E0CB1AD10840
:1059C000E5E0F0E0EC0FFD1FEC0DFD1DF8ABEFA7DF
:1059D000C1018E0D9F1D0E946635AFA5B8A99C918F
:1059E00081159C4721F48FEFEFA5F8A98083E1E0B2
:1059F000F0E0EC0FFD1FE00FF11F2FEF0C151D0560
:105A000008F09DCF9481858181159C4711F42483F2
:105A100025830E5F1F4F3296F1CF80914F039091F7
:105A20005003892B09F457CECE0101960E94D90666
:105A30002FEF31EE44E0215030404040E1F700C00C
:105A4000000009CA88E0E0E4F1E0DE0191960190EF
:105A50000D928A95E1F7FE013D9684E1DF011D92EA
:105A60008A95E9F786E089831A821B821C8288E086
:105A70007496DE01159601900D928A95E1F72BCE72
:105A80008CE9898381E08A831B821C8224CE8C81ED
:105A9000682F70E0762F66278B81860F972F911DD8
:105AA000092E000CAA0BBB0B35E0880F991FAA1F0B
:105AB000BB1F3A95D1F7AC01BD01405E5F4F6F4F00
:105AC0007F4F803EEFEF9E07AE07BE0708F003CE84
:105AD0008C39F1E09F07A105B10508F0FCCD4D39E7
