:100000000C9471050C94A9050C94A9050C94852DEC
:100010000C94A9050C94A9050C94A9050C94A905A8
:100020000C94A9050C94A9050C943B2A0C94232B41
:100030000C9489190C94A9050C94A9050C94A90594
:100040000C94A9050C94A9050C94A9050C94A90578
:100050000C94A9050C94172A0C94A9050C94A905D5
:100060000C94A9050C94A9050C94A9050C94A90558
:100070000C94A9050C94A9050C94A9050C94A90548
:100080000C94A9050C94A9050C94A9050C94A90538
:100090000C94A9050C94A9050C94A9050C94A90528
:1000A0000C94A9050C94A9050C94A90505010980D7
:1000B000A101850319012AB700150126B700950192
:1000C00075108100C0050C0901A101850419012AE0
:1000D000A002150126A002950175108100C00660DE
:1000E000FF0961A1010962150026FF00952075082E
:1000F00081020963150026FF00952075089102C052
:1001000005010906A101050719E029E715002501E8
:10011000950875018102950175088101050719008F
:1001200029FF150026FF00950675088100050819AE
:1001300001290515002501950575019102950175A7
:10014000039101C000AF00AE0000000000003E5B64
:100150004F5B3E003E6B4F6B3E001C3E7C3E1C00E6
:10016000183C7E3C18001C577D571C001C5E7F5EAF
:100170001C0000183C180000FFE7C3E7FF00001850
:1001800024180000FFE7DBE7FF0030483A060E00C6
:10019000262979292600407F05050700407F05258F
:1001A0003F005A3CE73C5A007F3E1C1C0800081CDC
:1001B0001C3E7F0014227F2214005F5F005F5F00FF
:1001C00006097F017F00006689956A0060606060B3
:1001D000600094A2FFA2940008047E04080010208E
:1001E0007E20100008082A1C0800081C2A080800A5
:1001F0001E10101010000C1E0C1E0C0030383E3863
:100200003000060E3E0E0600000000000000000058
:100210005F000000000700070000147F147F140037
:10022000242A7F2A120023130864620036495620CC
:100230005000000807030000001C2241000000419C
:10024000221C00002A1C7F1C2A0008083E08080007
:100250000080703000000808080808000000606096
:1002600000002010080402003E5149453E000042B3
:100270007F4000007249494946002141494D330001
:100280001814127F10002745454539003C4A49495A
:1002900031004121110907003649494936004649D4
:1002A00049291E0000001400000000403400000036
:1002B00000081422410014141414140000412214E4
:1002C00008000201590906003E415D594E007C12AA
:1002D00011127C007F49494936003E4141412200CC
:1002E0007F4141413E007F49494941007F09090959
:1002F00001003E41415173007F0808087F00004122
:100300007F4100002040413F01007F08142241004E
:100310007F40404040007F021C027F007F040810A5
:100320007F003E4141413E007F09090906003E41F0
:1003300051215E007F0919294600264949493200AA
:1003400003017F0103003F4040403F001F20402049
:100350001F003F4038403F0063140814630003044B
:10036000780403006159494D4300007F4141410039
:10037000020408102000004141417F0004020102F4
:1003800004004040404040000003070800002054A3
:10039000547840007F2844443800384444442800BE
:1003A000384444287F0038545454180000087E090B
:1003B00002001824241C78007F08040478000044FC
:1003C0007D4000002040403D00007F102844000098
:1003D00000417F4000007C04780478007C0804041D
:1003E00078003844444438007C1824241800182429
:1003F00024187C007C080404080048545454240049
:1004000004043F4424003C4040207C001C20402049
:100410001C003C4030403C004428102844004C90D4
:1004200090907C004464544C440000083641000025
:1004300000007700000000413608000002010204BD
:1004400002003C2623263C00000000000080808043
:1004500080000000000080E070180C1830E0800080
:100460000010F8901030783010B8FC381000000000
:10047000000000F8FCF80000000000000000000090
:100480000000001C9C1C00000000F8FCF8000000AC
:100490000000001CFCF8C000000000000080E0F834
:1004A0007C1C000000F0FCFCFC1C1C1C1C1C1C1C0C
:1004B0001C000000000000C0F0F8381C1C1C1C1CB4
:1004C0001C3CF8F0E000E0F0F0F0E0ECEEF7F37048
:1004D00020007C7C7C7E007E7E7E7F7F7F00008093
:1004E000C0E07E5B4F5BFEC00000C000DCD7DEDEFC
:1004F000DED7DC00C00000000000000000000000AB
:10050000000000000000000000000000000FBCE040
:10051000818181838382870C183060C000001FFEB8
:1005200090B9FFBB91983C1811133F1100000000D7
:10053000000000FFFFFF00000000000000000000BE
:10054000000000FFFFFF00000000FFFFFF000000B1
:100550000000000000030F7FF8E080F0FC3F0F0177
:1005600000000000003F3F3F1C1C1C1C1C3C78F896
:10057000F0E08000000000C3E7FF7E3C3878787030
:1005800070F8FFDF87000F1F3F7F7F7F7F7F3F1E59
:100590000C001F1F1F3F003F3F3F7F7F7F00307BCE
:1005A0007F7830202030787F3B0003000F7F0F0FD3
:1005B0000F7F0F000300000000000000000000009B
:1005C0000000000000000000183C24666341C18167
:1005D00080808080808081C14162386C4CC681817E
:1005E000808080808081C14362361C18000000003A
:1005F000000000FFFFFFC0C0C0C0C0C0C0C0C080BE
:100600000000007FFF7F000000007FFFFFC0800030
:100610000000E0E0C0C0C0E0F97F1F07000000005C
:10062000000000000070F0E0E0C0C0C0C0E0F0F8E2
:100630007F3F0F0000000F3F7FF9E0E0C0C0C0C067
:10064000C0E0F97F3F1F0000000000000000000034
:10065000000000000000000000000000000000009A
:10066000000000000000000000000000000000008A
:10067000000000000000000000000000000000007A
:10068000000000000000000009025B00030100A060
:10069000FA09040000010301010009211101000110
:1006A0002244000705810308000109040100020338
:1006B0000000000921110100012222000705820328
:1006C00020000107050303200001090402000103C3
:1006D00000000009211101000122320007058403F6
:1006E0002000011201000200000008D8042EEB00D7
:1006F000010102000116034C0069006C007900350D
:10070000003800200052003200470000001C034D5A
:100710000065006300680062006F006100720064A1
:10072000007300200055004B000000040309042959
:10073000001E001F002000210022002B0014001AC0
:1007400000080015001700E000040016000700096B
:10075000000A00E1001D001B000600190005000052
:1007600000E200E30021522C002F00350027002674
:10077000002500240023002D00130012000C001897
:10078000001C00340033000F000E000D000B00E5CC
:1007900000380037003600100011000000E7002A82
:1007A0000022522800300001000100010001000178
:1007B0000001003A003B003C003D003E003F003598
:1007C000001E021F0220022102220201000100017C
:1007D0000001000100010000000100010001000112
:1007E00000010001000100010001000100010045BD
:1007F0000044004300420041004000350227022629
:1008000002250224022302310230022F022E022D81
:1008100002000000000100010001000100010001D0
:10082000000100010001000100010035001E001F51
:10083000002000210022003A003B003C003D003E29
:10084000003F0040004100420043004400450000DA
:100850000001000100010001000100010001000190
:1008600000010001000100010027002600250024EE
:1008700000230000004F00520051005000000031E2
:100880000030002F002E002D002E0200000100017C
:100890000001000100010000000000000000000055
:1008A0000000000000000000000000000000000048
:1008B0000000000000000000000000000000000038
:1008C0000000000000000000000100010001000124
:1008D0000000000000000000000000000000000018
:1008E0000000000000000000000000000000000008
:1008F00000000000000000000000000000000000F8
:1009000000000000000100010001000100000000E3
:1009100001010101010101010102020202020202C0
:100920000202030303030303030304040404040493
:100930000405050505050606060606070707070759
:1009400008080808090909090A0A0A0B0B0B0C0C0C
:100950000C0D0D0D0E0E0E0F0F0F101011111112A8
:100960001213131414151516161717181819191A27
:100970001A1B1B1C1D1D1E1E1F202021222223248A
:1009800024252626272829292A2B2C2D2D2E2F30C9
:10099000313232333435363738393A3B3C3D3E3FDD
:1009A000404142434445464748494A4C4D4E4F50CA
:1009B000515354555658595A5B5D5E5F6162646588
:1009C0006668696B6C6D6F7072737577787A7B7D12
:1009D0007E8082838587888A8C8E8F919395969866
:1009E0009A9C9EA0A2A3A5A7A9ABADAFB1B3B5B782
:1009F000BABCBEC0C2C4C6C9CBCDCFD1D4D6D8DB59
:100A0000DDDFE2E4E7E9EBEEF0F3F5F8FAFDFF00F5
:100A1000DA0281FFD9F1DB20A4A62EAF00A0C0D35B
:100A20000000A1C8D30000AED580A81F408D1420BF
:100A300000000000000000000000000000000000B6
:100A400000000000000000000000000000000000A6
:100A500000000000007E0F00D4FFFFFFC700000071
:100A60007800000000000000002A2B280000000091
:100A7000000000000000000000000000290000004D
:100A8000002C1E3420212224342627252E362D37F3
:100A900038271E1F202122232425263333362E37C4
:100AA000381F0405060708090A0B0C0D0E0F10115C
:100AB00012131415161718191A1B1C1D2F31302369
:100AC0002D350405060708090A0B0C0D0E0F101131
:100AD00012131415161718191A1B1C1D2F31303537
:100AE0004C0011241FBECFEFDAE0DEBFCDBF04B64D
:100AF00003FE18C08091D2089091D308A091D40829
:100B0000B091D5088730904BA740B04B59F4109264
:100B1000D2081092D3081092D4081092D508E0E0C1
:100B2000F8E3099514E0A0E0B1E0ECE9F5E602C0D5
:100B300005900D92A031B107D9F728E0A0E1B4E00B
:100B400001C01D92A23DB207E1F70E94A2230C94BE
:100B500063320C94000080938B080895982F967050
:100B6000963021F4886080938C080895877FFBCFAE
:100B700021E030E001C0220F8A95EAF780918C08CD
:100B8000822B0E94AE05089521E030E0A90102C049
:100B9000440F551F8A95E2F7CA01809590918C0801
:100BA00089230E94AE050895292F9A3090F586304A
:100BB00080F590E036E0239F800D911D1124282FB1
:100BC000277041E001C0440F2A95EAF723E096958B
:100BD00087952A95E1F7FC01EE0FFF1FE80FF91F3B
:100BE000E55CF74F20E030E070E05191DF01CB0190
:100BF000022E02C0969587950A94E2F7817081953E
:100C00008527842385278E932F5F3F4F233031051F
:100C100061F70895292F9A3078F5863068F590E0CD
:100C200036E0239F800D911D1124682F677023E00B
:100C3000969587952A95E1F7FC01EE0FFF1FE80FC7
:100C4000F91FE55CF74F40E050E080E0219130E093
:100C5000062E02C0369527950A94E2F721703327B5
:100C6000042E01C0220F0A94EAF7822B4F5F5F4FD8
:100C70004330510559F7089580E0089590918C080C
:100C800021E030E0F90101C0EE0F8A95EAF7D901C1
:100C900002C0AA0FBB1F6A95E2F7EA2B01C0220F20
:100CA0004A95EAF7892F8E23E81305C0892F822BF6
:100CB0000E94AE0508952095822F8923F9CF809157
:100CC000920890919108981301C008958F5F8770E2
:100CD000FACF90918D088095892380938D08282FD5
:100CE000277021110DC0891759F090918F0892FF3C
:100CF00007C08695869586950E94C40510928D083A
:100D00000895982F9095809188088923809388086A
:100D100008959C01803E910509F448C0D8F48133C0
:100D2000910509F47DC048F48932910509F46DC03C
:100D30008A9709F47CC0C90108958933910551F15E
:100D40008238910539F1C597B1F780918E0885FFFA
:100D5000F2CF29C0843E910509F447C048F4823E91
:100D6000910599F1833E9105A9F121EE30E0E3CFA1
:100D7000863E910509F444C0873E9105E1F68091D5
:100D80008E0883FD61C090918F0891FF2BC024EEE7
:100D900030E0D1CF80918E088370811152C0809154
:100DA0008F0883FFC8CF29E230E0C5CF80918E083D
:100DB00080FD33C090918F0890FFBDCF23EE30E0CF
:100DC00084FFB9CF20E030E0B6CF80918E0882FD5D
:100DD000F5CFB1CF80918E0882FD30C090918F0801
:100DE00090FD2FC084FFA7CFEDCF80918F0881FFAA
:100DF000A2CF80918E0827EE30E084FDE3CF9BCF19
:100E000080918E0883FDF7CF96CF80918E0885FD67
:100E10001EC080918F0883FF8ECF29E330E08BCFF7
:100E200080918E0886FF87CF2AE230E084CF8091C0
:100E30008E0886FF80CF21E330E07DCF22EE30E0C8
:100E40007ACF20EE30E077CF26EE30E074CF25E386
:100E500030E071CF90918E0892FF10C041E0282FB2
:100E60002471243009F040E031E0282F2871283027
:100E700009F030E0431711F02CE0822793FF10C0F7
:100E800041E0282F2471243109F040E031E0282F7F
:100E90002871283109F030E0431711F02CE0822747
:100EA00030918F0830FF10C051E0282F2171213080
:100EB00009F050E041E0282F2871283009F040E087
:100EC000541711F029E0822731FF10C041E0282F8C
:100ED0002171213109F040E031E0282F28712831BB
:100EE00009F030E0431711F029E0822794FD877E56
:100EF00008951F93CF93DF930E948906EC0181151B
:100F000022E5920708F055C0811540E5940708F0E6
:100F1000D1C0803E910520F58D3C910508F0A4C01C
:100F2000883A910570F4853A910508F09AC08130AD
:100F30009105D1F10497813A9105B0F1C0E0D0E07C
:100F400033C0885A91094B97C8F7C85AD0E0CC0FE4
:100F5000DD1FC55DDC4F0990D881C02DD46424C04D
:100F6000811550E49507C0F4C11580E2D80708F058
:100F7000B7C0C83ED105C0F0CE019A9581159F41FA
:100F8000E8F68D2F0E942A07182FCE0199270E947C
:100F90008906EC01D12B08C099270E948906CC272D
:100FA000DF70C82BD92BD06ACE01DF91CF911F9172
:100FB0000895803842E59407C8F5803652E59507D4
:100FC00008F05BC0C03482E5D807D0F4C03292E5A7
:100FD000D90708F04BC08C2F8695869520E2829F1A
:100FE000C0011124C37021E030E0A90102C0440F08
:100FF000551FCA95E2F7EA01C82BD92BDD68D4CF7B
:101000008C2F86958695877050E2859FC0011124AC
:10101000C37021E030E0A90102C0440F551FCA95FA
:10102000E2F7EA01C82BD92BDC68BECF803C52E541
:10103000950758F48F71C03AD245A0F590E0982FEB
:101040008827EC01C46FD06AAFCF805C924580974F
:1010500008F074CFDC2FCC27CC27DF71C06FD06AAB
:10106000A3CFA497D064A0CFD0659ECFCF71D0E09E
:10107000DC2FCC27C16FD06A97CF86958695877075
:1010800020E2829FC0011124C37021E030E0A90159
:1010900002C0440F551FCA95E2F7EA01C82BD92BAD
:1010A000DA6882CF0E942A07C82FD0E0DC2FCC2735
:1010B000D0627ACF8F710E942A0793E0CC0FDD1F98
:1010C0009A95E1F7CC27DF70282F30E084FF04C029
:1010D00050E1859F90011124C22BD32BD06964CF9E
:1010E0008D2F8F710E942A07182FCE0199270E94F9
:1010F0008906EC01D12BDCCF80E00895F894E82F2D
:10110000E295EF70F0E041A18F7021E030E0B9018D
:1011100002C0660F771F8A95E2F7CB01962F909554
:10112000942391A392A1892B82A378940895CF92BE
:10113000DF92EF92FF921F93CF93DF93172FE82F49
:10114000F0E0E15FF64F71110CC0E4918E2F7E2F1D
:101150006E2FDF91CF911F91FF90EF90DF90CF9096
:101160000895E62EF12CC72ED12CF491EF2F86E0B6
:10117000689F90011124CFEFD0E0C901BE010E9409
:10118000A02EAB01EE0CFF1C65E5649FC001659FBE
:10119000900D1124E81AF90A6E2D660F6E0D7E016E
:1011A000EC18FD08FE9DD001FF9DB00D11248B2F82
:1011B000169F70011124EF2CFF246E01CE18DF085A
:1011C0007601FE9D6001FF9DD00C11247E01E61A80
:1011D000F108B701169F7001179FF00C1124EF2C36
:1011E000FF24CE19DF09FC9F7001FD9FF00C112434
:1011F0007F2D43305105C1F02C3F334058F441302E
:101200005105B1F04230510509F0A2CFEB2F8F2DDF
:101210007F2F9ECF4430510571F04630510509F4BF
:1012200097CF7B2F8D2D94CF7D2DEB2F8F2F90CFB0
:101230007F2FED2D8DCFEF2D7B2FF8CF982F809125
:101240002A08811529F081E0953208F080E00895A0
:1012500081E09A34FACF982FE82F96FDE0958E2FF3
:101260008F7096FD8F5FE695E695E695E670F0E067
:10127000EC50FE4F2181289F202D812D1124229595
:101280002F708295807F282B8081820F97FD81951A
:10129000805808951F93CF93DF93D62FC72F182F11
:1012A000822F86950E942B09805887FD8195880F93
:1012B000282F219F212D1124822F6D2F7C2FDF912C
:1012C000CF911F910895322F50E0FA01EE0FFF1FCA
:1012D000E95FFD4F95AD905297FD9195440F551FD5
:1012E000FA01ED5BFD4F2081231B330B290F311DCC
:1012F00097FD3A95620F08950F931F93522F10E0B8
:10130000F801EE0FFF1FE95FFD4FA5ADA052BB0B2B
:101310009D015203F001539FF00D1124000F111F86
:10132000D801AD5BBD4F2C912057330B4203D00148
:10133000439FB00D11249F012A0F3B1F37FF02C0AE
:10134000215C3F4F96E0359527959A95E1F7620F1E
:101350001F910F910895E42FF0E0EE0FFF1FED5B5A
:10136000FD4F9081921B97FD9195292F38E1239F86
:10137000212D1124620F08954095282F429F412D61
:101380001124842F0895409520E4429F412D11247B
:10139000640F089590913905982B9093390508951D
:1013A000FC0180912A08811104C0E532F1050CF09E
:1013B000B597CF010E94DE0A0895FF920F931F9305
:1013C000CF93DF93182F062FF42EC0E0D0E02F2DFF
:1013D000402F612FCE010E94D0092196CA34D10539
:1013E000B1F7CDB7DEB7E5E00C94DD2E9FE0899F25
:1013F000802D1124980F9B3408F09AE420912A083C
:10140000211104C0853228F485E20895963208F04F
:1014100095E20895E7EFF7E0908121E0922790832D
:10142000109200010E94CA0908958091F707837005
:10143000811102C0109200018091F7078C7F8160BA
:101440008093F70708958091F707837081111092B8
:1014500000018091F7078C7F8093F7070895982FFC
:10146000862F2091F7072370211589F0911581F0BF
:101470009B3080F49F73990F990F2091F707237089
:10148000922B9093F707109200010E94CA090895C9
:1014900091E0F1CF9AE0EFCF8091F707869586959E
:1014A0008F5F8B3008F081E061E00E942F0A089581
:1014B0008091F707869586958A9509F48AE061E020
:1014C0000E942F0A0895982F822F2091F7072370EA
:1014D000211559F09093F8076093F907493708F000
:1014E00048E74093FA070E94CA090895E7EFF7E03A
:1014F000818190E021E04381628108960E94630A25
:101500000895E7EFF7E0818121E04381628188500F
:10151000990B0E94630A0895E7EFF7E0628120E1EA
:10152000620F08F46FEF818121E0438190E00E9417
:10153000630A0895E7EFF7E0628120E1621B08F497
:1015400060E0818121E0438190E00E94630A089578
:10155000E7EFF7E0438120E1420F08F44FEF81818C
:1015600021E0628190E00E94630A0895E7EFF7E0CE
:10157000438120E1421B08F440E0818121E0628147
:1015800090E00E94630A0895E7EFF7E0248130E1DC
:10159000230F08F42FEF248381E00E94CA090895E5
:1015A000E7EFF7E0248130E1231B08F420E02483F7
:1015B00081E00E94CA090895539A0895FC01EE0F34
:1015C000FF1FE80FF91FE95BFB4F61834083228314
:1015D000089580912908811559F0E0913108F09122
:1015E0003208309729F00190F081E02D0995089597
:1015F00080E00895A3E0B0E0E0E0FBE00C94C42EAE
:101600009C01809145049091460482179307A1F0B4
:101610003093460420934504E0913108F09132085C
:10162000309751F083E089833B832A830084F185DE
:10163000E02DCE01019609952396E2E00C94E02E70
:10164000A3E0B0E0E6E2FBE00C94C42E9C018091A4
:1016500043049091440482179307A1F0309344040B
:1016600020934304E0913108F0913208309751F013
:1016700084E089833B832A830084F185E02DCE01B9
:10168000019609952396E2E00C94E02E9C01FC0162
:1016900032968FEF90E04191461751F08F3F19F449
:1016A000411101C0892F9F5F9630A9F78F3F09F440
:1016B0000895280F311D87FD3A95F9016283089539
:1016C0009C01FC013296285F3F4F8191861302C036
:1016D000DF011E92E217F307C1F708958091070119
:1016E00008952FB7F89460913F0470914004809161
:1016F0004104909142042FBF0895CF92DF92EF9260
:10170000FF9280912908811559F00E94710B6B019D
:101710007C01C701B601FF90EF90DF90CF90089554
:101720000E94710BC0902B08D0902C08E0902D08DF
:10173000F0902E08C60ED71EE81EF91EEACF88E1EB
:101740009CE00FB6F894A895809360000FBE90932C
:101750006000FFCF08950895FC019B01809135043E
:10176000909136048617970740F0672B29F48091F3
:10177000E8008E778093E800C90140E0009741F4CB
:10178000411106C08091E80082FF2FC080E00895DB
:101790002091EF072115A9F12530A9F12091E8004A
:1017A00023FD2DC02091E80022FDECCF2091E80020
:1017B00020FFE4CF3091F3002091F200009719F060
:1017C0002830310558F041E02830310509F040E07B
:1017D0002091E8002E772093E800D0CF41914093EC
:1017E000F10001972F5F3F4FE9CF8091EF078115FF
:1017F00041F0853041F08091E80083FFC3CF81E064
:10180000089582E0089583E0089580912F0487FF72
:1018100013C08091E80082FF06C08091E8008B77BA
:101820008093E80008958091EF078111F2CF089529
:101830008091EF078115D9F38091E80080FFF8CF00
:101840008091E8008E77ECCF2091E4003091E500A4
:1018500095E6A9012091EC00822F817020FF06C03F
:101860008091E80080FF06C080E008952091E800A4
:1018700022FD1AC08091EF07811589F0853089F02B
:101880008091EB0085FD0FC02091E4003091E500D0
:1018900042175307F9F29A95E1F684E0089582E041
:1018A000089583E0089581E00895E8EDF0E08081F7
:1018B0008E7F80831092E2001092DA001092E10095
:1018C000A0EEB0E08C9181608C9380818F778083D3
:1018D00019BCA7EDB0E08C918E7F8C9380818F7EB8
:1018E000808310922E040895FC01AC014B5F5F4F82
:1018F0008FEF61E39191892728E030E0982F990FCD
:1019000087FF09C0892F862721503040B9F7E41797
:10191000F50781F70895892FF7CFEF92FF920F9384
:101920001F93CF93DF937C01809101010E94F60900
:10193000092F3091FB073695369521E0320F08F4D8
:101940003FEF6091290570912A0540E050E0639FC8
:10195000412D739F400D511D1124142FC82FD0E02D
:10196000C01740F0802F0E941E09CDB7DEB7E6E019
:101970000C94DC2EFE01E952FD4F80819091020112
:101980008923811589F06091F8077091F90780919A
:10199000FA07212F4C2FF70109950E949708472F2E
:1019A000282FCE010E94D0092196DACFA0E0B0E026
:1019B000ECEDFCE00C94B92E7C01809101010E94B9
:1019C000F609C82F992E2091FB0731E0230F08F468
:1019D0002FEF30E040E050E06FEF7FEF80E090E0ED
:1019E0000E94192F6901D0E0A12CB12C822E7D2CF0
:1019F0009C2FC91540F0892D0E941E09CDB7DEB776
:101A0000EDE00C94D52EFE01E952FD4F808120912E
:101A100002018223811531F140913A054150042E93
:101A2000000C550B47FF20C0082D172D2091FB07F8
:101A300031E0230F08F42FEFA501029F412D129FE3
:101A4000400D511D11246091F8077091F9078091A4
:101A5000FA07F70109950E949708472F282FCE0112
:101A60000E94D0092196C4CFFA01E65CFA4F818921
:101A700089130AC0FA01EE0FFF1FE65CFA4F018DD1
:101A8000128D0C151D0590F241505109CBCFA4E0E9
:101A9000B0E0EDE4FDE00C94BC2E182F8091050120
:101AA000811322C09091F70793702091040130E0D8
:101AB00081E09217130609F480E08093030180917E
:101AC000FC0790910201981739F08093020140E0E1
:101AD00060E080E00E94DD091B3088F4E12FF0E037
:101AE000EB59FD4C0C94382F81E0E7CF8091030136
:101AF000811529F040E060E080E00E94DD0980E08F
:101B0000909101019F5F9093010181110CC082E0CF
:101B10008093000180910301811105C0111103C060
:101B200083E0809300012496EAE00C94D82E809103
:101B300001010E94F6098983F92E6091F8077091DE
:101B4000F9078091FA070E949708062FE72ED82EF2
:101B50003981232F30E03C832B835B81F51609F01C
:101B600010F48F2D42C0EB81FC81E952FD4F808142
:101B7000909102018923811539F02D2D4E2D602F72
:101B80008B819C810E94D0094B815C814F5F5F4FAC
:101B90005C834B83E2CF809101010E94F609898327
:101BA000D92E8091F8078A83F090F9070091FA07FF
:101BB000682F7F2D802F0E949708C62EB72EA82E43
:101BC0008091FB076A81680F7F2D802F0E94970804
:101BD000062FF72EE82E3981232F30E03C832B830C
:101BE0005B81D51609F020F48D2D0E941E0988CF47
:101BF000EB81FC81E952FD4F808130910201382355
:101C0000311561F02E2D4F2D602F80FD03C02A2D40
:101C10004B2D6C2D8B819C810E94D0094B815C8166
:101C20004F5F5F4F5C834B83DBCF809101010E944C
:101C3000F609F92EE090F907D090FA072091FB07FA
:101C400000E4029F012D1124282F30E03C832B83D8
:101C50005B81F51609F008F484CFEB81FC81E95231
:101C6000FD4F80819091020189238115C1F0EB81A4
:101C7000FC81EE0FFF1FE95FFD4F85AD82958F70F0
:101C80006091F807809F600D11247E2D8D2D0E949C
:101C90009708472F282F8B819C810E94D0094B8168
:101CA0005C814F5F5F4F5C834B83D2CF809101019A
:101CB0000E94F609F92ED090F907E090FA072091DA
:101CC000FB0700E4029F012D1124282F30E03C8304
:101CD0002B835B81F51609F008F443CFEB81FC817F
:101CE000E952FD4F80819091020189238115E1F035
:101CF000EB81FC81EE0FFF1FE95FFD4F24AD209FBC
:101D00009001112495E0359527959A95E1F760911A
:101D1000F807620F7D2D8E2D0E949708472F282FE0
:101D20008B819C810E94D0094B815C814F5F5F4F0A
:101D30005C834B83CECF8AE499E00E948D0CE0CE89
:101D400083E699E0FACF809101010E94F609082FFD
:101D5000F92E2091290530912A058091FB0786955F
:101D6000869540E050E0289F412D389F400D511D41
:101D700011245C834B83DB80842F805C0E942B09C1
:101D8000805889838B810E942B0980588A83802FF9
:101D900090E09C838B833B813F1508F0E2CEEB8182
:101DA000FC81E952FD4F80819091020189238115C8
:101DB000A1F06091F8077091F9078091FA07ED2C76
:101DC0000B812A8149810E947C090E949708472F34
:101DD000282F8B819C810E94D0092B813C812F5F11
:101DE0003F4F3C832B83D7CF8BEA99E0A6CF8CEB78
:101DF00099E00E94D60C84CE83EC99E0FACFCF9381
:101E0000C82F811591F08091F20781110EC00E94B8
:101E1000470D109205018091F707837080930401AC
:101E20000E94C30F83E080930001C093F207CF911B
:101E30000895982F9093E900891771F07091EC0044
:101E40002091ED005091F00021FD09C09F5F973077
:101E500089F78093E9000895762F242F50E0309180
:101E6000EB003E7F3093EB003091ED003D7F3093EF
:101E7000ED003091EB0031603093EB007093EC009B
:101E80002093ED005093F0002091EE0027FDDECF6F
:101E90000895A0E0B0E0EFE4FFE00C94BE2EC8EDA2
:101EA000D0E088818F7E8883E7EDF0E080818160DB
:101EB000808384E082BF81E080932E0488818E7FBE
:101EC000888302EE10E0F80110821092DA0081EEB1
:101ED000C82ED12CF601108288818F778883888163
:101EE0008068888388818F7D888319BC1092EF0772
:101EF00010922D041092640510922C0490EEE92E9D
:101F0000F12CF70180818B7F8083888181608883B9
:101F100042E060E080E00E94190FF60180818E7F30
:101F20008083F801808181608083808188608083E4
:101F3000F70180818E7F8083888180618883CDB71F
:101F4000DEB7E8E00C94DA2EE091920890919108C7
:101F500027E0E91302C080E00895AE2FB0E02E9F85
:101F6000F0011124ED56F74F3181361306C0308150
:101F7000381303C03581341304C0FD013196E77076
:101F8000E8CF81E008953BB1377F2BB128604FB790
:101F9000F89487E494E0FC010196508168E02BB945
:101FA000000000C057FF3BB9550F000000C000C043
:101FB00000C03BB900C06A9591F755E0853295079E
:101FC00051F74FBF8FE594E00197F1F700C0000093
:101FD000089581E08093E00080E28093D800109221
:101FE000C9008FE19EE40197F1F700C0000087E08F
:101FF00090EBDC018093D2089093D308A093D4088F
:10200000B093D50888E19CE00FB6F894A89580932A
:1020100060000FBE90936000FFCF0F931F93CF938C
:10202000DF938B01EA019091EF07943059F580938B
:10203000E9008FEF9091E80095FD06C095ED9A9527
:10204000F1F700008A95B1F78091E80085FF1AC08A
:102050000E94240C811111C08091E80085FD06C00A
:102060008091E8008E778093E800F2CFF8018191AB
:102070008F018093F100219779F78091E8008E77A6
:102080008093E800DF91CF911F910F910895CF9336
:10209000DF93D82FC92F48E050E0682F792F81E0D7
:1020A0000E940D1088E0ED2FFC2FA7E3B4E0019013
:1020B0000D928A95E1F7DF91CF910895BC0143E03D
:1020C00050E084E00E940D100895A0E0B0E0EBE63F
:1020D000F0E10C94BC2E182F092FB62EA72E7A01F2
:1020E0008091F0079AE0C92ED12C8A3018F0CC24C8
:1020F000C394D12CC1E0D0E06B2D7A2D812F902F8D
:10210000F7010995811116C02196CC16DD0694F0D1
:10211000CC9FC001CD9F900D900D112420E030E0A8
:1021200045E34A95F1F700002F5F3F4F2817390725
:10213000B9F7E2CFCDB7DEB7EAE00C94D82E909194
:102140008F0892FB222720F9281779F080FB92F95B
:1021500090938F0860918E0870918F0884E090E0D2
:102160000E945D3282E00E94690608951F93CF931A
:10217000DF93962F122F632F8430D8F49A30C8F44F
:102180004630B8F4C42FD0E0CC0FDD1F2CE0929F76
:10219000C00DD11D112498E7899FC00DD11D1124B8
:1021A000CE0188960E943F32612FCE0189960E940F
:1021B0003F32DF91CF911F910895AF92BF92CF929E
:1021C000DF92FF920F931F93CF93DF93A12CB12C3B
:1021D00000E0650110E013C0FE01259134914F2D00
:1021E000612F802F0E94B6102296F39486E0F81299
:1021F000F3CF86E0C80ED11C1F5F1A3039F0E6011C
:10220000CC0FDD1FC15DD84FF12CE6CF0F5F8CE303
:10221000A80EB11C0430E9F6DF91CF911F910F9108
:10222000FF90DF90CF90BF90AF900895CF93DF9352
:10223000C8E0D2E060E0CE010E943F322196C11595
:1022400084E0D807B9F7DF91CF910895CF93C82FD5
:1022500065E2811101C06FEF84E290E00E943F329D
:1022600063E0C11101C06FEF85E290E00E943F3250
:1022700069E0C11101C06FEF86E290E00E943F3239
:10228000CF91089580E00E94261160E087E290E0FF
:102290000E943F320E94DD100E94161181E00E94D0
:1022A000261108950F931F93CF93DF93843030F559
:1022B0006A3020F5463010F5C42FD0E0CC0FDD1F7A
:1022C0002CE0629FC00DD11D112438E7839FC00D03
:1022D000D11D1124CE0188960E942132082F10E0D2
:1022E000102F0027CE0189960E9421329801282BB9
:1022F000C901DF91CF911F910F91089580E090E087
:10230000F8CF462F672F7A3038F4463028F48430DF
:1023100018F40E945211089580E090E00895A0E022
:10232000B0E0E5E9F1E10C94BF2E7C0100918C084E
:1023300080918B08082BC3E0D0E010E0C8010C2E80
:1023400002C0959587950A94E2F780FD09C0219710
:10235000A8F7D12C8D2DCDB7DEB7E7E00C94DB2E9E
:10236000DC2EB7018C2F0E9481110E947907019702
:1023700071F3F0CF0F931F93CF93FC018581008100
:102380001181811591F0611581F0C8010E948F11B2
:10239000C82F682FC8010E94D405B8018C2F0E9455
:1023A0008111CF911F910F910895C8010E940A06D3
:1023B000C82FF3CFCF93DF93D82FC92F0E948F114F
:1023C0006D2F7C2F0E9481110E947907DF91CF91A0
:1023D0000895FC0184818115A1F0808191810E9482
:1023E000DA11282F92959F70963099F060F4925FE1
:1023F0009F70923030F4203FB1F038F481E0283EF5
:1024000038F080E008959A5FF3CF81E0243FC9F768
:10241000089591E0213F09F090E081E0283E08F026
:1024200080E0892B089581E008950F931F93CF9347
:10243000DF938C01FC01C081D181CE010E94213249
:102440002196F801D183C083DF91CF911F910F9125
:10245000089584E290E00E942132853289F485E279
:1024600090E00E942132833059F486E290E00E948D
:10247000213291E0893009F090E0892F8170089530
:1024800080E0FCCF8091880890919008892B409142
:102490008908411589F090E024E134E0F901508188
:1024A0002F5F3F4F51119F5F54E02A313507B1F73D
:1024B000911110928908842B8093120448E050E017
:1024C00063E378E082E194E00E944E2F892BA9F02B
:1024D00088E0E2E1F4E0A3E3B8E001900D928A9590
:1024E000E1F7E0913108F0913208309731F0028045
:1024F000F381E02D82E194E0099508951092880817
:10250000E4E1F4E086E0DF011D928A95E9F780E0DE
:1025100090E00E94FA0A80E090E00E94200B109266
:1025200090080E9442120895AAE2B0E0EAE9F2E1BE
:102530000C94C32E8FE294E0FC0101962091F100EF
:10254000208324E087339207B9F7809130048930E3
:1025500009F45AC0C8F4823009F4B7C0833009F4D2
:1025600086C0813091F18091E80083FFEBC08091BB
:102570002F04909130049A3008F0E4C0E92FF0E085
:10258000E059FD4C0C94382F8A3009F48DC08B3003
:1025900051F780912F04813231F78091330490916B
:1025A0003404892B01F78091E800877F8093E8004D
:1025B0000E94050C81E090913104911101C080E0EE
:1025C000809308010E947E12CECF80912F04813A21
:1025D00051F68091E800877F8093E8008091330472
:1025E00090913404892B61F060E080E090E070E02D
:1025F0000E94AC0B8091E8008B778093E800B3CF0A
:1026000068E087E394E0F3CF80912F04813209F0F2
:10261000AACF80913304909134048D7F892B09F0E7
:10262000A2CF8091E800877F8093E8008091E80046
:1026300082FF18C09091F3008091F200029731F46C
:102640008091F100813011F0863021F48091F10009
:10265000809307018091E8008B778093E8000E94C7
:10266000050C81CF8091EF078111E0CF7CCF809165
:102670002F04813A09F077CF80913304909134048C
:10268000892B09F070CF8091E800877F8093E80064
:102690008091E80080FFFCCF809108018093F100D9
:1026A0008091E8008E77D9CF80912F04813209F094
:1026B0005ACF8091E800877F8093E8000E94050C44
:1026C00080913204809306014ECF80912F04813A8D
:1026D00009F049CF8091E800877F8093E8008091DE
:1026E000E80080FFFCCF80910601D8CF803889F0C8
:1026F000823841F5809133048F70873018F58093CC
:10270000E9008091EB0085FB882780F91092E900B1
:1027100006C080916405880F90912C04892B9091BC
:10272000E800977F9093E8008093F1001092F10009
:102730008091E8008E7723C0811116C0809131040A
:10274000813011F18091E80083FF0AC08091E80098
:10275000877F8093E8008091EB0080628093EB009C
:10276000AA96E3E00C94DF2E823061F78091310469
:10277000811589F01092E9008091E800877F8093AD
:10278000E8000E94050CDECF81E0933009F080E084
:1027900080936405EFCF809133048F702FEF280F63
:1027A000263080F68093E9002091EB0020FFE2CFF5
:1027B000933031F48091EB0080628093EB00DACFAC
:1027C0009091EB0090619093EB0021E030E0A90143
:1027D00002C0440F551F8A95E2F74093EA00109219
:1027E000EA008091EB008860E8CF8111ABCF1091B7
:1027F00031041F778091E3008078812B8093E30080
:102800008091E800877F8093E8000E94050C80910A
:10281000E80080FFFCCF8091E30080688093E300B4
:1028200083E0111101C082E08093EF078BCF8058C5
:10283000823008F087CF80913104909132048C3D32
:1028400053E0950799F583E08A838AE289834FB73D
:10285000F894DE01139620E03EE051E2E32FF0E031
:1028600050935700849120FF03C082958F703F5F83
:102870008F708A30C8F0895C90E08D939D932F5FB4
:10288000243161F74FBF8091E800877F8093E80093
:102890006AE270E0CE0101960E94AC0B8091E800E4
:1028A0008B778093E8004ECF805DE6CF292F3327CA
:1028B0002330310509F44EC078F52130310509F493
:1028C0007DC08BE590E0E8E8F6E02230310509F0C4
:1028D00039CF2091E800277F2093E800209135042C
:1028E000309136048217930708F49C0140E02115CB
:1028F000310509F068C0411166C08091E80082FD91
:10290000CDCF8091EF07811549F2853039F2809162
:10291000E80083FFF2CFC2CF80913304909134045A
:102920002132310509F43BC02232310509F00ACFCA
:102930008330910508F006CFFC01EE0FFF1FE85130
:10294000FE4F0190F081E02D8B519E4FDC018C9168
:1029500090E011C09C013327813089F0223031058D
:10296000B1F0232B09F0EECEEBE2F7E0E4918E2FED
:1029700090E0EBE2F7E0009709F4E4CEAACFEDE0B7
:10298000F7E0E4918E2F90E0EDE0F7E0F4CFE5EF93
:10299000F6E0E4918E2F90E0E5EFF6E0ECCF8330A7
:1029A000910508F0CFCEFC01EE0FFF1FE251FE4F64
:1029B0000190F081E02D89E090E08BCF82E190E002
:1029C000E3EEF6E086CF8091EF07811509F466CF3C
:1029D000853009F463CF8091E80083FD5FCF80915B
:1029E000E80082FD8ACF8091E80080FF80CF90913F
:1029F000F3008091F2002115310519F0883091051E
:102A000050F041E0089709F040E08091E8008E77AF
:102A10008093E8006CCF44914093F10031962150AF
:102A200031090196E8CF803809F08CCE8091E8001A
:102A3000877F8093E80080912D048093F10078CE09
:102A4000811180CE10913104123008F07BCE80913C
:102A5000E800877F8093E80010932D040E94050C06
:102A60001115F9F084E08093EF0742E061EC81E01A
:102A70000E94190F42E261EC84E00E94190F42E2C9
:102A800061EC82E00E94190F42E260EC83E00E9458
:102A9000190F8091EF07843051F482E0809309018F
:102AA00051CE8091E30087FDDDCF81E0DCCF81E076
:102AB000F5CFCF93C82F8115A9F08CEF8C0F813AF9
:102AC00098F4E4E1F4E08AE194E02191C217B1F1D5
:102AD0008E179F07D1F76C2F82E194E00E94460B7E
:102AE0000E944212CF91089580E28C0F883068F4E2
:102AF000C77021E030E001C0220FCA95EAF780914B
:102B00008808822B80938808EBCF8BE58C0F83306D
:102B100038F42C2F2452330BC9010E94FA0AE2CF59
:102B2000C85ACB31F8F6EC2FF0E0EE0FFF1FEF594B
:102B3000FC4F808191810E94200BD4CF6C2F82E1C9
:102B400094E00E94600B0E944212C5CF682F81154D
:102B500041F18CEF860F813A38F482E194E00E94D3
:102B6000600B0E944212089580E2860F883048F47C
:102B7000677081E001C0880F6A95EAF70E948106BC
:102B8000F0CF8BE5860F833028F480E090E00E9440
:102B9000FA0A0895685A6B3120F480E090E00E94B0
:102BA000200B08950F931F93CF93C82F8B010E9482
:102BB00059150115110539F48C2F0E94A615CF91D6
:102BC0001F910F9108958FE99FE00197F1F700C0E1
:102BD000000001501109EDCF811539F0909188085E
:102BE000892B809388080E9442120895811521F054
:102BF0000E9481060E9442120895A0E0B0E0E3E046
:102C0000F6E10C94BE2EFA0169017801C82F880FF5
:102C1000DD0B3097B9F0DE0193E0AA0FBB1F9A9548
:102C2000E1F7A45ABE4F11968D919C911297805F47
:102C3000974F2C91422F50E0E217F10508F4AF01B5
:102C40000E945B2FCE010E942C2E182F8115D9F0E7
:102C5000E114F104C1F083E0CC0FDD1F8A95E1F7A8
:102C6000FE01E45AFE4F8381482F50E0E816F1043C
:102C700008F4A701C45ADE4F6C817D81605F774FF5
:102C8000C6010E945B2F812FCDB7DEB7E8E00C9420
:102C9000DA2E4F925F926F927F928F929F92BF92A5
:102CA000CF92DF92EF92FF920F931F93CF93DF9318
:102CB000B82E6B01D42FC52FB9017801A8018D2F33
:102CC0009C2F0E944E2F4C01F60140805180628063
:102CD00073800E94710B641975098609970964361F
:102CE00071058105910510F4892899F000E010E044
:102CF00020E030E0A7016D2F7C2F8B2D0E94FD1569
:102D0000811541F00E94710BF6016083718382830B
:102D1000938381E0DF91CF911F910F91FF90EF900E
:102D2000DF90CF90BF909F908F907F906F905F903B
:102D30004F9008950F931F93AC0105E010E026E13A
:102D400038E063E078E082E00E9449161F910F911D
:102D50000895A9E0B0E0EFEAF6E10C94C22E88E015
:102D6000E7EFF7E0DE01119601900D928A95E1F709
:102D70008091F207898709E010E02FE138E0AE0189
:102D80004F5F5F4F63EF77E084E00E94491629961A
:102D9000E4E00C94DE2E8F929F92AF92BF92DF926E
:102DA000EF92FF920F931F93CF93DF9300D000D049
:102DB00000D0CDB7DEB77B0101E010E09E012A5FB5
:102DC0003F4F40E050E060E070E080E00E94FD1581
:102DD000182F811509F444C080900C0890900D08BC
:102DE000A0900E08B0900F080E94710BDE80681949
:102DF00079098A099B09643671058105910530F4CA
:102E000081E198E00E94740C8D1551F105E010E00D
:102E10009E012F5F3F4F40E050E060E070E081E0B6
:102E20000E94FD15182F81E198E00E94740C8D110D
:102E300022C0111501F10E94710B60930C08709370
:102E40000D0880930E0890930F0885E0FE013196DF
:102E5000A7E0B8E001900D928A95E1F781E00CC0FF
:102E600085E0E1E1F8E0DE01119601900D928A958E
:102E7000E1F71111EACF80E095E0E7E0F8E0D70153
:102E800001900D929A95E1F70F900F900F900F908F
:102E90000F900F90DF91CF911F910F91FF90EF90C6
:102EA000DF90BF90AF909F908F900895A4E0B0E026
:102EB000ECE5F7E10C94BE2EC090FF07D09000081F
:102EC000E0900108F09002080E94710B6C197D09D6
:102ED0008E099F0911E0643671058105910520F185
:102EE0000E947D0BDC01CB010296A11DB11D8983DF
:102EF0009A83AB83BC8300E010E020E030E044E044
:102F000050E0BE016F5F7F4F83E00E94FD15182FD8
:102F1000811551F00E94710B6093FF0770930008B8
:102F20008093010890930208812F2496E8E00C9486
:102F3000DA2EA1E0B0E0EFE9F7E10C94C22E81E0D7
:102F400089838091F0078A3088F01092F10700E0C1
:102F500010E020E030E041E050E0BE016F5F7F4FC5
:102F600085E00E94FD158093F10704C08091F10770
:102F7000811569F32196E4E00C94DE2E48E050E0E0
:102F800067E170E087EF97E00E942F3210923905D9
:102F900008958F929F92AF92BF92CF92DF92EF925D
:102FA000FF928090250590902605A0902705B0906F
:102FB000280580912908811509F451C00E94710BE0
:102FC0006B017C01C818D908EA08FB080E947D0B38
:102FD000282F6093250570932605809327059093ED
:102FE0002805A0916505E5E6F5E08A2F30E0882404
:102FF0008A94982CA12CB12C8C189D08AE08BF087F
:10300000A31330C0809365058091F20781113AC007
:103010003091F707832F8370811519F0832F8695E0
:103020008695309100013230E9F170F5311137C0E9
:10303000109201016093290570932A0520932B05B6
:1030400090932C0589E2E5E6F5E0AAE3B5E001906E
:103050000D928A95E1F781E08093000117C00E94EC
:103060007D0BAECF418D528D84169506A104B1041F
:1030700020F481503F5F3296C3CF4C0D5D1D528FBF
:10308000418FF8CF80E0CDCF3330B9F0FF90EF9093
:10309000DF90CF90BF90AF909F908F9008950E9447
:1030A000470DF4CF809305018091F70783708093DB
:1030B00004010E94C30F83E0CFCF809139058111B5
:1030C0000E94BE17C0902905D0902A05E0902B05DC
:1030D000F0902C0580912908811571F00E94710BE8
:1030E0006C197D098E099F09603171058105910573
:1030F00068F210920001CACF0E947D0BF1CFAB01A4
:1031000024E630E0BC0188E70E94482C9C0181E065
:10311000232B09F080E008958091E307811569F081
:103120008091E007811549F062E070E086E491E06B
:103130000E947F1881111092E00708958091E307A3
:103140008115F9F00E94710BDC01CB01805A954189
:10315000AF4FBF4F8093DC079093DD07A093DE074E
:10316000B093DF078091E00781110BC062E070E04F
:1031700084E491E00E947F18811519F081E080932A
:10318000E0070895CF93DF93682F81E06A3019F04C
:103190006D3031F480E00E944219DF91CF910895A3
:1031A00080919E0590919F0526E0FC01A6E2B4E087
:1031B00001900D922A95E1F7603E08F458C026E090
:1031C000FC0111922A95E9F7C0919E05D0919F05C7
:1031D00046E050E0BE0186E294E00E944E2F9E0140
:1031E000285D3540892B41F1C90145E096958795C9
:1031F0004A95E1F741E050E0BA0102C0660F771F3F
:103200008A95E2F7CB016091DA077091DB07862B94
:10321000972BB9016B5F7F4FE5E076956795EA954F
:10322000E1F702C0440F551F6A95E2F7842B952BF6
:103230009093DB078093DA072A5F3F4F40919D050B
:10324000642F70E0C9010E94A02E481B463010F484
:10325000240F311D211572E0370710F020E030E017
:1032600028523A4F30939F0520939E0596CFF6E063
:103270006F9FB0011124685B7E4F46E050E00E94D2
:10328000452FA2CFCF93382FE0919E05F0919F0557
:10329000E85DF54020919D05622F70E0CF010E940E
:1032A000A02E281B822F311561F066E00E94EB2EC4
:1032B000C82FC15010F4CF91089580E20E94C21827
:1032C000F8CF8E0F9F2F911D811522E0920710F0ED
:1032D00080E090E088529A4F90939F0580939E05DE
:1032E000EACF0F931F93CF93DF93EC01FC01019082
:1032F0000020E9F78F0101501109C017D10728F00C
:10330000DF91CF911F910F91089589910E94C2186A
:10331000F4CF1F921FB61F9211248F939F93AF93E8
:10332000BF9380916305811113C080913F049091F8
:103330004004A0914104B09142044196A11DB11DE9
:1033400080933F0490934004A0934104B0934204BF
:10335000BF91AF919F918F911F901FBE1F901895A5
:103360002FB7F89480913F0490914004A0914104BC
:10337000B09142042FBF0895CF93DF93EC010E94D8
:10338000B0198C1B9D0BDF91CF910895EF92FF92A6
:103390000F931F93CF93DF93C62FD42F122F811536
:1033A000A9F0609386080E94B01990932504809339
:1033B0002404C77081E001C0880FCA95EAF70E9413
:1033C000EC15CDB7DEB7E6E00C94DC2E80918608D4
:1033D000681334C0E0902404F09025040E94B019D2
:1033E0008E199F098436910548F500E20D0FCD171F
:1033F000A9F0C770FF24F3948F2D01C0880FCA95E0
:10340000EAF70E94F615083048F48D2F877001C046
:10341000FF0C8A95EAF78F2D0E94EC1560E070E0B2
:10342000812F0E94D215083060F6D77081E001C06C
:10343000880FDA95EAF70E94F615C3CFC77081E0CE
:1034400001C0880FCA95EAF7F6CFA2E0B0E0EBE240
:10345000FAE10C94B92E6C01FC018481811509F408
:10346000E9C061E0C6010E94BA118C01F6018581B4
:10347000811509F457C080E280938C01109356089F
:1034800000935508C80190528115904308F085C0FB
:10349000C80199279093560880935508F6018181B9
:1034A0008093540890819093530840E2F42E0C339B
:1034B000110520F4F801ED52FC4FF0801F92FF92AD
:1034C0001F930F931F929F931F928F9380E991E018
:1034D0009F938F931F9288E18F938EE698E09F933E
:1034E0008F930E94722F80916C0890916D080FB697
:1034F000F894DEBF0FBECDBF8431910551F444E195
:1035000050E060E270E087E598E00E94642F80E080
:1035100090E0FC01E95AF74FF082019690936D0814
:1035200080936C08F6018581811509F4FAC0980131
:1035300037572038310508F02AC5F02EF0E10F1773
:1035400008F068C08FEF93E00E942132811162C0C1
:1035500008E012E0F1102CC01A8309838E010F5F7E
:103560001F4FC8010E941512A02E912E811509F43B
:1035700051C0813009F079C0C8010E941512813014
:1035800021F5C8010E94151260E570E0893311F041
:1035900060E070E00E94D215E4CF0C33110508F012
:1035A0007DCFF801E956FC4F808180938C0176CF66
:1035B000011524E0120771F1C8010E9421320F5F4A
:1035C0001F4F8111F5CFFA94C5CF823031F4C80175
:1035D0000E9415120E945915C4CF833031F4C801DE
:1035E0000E9415120E94A615BCCF843089F4C80130
:1035F0000E941512E12CF12C3AE0B32E482F4053D3
:10360000550B9A014A305105C8F0E114F10419F53F
:103610008111A7CF80918D088770811559F0F6012F
:103620008581811539F080918F0882FF03C082E087
:103630000E9469062296EDE00C94D52EBE9CC00136
:10364000BF9C900D11247901E80EF91E8A2D992D49
:103650000E941512D3CFEFE9FFE03197F1F700C0D8
:103660000000F1E0EF1AF108D0CFE82FF0E0EF59B9
:10367000F54F7490282F26952695269530E0F90170
:10368000EF5AF54FE4908770F12C082E02C0F594A4
:10369000E7940A94E2F7E0FAEE24FF24E0F8F90157
:1036A000EF5BF54FA490B12C082E02C0B594A794FF
:1036B0000A94E2F7A0FAAA24BB24A0F8F901EF5C6F
:1036C000F54F8490912C02C0959487948A95E2F7E7
:1036D00080FA8824992480F8E114F10419F081EE2D
:1036E0000E945915A114B10419F086EE0E945915D3
:1036F00060E070E0872D0E94D215A114B10419F08A
:1037000086EE0E94A615E114F10419F081EE0E94E4
:10371000A6158114910409F424CF60E070E08CE2D6
:1037200039CFF801E851FC47E730F10508F01FC434
:10373000E658FD4C0C94382F26E241EE61EE0E94D3
:10374000C61968CF27E245EE65EEF9CF26E241EED5
:1037500060EEF5CF27E245EE64EEF1CF26E241EED2
:1037600062EEEDCF27E245EE66EEE9CF28E241E0DA
:10377000EBCF80918E08816080938E0860918E08D7
:1037800070918F0884E090E00E945D320E947E126A
:1037900041CF80918F08886080938F08EFCF809110
:1037A0008E088260E9CF80918E088460E5CF809199
:1037B0008E088860E1CF80918F088160EDCF809185
:1037C0008F088260E9CF80918E088061D5CF80918B
:1037D0008E088062D1CF80918E088064CDCF0E9408
:1037E0007E1280918E088068C7CF80918E088C6091
:1037F000C3CF80918F088360CFCF80918E088E7F5A
:10380000BBCF80918F08877FC7CF80918E088D7F37
:10381000B3CF80918E088B7FAFCF80918E08877F4A
:10382000ABCF80918F088E7FB7CF80918F088D7F2F
:10383000B3CF80918E088F7E9FCF80918E088F7D31
:103840009BCF80918E088F7B97CF0E947E128091B4
:103850008E088F7791CF80918E08837F8DCF809156
:103860008F088C7F99CF80918E08992782FF93953E
:1038700090FB82F990FB83F97FCF80918F08982F7E
:10388000909590FB80F990FB81F986CF90918E08FE
:10389000892F8F7B96FF80646FCF0E947E1290915C
:1038A0008E08892F97FB87F9805866CF61E08EE0FC
:1038B00090E00E943F3262CF60E0F9CF90918E0895
:1038C000892F8F7E94FF806157CF90918E08892F2A
:1038D0008E7F90FF816050CF90918F08892F877FD6
:1038E00093FF886059CF9272F801E052F847EB30AD
:1038F000F10508F051C0EF57FD4C0C94382F909112
:1039000088089272F801E054F847ED30F10508F0AC
:1039100043C0E457FD4C0C94382F81E00E940A0A02
:1039200079CE911511F10E94580A74CE911511F1BA
:103930000E94810A6FCE911511F10E949A0A6ACEF7
:10394000911511F10E94B60A65CE911511F10E94F0
:10395000D00A60CE0E94150A81E00E94CA095ACEA0
:103960000E94230AF9CF9115F1F20E944C0A52CE1F
:103970009115F1F20E94760A4DCE9115F1F20E9456
:103980008C0A48CE9115F1F20E94A80A43CE9115F7
:10399000F1F20E94C40A3ECE07372CE71207F9F075
:1039A00008373CE7130751F19801205E3245203279
:1039B000310550F581113FC00F7181E090E0AC01FD
:1039C00002C0440F551F0A95E2F78A01642F83E075
:1039D00090E00E943F32802F0E94AB051BCE8115E4
:1039E00049F081E00E94B80543E062E081E00E9476
:1039F0003E0610CE81E00E94C405F6CF811511F07D
:103A000082E0F0CF82E0F7CF8115A9F00A355CE7BC
:103A1000150709F4B1C008F074C001309CE719071C
:103A200009F48DC00330ECE71E0709F495C00115B9
:103A30001C4709F477C0F6018581E080F18081158B
:103A400009F49EC0C7010E948F11182F682FC7016B
:103A50000E94D405B701812F0E9481110E9479072D
:103A60008C01F601B580A680A2942FE0A22280915D
:103A70008D088770811501F1EB2CB114F1F0812FC5
:103A8000807F803461F080E2800F8830A8F0812F41
:103A9000807E803221F4023078F0A11469F08091A8
:103AA0008F0882FF09C082E00E94690680918D081C
:103AB0008770EE24E3948111E12C812F82958F7021
:103AC000883009F44DC108F07CC0843008F05DC036
:103AD000F12FFF70FF2E823008F484C0107F103267
:103AE00019F0F29480EFF822011509F4B2C0013008
:103AF00009F4FBC0B11409F407C1A11409F4C7C04B
:103B000087C00B352CE71207C9F180918F0800247C
:103B100082FF0394802D0C351C4709F08CCF0E9446
:103B20009F1089CF0E947E124FEF54E38CE04150EA
:103B300050408040E1F700C000000E94E90F0E9461
:103B40007E129FEFE4E3FCE09150E040F040E1F7AB
:103B500000C000000E949F0B6FEF7FEF80E090E0BD
:103B60000E945D320E947E122FEF34E34CE0215020
:103B700030404040E1F7ECCF81E0D1CF80E0CFCFC3
:103B8000C7010E940A06182F65CF843009F4CDC002
:103B9000E11409F414C180918D0880FD10C1F60173
:103BA00015828695869586950E94B805C6010E9465
:103BB000251A80918D088695869586950E94C40564
:103BC000FEC0893009F43FC18A5F8F70823000F7F0
:103BD000023F09F049C1812F8F71B11042C10E948B
:103BE000B805EBC0103118F0F29490EFF922B1143F
:103BF000B9F0F11469F080E2800F883010F0011103
:103C000009C0809188088F29809388080E944212F9
:103C1000802F2FC0809190088F2980939008F6CF35
:103C2000802F0E94A615F11409F4B2CF80E2800F14
:103C3000883010F0011104C08F2D0E94810606C04B
:103C4000F094809190088F21809390080E944212F6
:103C50009FCF80918F0882FD16C0B11469F0F114D6
:103C600039F0809188088F29809388080E94421239
:103C700080E00E9459158CCF80E00E94A615F114B7
:103C800009F486CFD9CFB114A1F0A11004C08F2DB3
:103C90000E94EC157DCF21E0A2127ACF8091890895
:103CA0009F2D9823F91609F473CF8F2980938908E3
:103CB0006FCFA1106DCF8F2D0E94F61590918908BE
:103CC0008F2D8923811529F08F2D8095892380934D
:103CD000890880918A089F2D9823911509F458CF5F
:103CE000F094F822F0928A0853CFB11429F036E00C
:103CF000A31608F04DCFCBCF45E0A41608F048CF6F
:103D00008F2D0E94F61544CFA114D1F3093349F445
:103D10005FEF87EE93E0515080409040E1F700C0A4
:103D20000000802F0E94A61533CF812F869586959F
:103D30008370811561F0813009F02ACFC80193703A
:103D4000B11002C080E090E00E94200B21CFC8019A
:103D50009370B11002C080E090E00E94FA0A18CF80
:103D6000812F8370811138C0B11027C0402F429538
:103D700046954770440F440F802F8F70042E01C06A
:103D8000880F0A94EAF7202F207104FF07C02FE064
:103D900030E001C0220F4A95EAF720951695169556
:103DA00013701230A1F0133081F030918B08113074
:103DB00059F0822B83230E94AB050E94E90A60E040
:103DC000C6010E94BA1136CC832B822BF4CF822BF2
:103DD00090918B088927EFCFB11451F110FFEDCFEF
:103DE000402F429546954770440F440F802F8F70A7
:103DF000042E01C0880F0A94EAF7202F207104FFD7
:103E000007C02FE030E001C0220F4A95EAF7209565
:103E1000169516951370123089F0133069F03091B1
:103E20008C08113041F0822B83230E94AE05C5CF50
:103E3000823018F2D5CF832B822BF7CF822B909133
:103E40008C088927F2CF1F70B11439F0812F0E949E
:103E5000B805802F0E94EC15B0CF802F0E94F61578
:103E6000812F0E94C405A9CF70F4003FC9F0013F23
:103E700091F0B11409F44EC0A11409F448C0802F88
:103E80000E9459159ACF033FE9F0043F91F79091B2
:103E90008F0892FD23C0812F8F71B11411F39FCE33
:103EA000B11469F0E5E0AE1608F087CF1F7181E02C
:103EB00090E0012E01C0880F0A94EAF7C0CFF6E027
:103EC000AF16F2CF80E0B11409F4AFCF1F7181E0DB
:103ED000012E01C0880F0A94EAF7A7CFB11461F050
:103EE000812F8F7192FF7BCE982F990F990F990F89
:103EF000936090938D0873CE81E00E94690622E062
:103F0000A21608F45ACF82E00E94690656CF812F8C
:103F10008F7165CEA11479F0093349F43FEF47EE74
:103F200053E0315040405040E1F700C00000802F86
:103F30000E94A61542CF812F8F7193CF9091880850
:103F40000631FCE71F0709F0CECC9A7A81E0911187
:103F500001C080E08093870865E3911101C069E2A8
:103F600082E194E00E94460B0E94421253CB06313C
:103F70002CE7120709F0C3CC8091870865E3811113
:103F800001C069E282E194E00E94600BEDCFF8018C
:103F9000E851FC47E730F10508F4CACB10928608D7
:103FA000980130572332310548F684E090E00E94B2
:103FB000293290938F0880938E08F801E150F047E2
:103FC000E232F10508F0D5CBE756FD4C0C94382FC2
:103FD0008091D108803178F48091D008811559F012
:103FE000E0919208209191083091CC084091CB0843
:103FF00057E02E1301C008956E2F70E05E9FF00110
:104000001124DF01AD56B74F14968C91149781158A
:1040100061F111968C911197831327C08C918413B1
:1040200024C015968C91159781111FC012968D9101
:104030009C91A091CD08B091CE088A1B9B0B843631
:10404000910598F48091D1088F7080618093D10898
:10405000E756F74F80818F70806180838BEC98E00A
:104060000E94251A0E945F060895FB013196E770B1
:10407000C0CFADE0B0E0EFE3F0E20C94B82E8C01DD
:1040800086E0F801DE01189601900D928A95E1F71D
:10409000F801F58084819BEC892E98E0992E609040
:1040A000CF08611018C0811599F0F11409F400C10E
:1040B000C8010E94E911811509F4FAC087E0F801EE
:1040C000ABECB8E001900D928A95E1F70E94E81FF1
:1040D000FF24F39456C07080A280B380D090D008A3
:1040E0002091CD083091CE08A501421B530BD1146D
:1040F00009F4C1C04436510508F079C0811541F377
:104100008091CC08C180E090D10850E1E51608F01C
:1041100059C0C81215C08091CB08871111C0F11089
:104120004BC08E2D8F7080618093D1088BEC98E00E
:104130000E94251A8091D108F8018683F12C21C0B4
:10414000F1103AC040E06C2D872D0E94A40F40E092
:104150006C2D872D0E94A40FF82E8111EFCF88853A
:1041600099850E94DA11292F22952F70903470F4CE
:104170009F702230A0F09115B1F0F8019681903136
:1041800090F48F2D2D96EEE00C94D42E2A5F2F7094
:10419000223068F0C8010E94251AFD2CF2CF91153B
:1041A00011F0811571F3805E883058F3F3CF803FB2
:1041B00040F3815F8330F9CF8091D1088160809393
:1041C000D108BCCFC8123BC08091CB08871137C043
:1041D000F11035C0E682C8010E94251A87E0F80177
:1041E000ABECB8E001900D928A95E1F771CFE090C9
:1041F000D108F0E1EF1650F48BEC98E00E94251AFC
:1042000087E0F40111928A95E9F798CF811509F4B6
:104210005FCF9091CC08F8018181981310C08091F4
:10422000CB0887110CC0F1100AC0E682C8010E94B9
:10423000251A87E0F40111928A95E9F749CFC80160
:104240000E94E9118115A1F1F11491F18091D10839
:10425000803208F433CF8091CB089091CC089A83B8
:104260008983BC82AB826D821E82EF82CE01019671
:104270000E94251A23CF4436510510F6811509F402
:1042800027CFF114A9F09091CC088181981306C032
:104290008091CB08871102C087E0A2CFC8010E949D
:1042A000E91181110BCF8091D10881608093D108F1
:1042B000C8010E94251A0CCFABE1B0E0E2E6F1E2C2
:1042C0000C94C22E4E8B5F8B688F798F8A8F192F3B
:1042D0009B8F9111109290081D8A86E0FE017696C0
:1042E000DE011F9601900D928A95E1F70A8D011566
:1042F00061F00B8B1C8B61E0CE010F960E94BA110E
:1043000061E0CE010F960E94BA110B8B1C8B87E0E7
:10431000FE013F96DE01189601900D928A95E1F715
:10432000CE0108960E943920811128C02091910861
:104330003091920887E0FE013896DE0111960190D7
:104340000D928A95E1F78C858115C1F0822F90E05E
:1043500001968770992738171906D9F097E0929F30
:10436000D0011124AD56B74FFE01319601900D9248
:104370009A95E1F7809391080E945F0617E080917B
:10438000920890919108891312C06B96E4E00C9406
:10439000DE2E0E947E12109291081092920887E001
:1043A000EBECF8E0DF011D928A95E9F7E7CF189F63
:1043B000C00111248D56974F0E943920811529F391
:1043C0008091920890E001968770992780939208D7
:1043D000D6CFA6E0B0E0EFEEF1E20C94C22E0E9440
:1043E000B0198C0180912F089091300880179107A7
:1043F00079F019821A820E94B019BC0149815A8150
:1044000080E090E00E945C211093300800932F0818
:104410002696E4E00C94DE2EAFE0B0E0E2E1F2E2BA
:104420000C94B72EFE0131968AE0DF011D928A9529
:10443000E9F78CEFE82E81E0F82E8F013F01AA24E6
:10444000A394B12C27E0822E22E0922EF7018191D5
:104450007F018F3F09F43EC0F894E82FE295EF709A
:10446000F0E021A18F70A50102C0440F551F8A956D
:10447000E2F7CA01922F982B91A392A180958923EC
:1044800082A3789400C0E1E0F2E031E0512C219168
:104490002F3F79F0A22FA295AF70A05EB0E08C9173
:1044A00090E02F7002C0959587952A95E2F780FFDE
:1044B00093C080E0582A330F8E169F0641F7F7010C
:1044C00082918F3F11F00E947E0850EA5A95F1F7D1
:1044D000D8015C920F5F1F4FB1E0EB16B2E0FB0614
:1044E00009F0B4CF4AE050E0B3018DE295E00E94BC
:1044F0004E2F6C01892B41F08AE0F301ADE2B5E06B
:1045000001900D928A95E1F70091380510E00B516A
:10451000184FC114D10409F461C081E080932304D1
:104520000E94B0199093220480932104809129085D
:10453000811509F4ADC07E01EBE0EE0EF11C85E0C3
:10454000D7011D928A95E9F78091F0078A3008F02B
:1045500069C04BEC56E1B701C8010E946510811596
:1045600009F484C04AE956E1B701C8010E94651008
:10457000811509F47BC046E557E1B701C8010E94E7
:104580006510811509F472C049EA56E1B701C80106
:104590000E946510811509F469C049E957E1B70126
:1045A000C8010E946510811509F460C01092F007DF
:1045B0008091370590E045E050E0B7018B51984F6E
:1045C0000E944E2F21E020932004892B09F041C046
:1045D0002F96EFE00C94D32E832F6CCF8091230481
:1045E000811509F4A3CFE0902104F09022040E94E9
:1045F000B0198E199F09059708F498CF45E050E04F
:104600006DE275E0C8010E944E2F892B41F085E0D4
:10461000EDE2F5E0D80101900D928A95E1F7109254
:10462000230484CFC0901E04D0901F040E94B019B0
:104630008C199D09843F914008F08BCF8091200414
:10464000811531F285E0F70111928A95E9F7109210
:104650002004A0913705B0E0AB51B84F85E0FE01D2
:104660003B9601900D928A95E1F7B2CF8091F007C9
:104670008F3F39F40E94B01990931F0480931E0459
:10468000DDCF8F5F8093F0078A3008F491CFF2CFAF
:10469000E0903705F12CA7014B51584F7A0185E086
:1046A000F801A1E1B8E001900D928A95E1F781E16E
:1046B00098E00E94740C8093100885E0E6E1F8E031
:1046C000D70101900D928A95E1F7C0901B08D09018
:1046D0001C08E0901D08F0901E0880911A0490912B
:1046E0001B04A0911C04B0911D04C816D906EA064B
:1046F000FB06B1F0C0921A04D0921B04E0921C0495
:10470000F0921D040E94710BC61AD70AE80AF90A32
:10471000C0922B08D0922C08E0922D08F0922E081F
:1047200088E0EFE1F8E0A7EFB7E001900D928A95FD
:10473000E1F7809127080E94FF0E8091280880935E
:10474000F10746CFCDB7DEB7A4970FB6F894DEBF1A
:104750000FBECDBF85B7806885BF85B7806885BF30
:1047600084B7877F84BF0FB6F894A89580916000C6
:10477000886180936000109260000FBE80E890E036
:104780000FB6F89480936100909361000FBE81E0B2
:10479000809309018CE798E09093110480931004B2
:1047A0000E94550C0E94490F8091E2008460809322
:1047B000E20078948091EF07811599F08091E900EB
:1047C0001091EC008F70179511271795182B1092E8
:1047D000E9008091E80083FD0E9494121F701093FD
:1047E000E90082E084BD93E095BD9AEF97BD809388
:1047F0006E0010922B0810922C0810922D08109227
:104800002E080E942912811102C00E94421188ECD8
:1048100090E02091E30027FD0EC0AFE3BCE91197C3
:10482000F1F700C000000197A1F70E94550C10920B
:10483000EF0780E001C081E08093290880932A0877
:1048400080930A0181110E943E2D80910A0180917E
:104850000A0190E0811101C095E09093380585E050
:10486000891B809337050CEF11E0F80181918F01CE
:104870008F3F11F00E947E08F2E001301F07A9F778
:1048800001E012E087E0E82E82E0F82ED8018D9159
:104890008D018F3F11F00E947E08E016F106B1F7FE
:1048A0008AE0E5EEF7E0DF01282F1D922A95E9F76F
:1048B000EDE2F5E0DF011D928A95E9F780E090E0F6
:1048C0000E942932853E9E4F21F40E9429128111B7
:1048D00063C065EE7EEF80E090E00E945D3260E0B4
:1048E00082E090E00E943F3281E080938B0861E09B
:1048F00083E090E00E943F3260E074E184E090E069
:104900000E945D3260E086E090E00E943F3260E00D
:1049100087E090E00E943F3240E050E0BA0188E03A
:1049200090E00E94513260E083E290E00E943F32CA
:1049300060E08CE090E00E943F3260E08DE090E02B
:104940000E943F3219821A821B821C821D821E82A3
:104950001F82188648E050E067E170E0CE010196C2
:104960000E942F3240E050E0BA018FE190E00E94B7
:10497000513280E00E9426110E94421140E050E036
:10498000BA018FE090E00E94513240E050E0BA015D
:1049900083E190E00E94513282E090E00E94213257
:1049A00080938E0584E090E00E94293290938F08D6
:1049B00080938E080E940C22EFEFF6E721E0E15091
:1049C000F0402040E1F700C000000E940C228091DE
:1049D000E50780FF08C06FEF7FEF80E090E00E9466
:1049E0005D320E94E90F83E090E00E9421320E9434
:1049F000AB050E94DC0A10923A0540E150E06FEFEF
:104A000070E083E595E00E94642F1092650540E117
:104A100050E06FEF70E08EE795E00E94642F81E038
:104A20008093390548E050E067E170E087EF97E058
:104A30000E941132109239058091F7078430B8F442
:104A400085E08093F70780918D0190918E01A09170
:104A50008F018093F8079093F907A093FA078FE7E7
:104A60008093FB078FEF8093FC070E94BE17809115
:104A7000290891E08927880F8093D80780E88093E0
:104A80009D050E94C32B6BE070E086E29AE00E94D5
:104A90007F18811509F43FC08091D80765E070E068
:104AA00081FD24C181E29AE00E947F18811599F16D
:104AB0006DE070E08FE09AE00E947F18811559F157
:104AC0000E94710BDC01CB01805A9541AF4FBF4F63
:104AD0008093DC079093DD07A093DE07B093DF0798
:104AE000E8EDF5E080E092E0DF019C011D922150AD
:104AF0003040E1F7F0939F05E0939E058FEF9FEF25
:104B00009093DB078093DA0781E08093E30780933B
:104B1000E0071092D9078091290881110CC00E94EA
:104B2000412D0E94710B6093990570939A058093B3
:104B30009B0590939C058BE091E0909332088093C5
:104B400031088091EF07853061F48091EF0785305F
:104B500009F4CFC00E947E120E94E90A80E00E9400
:104B6000FF0E0E940C221FE8212E15E0312E25EEAB
:104B700037E03BA32AA3D901F10191918D9135E052
:104B8000E939F30709F4F0C09817B9F380912908BF
:104B90008CA3B7E0AB2EB2E0BB2E00E0AAA1BBA174
:104BA0009D90BBA3AAA3F10161901F01691409F4B0
:104BB00091C069242501812C77247394872D862147
:104BC000811509F47DC0172D1921FCA1F115A1F063
:104BD00089820A830E94B0199C838B8321E02D83F4
:104BE00091E0111101C090E09E8349815A816B814F
:104BF0007C818D810E945C211111D8C0D2018C91E1
:104C00008F3F09F0D5C0E12EF12C80916505810F11
:104C10009927991F09976CF1E8E0CE2ED12CCE1878
:104C2000DF08B7016A597A4FA60186E695E00E942F
:104C30005B2FB70162597A4FA6018EE695E00E947C
:104C40005B2FA601440F551FB701660F771F6258EF
:104C50007A4F8EE795E00E945B2FB7016A587A4F32
:104C6000A60186E795E00E945B2F88E0811B809378
:104C70006505111529F140916505B9A18B2F90E0CB
:104C8000242F30E0F901EB59FA4FDC01AA0FBB1FCA
:104C9000AD5BBD4F5C915183880F991FDC01A95F0B
:104CA000BD4FDD968C91818789A1818BF901EE0F33
:104CB000FF1FEB59FA4F128E118E4F5F409365051F
:104CC0008394770C9FEF491A590AA6E08A1276CF8F
:104CD000F10192920F5FB6E0AB0EB11C0A3009F001
:104CE0005DCF0E947D0BDD24D39443C08CE19AE01C
:104CF000DBCE8091EF07843059F10E94C91781E023
:104D00000E94FF0E0E948C181092630588E190E0CB
:104D1000A0E40FB6F894A895809360000FBEA0930E
:104D2000600083B7817F846083BF83B7816083BF66
:104D30007894889583B78E7F83BF0FB6F894A89533
:104D400080916000886180936000109260000FBEC7
:104D50000E940C22E5EEF7E0819181114BC3B7E090
:104D6000EF3EFB07C9F7F1CE981310CF0E94E9215F
:104D7000D12C8091F10781111EC0809129088111E9
:104D80001AC08090990590909A05A0909B05B090CC
:104D90009C050E94710B681979098A099B09693B76
:104DA0007B408105910538F00E949F0B10E02BCFCE
:104DB00089A311E028CF0E94C9178091E3078115CC
:104DC00009F47FC00091E1071091E2070E94B01939
:104DD000801B910BC29708F454C00E94B0199093A5
:104DE000E2078093E10788ED95E090939F0580931B
:104DF0009E0580912908811509F49DC080918C0839
:104E0000843009F495C0D8F4811501F16AEB71E0A2
:104E10008230F1F01F928F9385ED91E09F938F93F5
:104E20001F9288E18F9380EA95E09F938F930E9471
:104E3000722F0FB6F894DEBF0FBECDBF0DC0883005
:104E400011F08E3039F767EC71E002C061EA71E071
:104E500080EA95E00E946B2F80EA95E00E9471192C
:104E600081E00E9442198EE698E00E94711981E06B
:104E70000E94421987E598E00E94711981E00E9422
:104E800042198091DA079091DB07892B09F058C00D
:104E90008091E0078115A9F00E94710B0091DC0759
:104EA0001091DD072091DE073091DF07601B710B49
:104EB000820B930B6F3F7F4F8F4F9F4710F40E94E1
:104EC0008C18D1100E949E180E94E90A9091E40764
:104ED000891721F08093E4070E94710B8091EF07FE
:104EE000843009F02ECE83E08093E9008091E800C1
:104EF00082FF27CE8091E80090E085FF06C00E94E7
:104F0000240C811509F4EFC091E08091E8008B77C3
:104F10008093E800911509F414CE8981EFEFE80F32
:104F2000E33108F009C1F0E0E554FD4C0C94382F52
:104F30006DEA71E08DCF85E191E00E947119A1CFFA
:104F40008091E307811509F4A3CF8091D9078111DE
:104F50009FCF0E949E182091DA073091DB07211520
:104F6000310509F495CF10E041E050E0812F90E049
:104F70007A01012E02C0EE0CFF1C0A94E2F7B9017F
:104F80006E217F21672B11F41F5FF0CF2091D8078E
:104F900020FF96C0912F990F990F990F37E0390F85
:104FA00080E023E09093570180935A013093580199
:104FB00020935B0124E630E047E050E065E571E0D6
:104FC00088E70E94F92B892B09F062CF30E2139F0A
:104FD000A00111248091D80780FF7EC0E8EBF5E0A6
:104FE00080E2DF011D928A95E9F785E2482E83E091
:104FF000582E01E213E097E0992E88248394F20161
:1050000061912F01D8018D918D01840F952F911DF4
:10501000FC01E852FA4F1F01E62FF0E0E854FA4F86
:1050200020E030E0692C621AC82C022E01C0CC0CA2
:105030000A94EAF7510190E0D5018D915D018C2130
:10504000662D691B677070E0B82F062E01C0BB0F7C
:105050000A94EAF77195619571096770772701C025
:1050600086956A95EAF78B2B6081682B60839F5F3A
:10507000983011F72F5F3F4F31962830310591F668
:10508000E9E24E16E3E05E0609F0B9CF04E610E06F
:1050900020E230E048EB55E060E488E70E94932C82
:1050A000892B09F0F5CEE094F0948091DA07909185
:1050B000DB078E219F219093DB078093DA07E8CEF0
:1050C0009695879596958795282F912F9295990F6C
:1050D00090763FE1390F66CF48525A4F04E610E010
:1050E00020E230E0D9CF00E210E09E012F5F3F4F79
:1050F00079018091E80085FD0AC08091E8008B77F6
:105100008093E8000E94240C811599F3FDCE8091D4
:10511000F100D7018D937D010150104051F7F4CE7D
:105120001A828CE08B831AC08A81833049F138F46B
:10513000813061F08230D9F08FEF89830FC08430E5
:10514000D9F71B821C821D821E8208C00E94710B2F
:105150000E943E2F6B837C838D839E8340E250E0D0
:10516000BE016F5F7F4F82E00E940D10EACC87E2A4
:1051700090E00E9421321B821C821D828E83EECF22
:105180008B8190E0FE0134968A3091053CF7DC017A
:10519000AB51B84F2C9121930196F6CF8A81823082
:1051A00031F0853049F680E00E940A0AD7CF6B8142
:1051B0007C818D819E810E943E2F87E290E00E943B
:1051C0003F32CCCF4C816B818A810E94521198274B
:1051D000892798279E838D83C1CF2D813E813227D9
:1051E000232732274C816B818A810E94B610B6CF6B
:1051F0000E94DD10B3CF9A81933009F09DCF8830A3
:10520000B9F1893009F461C08B81833051F158F4D0
:10521000813091F0823009F0A1CF8C8181111AC0C8
:105220000E94230A9BCF843009F098CF8C8120E024
:105230004091FA076D810AC04C8128E7429F412DB9
:1052400011248091F80720E06091F90790E00E9416
:10525000630A84CF0E94150A60E08C810E942F0AA5
:105260007DCF8C818093FB0780E00E94CA0976CFB6
:105270008B81833039F180F48130C1F0823009F0C4
:105280006DCF8091F707982F937086958695911131
:1052900001C080E08C8362CF843009F05FCF8091C1
:1052A000F8078C838091F9078D8358CF8091FA0796
:1052B000BFEF8B9FC001112468E770E00E94A02E11
:1052C0006C834CCF8091FB07E5CF0E94BE1746CF81
:1052D00080E18A8343CF81E08A8388EF23CFCA802D
:1052E000DB80DC24CD24DC248C817601E80EF11CEB
:1052F0008E010B5F1F4FCE14DF0409F42FCF80E027
:10530000E8EFCE16E1E0DE0628F4C601885F9D4F87
:105310000E942132D8018D938D01BFEFCB1ADB0A99
:10532000EACF0A811B81102701271027FE01319641
:105330006F01EC80EE0EFF2EF11CCE14DF0409F499
:105340000DCF083FF1E01F0740F4D60114966C9191
:10535000C801885F9D4F0E943F320F5F1F4FBFEF14
:10536000CB1ADB0AEACF0E941611F8CE84E0B1CF47
:10537000CA80DB80DC24CD24DC248C817601E80E1D
:10538000F11C8E010B5F1F4FCE14DF0409F4E6CE33
:1053900080E0E0EECE16E1E0DE0620F4C60188965D
:1053A0000E942132D8018D938D01BFEFCB1ADB0A09
:1053B000EBCF0A811B81102701271027FE013196B0
:1053C0006F01EC80EE0EFF2EF11CEC14FD0409F4CD
:1053D000C5CE003EF1E01F0738F4D60114966C915B
:1053E000C80188960E943F320F5F1F4FBFEFCB1A54
:1053F000DB0AEBCF80916405811509F4A6CBE0E1CF
:10540000E9BDF2E1F9BD09B400FEFDCF8091D800FD
:105410008F7D8093D8008091E00082608093E000CF
:105420008091E00081FDFCCF0E947E128ECB7894AB
:105430001F921FB61F9211248F939F93AF93BF9318
:1054400080913F0490914004A0914104B0914204A6
:105450000196A11DB11D80933F0490934004A09339
:105460004104B0934204BF91AF919F918F911F90DF
:105470001FBE1F9018951F920F920FB60F92112406
:105480002F933F934F935F936F937F938F939F934C
:10549000AF93BF93EF93FF938091E10082FF09C028
:1054A0008091E20082FF05C08091E1008B7F8093B4
:1054B000E1008091DA0080FF24C08091D80080FF55
:1054C00020C08091DA008E7F8093DA008091D9002D
:1054D00080FFA9C080E189BD82E189BD09B400FED9
:1054E000FDCF81E08093EF0780912E04811109C0E8
:1054F0000E94550C0E94490F8091E20084608093C5
:10550000E2008091E10080FF1AC08091E20080FFFC
:1055100016C08091E2008E7F8093E2008091E200CD
:1055200080618093E2008091D80080628093D800EF
:1055300019BC85E08093EF0783E080930901809197
:10554000E10084FF2FC08091E20084FF2BC080E146
:1055500089BD82E189BD09B400FEFDCF8091D800EC
:105560008F7D8093D8008091E1008F7E8093E10051
:105570008091E2008F7E8093E2008091E200816062
:105580008093E20080912D04811509F452C084E0DB
:105590008093EF078091EF07843009F052C082E0DA
:1055A000809309018091E10083FF2CC08091E2008B
:1055B00083FF28C08091E100877F8093E10082E033
:1055C0008093EF0710922D048091E1008E7F8093ED
:1055D000E1008091E2008E7F8093E2008091E20002
:1055E00080618093E20042E060E080E00E94190F59
:1055F0008091F00088608093F00081E08093090141
:1056000080930801FF91EF91BF91AF919F918F918E
:105610007F916F915F914F913F912F910F900FBEAE
:105620000F901F90189519BC1092EF0710922E043E
:1056300068CF8091E30087FF02C083E0A9CF81E0BB
:10564000A7CF81E0ADCF1F920F920FB60F9211241A
:10565000EF92FF920F931F932F933F934F935F937C
:105660006F937F938F939F93AF93BF93CF93EF935A
:10567000FF9309EE10E0F8018081C091EC008F707B
:10568000C795CC27C795C82B108280EFE82EF12C48
:10569000F7018081877F808378940E949412F801BB
:1056A0001082F701808188608083CF70F801C08309
:1056B000FF91EF91CF91BF91AF919F918F917F918A
:1056C0006F915F914F913F912F911F910F91FF909B
:1056D000EF900F900FBE0F901F901895FF920F93B1
:1056E0001F93CF93DF93182FEB011092BC0084EA35
:1056F0008093BC000E94B019082FF92E8091BC0045
:1057000087FF28C08091B900887F883029F0809178
:10571000B900887F8031A1F51093BB0084E88093A5
:10572000BC000E94B019182F092F8091BC0087FF80
:105730001FC02091B900287F80E090E0283199F0C7
:1057400081E090E0203411F480E090E09195819523
:10575000910909C0802F9F2D0E94BC19C817D90735
:1057600068F68EEF9FEFCDB7DEB7E5E00C94DD2E47
:10577000812F902F0E94BC19C817D907B0F6F1CF1E
:105780008FEF9FEFF0CF1092B9008CE08093B800BC
:1057900008950F931F93CF93DF93EB018093BB008A
:1057A00084E88093BC000E94B019182F092F8091C3
:1057B000BC0087FF11C02091B900287F81E090E0F4
:1057C000283211F480E090E0919581959109DF9164
:1057D000CF911F910F910895CF3FDC0741F3812FA7
:1057E000902F0E94BC19C817D90708F78EEF9FEFBA
:1057F000EECFA0E0B0E0EFEFFBE20C94B92E782EF4
:10580000B62EA72E6A01E9010E94B0194C01C431DD
:10581000D10528F1CF3FDC0731F1CE0164E170E022
:105820000E94A02EF62EE72E6F2D7E2D872D0E9432
:105830006E2B8C01892BD1F4EB2CFA2CCE0CDF1CB7
:10584000EC14FD0419F001151105D1F084E98093E1
:10585000BC00C801CDB7DEB7EDE00C94D52EFF2417
:10586000F394E12CE1CF85E0F82EFBCFCF3FDC07AE
:10587000D9F2C4010E94BC19C817D907A8F6DCCF19
:10588000BE01F70181917F010E94C92B8C01D8CF05
:10589000A0E0B0E0EEE4FCE20C94B92E782EB62E37
:1058A000A72E6A0189010E94B0194C01043111052B
:1058B00018F10F3F100719F1C80164E170E00E9470
:1058C000A02EEB01BE01872D0E946E2B7C01892B3F
:1058D000C1F4CB2DDA2DCC0EDD1ECC15DD0519F073
:1058E000E114F104C1F084E98093BC00C701CDB795
:1058F000DEB7EDE00C94D52EC1E0D0E0E3CFC5E0FB
:10590000FCCF0F3F1007F1F2C4010E94BC19081729
:105910001907C0F6DECFFE018491B8010E94C92BA1
:105920007C012196DACFA0E0B0E0E9E9FCE20C943A
:10593000B82E682E962E5A01690178010E94B0197E
:10594000782E892E0431110530F10F3F100731F107
:10595000C80164E170E00E94A02E162F072F612F6E
:10596000702F862D0E946E2BEC01892BC9F0FFEF62
:10597000EF16FF06A1F3872D982D0E94BC19E8169B
:10598000F90668F784E98093BC00CE01CDB7DEB795
:10599000EEE00C94D42E11E000E0E1CF15E0FCCF56
:1059A000B701892D0E94C92BEC018501CA0CDB1CB3
:1059B0000C151D0539F3209729F7B701F8018191DE
:1059C0008F010E94C92BEC01F3CF8EE14A9B02C0EC
:1059D0008A95E1F74A9BFECF08955A9880E28A950E
:1059E000F1F75A9A0895FC013BE03A95F1F798E0F7
:1059F00020E080E031E040E14A95F1F7880F4A9BD2
:105A000002C08160232742E04A95F1F7000040E19F
:105A10004A95F1F79A9579F790E19A95F1F799B14E
:105A200032E03A95F1F7000040E14A95F1F792FB38
:105A3000992790F992272081920F90830895A1E0F1
:105A4000B0E0E5E2FDE20C94C02E19828C017C01ED
:105A5000E60EF11C0E94E52CCE0101960E94F32C6B
:105A6000F80181938F01EE15FF05A1F781E099817F
:105A7000911180E02196E6E00C94DC2E529A5A9A1D
:105A8000089552985A9AEA9AE9E6F0E080818F7C6C
:105A9000808308956150770B91E001C0990F6A955A
:105AA000EAF7692F90E021E0611108C0911599F0A3
:105AB0005A9A80E28A95F1F75A980895362F38233A
:105AC000311539F05A9A922730E23A95F1F76695F6
:105AD000EBCF5A98F9CF5A98ECCFFF920F931F93C0
